{
  "transactions": [
    {
      "hash": "0x81186e9e741c5bc71322abcb13cc9f881e3dc2f5ce052825ee104d4a77caaf8e",
      "transactionType": "CALL",
      "contractName": null,
      "contractAddress": "0x1f778133699879894d2a857a9e62702749b1bdf6",
      "function": "registerRailPlugin(address)",
      "arguments": [
        "0x7149aCBd684d2ad384519A0Bc81e0e7BE39cf148"
      ],
      "transaction": {
        "from": "0x05f8cc8753d90d67dbb8c02118440b8283f941c9",
        "to": "0x1f778133699879894d2a857a9e62702749b1bdf6",
        "gas": "0x2b25b",
        "value": "0x0",
        "input": "0x172ceb340000000000000000000000007149acbd684d2ad384519a0bc81e0e7be39cf148",
        "nonce": "0x16d",
        "chainId": "0x14a34"
      },
      "additionalContracts": [],
      "isFixedGasLimit": false
    },
    {
      "hash": "0x3973c57d399856d14e973413399af6d8e8be75bf82dbb6ee72872cf34030d0a8",
      "transactionType": "CALL",
      "contractName": null,
      "contractAddress": "0x1f778133699879894d2a857a9e62702749b1bdf6",
      "function": "registerRailPlugin(address)",
      "arguments": [
        "0xb78dA66c5308D84b60dA5A869332cc4e0f4D3995"
      ],
      "transaction": {
        "from": "0x05f8cc8753d90d67dbb8c02118440b8283f941c9",
        "to": "0x1f778133699879894d2a857a9e62702749b1bdf6",
        "gas": "0x22ef6",
        "value": "0x0",
        "input": "0x172ceb34000000000000000000000000b78da66c5308d84b60da5a869332cc4e0f4d3995",
        "nonce": "0x16e",
        "chainId": "0x14a34"
      },
      "additionalContracts": [],
      "isFixedGasLimit": false
    },
    {
      "hash": "0x8d54acd97947799f3f1edba73b781597dcb59da099455e073eff441b3bca1c28",
      "transactionType": "CALL",
      "contractName": null,
      "contractAddress": "0x9e01c29643f5ea0a8fa6056494c3b6d4bba48247",
      "function": "addApprovedCaller(address)",
      "arguments": [
        "0x9e17C1C709c4C0761ef930A1362746801A3e7081"
      ],
      "transaction": {
        "from": "0x05f8cc8753d90d67dbb8c02118440b8283f941c9",
        "to": "0x9e01c29643f5ea0a8fa6056494c3b6d4bba48247",
        "gas": "0x107f3",
        "value": "0x0",
        "input": "0xab5cb85a0000000000000000000000009e17c1c709c4c0761ef930a1362746801a3e7081",
        "nonce": "0x16f",
        "chainId": "0x14a34"
      },
      "additionalContracts": [],
      "isFixedGasLimit": false
    },
    {
      "hash": "0x66aec7f7eb2199a390ccc78004564246a990ae69db4e20efad06e49ea4b35ea6",
      "transactionType": "CALL",
      "contractName": null,
      "contractAddress": "0x7149acbd684d2ad384519a0bc81e0e7be39cf148",
      "function": "setChainDomain(uint32,uint32)",
      "arguments": [
        "421614",
        "3"
      ],
      "transaction": {
        "from": "0x05f8cc8753d90d67dbb8c02118440b8283f941c9",
        "to": "0x7149acbd684d2ad384519a0bc81e0e7be39cf148",
        "gas": "0x10820",
        "value": "0x0",
        "input": "0x7ef0d2870000000000000000000000000000000000000000000000000000000000066eee0000000000000000000000000000000000000000000000000000000000000003",
        "nonce": "0x170",
        "chainId": "0x14a34"
      },
      "additionalContracts": [],
      "isFixedGasLimit": false
    },
    {
      "hash": "0xf4508491eadeee5c0340359af4d44156f0d1798cd59df220e15c733c688f3ece",
      "transactionType": "CALL",
      "contractName": null,
      "contractAddress": "0x7149acbd684d2ad384519a0bc81e0e7be39cf148",
      "function": "setDestinationReceiver(uint32,bytes32)",
      "arguments": [
        "421614",
        "0x000000000000000000000000e92d374a55655f4b8447e3a6eaca87bbc09dd8d7"
      ],
      "transaction": {
        "from": "0x05f8cc8753d90d67dbb8c02118440b8283f941c9",
        "to": "0x7149acbd684d2ad384519a0bc81e0e7be39cf148",
        "gas": "0xf9eb",
        "value": "0x0",
        "input": "0x0267dd6c0000000000000000000000000000000000000000000000000000000000066eee000000000000000000000000e92d374a55655f4b8447e3a6eaca87bbc09dd8d7",
        "nonce": "0x171",
        "chainId": "0x14a34"
      },
      "additionalContracts": [],
      "isFixedGasLimit": false
    },
    {
      "hash": "0xa06fe5b3499ef94b547d940b7973faee2ec413da97372dc1a975b0cfc7954e0f",
      "transactionType": "CALL",
      "contractName": null,
      "contractAddress": "0xb78da66c5308d84b60da5a869332cc4e0f4d3995",
      "function": "setRouteConfig(uint32,string,address,bytes32)",
      "arguments": [
        "421614",
        "arbitrum-sepolia",
        "0xe92d374a55655F4b8447e3A6eacA87bBc09Dd8D7",
        "0x8351ce1d9b08b0ec2add9de7e893e4a216235576cd4074bbacb0b9fb9b8f68c6"
      ],
      "transaction": {
        "from": "0x05f8cc8753d90d67dbb8c02118440b8283f941c9",
        "to": "0xb78da66c5308d84b60da5a869332cc4e0f4d3995",
        "gas": "0x1f338",
        "value": "0x0",
        "input": "0x7513a82a0000000000000000000000000000000000000000000000000000000000066eee0000000000000000000000000000000000000000000000000000000000000080000000000000000000000000e92d374a55655f4b8447e3a6eaca87bbc09dd8d78351ce1d9b08b0ec2add9de7e893e4a216235576cd4074bbacb0b9fb9b8f68c60000000000000000000000000000000000000000000000000000000000000010617262697472756d2d7365706f6c696100000000000000000000000000000000",
        "nonce": "0x172",
        "chainId": "0x14a34"
      },
      "additionalContracts": [],
      "isFixedGasLimit": false
    },
    {
      "hash": "0xf3216afbc7d6e9fa60d47abfc8c4f6afc9e7f73d1d064d30c04ead4677179a8d",
      "transactionType": "CALL",
      "contractName": null,
      "contractAddress": "0x9e17c1c709c4c0761ef930a1362746801a3e7081",
      "function": "setTrustedSource(string,string,bool)",
      "arguments": [
        "arbitrum-sepolia",
        "0x9a64e7a18f5a9edce3a3728b2c12643fa0cee26b",
        "true"
      ],
      "transaction": {
        "from": "0x05f8cc8753d90d67dbb8c02118440b8283f941c9",
        "to": "0x9e17c1c709c4c0761ef930a1362746801a3e7081",
        "gas": "0x12713",
        "value": "0x0",
        "input": "0xc5f229d0000000000000000000000000000000000000000000000000000000000000006000000000000000000000000000000000000000000000000000000000000000a000000000000000000000000000000000000000000000000000000000000000010000000000000000000000000000000000000000000000000000000000000010617262697472756d2d7365706f6c696100000000000000000000000000000000000000000000000000000000000000000000000000000000000000000000002a30783961363465376131386635613965646365336133373238623263313236343366613063656532366200000000000000000000000000000000000000000000",
        "nonce": "0x173",
        "chainId": "0x14a34"
      },
      "additionalContracts": [],
      "isFixedGasLimit": false
    }
  ],
  "receipts": [
    {
      "status": "0x1",
      "cumulativeGasUsed": "0x4ae182",
      "logs": [
        {
          "address": "0x1f778133699879894d2a857a9e62702749b1bdf6",
          "topics": [
            "0xa86330cede453edbe00d0dbe74ee3bdbac6d7b048009b0d72d54aa609df01a71",
            "0xb148ea5f936a28661e11743b1650193f1b14a2322b9541503bf6815a84a1a6e9"
          ],
          "data": "0x0000000000000000000000007149acbd684d2ad384519a0bc81e0e7be39cf1480000000000000000000000000000000000000000000000000000000000000000",
          "blockHash": "0x0000000000000000000000000000000000000000000000000000000000000000",
          "blockNumber": "0x2656e4f",
          "blockTimestamp": "0x69de3b7e",
          "transactionHash": "0x81186e9e741c5bc71322abcb13cc9f881e3dc2f5ce052825ee104d4a77caaf8e",
          "transactionIndex": "0x6",
          "logIndex": "0x16",
          "removed": false
        }
      ],
      "logsBloom": "0x00000400000000002200000000000000000000000000000000000000000000000000000000000000000000000000000000000000000000000000000000000000000000000000000000000000000000000000000020000000000000080000000000000000000000000000000020000000000000000000000000000000000000000000000000000000000000000000000000000000000000000000000000000000000000000000000000000000004000000000000000000000000000000000000000000000000000000000000000200000000000400000000000000000000000000000000000000000000000000000000000000000000000000000000000000000",
      "type": "0x2",
      "transactionHash": "0x81186e9e741c5bc71322abcb13cc9f881e3dc2f5ce052825ee104d4a77caaf8e",
      "transactionIndex": "0x6",
      "blockHash": "0x0000000000000000000000000000000000000000000000000000000000000000",
      "blockNumber": "0x2656e4f",
      "gasUsed": "0x1d80a",
      "effectiveGasPrice": "0x5b8d80",
      "blobGasUsed": "0x39d0",
      "from": "0x05f8cc8753d90d67dbb8c02118440b8283f941c9",
      "to": "0x1f778133699879894d2a857a9e62702749b1bdf6",
      "contractAddress": null,
      "daFootprintGasScalar": "0x94",
      "l1BaseFeeScalar": "0x44d",
      "l1BlobBaseFee": "0x2788f18",
      "l1BlobBaseFeeScalar": "0xa118b",
      "l1Fee": "0xf0d79088",
      "l1GasPrice": "0x2c29afe4",
      "l1GasUsed": "0x640"
    },
    {
      "status": "0x1",
      "cumulativeGasUsed": "0x4c7631",
      "logs": [
        {
          "address": "0x1f778133699879894d2a857a9e62702749b1bdf6",
          "topics": [
            "0xa86330cede453edbe00d0dbe74ee3bdbac6d7b048009b0d72d54aa609df01a71",
            "0xdee0b34b74b60e53553685c32477090103c2b806eb925a8cd000efa92bef3e8b"
          ],
          "data": "0x000000000000000000000000b78da66c5308d84b60da5a869332cc4e0f4d39950000000000000000000000000000000000000000000000000000000000000000",
          "blockHash": "0x0000000000000000000000000000000000000000000000000000000000000000",
          "blockNumber": "0x2656e4f",
          "blockTimestamp": "0x69de3b7e",
          "transactionHash": "0xf4508491eadeee5c0340359af4d44156f0d1798cd59df220e15c733c688f3ece",
          "transactionIndex": "0x7",
          "logIndex": "0x17",
          "removed": false
        }
      ],
      "logsBloom": "0x00000000000000002200000000000000000000000000000000000000000000000000000000000000000000000000000000000000000000000000000000000000000000000000000000000000000000000000000000000040000000080000000000000000000000000000000000000000000000000000000000000000000000000000000000000004000000000000000000000000000000000000000000000000000000000000000000000000004000000000000000000000000000000000000000000000000000000000000000200000000000400000000000000000000000000000000000000000000000000000100000000000000000000000000000000000",
      "type": "0x2",
      "transactionHash": "0xf4508491eadeee5c0340359af4d44156f0d1798cd59df220e15c733c688f3ece",
      "transactionIndex": "0x7",
      "blockHash": "0x0000000000000000000000000000000000000000000000000000000000000000",
      "blockNumber": "0x2656e4f",
      "gasUsed": "0x194af",
      "effectiveGasPrice": "0x5b8d80",
      "blobGasUsed": "0x39d0",
      "from": "0x05f8cc8753d90d67dbb8c02118440b8283f941c9",
      "to": "0x1f778133699879894d2a857a9e62702749b1bdf6",
      "contractAddress": null,
      "daFootprintGasScalar": "0x94",
      "l1BaseFeeScalar": "0x44d",
      "l1BlobBaseFee": "0x2788f18",
      "l1BlobBaseFeeScalar": "0xa118b",
      "l1Fee": "0xf0d79088",
      "l1GasPrice": "0x2c29afe4",
      "l1GasUsed": "0x640"
    },
    {
      "status": "0x1",
      "cumulativeGasUsed": "0x4e0a5b",
      "logs": [],
      "logsBloom": "0x00000000000000000000000000000000000000000000000000000000000000000000000000000000000000000000000000000000000000000000000000000000000000000000000000000000000000000000000000000000000000000000000000000000000000000000000000000000000000000000000000000000000000000000000000000000000000000000000000000000000000000000000000000000000000000000000000000000000000000000000000000000000000000000000000000000000000000000000000000000000000000000000000000000000000000000000000000000000000000000000000000000000000000000000000000000",
      "type": "0x2",
      "transactionHash": "0xf3216afbc7d6e9fa60d47abfc8c4f6afc9e7f73d1d064d30c04ead4677179a8d",
      "transactionIndex": "0x9",
      "blockHash": "0x0000000000000000000000000000000000000000000000000000000000000000",
      "blockNumber": "0x2656e4f",
      "gasUsed": "0xb47b",
      "effectiveGasPrice": "0x5b8d80",
      "blobGasUsed": "0x39d0",
      "from": "0x05f8cc8753d90d67dbb8c02118440b8283f941c9",
      "to": "0x9e01c29643f5ea0a8fa6056494c3b6d4bba48247",
      "contractAddress": null,
      "daFootprintGasScalar": "0x94",
      "l1BaseFeeScalar": "0x44d",
      "l1BlobBaseFee": "0x2788f18",
      "l1BlobBaseFeeScalar": "0xa118b",
      "l1Fee": "0xf0d79088",
      "l1GasPrice": "0x2c29afe4",
      "l1GasUsed": "0x640"
    },
    {
      "status": "0x1",
      "cumulativeGasUsed": "0x4ebef5",
      "logs": [],
      "logsBloom": "0x00000000000000000000000000000000000000000000000000000000000000000000000000000000000000000000000000000000000000000000000000000000000000000000000000000000000000000000000000000000000000000000000000000000000000000000000000000000000000000000000000000000000000000000000000000000000000000000000000000000000000000000000000000000000000000000000000000000000000000000000000000000000000000000000000000000000000000000000000000000000000000000000000000000000000000000000000000000000000000000000000000000000000000000000000000000",
      "type": "0x2",
      "transactionHash": "0x8d54acd97947799f3f1edba73b781597dcb59da099455e073eff441b3bca1c28",
      "transactionIndex": "0xa",
      "blockHash": "0x0000000000000000000000000000000000000000000000000000000000000000",
      "blockNumber": "0x2656e4f",
      "gasUsed": "0xb49a",
      "effectiveGasPrice": "0x5b8d80",
      "blobGasUsed": "0x39d0",
      "from": "0x05f8cc8753d90d67dbb8c02118440b8283f941c9",
      "to": "0x7149acbd684d2ad384519a0bc81e0e7be39cf148",
      "contractAddress": null,
      "daFootprintGasScalar": "0x94",
      "l1BaseFeeScalar": "0x44d",
      "l1BlobBaseFee": "0x2788f18",
      "l1BlobBaseFeeScalar": "0xa118b",
      "l1Fee": "0xf0d79088",
      "l1GasPrice": "0x2c29afe4",
      "l1GasUsed": "0x640"
    },
    {
      "status": "0x1",
      "cumulativeGasUsed": "0x4f73e5",
      "logs": [],
      "logsBloom": "0x00000000000000000000000000000000000000000000000000000000000000000000000000000000000000000000000000000000000000000000000000000000000000000000000000000000000000000000000000000000000000000000000000000000000000000000000000000000000000000000000000000000000000000000000000000000000000000000000000000000000000000000000000000000000000000000000000000000000000000000000000000000000000000000000000000000000000000000000000000000000000000000000000000000000000000000000000000000000000000000000000000000000000000000000000000000",
      "type": "0x2",
      "transactionHash": "0x3973c57d399856d14e973413399af6d8e8be75bf82dbb6ee72872cf34030d0a8",
      "transactionIndex": "0xb",
      "blockHash": "0x0000000000000000000000000000000000000000000000000000000000000000",
      "blockNumber": "0x2656e4f",
      "gasUsed": "0xb4f0",
      "effectiveGasPrice": "0x5b8d80",
      "blobGasUsed": "0x39d0",
      "from": "0x05f8cc8753d90d67dbb8c02118440b8283f941c9",
      "to": "0x7149acbd684d2ad384519a0bc81e0e7be39cf148",
      "contractAddress": null,
      "daFootprintGasScalar": "0x94",
      "l1BaseFeeScalar": "0x44d",
      "l1BlobBaseFee": "0x2788f18",
      "l1BlobBaseFeeScalar": "0xa118b",
      "l1Fee": "0xf0d79088",
      "l1GasPrice": "0x2c29afe4",
      "l1GasUsed": "0x640"
    },
    {
      "status": "0x1",
      "cumulativeGasUsed": "0x50dd53",
      "logs": [],
      "logsBloom": "0x00000000000000000000000000000000000000000000000000000000000000000000000000000000000000000000000000000000000000000000000000000000000000000000000000000000000000000000000000000000000000000000000000000000000000000000000000000000000000000000000000000000000000000000000000000000000000000000000000000000000000000000000000000000000000000000000000000000000000000000000000000000000000000000000000000000000000000000000000000000000000000000000000000000000000000000000000000000000000000000000000000000000000000000000000000000",
      "type": "0x2",
      "transactionHash": "0x66aec7f7eb2199a390ccc78004564246a990ae69db4e20efad06e49ea4b35ea6",
      "transactionIndex": "0xc",
      "blockHash": "0x0000000000000000000000000000000000000000000000000000000000000000",
      "blockNumber": "0x2656e4f",
      "gasUsed": "0x1696e",
      "effectiveGasPrice": "0x5b8d80",
      "blobGasUsed": "0x53d4",
      "from": "0x05f8cc8753d90d67dbb8c02118440b8283f941c9",
      "to": "0xb78da66c5308d84b60da5a869332cc4e0f4d3995",
      "contractAddress": null,
      "daFootprintGasScalar": "0x94",
      "l1BaseFeeScalar": "0x44d",
      "l1BlobBaseFee": "0x2788f18",
      "l1BlobBaseFeeScalar": "0xa118b",
      "l1Fee": "0xf0d79088",
      "l1GasPrice": "0x2c29afe4",
      "l1GasUsed": "0x91a"
    },
    {
      "status": "0x1",
      "cumulativeGasUsed": "0x51a716",
      "logs": [
        {
          "address": "0x9e17c1c709c4c0761ef930a1362746801a3e7081",
          "topics": [
            "0xc4be60cee9fada79d250ef87fe6761acee8c4f919f811b4095a42b9553da7d71"
          ],
          "data": "0x000000000000000000000000000000000000000000000000000000000000006000000000000000000000000000000000000000000000000000000000000000a000000000000000000000000000000000000000000000000000000000000000010000000000000000000000000000000000000000000000000000000000000010617262697472756d2d7365706f6c696100000000000000000000000000000000000000000000000000000000000000000000000000000000000000000000002a30783961363465376131386635613965646365336133373238623263313236343366613063656532366200000000000000000000000000000000000000000000",
          "blockHash": "0x0000000000000000000000000000000000000000000000000000000000000000",
          "blockNumber": "0x2656e4f",
          "blockTimestamp": "0x69de3b7e",
          "transactionHash": "0xa06fe5b3499ef94b547d940b7973faee2ec413da97372dc1a975b0cfc7954e0f",
          "transactionIndex": "0xd",
          "logIndex": "0x19",
          "removed": false
        }
      ],
      "logsBloom": "0x00000000000000000000000000000000000040000080000000020000000000000000000000000004000000000000000000000000000000000100000000000000000000000000000000000000000000000020000000000000000000000000000000000000000000000000000000000000000000000000000000000000000000000000000000000000000000000000000000000000000000000000000000000000000000000000000000000000000000000000000000000000000000000000000000000000000000000000000000000000000000000000000000000000000000000000000000000000000000000000000000000000000000000000000000000000",
      "type": "0x2",
      "transactionHash": "0xa06fe5b3499ef94b547d940b7973faee2ec413da97372dc1a975b0cfc7954e0f",
      "transactionIndex": "0xd",
      "blockHash": "0x0000000000000000000000000000000000000000000000000000000000000000",
      "blockNumber": "0x2656e4f",
      "gasUsed": "0xc9c3",
      "effectiveGasPrice": "0x5b8d80",
      "blobGasUsed": "0x5184",
      "from": "0x05f8cc8753d90d67dbb8c02118440b8283f941c9",
      "to": "0x9e17c1c709c4c0761ef930a1362746801a3e7081",
      "contractAddress": null,
      "daFootprintGasScalar": "0x94",
      "l1BaseFeeScalar": "0x44d",
      "l1BlobBaseFee": "0x2788f18",
      "l1BlobBaseFeeScalar": "0xa118b",
      "l1Fee": "0xf0d79088",
      "l1GasPrice": "0x2c29afe4",
      "l1GasUsed": "0x8d7"
    }
  ],
  "libraries": [],
  "pending": [],
  "returns": {},
  "timestamp": 1776171901812,
  "chain": 84532,
  "commit": "b3b4aa7"
}