{
  "transactions": [
    {
      "hash": "0x39969ba6c32f604822fc9e1a0cbadadb23027d6dde1b6e493a4c2c95b14ffef3",
      "transactionType": "CALL",
      "contractName": null,
      "contractAddress": "0x349399d5fee68a8d2779cdcfac955142ea7f1823",
      "function": "registerRailPlugin(address)",
      "arguments": [
        "0x86077000248CE1CEBEd08D2ABa40Ec3Aa8B8fbB9"
      ],
      "transaction": {
        "from": "0x05f8cc8753d90d67dbb8c02118440b8283f941c9",
        "to": "0x349399d5fee68a8d2779cdcfac955142ea7f1823",
        "gas": "0x28bef",
        "value": "0x0",
        "input": "0x172ceb3400000000000000000000000086077000248ce1cebed08d2aba40ec3aa8b8fbb9",
        "nonce": "0x158",
        "chainId": "0x14a34"
      },
      "additionalContracts": [],
      "isFixedGasLimit": false
    },
    {
      "hash": "0x69993259f6de17b38274144f87c0997dcbbf894c042d36472ba09bbe8f7bc7a8",
      "transactionType": "CALL",
      "contractName": null,
      "contractAddress": "0x349399d5fee68a8d2779cdcfac955142ea7f1823",
      "function": "registerRailPlugin(address)",
      "arguments": [
        "0xCC89D8bEdfb39170fA74bcf1D28C9e399b82CCb2"
      ],
      "transaction": {
        "from": "0x05f8cc8753d90d67dbb8c02118440b8283f941c9",
        "to": "0x349399d5fee68a8d2779cdcfac955142ea7f1823",
        "gas": "0x22ef6",
        "value": "0x0",
        "input": "0x172ceb34000000000000000000000000cc89d8bedfb39170fa74bcf1d28c9e399b82ccb2",
        "nonce": "0x159",
        "chainId": "0x14a34"
      },
      "additionalContracts": [],
      "isFixedGasLimit": false
    },
    {
      "hash": "0x2edf9f2fad6cbd404d84f1df9fc45b38e8eb440bc41d4e900b6f4f011d7c7803",
      "transactionType": "CALL",
      "contractName": null,
      "contractAddress": "0xf87b70151ccb80fdd2c2d6bb9dc8a1055e34106b",
      "function": "addApprovedCaller(address)",
      "arguments": [
        "0xa311bcAaa3FEd89B62453DD516f90a37E997F066"
      ],
      "transaction": {
        "from": "0x05f8cc8753d90d67dbb8c02118440b8283f941c9",
        "to": "0xf87b70151ccb80fdd2c2d6bb9dc8a1055e34106b",
        "gas": "0x107f3",
        "value": "0x0",
        "input": "0xab5cb85a000000000000000000000000a311bcaaa3fed89b62453dd516f90a37e997f066",
        "nonce": "0x15a",
        "chainId": "0x14a34"
      },
      "additionalContracts": [],
      "isFixedGasLimit": false
    },
    {
      "hash": "0x25e259a015f5d072b98a6ec16fb2635259f10ff51ff02022667b4201533f8248",
      "transactionType": "CALL",
      "contractName": null,
      "contractAddress": "0x86077000248ce1cebed08d2aba40ec3aa8b8fbb9",
      "function": "setChainDomain(uint32,uint32)",
      "arguments": [
        "421614",
        "3"
      ],
      "transaction": {
        "from": "0x05f8cc8753d90d67dbb8c02118440b8283f941c9",
        "to": "0x86077000248ce1cebed08d2aba40ec3aa8b8fbb9",
        "gas": "0x10820",
        "value": "0x0",
        "input": "0x7ef0d2870000000000000000000000000000000000000000000000000000000000066eee0000000000000000000000000000000000000000000000000000000000000003",
        "nonce": "0x15b",
        "chainId": "0x14a34"
      },
      "additionalContracts": [],
      "isFixedGasLimit": false
    },
    {
      "hash": "0x3123fa677eebc31afe409336359299892878d559ef900d0522c842e86af82463",
      "transactionType": "CALL",
      "contractName": null,
      "contractAddress": "0x86077000248ce1cebed08d2aba40ec3aa8b8fbb9",
      "function": "setDestinationReceiver(uint32,bytes32)",
      "arguments": [
        "421614",
        "0x0000000000000000000000001b7eb489eb0ae102720442fe15b0e08653a13404"
      ],
      "transaction": {
        "from": "0x05f8cc8753d90d67dbb8c02118440b8283f941c9",
        "to": "0x86077000248ce1cebed08d2aba40ec3aa8b8fbb9",
        "gas": "0xf9eb",
        "value": "0x0",
        "input": "0x0267dd6c0000000000000000000000000000000000000000000000000000000000066eee0000000000000000000000001b7eb489eb0ae102720442fe15b0e08653a13404",
        "nonce": "0x15c",
        "chainId": "0x14a34"
      },
      "additionalContracts": [],
      "isFixedGasLimit": false
    },
    {
      "hash": "0xf3e7df8bcce2e288108148073c803632b0642d124be045c12978ef92c338cd02",
      "transactionType": "CALL",
      "contractName": null,
      "contractAddress": "0xcc89d8bedfb39170fa74bcf1d28c9e399b82ccb2",
      "function": "setRouteConfig(uint32,string,address,bytes32)",
      "arguments": [
        "421614",
        "arbitrum-sepolia",
        "0x1b7Eb489EB0AE102720442Fe15b0e08653A13404",
        "0x8351ce1d9b08b0ec2add9de7e893e4a216235576cd4074bbacb0b9fb9b8f68c6"
      ],
      "transaction": {
        "from": "0x05f8cc8753d90d67dbb8c02118440b8283f941c9",
        "to": "0xcc89d8bedfb39170fa74bcf1d28c9e399b82ccb2",
        "gas": "0x1f338",
        "value": "0x0",
        "input": "0x7513a82a0000000000000000000000000000000000000000000000000000000000066eee00000000000000000000000000000000000000000000000000000000000000800000000000000000000000001b7eb489eb0ae102720442fe15b0e08653a134048351ce1d9b08b0ec2add9de7e893e4a216235576cd4074bbacb0b9fb9b8f68c60000000000000000000000000000000000000000000000000000000000000010617262697472756d2d7365706f6c696100000000000000000000000000000000",
        "nonce": "0x15d",
        "chainId": "0x14a34"
      },
      "additionalContracts": [],
      "isFixedGasLimit": false
    }
  ],
  "receipts": [
    {
      "status": "0x1",
      "cumulativeGasUsed": "0x2105b1",
      "logs": [
        {
          "address": "0x349399d5fee68a8d2779cdcfac955142ea7f1823",
          "topics": [
            "0xa86330cede453edbe00d0dbe74ee3bdbac6d7b048009b0d72d54aa609df01a71",
            "0xb148ea5f936a28661e11743b1650193f1b14a2322b9541503bf6815a84a1a6e9"
          ],
          "data": "0x00000000000000000000000086077000248ce1cebed08d2aba40ec3aa8b8fbb90000000000000000000000000000000000000000000000000000000000000000",
          "blockHash": "0x0000000000000000000000000000000000000000000000000000000000000000",
          "blockNumber": "0x264eac6",
          "blockTimestamp": "0x69dd346c",
          "transactionHash": "0x39969ba6c32f604822fc9e1a0cbadadb23027d6dde1b6e493a4c2c95b14ffef3",
          "transactionIndex": "0xb",
          "logIndex": "0x40",
          "removed": false
        }
      ],
      "logsBloom": "0x00000400000000002000000000000000000000000000000000000000000000000000000000000000000000000000000000000000000000000000000000000000000000000200000000000000000000000000000020000000000000000000000000000000000000000000000020000000000000000000000000000000000000000000000000000000000000000000000000000000000000000000000008000000000000000000000000000000000000000000000000000000000000000000000000000000000000000000000000200000000000400000020000000000000000000000000000000000000000000000000000000000000000000000000000000000",
      "type": "0x2",
      "transactionHash": "0x39969ba6c32f604822fc9e1a0cbadadb23027d6dde1b6e493a4c2c95b14ffef3",
      "transactionIndex": "0xb",
      "blockHash": "0x0000000000000000000000000000000000000000000000000000000000000000",
      "blockNumber": "0x264eac6",
      "gasUsed": "0x1d7fe",
      "effectiveGasPrice": "0x5b8d80",
      "blobGasUsed": "0x39d0",
      "from": "0x05f8cc8753d90d67dbb8c02118440b8283f941c9",
      "to": "0x349399d5fee68a8d2779cdcfac955142ea7f1823",
      "contractAddress": null,
      "daFootprintGasScalar": "0x94",
      "l1BaseFeeScalar": "0x44d",
      "l1BlobBaseFee": "0x320b2",
      "l1BlobBaseFeeScalar": "0xa118b",
      "l1Fee": "0x128fdee",
      "l1GasPrice": "0x336f8f",
      "l1GasUsed": "0x640"
    },
    {
      "status": "0x1",
      "cumulativeGasUsed": "0x229a60",
      "logs": [
        {
          "address": "0x349399d5fee68a8d2779cdcfac955142ea7f1823",
          "topics": [
            "0xa86330cede453edbe00d0dbe74ee3bdbac6d7b048009b0d72d54aa609df01a71",
            "0xdee0b34b74b60e53553685c32477090103c2b806eb925a8cd000efa92bef3e8b"
          ],
          "data": "0x000000000000000000000000cc89d8bedfb39170fa74bcf1d28c9e399b82ccb20000000000000000000000000000000000000000000000000000000000000000",
          "blockHash": "0x0000000000000000000000000000000000000000000000000000000000000000",
          "blockNumber": "0x264eac6",
          "blockTimestamp": "0x69dd346c",
          "transactionHash": "0x25e259a015f5d072b98a6ec16fb2635259f10ff51ff02022667b4201533f8248",
          "transactionIndex": "0xc",
          "logIndex": "0x41",
          "removed": false
        }
      ],
      "logsBloom": "0x00000000000000002000000000000000000000000000000000000000000000000000000000000000000000000000000000000000000000000000000000000000000000000200000000000000000000000000000000000040000000000000000000000000000000000000000000000000000000000000000000000000000000000000000000000004000000000000000000000000000000000000000008000000000000000000000000000000000000000000000000000000000000000000000000000000000000000000000000200000000000400000020000000000000000000000000000000000000000000000100000000000000000000000000000000000",
      "type": "0x2",
      "transactionHash": "0x25e259a015f5d072b98a6ec16fb2635259f10ff51ff02022667b4201533f8248",
      "transactionIndex": "0xc",
      "blockHash": "0x0000000000000000000000000000000000000000000000000000000000000000",
      "blockNumber": "0x264eac6",
      "gasUsed": "0x194af",
      "effectiveGasPrice": "0x5b8d80",
      "blobGasUsed": "0x39d0",
      "from": "0x05f8cc8753d90d67dbb8c02118440b8283f941c9",
      "to": "0x349399d5fee68a8d2779cdcfac955142ea7f1823",
      "contractAddress": null,
      "daFootprintGasScalar": "0x94",
      "l1BaseFeeScalar": "0x44d",
      "l1BlobBaseFee": "0x320b2",
      "l1BlobBaseFeeScalar": "0xa118b",
      "l1Fee": "0x128fdee",
      "l1GasPrice": "0x336f8f",
      "l1GasUsed": "0x640"
    },
    {
      "status": "0x1",
      "cumulativeGasUsed": "0x368047",
      "logs": [],
      "logsBloom": "0x00000000000000000000000000000000000000000000000000000000000000000000000000000000000000000000000000000000000000000000000000000000000000000000000000000000000000000000000000000000000000000000000000000000000000000000000000000000000000000000000000000000000000000000000000000000000000000000000000000000000000000000000000000000000000000000000000000000000000000000000000000000000000000000000000000000000000000000000000000000000000000000000000000000000000000000000000000000000000000000000000000000000000000000000000000000",
      "type": "0x2",
      "transactionHash": "0x3123fa677eebc31afe409336359299892878d559ef900d0522c842e86af82463",
      "transactionIndex": "0x15",
      "blockHash": "0x0000000000000000000000000000000000000000000000000000000000000000",
      "blockNumber": "0x264eac6",
      "gasUsed": "0xb47b",
      "effectiveGasPrice": "0x5b8d80",
      "blobGasUsed": "0x39d0",
      "from": "0x05f8cc8753d90d67dbb8c02118440b8283f941c9",
      "to": "0xf87b70151ccb80fdd2c2d6bb9dc8a1055e34106b",
      "contractAddress": null,
      "daFootprintGasScalar": "0x94",
      "l1BaseFeeScalar": "0x44d",
      "l1BlobBaseFee": "0x320b2",
      "l1BlobBaseFeeScalar": "0xa118b",
      "l1Fee": "0x128fdee",
      "l1GasPrice": "0x336f8f",
      "l1GasUsed": "0x640"
    },
    {
      "status": "0x1",
      "cumulativeGasUsed": "0x3734e1",
      "logs": [],
      "logsBloom": "0x00000000000000000000000000000000000000000000000000000000000000000000000000000000000000000000000000000000000000000000000000000000000000000000000000000000000000000000000000000000000000000000000000000000000000000000000000000000000000000000000000000000000000000000000000000000000000000000000000000000000000000000000000000000000000000000000000000000000000000000000000000000000000000000000000000000000000000000000000000000000000000000000000000000000000000000000000000000000000000000000000000000000000000000000000000000",
      "type": "0x2",
      "transactionHash": "0x2edf9f2fad6cbd404d84f1df9fc45b38e8eb440bc41d4e900b6f4f011d7c7803",
      "transactionIndex": "0x16",
      "blockHash": "0x0000000000000000000000000000000000000000000000000000000000000000",
      "blockNumber": "0x264eac6",
      "gasUsed": "0xb49a",
      "effectiveGasPrice": "0x5b8d80",
      "blobGasUsed": "0x39d0",
      "from": "0x05f8cc8753d90d67dbb8c02118440b8283f941c9",
      "to": "0x86077000248ce1cebed08d2aba40ec3aa8b8fbb9",
      "contractAddress": null,
      "daFootprintGasScalar": "0x94",
      "l1BaseFeeScalar": "0x44d",
      "l1BlobBaseFee": "0x320b2",
      "l1BlobBaseFeeScalar": "0xa118b",
      "l1Fee": "0x128fdee",
      "l1GasPrice": "0x336f8f",
      "l1GasUsed": "0x640"
    },
    {
      "status": "0x1",
      "cumulativeGasUsed": "0x37e9d1",
      "logs": [],
      "logsBloom": "0x00000000000000000000000000000000000000000000000000000000000000000000000000000000000000000000000000000000000000000000000000000000000000000000000000000000000000000000000000000000000000000000000000000000000000000000000000000000000000000000000000000000000000000000000000000000000000000000000000000000000000000000000000000000000000000000000000000000000000000000000000000000000000000000000000000000000000000000000000000000000000000000000000000000000000000000000000000000000000000000000000000000000000000000000000000000",
      "type": "0x2",
      "transactionHash": "0xf3e7df8bcce2e288108148073c803632b0642d124be045c12978ef92c338cd02",
      "transactionIndex": "0x17",
      "blockHash": "0x0000000000000000000000000000000000000000000000000000000000000000",
      "blockNumber": "0x264eac6",
      "gasUsed": "0xb4f0",
      "effectiveGasPrice": "0x5b8d80",
      "blobGasUsed": "0x39d0",
      "from": "0x05f8cc8753d90d67dbb8c02118440b8283f941c9",
      "to": "0x86077000248ce1cebed08d2aba40ec3aa8b8fbb9",
      "contractAddress": null,
      "daFootprintGasScalar": "0x94",
      "l1BaseFeeScalar": "0x44d",
      "l1BlobBaseFee": "0x320b2",
      "l1BlobBaseFeeScalar": "0xa118b",
      "l1Fee": "0x128fdee",
      "l1GasPrice": "0x336f8f",
      "l1GasUsed": "0x640"
    },
    {
      "status": "0x1",
      "cumulativeGasUsed": "0x39533f",
      "logs": [],
      "logsBloom": "0x00000000000000000000000000000000000000000000000000000000000000000000000000000000000000000000000000000000000000000000000000000000000000000000000000000000000000000000000000000000000000000000000000000000000000000000000000000000000000000000000000000000000000000000000000000000000000000000000000000000000000000000000000000000000000000000000000000000000000000000000000000000000000000000000000000000000000000000000000000000000000000000000000000000000000000000000000000000000000000000000000000000000000000000000000000000",
      "type": "0x2",
      "transactionHash": "0x69993259f6de17b38274144f87c0997dcbbf894c042d36472ba09bbe8f7bc7a8",
      "transactionIndex": "0x18",
      "blockHash": "0x0000000000000000000000000000000000000000000000000000000000000000",
      "blockNumber": "0x264eac6",
      "gasUsed": "0x1696e",
      "effectiveGasPrice": "0x5b8d80",
      "blobGasUsed": "0x53d4",
      "from": "0x05f8cc8753d90d67dbb8c02118440b8283f941c9",
      "to": "0xcc89d8bedfb39170fa74bcf1d28c9e399b82ccb2",
      "contractAddress": null,
      "daFootprintGasScalar": "0x94",
      "l1BaseFeeScalar": "0x44d",
      "l1BlobBaseFee": "0x320b2",
      "l1BlobBaseFeeScalar": "0xa118b",
      "l1Fee": "0x128fdee",
      "l1GasPrice": "0x336f8f",
      "l1GasUsed": "0x91a"
    }
  ],
  "libraries": [],
  "pending": [],
  "returns": {},
  "timestamp": 1776104555867,
  "chain": 84532,
  "commit": "b3b4aa7"
}