{
  "transactions": [
    {
      "hash": "0x9d980668bf9a1a1ece85f34f5998931d4244980468b2356c2cf689a22bf47995",
      "transactionType": "CALL",
      "contractName": null,
      "contractAddress": "0x8b946b19af78d52865fae2418b93cbc1a0321caa",
      "function": "registerRailPlugin(address)",
      "arguments": [
        "0x4af4869eCaf9E9b204349756971e876f4Bd29204"
      ],
      "transaction": {
        "from": "0x05f8cc8753d90d67dbb8c02118440b8283f941c9",
        "to": "0x8b946b19af78d52865fae2418b93cbc1a0321caa",
        "gas": "0x2846a",
        "value": "0x0",
        "input": "0x172ceb340000000000000000000000004af4869ecaf9e9b204349756971e876f4bd29204",
        "nonce": "0x1f3",
        "chainId": "0x14a34"
      },
      "additionalContracts": [],
      "isFixedGasLimit": false
    },
    {
      "hash": "0xf9e2841c06d23f328e71a5ede5c7b3aef6cb6ec87533c2ad8dafa89186b270ae",
      "transactionType": "CALL",
      "contractName": null,
      "contractAddress": "0x8b946b19af78d52865fae2418b93cbc1a0321caa",
      "function": "registerRailPlugin(address)",
      "arguments": [
        "0x50D2CEdEEeb310C13Aa513A54a3e097E4c9D6F8D"
      ],
      "transaction": {
        "from": "0x05f8cc8753d90d67dbb8c02118440b8283f941c9",
        "to": "0x8b946b19af78d52865fae2418b93cbc1a0321caa",
        "gas": "0x227cb",
        "value": "0x0",
        "input": "0x172ceb3400000000000000000000000050d2cedeeeb310c13aa513a54a3e097e4c9d6f8d",
        "nonce": "0x1f4",
        "chainId": "0x14a34"
      },
      "additionalContracts": [],
      "isFixedGasLimit": false
    },
    {
      "hash": "0x91387475ff9ce933c63a16fd53b49b94b7f784eca2530ded27b558db93c9f423",
      "transactionType": "CALL",
      "contractName": null,
      "contractAddress": "0x8b946b19af78d52865fae2418b93cbc1a0321caa",
      "function": "registerRailPlugin(address)",
      "arguments": [
        "0x605df42C4Cfc3799569d3bcc0AD820Feea3227d0"
      ],
      "transaction": {
        "from": "0x05f8cc8753d90d67dbb8c02118440b8283f941c9",
        "to": "0x8b946b19af78d52865fae2418b93cbc1a0321caa",
        "gas": "0x226e2",
        "value": "0x0",
        "input": "0x172ceb34000000000000000000000000605df42c4cfc3799569d3bcc0ad820feea3227d0",
        "nonce": "0x1f5",
        "chainId": "0x14a34"
      },
      "additionalContracts": [],
      "isFixedGasLimit": false
    },
    {
      "hash": "0xeafb1411b78f64a09a6c138495e31a3cc8cf87c14debcbf66c129646b5021471",
      "transactionType": "CALL",
      "contractName": null,
      "contractAddress": "0x8b946b19af78d52865fae2418b93cbc1a0321caa",
      "function": "registerRailPlugin(address)",
      "arguments": [
        "0x5389cefC0a8Fd0148F1E512715843012F42aB6Ea"
      ],
      "transaction": {
        "from": "0x05f8cc8753d90d67dbb8c02118440b8283f941c9",
        "to": "0x8b946b19af78d52865fae2418b93cbc1a0321caa",
        "gas": "0x22703",
        "value": "0x0",
        "input": "0x172ceb340000000000000000000000005389cefc0a8fd0148f1e512715843012f42ab6ea",
        "nonce": "0x1f6",
        "chainId": "0x14a34"
      },
      "additionalContracts": [],
      "isFixedGasLimit": false
    },
    {
      "hash": "0xc831d71a9a92971990b30ee3bd35b65e4d83c8ba27baceb72529c3a682faa248",
      "transactionType": "CALL",
      "contractName": null,
      "contractAddress": "0xbffcf8b777f360c0e01af37051fdd503e58cf2a2",
      "function": "addApprovedCaller(address)",
      "arguments": [
        "0x055F3838c4d58B2B10eC4D64f39c7286777fB0Ad"
      ],
      "transaction": {
        "from": "0x05f8cc8753d90d67dbb8c02118440b8283f941c9",
        "to": "0xbffcf8b777f360c0e01af37051fdd503e58cf2a2",
        "gas": "0x10813",
        "value": "0x0",
        "input": "0xab5cb85a000000000000000000000000055f3838c4d58b2b10ec4d64f39c7286777fb0ad",
        "nonce": "0x1f7",
        "chainId": "0x14a34"
      },
      "additionalContracts": [],
      "isFixedGasLimit": false
    },
    {
      "hash": "0x587083256cf89689cda2ec765fe6e6a302287acd7bd0d12a77783cb04446952e",
      "transactionType": "CALL",
      "contractName": null,
      "contractAddress": "0xbffcf8b777f360c0e01af37051fdd503e58cf2a2",
      "function": "addApprovedCaller(address)",
      "arguments": [
        "0x1E35837f3Fbafeebf5E1ccC28b40e4099cF5Db39"
      ],
      "transaction": {
        "from": "0x05f8cc8753d90d67dbb8c02118440b8283f941c9",
        "to": "0xbffcf8b777f360c0e01af37051fdd503e58cf2a2",
        "gas": "0x10813",
        "value": "0x0",
        "input": "0xab5cb85a0000000000000000000000001e35837f3fbafeebf5e1ccc28b40e4099cf5db39",
        "nonce": "0x1f8",
        "chainId": "0x14a34"
      },
      "additionalContracts": [],
      "isFixedGasLimit": false
    },
    {
      "hash": "0x03a8043255936ec619f9922f24219f98b52f9752adecd5abef4f012127398847",
      "transactionType": "CALL",
      "contractName": null,
      "contractAddress": "0x4af4869ecaf9e9b204349756971e876f4bd29204",
      "function": "setChainDomain(uint32,uint32)",
      "arguments": [
        "11155420",
        "2"
      ],
      "transaction": {
        "from": "0x05f8cc8753d90d67dbb8c02118440b8283f941c9",
        "to": "0x4af4869ecaf9e9b204349756971e876f4bd29204",
        "gas": "0xf9db",
        "value": "0x0",
        "input": "0x7ef0d2870000000000000000000000000000000000000000000000000000000000aa37dc0000000000000000000000000000000000000000000000000000000000000002",
        "nonce": "0x1f9",
        "chainId": "0x14a34"
      },
      "additionalContracts": [],
      "isFixedGasLimit": false
    },
    {
      "hash": "0x119438be8a7f93f4bb51b39591e6a87f3d6df7bcae2ce165c0b6ddbe84bf232a",
      "transactionType": "CALL",
      "contractName": null,
      "contractAddress": "0x4af4869ecaf9e9b204349756971e876f4bd29204",
      "function": "setDestinationReceiver(uint32,bytes32)",
      "arguments": [
        "11155420",
        "0x0000000000000000000000001c2bda495534a45469d08f35d68d95d5132ec5ac"
      ],
      "transaction": {
        "from": "0x05f8cc8753d90d67dbb8c02118440b8283f941c9",
        "to": "0x4af4869ecaf9e9b204349756971e876f4bd29204",
        "gas": "0x107d9",
        "value": "0x0",
        "input": "0x0267dd6c0000000000000000000000000000000000000000000000000000000000aa37dc0000000000000000000000001c2bda495534a45469d08f35d68d95d5132ec5ac",
        "nonce": "0x1fa",
        "chainId": "0x14a34"
      },
      "additionalContracts": [],
      "isFixedGasLimit": false
    },
    {
      "hash": "0x70a3e3832e74f3f3c87c7c537776571f7be24196dfb2c8c00c0d82b08b85561e",
      "transactionType": "CALL",
      "contractName": null,
      "contractAddress": "0x4af4869ecaf9e9b204349756971e876f4bd29204",
      "function": "setDestinationCaller(uint32,bytes32)",
      "arguments": [
        "11155420",
        "0x00000000000000000000000005f8cc8753d90d67dbb8c02118440b8283f941c9"
      ],
      "transaction": {
        "from": "0x05f8cc8753d90d67dbb8c02118440b8283f941c9",
        "to": "0x4af4869ecaf9e9b204349756971e876f4bd29204",
        "gas": "0x10767",
        "value": "0x0",
        "input": "0x00686ed20000000000000000000000000000000000000000000000000000000000aa37dc00000000000000000000000005f8cc8753d90d67dbb8c02118440b8283f941c9",
        "nonce": "0x1fb",
        "chainId": "0x14a34"
      },
      "additionalContracts": [],
      "isFixedGasLimit": false
    },
    {
      "hash": "0x9a7771ae0377c0c2f0c866cc4b914a902577e9829afa1f18dcb6e944048cec84",
      "transactionType": "CALL",
      "contractName": null,
      "contractAddress": "0x50d2cedeeeb310c13aa513a54a3e097e4c9d6f8d",
      "function": "setChainDomain(uint32,uint32)",
      "arguments": [
        "11155420",
        "2"
      ],
      "transaction": {
        "from": "0x05f8cc8753d90d67dbb8c02118440b8283f941c9",
        "to": "0x50d2cedeeeb310c13aa513a54a3e097e4c9d6f8d",
        "gas": "0xf9bc",
        "value": "0x0",
        "input": "0x7ef0d2870000000000000000000000000000000000000000000000000000000000aa37dc0000000000000000000000000000000000000000000000000000000000000002",
        "nonce": "0x1fc",
        "chainId": "0x14a34"
      },
      "additionalContracts": [],
      "isFixedGasLimit": false
    },
    {
      "hash": "0x4bccb098b7a752cfb8a499b8eac51b9d2b6ab83b14ce36dc9dba3baf84e42dc9",
      "transactionType": "CALL",
      "contractName": null,
      "contractAddress": "0x50d2cedeeeb310c13aa513a54a3e097e4c9d6f8d",
      "function": "setDestinationReceiver(uint32,bytes32)",
      "arguments": [
        "11155420",
        "0x0000000000000000000000001c2bda495534a45469d08f35d68d95d5132ec5ac"
      ],
      "transaction": {
        "from": "0x05f8cc8753d90d67dbb8c02118440b8283f941c9",
        "to": "0x50d2cedeeeb310c13aa513a54a3e097e4c9d6f8d",
        "gas": "0x107b8",
        "value": "0x0",
        "input": "0x0267dd6c0000000000000000000000000000000000000000000000000000000000aa37dc0000000000000000000000001c2bda495534a45469d08f35d68d95d5132ec5ac",
        "nonce": "0x1fd",
        "chainId": "0x14a34"
      },
      "additionalContracts": [],
      "isFixedGasLimit": false
    },
    {
      "hash": "0x663dcc0c48c5afca7b9c6caa4b69d9c0bb8b1f6011f2f18d5d1e568c3f5a035b",
      "transactionType": "CALL",
      "contractName": null,
      "contractAddress": "0x50d2cedeeeb310c13aa513a54a3e097e4c9d6f8d",
      "function": "setDestinationCaller(uint32,bytes32)",
      "arguments": [
        "11155420",
        "0x00000000000000000000000005f8cc8753d90d67dbb8c02118440b8283f941c9"
      ],
      "transaction": {
        "from": "0x05f8cc8753d90d67dbb8c02118440b8283f941c9",
        "to": "0x50d2cedeeeb310c13aa513a54a3e097e4c9d6f8d",
        "gas": "0x10767",
        "value": "0x0",
        "input": "0x00686ed20000000000000000000000000000000000000000000000000000000000aa37dc00000000000000000000000005f8cc8753d90d67dbb8c02118440b8283f941c9",
        "nonce": "0x1fe",
        "chainId": "0x14a34"
      },
      "additionalContracts": [],
      "isFixedGasLimit": false
    },
    {
      "hash": "0xcf54664bdf3f74ba8d0dbd65f4fea86280c4fe1b1c01896de697676f061b5bc3",
      "transactionType": "CALL",
      "contractName": null,
      "contractAddress": "0x50d2cedeeeb310c13aa513a54a3e097e4c9d6f8d",
      "function": "setMaxFeeBpsCap(uint256)",
      "arguments": [
        "100"
      ],
      "transaction": {
        "from": "0x05f8cc8753d90d67dbb8c02118440b8283f941c9",
        "to": "0x50d2cedeeeb310c13aa513a54a3e097e4c9d6f8d",
        "gas": "0x8b92",
        "value": "0x0",
        "input": "0x357c4ea70000000000000000000000000000000000000000000000000000000000000064",
        "nonce": "0x1ff",
        "chainId": "0x14a34"
      },
      "additionalContracts": [],
      "isFixedGasLimit": false
    },
    {
      "hash": "0x0dcf663b1716955a49477ddd833800857e43eba3f5b176ab1106f1d130cb9994",
      "transactionType": "CALL",
      "contractName": null,
      "contractAddress": "0x605df42c4cfc3799569d3bcc0ad820feea3227d0",
      "function": "setChainConfig(uint32,string,address)",
      "arguments": [
        "11155420",
        "optimism-sepolia",
        "0xC827913F0556a74BF9589d7ba7434cfE1Be2a62b"
      ],
      "transaction": {
        "from": "0x05f8cc8753d90d67dbb8c02118440b8283f941c9",
        "to": "0x605df42c4cfc3799569d3bcc0ad820feea3227d0",
        "gas": "0x26c3e",
        "value": "0x0",
        "input": "0x87aadd5e0000000000000000000000000000000000000000000000000000000000aa37dc0000000000000000000000000000000000000000000000000000000000000060000000000000000000000000c827913f0556a74bf9589d7ba7434cfe1be2a62b00000000000000000000000000000000000000000000000000000000000000106f7074696d69736d2d7365706f6c696100000000000000000000000000000000",
        "nonce": "0x200",
        "chainId": "0x14a34"
      },
      "additionalContracts": [],
      "isFixedGasLimit": false
    },
    {
      "hash": "0x2d0484c364f740670d180e9d455f2f01b061385e066bcee4b9d4e227b4abe271",
      "transactionType": "CALL",
      "contractName": null,
      "contractAddress": "0x5389cefc0a8fd0148f1e512715843012f42ab6ea",
      "function": "setFamilyRouteConfig(uint32,uint8,uint32,address,bytes)",
      "arguments": [
        "11155420",
        "2",
        "40232",
        "0x7F5713bcF5198a1D1045DDd79d2952317FE3846E",
        "0x00030100110100000000000000000000000000030d4001001303000000000000000000000000000000061a80"
      ],
      "transaction": {
        "from": "0x05f8cc8753d90d67dbb8c02118440b8283f941c9",
        "to": "0x5389cefc0a8fd0148f1e512715843012f42ab6ea",
        "gas": "0x50d5c",
        "value": "0x0",
        "input": "0x1eb54fa00000000000000000000000000000000000000000000000000000000000aa37dc00000000000000000000000000000000000000000000000000000000000000020000000000000000000000000000000000000000000000000000000000009d280000000000000000000000007f5713bcf5198a1d1045ddd79d2952317fe3846e00000000000000000000000000000000000000000000000000000000000000a0000000000000000000000000000000000000000000000000000000000000002c00030100110100000000000000000000000000030d4001001303000000000000000000000000000000061a800000000000000000000000000000000000000000",
        "nonce": "0x201",
        "chainId": "0x14a34"
      },
      "additionalContracts": [],
      "isFixedGasLimit": false
    },
    {
      "hash": "0x1548f1e80e62b2aca1a6199c1d0162703334362b9d313949a5c7587baebdf4e2",
      "transactionType": "CALL",
      "contractName": null,
      "contractAddress": "0x055f3838c4d58b2b10ec4d64f39c7286777fb0ad",
      "function": "setTrustedSourceAddress(string,address,bool)",
      "arguments": [
        "optimism-sepolia",
        "0x21e1a9261a7E1050D34Db82BB67dEa80c5D4c0bC",
        "true"
      ],
      "transaction": {
        "from": "0x05f8cc8753d90d67dbb8c02118440b8283f941c9",
        "to": "0x055f3838c4d58b2b10ec4d64f39c7286777fb0ad",
        "gas": "0x124bd",
        "value": "0x0",
        "input": "0x6dc3df1c000000000000000000000000000000000000000000000000000000000000006000000000000000000000000021e1a9261a7e1050d34db82bb67dea80c5d4c0bc000000000000000000000000000000000000000000000000000000000000000100000000000000000000000000000000000000000000000000000000000000106f7074696d69736d2d7365706f6c696100000000000000000000000000000000",
        "nonce": "0x202",
        "chainId": "0x14a34"
      },
      "additionalContracts": [],
      "isFixedGasLimit": false
    },
    {
      "hash": "0x05a8a7490343f694248c1374883d43a0eee8ee52749b3cd20aa5cf75f1b66c59",
      "transactionType": "CALL",
      "contractName": null,
      "contractAddress": "0x055f3838c4d58b2b10ec4d64f39c7286777fb0ad",
      "function": "setTrustedToken(bytes32,address,bool)",
      "arguments": [
        "0x4d2fdc120be87ecf5661b7a75144d5d4b507b525eeb8c9c85c346a255e3b9663",
        "0x2f2A9DbFd8c503a0aC56413B774e39030df85331",
        "true"
      ],
      "transaction": {
        "from": "0x05f8cc8753d90d67dbb8c02118440b8283f941c9",
        "to": "0x055f3838c4d58b2b10ec4d64f39c7286777fb0ad",
        "gas": "0x115d5",
        "value": "0x0",
        "input": "0x001089604d2fdc120be87ecf5661b7a75144d5d4b507b525eeb8c9c85c346a255e3b96630000000000000000000000002f2a9dbfd8c503a0ac56413b774e39030df853310000000000000000000000000000000000000000000000000000000000000001",
        "nonce": "0x203",
        "chainId": "0x14a34"
      },
      "additionalContracts": [],
      "isFixedGasLimit": false
    },
    {
      "hash": "0x9b5ae0ff1d0e406c760af124ba37e123a42caf60ce07f6e176fbf281d4489ebe",
      "transactionType": "CALL",
      "contractName": null,
      "contractAddress": "0x1e35837f3fbafeebf5e1ccc28b40e4099cf5db39",
      "function": "setTrustedPeerAddress(uint32,address)",
      "arguments": [
        "40232",
        "0x7F76c13d61AB4F9F7902c255A52a1Dae6c434afB"
      ],
      "transaction": {
        "from": "0x05f8cc8753d90d67dbb8c02118440b8283f941c9",
        "to": "0x1e35837f3fbafeebf5e1ccc28b40e4099cf5db39",
        "gas": "0x101ed",
        "value": "0x0",
        "input": "0x60c5965f0000000000000000000000000000000000000000000000000000000000009d280000000000000000000000007f76c13d61ab4f9f7902c255a52a1dae6c434afb",
        "nonce": "0x204",
        "chainId": "0x14a34"
      },
      "additionalContracts": [],
      "isFixedGasLimit": false
    },
    {
      "hash": "0xb5aed46881f4a36267adb856658a77c41f67f3b01fb0f0102b34c17e114d7ea5",
      "transactionType": "CALL",
      "contractName": null,
      "contractAddress": "0x1e35837f3fbafeebf5e1ccc28b40e4099cf5db39",
      "function": "setSettlementToken(bytes32,address)",
      "arguments": [
        "0xd8364a952b144064fb3e5685a24c59ac2c26938583da19c951e02bcc2a42f1e7",
        "0x1500116D88B6583E63E2Fa9D4199f2edDf72149b"
      ],
      "transaction": {
        "from": "0x05f8cc8753d90d67dbb8c02118440b8283f941c9",
        "to": "0x1e35837f3fbafeebf5e1ccc28b40e4099cf5db39",
        "gas": "0x1138d",
        "value": "0x0",
        "input": "0x7f7c7732d8364a952b144064fb3e5685a24c59ac2c26938583da19c951e02bcc2a42f1e70000000000000000000000001500116d88b6583e63e2fa9d4199f2eddf72149b",
        "nonce": "0x205",
        "chainId": "0x14a34"
      },
      "additionalContracts": [],
      "isFixedGasLimit": false
    },
    {
      "hash": "0x413b90843de52cc37f2f73784fa04ac67d3f1560e504a5431707598405e194c1",
      "transactionType": "CALL",
      "contractName": null,
      "contractAddress": "0x1e35837f3fbafeebf5e1ccc28b40e4099cf5db39",
      "function": "setExpectedComposeSender(uint32,bytes32,address)",
      "arguments": [
        "40232",
        "0xd8364a952b144064fb3e5685a24c59ac2c26938583da19c951e02bcc2a42f1e7",
        "0xC1d9A1f64291CF47e703eab6b27fA0660cAE7324"
      ],
      "transaction": {
        "from": "0x05f8cc8753d90d67dbb8c02118440b8283f941c9",
        "to": "0x1e35837f3fbafeebf5e1ccc28b40e4099cf5db39",
        "gas": "0x107cb",
        "value": "0x0",
        "input": "0xbd0e403a0000000000000000000000000000000000000000000000000000000000009d28d8364a952b144064fb3e5685a24c59ac2c26938583da19c951e02bcc2a42f1e7000000000000000000000000c1d9a1f64291cf47e703eab6b27fa0660cae7324",
        "nonce": "0x206",
        "chainId": "0x14a34"
      },
      "additionalContracts": [],
      "isFixedGasLimit": false
    },
    {
      "hash": "0xadb03401b0b41735eb7caed5db3671af2d2b8eab55c5f05ca4ce713012bb0e29",
      "transactionType": "CALL",
      "contractName": null,
      "contractAddress": "0x1500116d88b6583e63e2fa9d4199f2eddf72149b",
      "function": "setPeer(uint32,bytes32)",
      "arguments": [
        "40232",
        "0x000000000000000000000000c1d9a1f64291cf47e703eab6b27fa0660cae7324"
      ],
      "transaction": {
        "from": "0x05f8cc8753d90d67dbb8c02118440b8283f941c9",
        "to": "0x1500116d88b6583e63e2fa9d4199f2eddf72149b",
        "gas": "0x9eaf",
        "value": "0x0",
        "input": "0x3400288b0000000000000000000000000000000000000000000000000000000000009d28000000000000000000000000c1d9a1f64291cf47e703eab6b27fa0660cae7324",
        "nonce": "0x207",
        "chainId": "0x14a34"
      },
      "additionalContracts": [],
      "isFixedGasLimit": false
    }
  ],
  "receipts": [
    {
      "status": "0x1",
      "cumulativeGasUsed": "0x16d9d8",
      "logs": [
        {
          "address": "0x8b946b19af78d52865fae2418b93cbc1a0321caa",
          "topics": [
            "0xa86330cede453edbe00d0dbe74ee3bdbac6d7b048009b0d72d54aa609df01a71",
            "0xb148ea5f936a28661e11743b1650193f1b14a2322b9541503bf6815a84a1a6e9"
          ],
          "data": "0x0000000000000000000000004af4869ecaf9e9b204349756971e876f4bd292040000000000000000000000000000000000000000000000000000000000000000",
          "blockHash": "0x0000000000000000000000000000000000000000000000000000000000000000",
          "blockNumber": "0x26ec064",
          "blockTimestamp": "0x69f0dfa8",
          "transactionHash": "0x587083256cf89689cda2ec765fe6e6a302287acd7bd0d12a77783cb04446952e",
          "transactionIndex": "0x8",
          "logIndex": "0x24",
          "removed": false
        }
      ],
      "logsBloom": "0x00000400000000002000000000000000000000000000000000000000000000000000000000000000000000000000000000000000000000000000000000000000000000000000000008000000000000000000000020000000000000000000000000000000000000000000000020000000000000000000000000000000000000000000000000000000000000000000000000000000000000000000000000000000000000000000000004000000000000000000000000000000000000000000000000000000000000000000000000200000000000400000000000000000000000000200000000000000000000000000000000000000000000000000000000000000",
      "type": "0x2",
      "transactionHash": "0x587083256cf89689cda2ec765fe6e6a302287acd7bd0d12a77783cb04446952e",
      "transactionIndex": "0x8",
      "blockHash": "0x0000000000000000000000000000000000000000000000000000000000000000",
      "blockNumber": "0x26ec064",
      "gasUsed": "0x1d28c",
      "effectiveGasPrice": "0x5b8d80",
      "blobGasUsed": "0x39d0",
      "from": "0x05f8cc8753d90d67dbb8c02118440b8283f941c9",
      "to": "0x8b946b19af78d52865fae2418b93cbc1a0321caa",
      "contractAddress": null,
      "daFootprintGasScalar": "0x94",
      "l1BaseFeeScalar": "0x44d",
      "l1BlobBaseFee": "0xf36369",
      "l1BlobBaseFeeScalar": "0xa118b",
      "l1Fee": "0x2081430c0",
      "l1GasPrice": "0x13195193",
      "l1GasUsed": "0x640"
    },
    {
      "status": "0x1",
      "cumulativeGasUsed": "0x186956",
      "logs": [
        {
          "address": "0x8b946b19af78d52865fae2418b93cbc1a0321caa",
          "topics": [
            "0xa86330cede453edbe00d0dbe74ee3bdbac6d7b048009b0d72d54aa609df01a71",
            "0x9181644edfd36b07ccd623494a3681a4a6b9cd5d52611accda20264cd09259ac"
          ],
          "data": "0x00000000000000000000000050d2cedeeeb310c13aa513a54a3e097e4c9d6f8d0000000000000000000000000000000000000000000000000000000000000000",
          "blockHash": "0x0000000000000000000000000000000000000000000000000000000000000000",
          "blockNumber": "0x26ec064",
          "blockTimestamp": "0x69f0dfa8",
          "transactionHash": "0x119438be8a7f93f4bb51b39591e6a87f3d6df7bcae2ce165c0b6ddbe84bf232a",
          "transactionIndex": "0x9",
          "logIndex": "0x25",
          "removed": false
        }
      ],
      "logsBloom": "0x00000000000000002000000000000000000000004000000000000000000000008000000000000000000000000000000000000000000000000000000000000000000000000000000008000000000000000000000000000000000000000000000000000000000000000000000000000000000000000000000000000000000000000000000000000008000000000000000000000000000000000000000000000000000000000000000004000000000000000000000000000000000000000000000000000000000000000000000000200000000000400000000000000000000000000200000000000000000000000000000000000000000000000000000000000000",
      "type": "0x2",
      "transactionHash": "0x119438be8a7f93f4bb51b39591e6a87f3d6df7bcae2ce165c0b6ddbe84bf232a",
      "transactionIndex": "0x9",
      "blockHash": "0x0000000000000000000000000000000000000000000000000000000000000000",
      "blockNumber": "0x26ec064",
      "gasUsed": "0x18f7e",
      "effectiveGasPrice": "0x5b8d80",
      "blobGasUsed": "0x39d0",
      "from": "0x05f8cc8753d90d67dbb8c02118440b8283f941c9",
      "to": "0x8b946b19af78d52865fae2418b93cbc1a0321caa",
      "contractAddress": null,
      "daFootprintGasScalar": "0x94",
      "l1BaseFeeScalar": "0x44d",
      "l1BlobBaseFee": "0xf36369",
      "l1BlobBaseFeeScalar": "0xa118b",
      "l1Fee": "0x2081430c0",
      "l1GasPrice": "0x13195193",
      "l1GasUsed": "0x640"
    },
    {
      "status": "0x1",
      "cumulativeGasUsed": "0x19f82b",
      "logs": [
        {
          "address": "0x8b946b19af78d52865fae2418b93cbc1a0321caa",
          "topics": [
            "0xa86330cede453edbe00d0dbe74ee3bdbac6d7b048009b0d72d54aa609df01a71",
            "0xdee0b34b74b60e53553685c32477090103c2b806eb925a8cd000efa92bef3e8b"
          ],
          "data": "0x000000000000000000000000605df42c4cfc3799569d3bcc0ad820feea3227d00000000000000000000000000000000000000000000000000000000000000000",
          "blockHash": "0x0000000000000000000000000000000000000000000000000000000000000000",
          "blockNumber": "0x26ec064",
          "blockTimestamp": "0x69f0dfa8",
          "transactionHash": "0x91387475ff9ce933c63a16fd53b49b94b7f784eca2530ded27b558db93c9f423",
          "transactionIndex": "0xa",
          "logIndex": "0x26",
          "removed": false
        }
      ],
      "logsBloom": "0x00000000000000002000000000000000000000000000000000000000000000000000000000000000000000000000000000000000000000000000000000000000000000000000000008000000000000000000000000000040000000000000000000000000000000000000000000000000000000000000000000000000000000000000000000000004000000000000000000000000000000000000000000000000000000000000000004000000000000000000000000000000000000000000000000000000000000000000000000200000000000400000000000000000000000000200000000000000000000000000100000000000000000000000000000000000",
      "type": "0x2",
      "transactionHash": "0x91387475ff9ce933c63a16fd53b49b94b7f784eca2530ded27b558db93c9f423",
      "transactionIndex": "0xa",
      "blockHash": "0x0000000000000000000000000000000000000000000000000000000000000000",
      "blockNumber": "0x26ec064",
      "gasUsed": "0x18ed5",
      "effectiveGasPrice": "0x5b8d80",
      "blobGasUsed": "0x39d0",
      "from": "0x05f8cc8753d90d67dbb8c02118440b8283f941c9",
      "to": "0x8b946b19af78d52865fae2418b93cbc1a0321caa",
      "contractAddress": null,
      "daFootprintGasScalar": "0x94",
      "l1BaseFeeScalar": "0x44d",
      "l1BlobBaseFee": "0xf36369",
      "l1BlobBaseFeeScalar": "0xa118b",
      "l1Fee": "0x2081430c0",
      "l1GasPrice": "0x13195193",
      "l1GasUsed": "0x640"
    },
    {
      "status": "0x1",
      "cumulativeGasUsed": "0x1b8718",
      "logs": [
        {
          "address": "0x8b946b19af78d52865fae2418b93cbc1a0321caa",
          "topics": [
            "0xa86330cede453edbe00d0dbe74ee3bdbac6d7b048009b0d72d54aa609df01a71",
            "0xc472efb7b9a986e1446d8bf9dec51e88548a1d8eb4a0810e6424d97a878d34fc"
          ],
          "data": "0x0000000000000000000000005389cefc0a8fd0148f1e512715843012f42ab6ea0000000000000000000000000000000000000000000000000000000000000000",
          "blockHash": "0x0000000000000000000000000000000000000000000000000000000000000000",
          "blockNumber": "0x26ec064",
          "blockTimestamp": "0x69f0dfa8",
          "transactionHash": "0x9d980668bf9a1a1ece85f34f5998931d4244980468b2356c2cf689a22bf47995",
          "transactionIndex": "0xb",
          "logIndex": "0x27",
          "removed": false
        }
      ],
      "logsBloom": "0x00000000000000002000000000000000000000000000000000000000000000000000000000000000000000000000000000000000000000000000000000000000000000000000000008000000000000000000000000000000000000000000000000000800000000000000000000000000000040000000000000000000000000000000000000000000000000000000000000000000000000000000000000000000000002000000000004000000000000000000000000000000000000000000000000000000000000000000000000200000000000400000000000000000000000000200000000000000000000000000000000000000000000000000000000000000",
      "type": "0x2",
      "transactionHash": "0x9d980668bf9a1a1ece85f34f5998931d4244980468b2356c2cf689a22bf47995",
      "transactionIndex": "0xb",
      "blockHash": "0x0000000000000000000000000000000000000000000000000000000000000000",
      "blockNumber": "0x26ec064",
      "gasUsed": "0x18eed",
      "effectiveGasPrice": "0x5b8d80",
      "blobGasUsed": "0x39d0",
      "from": "0x05f8cc8753d90d67dbb8c02118440b8283f941c9",
      "to": "0x8b946b19af78d52865fae2418b93cbc1a0321caa",
      "contractAddress": null,
      "daFootprintGasScalar": "0x94",
      "l1BaseFeeScalar": "0x44d",
      "l1BlobBaseFee": "0xf36369",
      "l1BlobBaseFeeScalar": "0xa118b",
      "l1Fee": "0x2081430c0",
      "l1GasPrice": "0x13195193",
      "l1GasUsed": "0x640"
    },
    {
      "status": "0x1",
      "cumulativeGasUsed": "0x1c3ba9",
      "logs": [],
      "logsBloom": "0x00000000000000000000000000000000000000000000000000000000000000000000000000000000000000000000000000000000000000000000000000000000000000000000000000000000000000000000000000000000000000000000000000000000000000000000000000000000000000000000000000000000000000000000000000000000000000000000000000000000000000000000000000000000000000000000000000000000000000000000000000000000000000000000000000000000000000000000000000000000000000000000000000000000000000000000000000000000000000000000000000000000000000000000000000000000",
      "type": "0x2",
      "transactionHash": "0x9a7771ae0377c0c2f0c866cc4b914a902577e9829afa1f18dcb6e944048cec84",
      "transactionIndex": "0xc",
      "blockHash": "0x0000000000000000000000000000000000000000000000000000000000000000",
      "blockNumber": "0x26ec064",
      "gasUsed": "0xb491",
      "effectiveGasPrice": "0x5b8d80",
      "blobGasUsed": "0x39d0",
      "from": "0x05f8cc8753d90d67dbb8c02118440b8283f941c9",
      "to": "0xbffcf8b777f360c0e01af37051fdd503e58cf2a2",
      "contractAddress": null,
      "daFootprintGasScalar": "0x94",
      "l1BaseFeeScalar": "0x44d",
      "l1BlobBaseFee": "0xf36369",
      "l1BlobBaseFeeScalar": "0xa118b",
      "l1Fee": "0x2081430c0",
      "l1GasPrice": "0x13195193",
      "l1GasUsed": "0x640"
    },
    {
      "status": "0x1",
      "cumulativeGasUsed": "0x1cf03a",
      "logs": [],
      "logsBloom": "0x00000000000000000000000000000000000000000000000000000000000000000000000000000000000000000000000000000000000000000000000000000000000000000000000000000000000000000000000000000000000000000000000000000000000000000000000000000000000000000000000000000000000000000000000000000000000000000000000000000000000000000000000000000000000000000000000000000000000000000000000000000000000000000000000000000000000000000000000000000000000000000000000000000000000000000000000000000000000000000000000000000000000000000000000000000000",
      "type": "0x2",
      "transactionHash": "0xeafb1411b78f64a09a6c138495e31a3cc8cf87c14debcbf66c129646b5021471",
      "transactionIndex": "0xd",
      "blockHash": "0x0000000000000000000000000000000000000000000000000000000000000000",
      "blockNumber": "0x26ec064",
      "gasUsed": "0xb491",
      "effectiveGasPrice": "0x5b8d80",
      "blobGasUsed": "0x39d0",
      "from": "0x05f8cc8753d90d67dbb8c02118440b8283f941c9",
      "to": "0xbffcf8b777f360c0e01af37051fdd503e58cf2a2",
      "contractAddress": null,
      "daFootprintGasScalar": "0x94",
      "l1BaseFeeScalar": "0x44d",
      "l1BlobBaseFee": "0xf36369",
      "l1BlobBaseFeeScalar": "0xa118b",
      "l1Fee": "0x2081430c0",
      "l1GasPrice": "0x13195193",
      "l1GasUsed": "0x640"
    },
    {
      "status": "0x1",
      "cumulativeGasUsed": "0x1da51f",
      "logs": [],
      "logsBloom": "0x00000000000000000000000000000000000000000000000000000000000000000000000000000000000000000000000000000000000000000000000000000000000000000000000000000000000000000000000000000000000000000000000000000000000000000000000000000000000000000000000000000000000000000000000000000000000000000000000000000000000000000000000000000000000000000000000000000000000000000000000000000000000000000000000000000000000000000000000000000000000000000000000000000000000000000000000000000000000000000000000000000000000000000000000000000000",
      "type": "0x2",
      "transactionHash": "0xf9e2841c06d23f328e71a5ede5c7b3aef6cb6ec87533c2ad8dafa89186b270ae",
      "transactionIndex": "0xe",
      "blockHash": "0x0000000000000000000000000000000000000000000000000000000000000000",
      "blockNumber": "0x26ec064",
      "gasUsed": "0xb4e5",
      "effectiveGasPrice": "0x5b8d80",
      "blobGasUsed": "0x39d0",
      "from": "0x05f8cc8753d90d67dbb8c02118440b8283f941c9",
      "to": "0x4af4869ecaf9e9b204349756971e876f4bd29204",
      "contractAddress": null,
      "daFootprintGasScalar": "0x94",
      "l1BaseFeeScalar": "0x44d",
      "l1BlobBaseFee": "0xf36369",
      "l1BlobBaseFeeScalar": "0xa118b",
      "l1Fee": "0x2081430c0",
      "l1GasPrice": "0x13195193",
      "l1GasUsed": "0x640"
    },
    {
      "status": "0x1",
      "cumulativeGasUsed": "0x1e5988",
      "logs": [],
      "logsBloom": "0x00000000000000000000000000000000000000000000000000000000000000000000000000000000000000000000000000000000000000000000000000000000000000000000000000000000000000000000000000000000000000000000000000000000000000000000000000000000000000000000000000000000000000000000000000000000000000000000000000000000000000000000000000000000000000000000000000000000000000000000000000000000000000000000000000000000000000000000000000000000000000000000000000000000000000000000000000000000000000000000000000000000000000000000000000000000",
      "type": "0x2",
      "transactionHash": "0xc831d71a9a92971990b30ee3bd35b65e4d83c8ba27baceb72529c3a682faa248",
      "transactionIndex": "0xf",
      "blockHash": "0x0000000000000000000000000000000000000000000000000000000000000000",
      "blockNumber": "0x26ec064",
      "gasUsed": "0xb469",
      "effectiveGasPrice": "0x5b8d80",
      "blobGasUsed": "0x39d0",
      "from": "0x05f8cc8753d90d67dbb8c02118440b8283f941c9",
      "to": "0x4af4869ecaf9e9b204349756971e876f4bd29204",
      "contractAddress": null,
      "daFootprintGasScalar": "0x94",
      "l1BaseFeeScalar": "0x44d",
      "l1BlobBaseFee": "0xf36369",
      "l1BlobBaseFeeScalar": "0xa118b",
      "l1Fee": "0x2081430c0",
      "l1GasPrice": "0x13195193",
      "l1GasUsed": "0x640"
    },
    {
      "status": "0x1",
      "cumulativeGasUsed": "0x1f0da3",
      "logs": [],
      "logsBloom": "0x00000000000000000000000000000000000000000000000000000000000000000000000000000000000000000000000000000000000000000000000000000000000000000000000000000000000000000000000000000000000000000000000000000000000000000000000000000000000000000000000000000000000000000000000000000000000000000000000000000000000000000000000000000000000000000000000000000000000000000000000000000000000000000000000000000000000000000000000000000000000000000000000000000000000000000000000000000000000000000000000000000000000000000000000000000000",
      "type": "0x2",
      "transactionHash": "0x03a8043255936ec619f9922f24219f98b52f9752adecd5abef4f012127398847",
      "transactionIndex": "0x10",
      "blockHash": "0x0000000000000000000000000000000000000000000000000000000000000000",
      "blockNumber": "0x26ec064",
      "gasUsed": "0xb41b",
      "effectiveGasPrice": "0x5b8d80",
      "blobGasUsed": "0x39d0",
      "from": "0x05f8cc8753d90d67dbb8c02118440b8283f941c9",
      "to": "0x4af4869ecaf9e9b204349756971e876f4bd29204",
      "contractAddress": null,
      "daFootprintGasScalar": "0x94",
      "l1BaseFeeScalar": "0x44d",
      "l1BlobBaseFee": "0xf36369",
      "l1BlobBaseFeeScalar": "0xa118b",
      "l1Fee": "0x2081430c0",
      "l1GasPrice": "0x13195193",
      "l1GasUsed": "0x640"
    },
    {
      "status": "0x1",
      "cumulativeGasUsed": "0x3ddba2",
      "logs": [],
      "logsBloom": "0x00000000000000000000000000000000000000000000000000000000000000000000000000000000000000000000000000000000000000000000000000000000000000000000000000000000000000000000000000000000000000000000000000000000000000000000000000000000000000000000000000000000000000000000000000000000000000000000000000000000000000000000000000000000000000000000000000000000000000000000000000000000000000000000000000000000000000000000000000000000000000000000000000000000000000000000000000000000000000000000000000000000000000000000000000000000",
      "type": "0x2",
      "transactionHash": "0xcf54664bdf3f74ba8d0dbd65f4fea86280c4fe1b1c01896de697676f061b5bc3",
      "transactionIndex": "0x17",
      "blockHash": "0x5de1463f173e55f6b912460ec59095d49c80858ed42642c68ce73984fd9256e5",
      "blockNumber": "0x26ec064",
      "gasUsed": "0xb4cf",
      "effectiveGasPrice": "0x5b8d80",
      "blobGasUsed": "0x39d0",
      "from": "0x05f8cc8753d90d67dbb8c02118440b8283f941c9",
      "to": "0x50d2cedeeeb310c13aa513a54a3e097e4c9d6f8d",
      "contractAddress": null,
      "daFootprintGasScalar": "0x94",
      "l1BaseFeeScalar": "0x44d",
      "l1BlobBaseFee": "0xf36369",
      "l1BlobBaseFeeScalar": "0xa118b",
      "l1Fee": "0x606106c3",
      "l1GasPrice": "0x13195193",
      "l1GasUsed": "0x640"
    },
    {
      "status": "0x1",
      "cumulativeGasUsed": "0x3e8ff5",
      "logs": [],
      "logsBloom": "0x00000000000000000000000000000000000000000000000000000000000000000000000000000000000000000000000000000000000000000000000000000000000000000000000000000000000000000000000000000000000000000000000000000000000000000000000000000000000000000000000000000000000000000000000000000000000000000000000000000000000000000000000000000000000000000000000000000000000000000000000000000000000000000000000000000000000000000000000000000000000000000000000000000000000000000000000000000000000000000000000000000000000000000000000000000000",
      "type": "0x2",
      "transactionHash": "0x2d0484c364f740670d180e9d455f2f01b061385e066bcee4b9d4e227b4abe271",
      "transactionIndex": "0x18",
      "blockHash": "0x5de1463f173e55f6b912460ec59095d49c80858ed42642c68ce73984fd9256e5",
      "blockNumber": "0x26ec064",
      "gasUsed": "0xb453",
      "effectiveGasPrice": "0x5b8d80",
      "blobGasUsed": "0x39d0",
      "from": "0x05f8cc8753d90d67dbb8c02118440b8283f941c9",
      "to": "0x50d2cedeeeb310c13aa513a54a3e097e4c9d6f8d",
      "contractAddress": null,
      "daFootprintGasScalar": "0x94",
      "l1BaseFeeScalar": "0x44d",
      "l1BlobBaseFee": "0xf36369",
      "l1BlobBaseFeeScalar": "0xa118b",
      "l1Fee": "0x606106c3",
      "l1GasPrice": "0x13195193",
      "l1GasUsed": "0x640"
    },
    {
      "status": "0x1",
      "cumulativeGasUsed": "0x3f4410",
      "logs": [],
      "logsBloom": "0x00000000000000000000000000000000000000000000000000000000000000000000000000000000000000000000000000000000000000000000000000000000000000000000000000000000000000000000000000000000000000000000000000000000000000000000000000000000000000000000000000000000000000000000000000000000000000000000000000000000000000000000000000000000000000000000000000000000000000000000000000000000000000000000000000000000000000000000000000000000000000000000000000000000000000000000000000000000000000000000000000000000000000000000000000000000",
      "type": "0x2",
      "transactionHash": "0x05a8a7490343f694248c1374883d43a0eee8ee52749b3cd20aa5cf75f1b66c59",
      "transactionIndex": "0x19",
      "blockHash": "0x5de1463f173e55f6b912460ec59095d49c80858ed42642c68ce73984fd9256e5",
      "blockNumber": "0x26ec064",
      "gasUsed": "0xb41b",
      "effectiveGasPrice": "0x5b8d80",
      "blobGasUsed": "0x39d0",
      "from": "0x05f8cc8753d90d67dbb8c02118440b8283f941c9",
      "to": "0x50d2cedeeeb310c13aa513a54a3e097e4c9d6f8d",
      "contractAddress": null,
      "daFootprintGasScalar": "0x94",
      "l1BaseFeeScalar": "0x44d",
      "l1BlobBaseFee": "0xf36369",
      "l1BlobBaseFeeScalar": "0xa118b",
      "l1Fee": "0x606106c3",
      "l1GasPrice": "0x13195193",
      "l1GasUsed": "0x640"
    },
    {
      "status": "0x1",
      "cumulativeGasUsed": "0x3fa91d",
      "logs": [],
      "logsBloom": "0x00000000000000000000000000000000000000000000000000000000000000000000000000000000000000000000000000000000000000000000000000000000000000000000000000000000000000000000000000000000000000000000000000000000000000000000000000000000000000000000000000000000000000000000000000000000000000000000000000000000000000000000000000000000000000000000000000000000000000000000000000000000000000000000000000000000000000000000000000000000000000000000000000000000000000000000000000000000000000000000000000000000000000000000000000000000",
      "type": "0x2",
      "transactionHash": "0x0dcf663b1716955a49477ddd833800857e43eba3f5b176ab1106f1d130cb9994",
      "transactionIndex": "0x1a",
      "blockHash": "0x5de1463f173e55f6b912460ec59095d49c80858ed42642c68ce73984fd9256e5",
      "blockNumber": "0x26ec064",
      "gasUsed": "0x650d",
      "effectiveGasPrice": "0x5b8d80",
      "blobGasUsed": "0x39d0",
      "from": "0x05f8cc8753d90d67dbb8c02118440b8283f941c9",
      "to": "0x50d2cedeeeb310c13aa513a54a3e097e4c9d6f8d",
      "contractAddress": null,
      "daFootprintGasScalar": "0x94",
      "l1BaseFeeScalar": "0x44d",
      "l1BlobBaseFee": "0xf36369",
      "l1BlobBaseFeeScalar": "0xa118b",
      "l1Fee": "0x606106c3",
      "l1GasPrice": "0x13195193",
      "l1GasUsed": "0x640"
    },
    {
      "status": "0x1",
      "cumulativeGasUsed": "0x416a29",
      "logs": [],
      "logsBloom": "0x00000000000000000000000000000000000000000000000000000000000000000000000000000000000000000000000000000000000000000000000000000000000000000000000000000000000000000000000000000000000000000000000000000000000000000000000000000000000000000000000000000000000000000000000000000000000000000000000000000000000000000000000000000000000000000000000000000000000000000000000000000000000000000000000000000000000000000000000000000000000000000000000000000000000000000000000000000000000000000000000000000000000000000000000000000000",
      "type": "0x2",
      "transactionHash": "0x1548f1e80e62b2aca1a6199c1d0162703334362b9d313949a5c7587baebdf4e2",
      "transactionIndex": "0x1b",
      "blockHash": "0x5de1463f173e55f6b912460ec59095d49c80858ed42642c68ce73984fd9256e5",
      "blockNumber": "0x26ec064",
      "gasUsed": "0x1c10c",
      "effectiveGasPrice": "0x5b8d80",
      "blobGasUsed": "0x4438",
      "from": "0x05f8cc8753d90d67dbb8c02118440b8283f941c9",
      "to": "0x605df42c4cfc3799569d3bcc0ad820feea3227d0",
      "contractAddress": null,
      "daFootprintGasScalar": "0x94",
      "l1BaseFeeScalar": "0x44d",
      "l1BlobBaseFee": "0xf36369",
      "l1BlobBaseFeeScalar": "0xa118b",
      "l1Fee": "0x71bfb2ac",
      "l1GasPrice": "0x13195193",
      "l1GasUsed": "0x760"
    },
    {
      "status": "0x1",
      "cumulativeGasUsed": "0x44de83",
      "logs": [],
      "logsBloom": "0x00000000000000000000000000000000000000000000000000000000000000000000000000000000000000000000000000000000000000000000000000000000000000000000000000000000000000000000000000000000000000000000000000000000000000000000000000000000000000000000000000000000000000000000000000000000000000000000000000000000000000000000000000000000000000000000000000000000000000000000000000000000000000000000000000000000000000000000000000000000000000000000000000000000000000000000000000000000000000000000000000000000000000000000000000000000",
      "type": "0x2",
      "transactionHash": "0x9b5ae0ff1d0e406c760af124ba37e123a42caf60ce07f6e176fbf281d4489ebe",
      "transactionIndex": "0x1c",
      "blockHash": "0x5de1463f173e55f6b912460ec59095d49c80858ed42642c68ce73984fd9256e5",
      "blockNumber": "0x26ec064",
      "gasUsed": "0x3745a",
      "effectiveGasPrice": "0x5b8d80",
      "blobGasUsed": "0x505c",
      "from": "0x05f8cc8753d90d67dbb8c02118440b8283f941c9",
      "to": "0x5389cefc0a8fd0148f1e512715843012f42ab6ea",
      "contractAddress": null,
      "daFootprintGasScalar": "0x94",
      "l1BaseFeeScalar": "0x44d",
      "l1BlobBaseFee": "0xf36369",
      "l1BlobBaseFeeScalar": "0xa118b",
      "l1Fee": "0x86b5d59f",
      "l1GasPrice": "0x13195193",
      "l1GasUsed": "0x8bc"
    },
    {
      "status": "0x1",
      "cumulativeGasUsed": "0x45a6ad",
      "logs": [
        {
          "address": "0x055f3838c4d58b2b10ec4d64f39c7286777fb0ad",
          "topics": [
            "0xd67543d9b94fa2fae98cd5cd9409f07a5b3532a8433e6122d97c34dfc9735b52"
          ],
          "data": "0x000000000000000000000000000000000000000000000000000000000000006000000000000000000000000000000000000000000000000000000000000000a0000000000000000000000000000000000000000000000000000000000000000100000000000000000000000000000000000000000000000000000000000000106f7074696d69736d2d7365706f6c696100000000000000000000000000000000000000000000000000000000000000000000000000000000000000000000001421e1a9261a7e1050d34db82bb67dea80c5d4c0bc000000000000000000000000",
          "blockHash": "0x5de1463f173e55f6b912460ec59095d49c80858ed42642c68ce73984fd9256e5",
          "blockNumber": "0x26ec064",
          "blockTimestamp": "0x69f0dfa8",
          "transactionHash": "0xb5aed46881f4a36267adb856658a77c41f67f3b01fb0f0102b34c17e114d7ea5",
          "transactionIndex": "0x1d",
          "logIndex": "0x37",
          "removed": false
        }
      ],
      "logsBloom": "0x00000000000000000000000000000000000000000000000000000000000000000000000000000000000000000000000000000000000000000000000000000000000000000000000000000000000000000000000000000000000000000000000000000000000000000000000000000000000004000000000000000008000000000000000000000000000000000000000000000000000000040000000000000000000000000000000000000000000000000080000000000000000000000000000000000000000000000000000000000000000000000000000000000000000000000000002000000000000000000000000100000000000000000000000000000000",
      "type": "0x2",
      "transactionHash": "0xb5aed46881f4a36267adb856658a77c41f67f3b01fb0f0102b34c17e114d7ea5",
      "transactionIndex": "0x1d",
      "blockHash": "0x5de1463f173e55f6b912460ec59095d49c80858ed42642c68ce73984fd9256e5",
      "blockNumber": "0x26ec064",
      "gasUsed": "0xc82a",
      "effectiveGasPrice": "0x5b8d80",
      "blobGasUsed": "0x43a4",
      "from": "0x05f8cc8753d90d67dbb8c02118440b8283f941c9",
      "to": "0x055f3838c4d58b2b10ec4d64f39c7286777fb0ad",
      "contractAddress": null,
      "daFootprintGasScalar": "0x94",
      "l1BaseFeeScalar": "0x44d",
      "l1BlobBaseFee": "0xf36369",
      "l1BlobBaseFeeScalar": "0xa118b",
      "l1Fee": "0x70f14ede",
      "l1GasPrice": "0x13195193",
      "l1GasUsed": "0x752"
    },
    {
      "status": "0x1",
      "cumulativeGasUsed": "0x4664a6",
      "logs": [
        {
          "address": "0x055f3838c4d58b2b10ec4d64f39c7286777fb0ad",
          "topics": [
            "0xda7086ba3a561c749f4ec23ff7de600b64878a9dca1be22c201e6bd9e630bc91",
            "0x4d2fdc120be87ecf5661b7a75144d5d4b507b525eeb8c9c85c346a255e3b9663",
            "0x0000000000000000000000002f2a9dbfd8c503a0ac56413b774e39030df85331"
          ],
          "data": "0x0000000000000000000000000000000000000000000000000000000000000001",
          "blockHash": "0x5de1463f173e55f6b912460ec59095d49c80858ed42642c68ce73984fd9256e5",
          "blockNumber": "0x26ec064",
          "blockTimestamp": "0x69f0dfa8",
          "transactionHash": "0x663dcc0c48c5afca7b9c6caa4b69d9c0bb8b1f6011f2f18d5d1e568c3f5a035b",
          "transactionIndex": "0x1e",
          "logIndex": "0x38",
          "removed": false
        }
      ],
      "logsBloom": "0x00000000000000000000000000000000000000000000000000000000000000000000000000000000000000000000000000000000000010000000000010000000020000000000000000000000000000000000000001000000040000000000000000000800000000000000000000000000000000000000000000000008000000000800000000000000000000000000000000000000000000000000000000000000000000000000000000000000000000000080000000000000000000020000000000000000000000000000000000000000000000000000000000000000000000000040000000000000000000000000000100000000000000000000000000000000",
      "type": "0x2",
      "transactionHash": "0x663dcc0c48c5afca7b9c6caa4b69d9c0bb8b1f6011f2f18d5d1e568c3f5a035b",
      "transactionIndex": "0x1e",
      "blockHash": "0x5de1463f173e55f6b912460ec59095d49c80858ed42642c68ce73984fd9256e5",
      "blockNumber": "0x26ec064",
      "gasUsed": "0xbdf9",
      "effectiveGasPrice": "0x5b8d80",
      "blobGasUsed": "0x41e8",
      "from": "0x05f8cc8753d90d67dbb8c02118440b8283f941c9",
      "to": "0x055f3838c4d58b2b10ec4d64f39c7286777fb0ad",
      "contractAddress": null,
      "daFootprintGasScalar": "0x94",
      "l1BaseFeeScalar": "0x44d",
      "l1BlobBaseFee": "0xf36369",
      "l1BlobBaseFeeScalar": "0xa118b",
      "l1Fee": "0x6e862373",
      "l1GasPrice": "0x13195193",
      "l1GasUsed": "0x72a"
    },
    {
      "status": "0x1",
      "cumulativeGasUsed": "0x471f63",
      "logs": [
        {
          "address": "0x1e35837f3fbafeebf5e1ccc28b40e4099cf5db39",
          "topics": [
            "0x096f300665a57908ac1627e5a821ea670d2a90da7c601a19bf265f8553453f28",
            "0x0000000000000000000000000000000000000000000000000000000000009d28",
            "0x0000000000000000000000007f76c13d61ab4f9f7902c255a52a1dae6c434afb"
          ],
          "data": "0x",
          "blockHash": "0x0000000000000000000000000000000000000000000000000000000000000000",
          "blockNumber": "0x26ec064",
          "blockTimestamp": "0x69f0dfa8",
          "transactionHash": "0x70a3e3832e74f3f3c87c7c537776571f7be24196dfb2c8c00c0d82b08b85561e",
          "transactionIndex": "0x1f",
          "logIndex": "0x39",
          "removed": false
        }
      ],
      "logsBloom": "0x00000000000000000000000000000000000000000000000000000000000000000000000000000000000000000000000000000081000000000000000000000000000000440000000000010000000000000000000000000001000000000000000000000000000000000000000000000000000000000000000000000000000000000000000000000000000200000000000000000000000004000020000000000000000000000000000002000000000000000000000000000000000000000000000000000000000000000000000000000000000000000000000000000000000000000040000000000000000000000000000000000000000000000000000020000000",
      "type": "0x2",
      "transactionHash": "0x70a3e3832e74f3f3c87c7c537776571f7be24196dfb2c8c00c0d82b08b85561e",
      "transactionIndex": "0x1f",
      "blockHash": "0x0000000000000000000000000000000000000000000000000000000000000000",
      "blockNumber": "0x26ec064",
      "gasUsed": "0xbabd",
      "effectiveGasPrice": "0x5b8d80",
      "blobGasUsed": "0x39d0",
      "from": "0x05f8cc8753d90d67dbb8c02118440b8283f941c9",
      "to": "0x1e35837f3fbafeebf5e1ccc28b40e4099cf5db39",
      "contractAddress": null,
      "daFootprintGasScalar": "0x94",
      "l1BaseFeeScalar": "0x44d",
      "l1BlobBaseFee": "0xf36369",
      "l1BlobBaseFeeScalar": "0xa118b",
      "l1Fee": "0x606106c3",
      "l1GasPrice": "0x13195193",
      "l1GasUsed": "0x640"
    },
    {
      "status": "0x1",
      "cumulativeGasUsed": "0x47dbcd",
      "logs": [
        {
          "address": "0x1e35837f3fbafeebf5e1ccc28b40e4099cf5db39",
          "topics": [
            "0x4136032aa12649590b7253badbfc503b5d2e3b7d9a35afb3e4d9f6103c09a6b5",
            "0xd8364a952b144064fb3e5685a24c59ac2c26938583da19c951e02bcc2a42f1e7",
            "0x0000000000000000000000001500116d88b6583e63e2fa9d4199f2eddf72149b"
          ],
          "data": "0x",
          "blockHash": "0x5de1463f173e55f6b912460ec59095d49c80858ed42642c68ce73984fd9256e5",
          "blockNumber": "0x26ec064",
          "blockTimestamp": "0x69f0dfa8",
          "transactionHash": "0x4bccb098b7a752cfb8a499b8eac51b9d2b6ab83b14ce36dc9dba3baf84e42dc9",
          "transactionIndex": "0x20",
          "logIndex": "0x3a",
          "removed": false
        }
      ],
      "logsBloom": "0x00000000000000000000000001000000000000000000000000000000000000000000000000000000000000000000000000000000000000000000000000000000000000000000000000000000000200000000000000000000000000000000000000000000000000000000000000000000000000000000000000000000000000000001001000000000000200000000000000000000000000000020000000000000000011000000000000000000000000000000000000000000000000000000000000000000000000000000000000000000000000000004000000000000000000000000000000000000000000000000000000000000200100000000000020000000",
      "type": "0x2",
      "transactionHash": "0x4bccb098b7a752cfb8a499b8eac51b9d2b6ab83b14ce36dc9dba3baf84e42dc9",
      "transactionIndex": "0x20",
      "blockHash": "0x5de1463f173e55f6b912460ec59095d49c80858ed42642c68ce73984fd9256e5",
      "blockNumber": "0x26ec064",
      "gasUsed": "0xbc6a",
      "effectiveGasPrice": "0x5b8d80",
      "blobGasUsed": "0x3ddc",
      "from": "0x05f8cc8753d90d67dbb8c02118440b8283f941c9",
      "to": "0x1e35837f3fbafeebf5e1ccc28b40e4099cf5db39",
      "contractAddress": null,
      "daFootprintGasScalar": "0x94",
      "l1BaseFeeScalar": "0x44d",
      "l1BlobBaseFee": "0xf36369",
      "l1BlobBaseFeeScalar": "0xa118b",
      "l1Fee": "0x68130501",
      "l1GasPrice": "0x13195193",
      "l1GasUsed": "0x6bf"
    },
    {
      "status": "0x1",
      "cumulativeGasUsed": "0x489ac9",
      "logs": [
        {
          "address": "0x1e35837f3fbafeebf5e1ccc28b40e4099cf5db39",
          "topics": [
            "0xb7c8dd3f64d8ddf8d6f60970c4b891b50132c8511426927525184359ef6d5da7",
            "0x0000000000000000000000000000000000000000000000000000000000009d28",
            "0xd8364a952b144064fb3e5685a24c59ac2c26938583da19c951e02bcc2a42f1e7",
            "0x000000000000000000000000c1d9a1f64291cf47e703eab6b27fa0660cae7324"
          ],
          "data": "0x",
          "blockHash": "0x5de1463f173e55f6b912460ec59095d49c80858ed42642c68ce73984fd9256e5",
          "blockNumber": "0x26ec064",
          "blockTimestamp": "0x69f0dfa8",
          "transactionHash": "0xadb03401b0b41735eb7caed5db3671af2d2b8eab55c5f05ca4ce713012bb0e29",
          "transactionIndex": "0x21",
          "logIndex": "0x3b",
          "removed": false
        }
      ],
      "logsBloom": "0x00000000000000100020000000000000000000000000000000000000000000000000000000000000000000000000200000000081000000000000000000000000000000040001000000000000000000000000000000000000000000000000000000000000000000000000000000000000000000000000000000000000000000000001000000000000000200000000000000000000000000000020000000000000000000000000000000000000000000000000000000000000000000000000000000000001000000000000000000000000000000000004000000000000000000000000000000000000000000000000000000000000200000000000000220000000",
      "type": "0x2",
      "transactionHash": "0xadb03401b0b41735eb7caed5db3671af2d2b8eab55c5f05ca4ce713012bb0e29",
      "transactionIndex": "0x21",
      "blockHash": "0x5de1463f173e55f6b912460ec59095d49c80858ed42642c68ce73984fd9256e5",
      "blockNumber": "0x26ec064",
      "gasUsed": "0xbefc",
      "effectiveGasPrice": "0x5b8d80",
      "blobGasUsed": "0x4154",
      "from": "0x05f8cc8753d90d67dbb8c02118440b8283f941c9",
      "to": "0x1e35837f3fbafeebf5e1ccc28b40e4099cf5db39",
      "contractAddress": null,
      "daFootprintGasScalar": "0x94",
      "l1BaseFeeScalar": "0x44d",
      "l1BlobBaseFee": "0xf36369",
      "l1BlobBaseFeeScalar": "0xa118b",
      "l1Fee": "0x6ce95bd6",
      "l1GasPrice": "0x13195193",
      "l1GasUsed": "0x710"
    },
    {
      "status": "0x1",
      "cumulativeGasUsed": "0x49074a",
      "logs": [
        {
          "address": "0x1500116d88b6583e63e2fa9d4199f2eddf72149b",
          "topics": [
            "0x238399d427b947898edb290f5ff0f9109849b1c3ba196a42e35f00c50a54b98b"
          ],
          "data": "0x0000000000000000000000000000000000000000000000000000000000009d28000000000000000000000000c1d9a1f64291cf47e703eab6b27fa0660cae7324",
          "blockHash": "0x5de1463f173e55f6b912460ec59095d49c80858ed42642c68ce73984fd9256e5",
          "blockNumber": "0x26ec064",
          "blockTimestamp": "0x69f0dfa8",
          "transactionHash": "0x413b90843de52cc37f2f73784fa04ac67d3f1560e504a5431707598405e194c1",
          "transactionIndex": "0x22",
          "logIndex": "0x3c",
          "removed": false
        }
      ],
      "logsBloom": "0x00000000000000000000000000000000000000000000000000000000000000000000000000000000000000000000000000000000000000000800000000000000040000000000000000000000000000000000000000000000000000000000000000000000000800000000000000000000000000000000000000000000000000000000000000000000000000000000000000000000000000000000000000000000000000000000000000000000000000000000000008000000000002000000000000000000000000000000000000000000000000000000000000040000000000000000000000000000000000000000000000000000000000000000000000000000",
      "type": "0x2",
      "transactionHash": "0x413b90843de52cc37f2f73784fa04ac67d3f1560e504a5431707598405e194c1",
      "transactionIndex": "0x22",
      "blockHash": "0x5de1463f173e55f6b912460ec59095d49c80858ed42642c68ce73984fd9256e5",
      "blockNumber": "0x26ec064",
      "gasUsed": "0x6c81",
      "effectiveGasPrice": "0x5b8d80",
      "blobGasUsed": "0x39d0",
      "from": "0x05f8cc8753d90d67dbb8c02118440b8283f941c9",
      "to": "0x1500116d88b6583e63e2fa9d4199f2eddf72149b",
      "contractAddress": null,
      "daFootprintGasScalar": "0x94",
      "l1BaseFeeScalar": "0x44d",
      "l1BlobBaseFee": "0xf36369",
      "l1BlobBaseFeeScalar": "0xa118b",
      "l1Fee": "0x606106c3",
      "l1GasPrice": "0x13195193",
      "l1GasUsed": "0x640"
    }
  ],
  "libraries": [],
  "pending": [],
  "returns": {},
  "timestamp": 1777393576734,
  "chain": 84532,
  "commit": "56ad3ef"
}