{
  "transactions": [
    {
      "hash": "0x515a1eccdacde0271e9592709cb4f1d897329370d9037c97d638b5fc35e105cb",
      "transactionType": "CALL",
      "contractName": null,
      "contractAddress": "0x18d9b7695be41bb39ca8fed038554fc669a0691c",
      "function": "registerRailPlugin(address)",
      "arguments": [
        "0x397bA7B3Bba9beCA34c77cDdd615E8A7229B9351"
      ],
      "transaction": {
        "from": "0x05f8cc8753d90d67dbb8c02118440b8283f941c9",
        "to": "0x18d9b7695be41bb39ca8fed038554fc669a0691c",
        "gas": "0x28be3",
        "value": "0x0",
        "input": "0x172ceb34000000000000000000000000397ba7b3bba9beca34c77cddd615e8a7229b9351",
        "nonce": "0x1d0",
        "chainId": "0x14a34"
      },
      "additionalContracts": [],
      "isFixedGasLimit": false
    },
    {
      "hash": "0x786f7ec9bfd230120e92446eb52e31528c7a1c8654002b74d7389a14dea97046",
      "transactionType": "CALL",
      "contractName": null,
      "contractAddress": "0x18d9b7695be41bb39ca8fed038554fc669a0691c",
      "function": "registerRailPlugin(address)",
      "arguments": [
        "0xA1764F0E7E836Fd5B8a04622191b49ed737ceA97"
      ],
      "transaction": {
        "from": "0x05f8cc8753d90d67dbb8c02118440b8283f941c9",
        "to": "0x18d9b7695be41bb39ca8fed038554fc669a0691c",
        "gas": "0x22f16",
        "value": "0x0",
        "input": "0x172ceb34000000000000000000000000a1764f0e7e836fd5b8a04622191b49ed737cea97",
        "nonce": "0x1d1",
        "chainId": "0x14a34"
      },
      "additionalContracts": [],
      "isFixedGasLimit": false
    },
    {
      "hash": "0x1c4735a8bd7c6cef140f110913fca02fed60fcf037a4b312fda5118cbe51ff3d",
      "transactionType": "CALL",
      "contractName": null,
      "contractAddress": "0x18d9b7695be41bb39ca8fed038554fc669a0691c",
      "function": "registerRailPlugin(address)",
      "arguments": [
        "0x10aFEFDb684ba1e7AfaEbBAfe10e4117410a60E4"
      ],
      "transaction": {
        "from": "0x05f8cc8753d90d67dbb8c02118440b8283f941c9",
        "to": "0x18d9b7695be41bb39ca8fed038554fc669a0691c",
        "gas": "0x24fb9",
        "value": "0x0",
        "input": "0x172ceb3400000000000000000000000010afefdb684ba1e7afaebbafe10e4117410a60e4",
        "nonce": "0x1d2",
        "chainId": "0x14a34"
      },
      "additionalContracts": [],
      "isFixedGasLimit": false
    },
    {
      "hash": "0xe46a24629e2687938993ea6ddf4b2fd6fb45ee3a2ec8fe75d890733a313ff7ff",
      "transactionType": "CALL",
      "contractName": null,
      "contractAddress": "0x18d9b7695be41bb39ca8fed038554fc669a0691c",
      "function": "registerRailPlugin(address)",
      "arguments": [
        "0x25ea20f5b3b0104DC65903a5fEF5066cE018D6F0"
      ],
      "transaction": {
        "from": "0x05f8cc8753d90d67dbb8c02118440b8283f941c9",
        "to": "0x18d9b7695be41bb39ca8fed038554fc669a0691c",
        "gas": "0x24fb9",
        "value": "0x0",
        "input": "0x172ceb3400000000000000000000000025ea20f5b3b0104dc65903a5fef5066ce018d6f0",
        "nonce": "0x1d3",
        "chainId": "0x14a34"
      },
      "additionalContracts": [],
      "isFixedGasLimit": false
    },
    {
      "hash": "0x89cf9f9f91ca5b6666efb3e8eb7430f7066176e43fad7501889c282f0d5432ca",
      "transactionType": "CALL",
      "contractName": null,
      "contractAddress": "0xb006c9609b8fe8d52d2a16b4463446eda853264b",
      "function": "addApprovedCaller(address)",
      "arguments": [
        "0xE78C3473B59156416994b57bC261a51fFbEee4FA"
      ],
      "transaction": {
        "from": "0x05f8cc8753d90d67dbb8c02118440b8283f941c9",
        "to": "0xb006c9609b8fe8d52d2a16b4463446eda853264b",
        "gas": "0x107f3",
        "value": "0x0",
        "input": "0xab5cb85a000000000000000000000000e78c3473b59156416994b57bc261a51ffbeee4fa",
        "nonce": "0x1d4",
        "chainId": "0x14a34"
      },
      "additionalContracts": [],
      "isFixedGasLimit": false
    },
    {
      "hash": "0xe4b58e76cc87233091352fdc184e01830a250f365e70898bde41a295ef6ccf57",
      "transactionType": "CALL",
      "contractName": null,
      "contractAddress": "0xb006c9609b8fe8d52d2a16b4463446eda853264b",
      "function": "addApprovedCaller(address)",
      "arguments": [
        "0xC0Fbb4b422204D4bD3Aa98705650C8935B01f493"
      ],
      "transaction": {
        "from": "0x05f8cc8753d90d67dbb8c02118440b8283f941c9",
        "to": "0xb006c9609b8fe8d52d2a16b4463446eda853264b",
        "gas": "0x107f3",
        "value": "0x0",
        "input": "0xab5cb85a000000000000000000000000c0fbb4b422204d4bd3aa98705650c8935b01f493",
        "nonce": "0x1d5",
        "chainId": "0x14a34"
      },
      "additionalContracts": [],
      "isFixedGasLimit": false
    },
    {
      "hash": "0xdb4fd72c4d76f8bfb5fe301f446e8e2e052d15e46064941836796e3530821ddf",
      "transactionType": "CALL",
      "contractName": null,
      "contractAddress": "0x397ba7b3bba9beca34c77cddd615e8a7229b9351",
      "function": "setChainDomain(uint32,uint32)",
      "arguments": [
        "11155420",
        "2"
      ],
      "transaction": {
        "from": "0x05f8cc8753d90d67dbb8c02118440b8283f941c9",
        "to": "0x397ba7b3bba9beca34c77cddd615e8a7229b9351",
        "gas": "0xf936",
        "value": "0x0",
        "input": "0x7ef0d2870000000000000000000000000000000000000000000000000000000000aa37dc0000000000000000000000000000000000000000000000000000000000000002",
        "nonce": "0x1d6",
        "chainId": "0x14a34"
      },
      "additionalContracts": [],
      "isFixedGasLimit": false
    },
    {
      "hash": "0x2620247bf01c5a0add891b1f3d4ee3bb4e61f6feb3f4d5283f60adbcbd9487f2",
      "transactionType": "CALL",
      "contractName": null,
      "contractAddress": "0x397ba7b3bba9beca34c77cddd615e8a7229b9351",
      "function": "setDestinationReceiver(uint32,bytes32)",
      "arguments": [
        "11155420",
        "0x0000000000000000000000007307fee834ddc88a716904830c0cb356a4878be1"
      ],
      "transaction": {
        "from": "0x05f8cc8753d90d67dbb8c02118440b8283f941c9",
        "to": "0x397ba7b3bba9beca34c77cddd615e8a7229b9351",
        "gas": "0xfa09",
        "value": "0x0",
        "input": "0x0267dd6c0000000000000000000000000000000000000000000000000000000000aa37dc0000000000000000000000007307fee834ddc88a716904830c0cb356a4878be1",
        "nonce": "0x1d7",
        "chainId": "0x14a34"
      },
      "additionalContracts": [],
      "isFixedGasLimit": false
    },
    {
      "hash": "0x44d9b90e2d05561206d0afa27e4056b3b4b6800bade1917ba17439ab0c8c6522",
      "transactionType": "CALL",
      "contractName": null,
      "contractAddress": "0x397ba7b3bba9beca34c77cddd615e8a7229b9351",
      "function": "setDestinationCaller(uint32,bytes32)",
      "arguments": [
        "11155420",
        "0x00000000000000000000000005f8cc8753d90d67dbb8c02118440b8283f941c9"
      ],
      "transaction": {
        "from": "0x05f8cc8753d90d67dbb8c02118440b8283f941c9",
        "to": "0x397ba7b3bba9beca34c77cddd615e8a7229b9351",
        "gas": "0xf99d",
        "value": "0x0",
        "input": "0x00686ed20000000000000000000000000000000000000000000000000000000000aa37dc00000000000000000000000005f8cc8753d90d67dbb8c02118440b8283f941c9",
        "nonce": "0x1d8",
        "chainId": "0x14a34"
      },
      "additionalContracts": [],
      "isFixedGasLimit": false
    },
    {
      "hash": "0xb65e87427c5ec97ef5fe6d34ae40a657526c1597764d7cfcec4f1ed8020504a8",
      "transactionType": "CALL",
      "contractName": null,
      "contractAddress": "0xa1764f0e7e836fd5b8a04622191b49ed737cea97",
      "function": "setChainDomain(uint32,uint32)",
      "arguments": [
        "11155420",
        "2"
      ],
      "transaction": {
        "from": "0x05f8cc8753d90d67dbb8c02118440b8283f941c9",
        "to": "0xa1764f0e7e836fd5b8a04622191b49ed737cea97",
        "gas": "0x10820",
        "value": "0x0",
        "input": "0x7ef0d2870000000000000000000000000000000000000000000000000000000000aa37dc0000000000000000000000000000000000000000000000000000000000000002",
        "nonce": "0x1d9",
        "chainId": "0x14a34"
      },
      "additionalContracts": [],
      "isFixedGasLimit": false
    },
    {
      "hash": "0x7cdf28959a5e22f9f94ac903fc4cfbf25d5e92840d8bdb67656a7e7dd85040fb",
      "transactionType": "CALL",
      "contractName": null,
      "contractAddress": "0xa1764f0e7e836fd5b8a04622191b49ed737cea97",
      "function": "setDestinationReceiver(uint32,bytes32)",
      "arguments": [
        "11155420",
        "0x0000000000000000000000007307fee834ddc88a716904830c0cb356a4878be1"
      ],
      "transaction": {
        "from": "0x05f8cc8753d90d67dbb8c02118440b8283f941c9",
        "to": "0xa1764f0e7e836fd5b8a04622191b49ed737cea97",
        "gas": "0xf9eb",
        "value": "0x0",
        "input": "0x0267dd6c0000000000000000000000000000000000000000000000000000000000aa37dc0000000000000000000000007307fee834ddc88a716904830c0cb356a4878be1",
        "nonce": "0x1da",
        "chainId": "0x14a34"
      },
      "additionalContracts": [],
      "isFixedGasLimit": false
    },
    {
      "hash": "0xd1a76272a36da05b3d6369044f8c25cd185319342bc962a311a0c373045215df",
      "transactionType": "CALL",
      "contractName": null,
      "contractAddress": "0xa1764f0e7e836fd5b8a04622191b49ed737cea97",
      "function": "setDestinationCaller(uint32,bytes32)",
      "arguments": [
        "11155420",
        "0x00000000000000000000000005f8cc8753d90d67dbb8c02118440b8283f941c9"
      ],
      "transaction": {
        "from": "0x05f8cc8753d90d67dbb8c02118440b8283f941c9",
        "to": "0xa1764f0e7e836fd5b8a04622191b49ed737cea97",
        "gas": "0xf99d",
        "value": "0x0",
        "input": "0x00686ed20000000000000000000000000000000000000000000000000000000000aa37dc00000000000000000000000005f8cc8753d90d67dbb8c02118440b8283f941c9",
        "nonce": "0x1db",
        "chainId": "0x14a34"
      },
      "additionalContracts": [],
      "isFixedGasLimit": false
    },
    {
      "hash": "0xfeb277fe9e1cbac4543542ccd11f18d91808eee3a168195c0d80d1985b9c2567",
      "transactionType": "CALL",
      "contractName": null,
      "contractAddress": "0xa1764f0e7e836fd5b8a04622191b49ed737cea97",
      "function": "setMaxFeeBpsCap(uint256)",
      "arguments": [
        "100"
      ],
      "transaction": {
        "from": "0x05f8cc8753d90d67dbb8c02118440b8283f941c9",
        "to": "0xa1764f0e7e836fd5b8a04622191b49ed737cea97",
        "gas": "0x8bcb",
        "value": "0x0",
        "input": "0x357c4ea70000000000000000000000000000000000000000000000000000000000000064",
        "nonce": "0x1dc",
        "chainId": "0x14a34"
      },
      "additionalContracts": [],
      "isFixedGasLimit": false
    },
    {
      "hash": "0x9c72b9f2e11e55d9541ad60fead27522b7c360dab3341dd8775964b25db78ce2",
      "transactionType": "CALL",
      "contractName": null,
      "contractAddress": "0x10afefdb684ba1e7afaebbafe10e4117410a60e4",
      "function": "setRouteConfig(uint32,string,address,bytes32)",
      "arguments": [
        "11155420",
        "optimism-sepolia",
        "0x50d03965Ed30de5d246BdDa18E7B10A8904B8CF1",
        "0x4d2fdc120be87ecf5661b7a75144d5d4b507b525eeb8c9c85c346a255e3b9663"
      ],
      "transaction": {
        "from": "0x05f8cc8753d90d67dbb8c02118440b8283f941c9",
        "to": "0x10afefdb684ba1e7afaebbafe10e4117410a60e4",
        "gas": "0x1f2f3",
        "value": "0x0",
        "input": "0x7513a82a0000000000000000000000000000000000000000000000000000000000aa37dc000000000000000000000000000000000000000000000000000000000000008000000000000000000000000050d03965ed30de5d246bdda18e7b10a8904b8cf14d2fdc120be87ecf5661b7a75144d5d4b507b525eeb8c9c85c346a255e3b966300000000000000000000000000000000000000000000000000000000000000106f7074696d69736d2d7365706f6c696100000000000000000000000000000000",
        "nonce": "0x1dd",
        "chainId": "0x14a34"
      },
      "additionalContracts": [],
      "isFixedGasLimit": false
    },
    {
      "hash": "0x2959c08260cb67a4037bb4e9248fcb4ce23613a5164d17813686ee4c00c56d89",
      "transactionType": "CALL",
      "contractName": null,
      "contractAddress": "0x25ea20f5b3b0104dc65903a5fef5066ce018d6f0",
      "function": "setRouteConfig(uint32,uint32,address,bytes)",
      "arguments": [
        "11155420",
        "40232",
        "0xF1c5241FaEFC0dB9B9333D9E2196e992a20dFD3d",
        "0x00030100110100000000000000000000000000030d4001001303000000000000000000000000000000061a80"
      ],
      "transaction": {
        "from": "0x05f8cc8753d90d67dbb8c02118440b8283f941c9",
        "to": "0x25ea20f5b3b0104dc65903a5fef5066ce018d6f0",
        "gas": "0x2e154",
        "value": "0x0",
        "input": "0xd5bfb7fa0000000000000000000000000000000000000000000000000000000000aa37dc0000000000000000000000000000000000000000000000000000000000009d28000000000000000000000000f1c5241faefc0db9b9333d9e2196e992a20dfd3d0000000000000000000000000000000000000000000000000000000000000080000000000000000000000000000000000000000000000000000000000000002c00030100110100000000000000000000000000030d4001001303000000000000000000000000000000061a800000000000000000000000000000000000000000",
        "nonce": "0x1de",
        "chainId": "0x14a34"
      },
      "additionalContracts": [],
      "isFixedGasLimit": false
    },
    {
      "hash": "0x2b3fc6e3bf5a5623bd1e2e1ff5bb05badeccd518768b326ae2a6fca06c598161",
      "transactionType": "CALL",
      "contractName": null,
      "contractAddress": "0xe78c3473b59156416994b57bc261a51ffbeee4fa",
      "function": "setTrustedSourceAddress(string,address,bool)",
      "arguments": [
        "optimism-sepolia",
        "0xd0A943F871A4cbc0288ee2EaaAE7092b68A1247A",
        "true"
      ],
      "transaction": {
        "from": "0x05f8cc8753d90d67dbb8c02118440b8283f941c9",
        "to": "0xe78c3473b59156416994b57bc261a51ffbeee4fa",
        "gas": "0x11552",
        "value": "0x0",
        "input": "0x6dc3df1c0000000000000000000000000000000000000000000000000000000000000060000000000000000000000000d0a943f871a4cbc0288ee2eaaae7092b68a1247a000000000000000000000000000000000000000000000000000000000000000100000000000000000000000000000000000000000000000000000000000000106f7074696d69736d2d7365706f6c696100000000000000000000000000000000",
        "nonce": "0x1df",
        "chainId": "0x14a34"
      },
      "additionalContracts": [],
      "isFixedGasLimit": false
    },
    {
      "hash": "0x9b5c675fbd800bb2a7df060c8ec8a69584d23db5863a17fe0e4652000cca01ed",
      "transactionType": "CALL",
      "contractName": null,
      "contractAddress": "0xe78c3473b59156416994b57bc261a51ffbeee4fa",
      "function": "setTrustedToken(bytes32,address,bool)",
      "arguments": [
        "0x4d2fdc120be87ecf5661b7a75144d5d4b507b525eeb8c9c85c346a255e3b9663",
        "0x2f2A9DbFd8c503a0aC56413B774e39030df85331",
        "true"
      ],
      "transaction": {
        "from": "0x05f8cc8753d90d67dbb8c02118440b8283f941c9",
        "to": "0xe78c3473b59156416994b57bc261a51ffbeee4fa",
        "gas": "0x10772",
        "value": "0x0",
        "input": "0x001089604d2fdc120be87ecf5661b7a75144d5d4b507b525eeb8c9c85c346a255e3b96630000000000000000000000002f2a9dbfd8c503a0ac56413b774e39030df853310000000000000000000000000000000000000000000000000000000000000001",
        "nonce": "0x1e0",
        "chainId": "0x14a34"
      },
      "additionalContracts": [],
      "isFixedGasLimit": false
    },
    {
      "hash": "0x890e406f0a400708f2e3692bcf8d92698b4e2ca912d4b567c0c279f3d8b044a0",
      "transactionType": "CALL",
      "contractName": null,
      "contractAddress": "0xc0fbb4b422204d4bd3aa98705650c8935b01f493",
      "function": "setTrustedPeerAddress(uint32,address)",
      "arguments": [
        "40232",
        "0x1F031F7A2652fD6f10F1FB37BEfaac8A69039f08"
      ],
      "transaction": {
        "from": "0x05f8cc8753d90d67dbb8c02118440b8283f941c9",
        "to": "0xc0fbb4b422204d4bd3aa98705650c8935b01f493",
        "gas": "0x111ae",
        "value": "0x0",
        "input": "0x60c5965f0000000000000000000000000000000000000000000000000000000000009d280000000000000000000000001f031f7a2652fd6f10f1fb37befaac8a69039f08",
        "nonce": "0x1e1",
        "chainId": "0x14a34"
      },
      "additionalContracts": [],
      "isFixedGasLimit": false
    },
    {
      "hash": "0x25b580ec87f650f3704d7e9f7515212445bab3d8a0e0540dd32c39c6f018b4c8",
      "transactionType": "CALL",
      "contractName": null,
      "contractAddress": "0x1500116d88b6583e63e2fa9d4199f2eddf72149b",
      "function": "setPeer(uint32,bytes32)",
      "arguments": [
        "40232",
        "0x000000000000000000000000c1d9a1f64291cf47e703eab6b27fa0660cae7324"
      ],
      "transaction": {
        "from": "0x05f8cc8753d90d67dbb8c02118440b8283f941c9",
        "to": "0x1500116d88b6583e63e2fa9d4199f2eddf72149b",
        "gas": "0x9eaf",
        "value": "0x0",
        "input": "0x3400288b0000000000000000000000000000000000000000000000000000000000009d28000000000000000000000000c1d9a1f64291cf47e703eab6b27fa0660cae7324",
        "nonce": "0x1e2",
        "chainId": "0x14a34"
      },
      "additionalContracts": [],
      "isFixedGasLimit": false
    }
  ],
  "receipts": [
    {
      "status": "0x1",
      "cumulativeGasUsed": "0x355c10",
      "logs": [
        {
          "address": "0x18d9b7695be41bb39ca8fed038554fc669a0691c",
          "topics": [
            "0xa86330cede453edbe00d0dbe74ee3bdbac6d7b048009b0d72d54aa609df01a71",
            "0xb148ea5f936a28661e11743b1650193f1b14a2322b9541503bf6815a84a1a6e9"
          ],
          "data": "0x000000000000000000000000397ba7b3bba9beca34c77cddd615e8a7229b93510000000000000000000000000000000000000000000000000000000000000000",
          "blockHash": "0x28b7802913dfc513b80871f20871a7f2a13fda53308af4c9754c9b55450710fd",
          "blockNumber": "0x26ab397",
          "blockTimestamp": "0x69e8c60e",
          "transactionHash": "0x786f7ec9bfd230120e92446eb52e31528c7a1c8654002b74d7389a14dea97046",
          "transactionIndex": "0xc",
          "logIndex": "0x32",
          "removed": false
        }
      ],
      "logsBloom": "0x00000400000000002000000000000000000000000000000000000000000000000000000000000000000000000000000000000000000000000000000000000000000000000000000000000020000000000000000020000000000000000000000000000000000000000000000020000000000000000000000000000000000000000000000000000000000000000000000000000000000000000000000000000000000000000000100000000000000000000000000000000000000000000000000000000000000000000000000000200000000000400000000000000040000000000000000000000000000000000000000000000000000000000000000000000000",
      "type": "0x2",
      "transactionHash": "0x786f7ec9bfd230120e92446eb52e31528c7a1c8654002b74d7389a14dea97046",
      "transactionIndex": "0xc",
      "blockHash": "0x28b7802913dfc513b80871f20871a7f2a13fda53308af4c9754c9b55450710fd",
      "blockNumber": "0x26ab397",
      "gasUsed": "0x1d7f5",
      "effectiveGasPrice": "0x5b8d80",
      "blobGasUsed": "0x39d0",
      "from": "0x05f8cc8753d90d67dbb8c02118440b8283f941c9",
      "to": "0x18d9b7695be41bb39ca8fed038554fc669a0691c",
      "contractAddress": null,
      "daFootprintGasScalar": "0x94",
      "l1BaseFeeScalar": "0x44d",
      "l1BlobBaseFee": "0x63a8af",
      "l1BlobBaseFeeScalar": "0xa118b",
      "l1Fee": "0x24beb131",
      "l1GasPrice": "0x646e285",
      "l1GasUsed": "0x640"
    },
    {
      "status": "0x1",
      "cumulativeGasUsed": "0x36f0d5",
      "logs": [
        {
          "address": "0x18d9b7695be41bb39ca8fed038554fc669a0691c",
          "topics": [
            "0xa86330cede453edbe00d0dbe74ee3bdbac6d7b048009b0d72d54aa609df01a71",
            "0x9181644edfd36b07ccd623494a3681a4a6b9cd5d52611accda20264cd09259ac"
          ],
          "data": "0x000000000000000000000000a1764f0e7e836fd5b8a04622191b49ed737cea970000000000000000000000000000000000000000000000000000000000000000",
          "blockHash": "0x28b7802913dfc513b80871f20871a7f2a13fda53308af4c9754c9b55450710fd",
          "blockNumber": "0x26ab397",
          "blockTimestamp": "0x69e8c60e",
          "transactionHash": "0x515a1eccdacde0271e9592709cb4f1d897329370d9037c97d638b5fc35e105cb",
          "transactionIndex": "0xd",
          "logIndex": "0x33",
          "removed": false
        }
      ],
      "logsBloom": "0x00000000000000002000000000000000000000004000000000000000000000008000000000000000000000000000000000000000000000000000000000000000000000000000000000000020000000000000000000000000000000000000000000000000000000000000000000000000000000000000000000000000000000000000000000000008000000000000000000000000000000000000000000000000000000000000100000000000000000000000000000000000000000000000000000000000000000000000000000200000000000400000000000000040000000000000000000000000000000000000000000000000000000000000000000000000",
      "type": "0x2",
      "transactionHash": "0x515a1eccdacde0271e9592709cb4f1d897329370d9037c97d638b5fc35e105cb",
      "transactionIndex": "0xd",
      "blockHash": "0x28b7802913dfc513b80871f20871a7f2a13fda53308af4c9754c9b55450710fd",
      "blockNumber": "0x26ab397",
      "gasUsed": "0x194c5",
      "effectiveGasPrice": "0x5b8d80",
      "blobGasUsed": "0x39d0",
      "from": "0x05f8cc8753d90d67dbb8c02118440b8283f941c9",
      "to": "0x18d9b7695be41bb39ca8fed038554fc669a0691c",
      "contractAddress": null,
      "daFootprintGasScalar": "0x94",
      "l1BaseFeeScalar": "0x44d",
      "l1BlobBaseFee": "0x63a8af",
      "l1BlobBaseFeeScalar": "0xa118b",
      "l1Fee": "0x24beb131",
      "l1GasPrice": "0x646e285",
      "l1GasUsed": "0x640"
    },
    {
      "status": "0x1",
      "cumulativeGasUsed": "0x38856e",
      "logs": [
        {
          "address": "0x18d9b7695be41bb39ca8fed038554fc669a0691c",
          "topics": [
            "0xa86330cede453edbe00d0dbe74ee3bdbac6d7b048009b0d72d54aa609df01a71",
            "0xdee0b34b74b60e53553685c32477090103c2b806eb925a8cd000efa92bef3e8b"
          ],
          "data": "0x00000000000000000000000010afefdb684ba1e7afaebbafe10e4117410a60e40000000000000000000000000000000000000000000000000000000000000000",
          "blockHash": "0x28b7802913dfc513b80871f20871a7f2a13fda53308af4c9754c9b55450710fd",
          "blockNumber": "0x26ab397",
          "blockTimestamp": "0x69e8c60e",
          "transactionHash": "0xe4b58e76cc87233091352fdc184e01830a250f365e70898bde41a295ef6ccf57",
          "transactionIndex": "0xe",
          "logIndex": "0x34",
          "removed": false
        }
      ],
      "logsBloom": "0x00000000000000002000000000000000000000000000000000000000000000000000000000000000000000000000000000000000000000000000000000000000000000000000000000000020000000000000000000000040000000000000000000000000000000000000000000000000000000000000000000000000000000000000000000000004000000000000000000000000000000000000000000000000000000000000100000000000000000000000000000000000000000000000000000000000000000000000000000200000000000400000000000000040000000000000000000000000000000000000100000000000000000000000000000000000",
      "type": "0x2",
      "transactionHash": "0xe4b58e76cc87233091352fdc184e01830a250f365e70898bde41a295ef6ccf57",
      "transactionIndex": "0xe",
      "blockHash": "0x28b7802913dfc513b80871f20871a7f2a13fda53308af4c9754c9b55450710fd",
      "blockNumber": "0x26ab397",
      "gasUsed": "0x19499",
      "effectiveGasPrice": "0x5b8d80",
      "blobGasUsed": "0x39d0",
      "from": "0x05f8cc8753d90d67dbb8c02118440b8283f941c9",
      "to": "0x18d9b7695be41bb39ca8fed038554fc669a0691c",
      "contractAddress": null,
      "daFootprintGasScalar": "0x94",
      "l1BaseFeeScalar": "0x44d",
      "l1BlobBaseFee": "0x63a8af",
      "l1BlobBaseFeeScalar": "0xa118b",
      "l1Fee": "0x24beb131",
      "l1GasPrice": "0x646e285",
      "l1GasUsed": "0x640"
    },
    {
      "status": "0x1",
      "cumulativeGasUsed": "0x3a1a07",
      "logs": [
        {
          "address": "0x18d9b7695be41bb39ca8fed038554fc669a0691c",
          "topics": [
            "0xa86330cede453edbe00d0dbe74ee3bdbac6d7b048009b0d72d54aa609df01a71",
            "0xc472efb7b9a986e1446d8bf9dec51e88548a1d8eb4a0810e6424d97a878d34fc"
          ],
          "data": "0x00000000000000000000000025ea20f5b3b0104dc65903a5fef5066ce018d6f00000000000000000000000000000000000000000000000000000000000000000",
          "blockHash": "0x28b7802913dfc513b80871f20871a7f2a13fda53308af4c9754c9b55450710fd",
          "blockNumber": "0x26ab397",
          "blockTimestamp": "0x69e8c60e",
          "transactionHash": "0xdb4fd72c4d76f8bfb5fe301f446e8e2e052d15e46064941836796e3530821ddf",
          "transactionIndex": "0xf",
          "logIndex": "0x35",
          "removed": false
        }
      ],
      "logsBloom": "0x00000000000000002000000000000000000000000000000000000000000000000000000000000000000000000000000000000000000000000000000000000000000000000000000000000020000000000000000000000000000000000000000000000800000000000000000000000000000040000000000000000000000000000000000000000000000000000000000000000000000000000000000000000000000002000000100000000000000000000000000000000000000000000000000000000000000000000000000000200000000000400000000000000040000000000000000000000000000000000000000000000000000000000000000000000000",
      "type": "0x2",
      "transactionHash": "0xdb4fd72c4d76f8bfb5fe301f446e8e2e052d15e46064941836796e3530821ddf",
      "transactionIndex": "0xf",
      "blockHash": "0x28b7802913dfc513b80871f20871a7f2a13fda53308af4c9754c9b55450710fd",
      "blockNumber": "0x26ab397",
      "gasUsed": "0x19499",
      "effectiveGasPrice": "0x5b8d80",
      "blobGasUsed": "0x39d0",
      "from": "0x05f8cc8753d90d67dbb8c02118440b8283f941c9",
      "to": "0x18d9b7695be41bb39ca8fed038554fc669a0691c",
      "contractAddress": null,
      "daFootprintGasScalar": "0x94",
      "l1BaseFeeScalar": "0x44d",
      "l1BlobBaseFee": "0x63a8af",
      "l1BlobBaseFeeScalar": "0xa118b",
      "l1Fee": "0x24beb131",
      "l1GasPrice": "0x646e285",
      "l1GasUsed": "0x640"
    },
    {
      "status": "0x1",
      "cumulativeGasUsed": "0x3d20c8",
      "logs": [],
      "logsBloom": "0x00000000000000000000000000000000000000000000000000000000000000000000000000000000000000000000000000000000000000000000000000000000000000000000000000000000000000000000000000000000000000000000000000000000000000000000000000000000000000000000000000000000000000000000000000000000000000000000000000000000000000000000000000000000000000000000000000000000000000000000000000000000000000000000000000000000000000000000000000000000000000000000000000000000000000000000000000000000000000000000000000000000000000000000000000000000",
      "type": "0x2",
      "transactionHash": "0x9c72b9f2e11e55d9541ad60fead27522b7c360dab3341dd8775964b25db78ce2",
      "transactionIndex": "0x11",
      "blockHash": "0x28b7802913dfc513b80871f20871a7f2a13fda53308af4c9754c9b55450710fd",
      "blockNumber": "0x26ab397",
      "gasUsed": "0xb47b",
      "effectiveGasPrice": "0x5b8d80",
      "blobGasUsed": "0x39d0",
      "from": "0x05f8cc8753d90d67dbb8c02118440b8283f941c9",
      "to": "0xb006c9609b8fe8d52d2a16b4463446eda853264b",
      "contractAddress": null,
      "daFootprintGasScalar": "0x94",
      "l1BaseFeeScalar": "0x44d",
      "l1BlobBaseFee": "0x63a8af",
      "l1BlobBaseFeeScalar": "0xa118b",
      "l1Fee": "0x24beb131",
      "l1GasPrice": "0x646e285",
      "l1GasUsed": "0x640"
    },
    {
      "status": "0x1",
      "cumulativeGasUsed": "0x3dd543",
      "logs": [],
      "logsBloom": "0x00000000000000000000000000000000000000000000000000000000000000000000000000000000000000000000000000000000000000000000000000000000000000000000000000000000000000000000000000000000000000000000000000000000000000000000000000000000000000000000000000000000000000000000000000000000000000000000000000000000000000000000000000000000000000000000000000000000000000000000000000000000000000000000000000000000000000000000000000000000000000000000000000000000000000000000000000000000000000000000000000000000000000000000000000000000",
      "type": "0x2",
      "transactionHash": "0x1c4735a8bd7c6cef140f110913fca02fed60fcf037a4b312fda5118cbe51ff3d",
      "transactionIndex": "0x12",
      "blockHash": "0x28b7802913dfc513b80871f20871a7f2a13fda53308af4c9754c9b55450710fd",
      "blockNumber": "0x26ab397",
      "gasUsed": "0xb47b",
      "effectiveGasPrice": "0x5b8d80",
      "blobGasUsed": "0x39d0",
      "from": "0x05f8cc8753d90d67dbb8c02118440b8283f941c9",
      "to": "0xb006c9609b8fe8d52d2a16b4463446eda853264b",
      "contractAddress": null,
      "daFootprintGasScalar": "0x94",
      "l1BaseFeeScalar": "0x44d",
      "l1BlobBaseFee": "0x63a8af",
      "l1BlobBaseFeeScalar": "0xa118b",
      "l1Fee": "0x24beb131",
      "l1GasPrice": "0x646e285",
      "l1GasUsed": "0x640"
    },
    {
      "status": "0x1",
      "cumulativeGasUsed": "0x3e89b1",
      "logs": [],
      "logsBloom": "0x00000000000000000000000000000000000000000000000000000000000000000000000000000000000000000000000000000000000000000000000000000000000000000000000000000000000000000000000000000000000000000000000000000000000000000000000000000000000000000000000000000000000000000000000000000000000000000000000000000000000000000000000000000000000000000000000000000000000000000000000000000000000000000000000000000000000000000000000000000000000000000000000000000000000000000000000000000000000000000000000000000000000000000000000000000000",
      "type": "0x2",
      "transactionHash": "0xe46a24629e2687938993ea6ddf4b2fd6fb45ee3a2ec8fe75d890733a313ff7ff",
      "transactionIndex": "0x13",
      "blockHash": "0x28b7802913dfc513b80871f20871a7f2a13fda53308af4c9754c9b55450710fd",
      "blockNumber": "0x26ab397",
      "gasUsed": "0xb46e",
      "effectiveGasPrice": "0x5b8d80",
      "blobGasUsed": "0x39d0",
      "from": "0x05f8cc8753d90d67dbb8c02118440b8283f941c9",
      "to": "0x397ba7b3bba9beca34c77cddd615e8a7229b9351",
      "contractAddress": null,
      "daFootprintGasScalar": "0x94",
      "l1BaseFeeScalar": "0x44d",
      "l1BlobBaseFee": "0x63a8af",
      "l1BlobBaseFeeScalar": "0xa118b",
      "l1Fee": "0x24beb131",
      "l1GasPrice": "0x646e285",
      "l1GasUsed": "0x640"
    },
    {
      "status": "0x1",
      "cumulativeGasUsed": "0x3f3eb7",
      "logs": [],
      "logsBloom": "0x00000000000000000000000000000000000000000000000000000000000000000000000000000000000000000000000000000000000000000000000000000000000000000000000000000000000000000000000000000000000000000000000000000000000000000000000000000000000000000000000000000000000000000000000000000000000000000000000000000000000000000000000000000000000000000000000000000000000000000000000000000000000000000000000000000000000000000000000000000000000000000000000000000000000000000000000000000000000000000000000000000000000000000000000000000000",
      "type": "0x2",
      "transactionHash": "0x2620247bf01c5a0add891b1f3d4ee3bb4e61f6feb3f4d5283f60adbcbd9487f2",
      "transactionIndex": "0x14",
      "blockHash": "0x28b7802913dfc513b80871f20871a7f2a13fda53308af4c9754c9b55450710fd",
      "blockNumber": "0x26ab397",
      "gasUsed": "0xb506",
      "effectiveGasPrice": "0x5b8d80",
      "blobGasUsed": "0x39d0",
      "from": "0x05f8cc8753d90d67dbb8c02118440b8283f941c9",
      "to": "0x397ba7b3bba9beca34c77cddd615e8a7229b9351",
      "contractAddress": null,
      "daFootprintGasScalar": "0x94",
      "l1BaseFeeScalar": "0x44d",
      "l1BlobBaseFee": "0x63a8af",
      "l1BlobBaseFeeScalar": "0xa118b",
      "l1Fee": "0x24beb131",
      "l1GasPrice": "0x646e285",
      "l1GasUsed": "0x640"
    },
    {
      "status": "0x1",
      "cumulativeGasUsed": "0x1011d3",
      "logs": [],
      "logsBloom": "0x00000000000000000000000000000000000000000000000000000000000000000000000000000000000000000000000000000000000000000000000000000000000000000000000000000000000000000000000000000000000000000000000000000000000000000000000000000000000000000000000000000000000000000000000000000000000000000000000000000000000000000000000000000000000000000000000000000000000000000000000000000000000000000000000000000000000000000000000000000000000000000000000000000000000000000000000000000000000000000000000000000000000000000000000000000000",
      "type": "0x2",
      "transactionHash": "0x890e406f0a400708f2e3692bcf8d92698b4e2ca912d4b567c0c279f3d8b044a0",
      "transactionIndex": "0x5",
      "blockHash": "0x0000000000000000000000000000000000000000000000000000000000000000",
      "blockNumber": "0x26ab398",
      "gasUsed": "0xb4b8",
      "effectiveGasPrice": "0x5b8d80",
      "blobGasUsed": "0x39d0",
      "from": "0x05f8cc8753d90d67dbb8c02118440b8283f941c9",
      "to": "0x397ba7b3bba9beca34c77cddd615e8a7229b9351",
      "contractAddress": null,
      "daFootprintGasScalar": "0x94",
      "l1BaseFeeScalar": "0x44d",
      "l1BlobBaseFee": "0x63a8af",
      "l1BlobBaseFeeScalar": "0xa118b",
      "l1Fee": "0x24beb131",
      "l1GasPrice": "0x646e285",
      "l1GasUsed": "0x640"
    },
    {
      "status": "0x1",
      "cumulativeGasUsed": "0x10c66d",
      "logs": [],
      "logsBloom": "0x00000000000000000000000000000000000000000000000000000000000000000000000000000000000000000000000000000000000000000000000000000000000000000000000000000000000000000000000000000000000000000000000000000000000000000000000000000000000000000000000000000000000000000000000000000000000000000000000000000000000000000000000000000000000000000000000000000000000000000000000000000000000000000000000000000000000000000000000000000000000000000000000000000000000000000000000000000000000000000000000000000000000000000000000000000000",
      "type": "0x2",
      "transactionHash": "0x44d9b90e2d05561206d0afa27e4056b3b4b6800bade1917ba17439ab0c8c6522",
      "transactionIndex": "0x6",
      "blockHash": "0x0000000000000000000000000000000000000000000000000000000000000000",
      "blockNumber": "0x26ab398",
      "gasUsed": "0xb49a",
      "effectiveGasPrice": "0x5b8d80",
      "blobGasUsed": "0x39d0",
      "from": "0x05f8cc8753d90d67dbb8c02118440b8283f941c9",
      "to": "0xa1764f0e7e836fd5b8a04622191b49ed737cea97",
      "contractAddress": null,
      "daFootprintGasScalar": "0x94",
      "l1BaseFeeScalar": "0x44d",
      "l1BlobBaseFee": "0x63a8af",
      "l1BlobBaseFeeScalar": "0xa118b",
      "l1Fee": "0x24beb131",
      "l1GasPrice": "0x646e285",
      "l1GasUsed": "0x640"
    },
    {
      "status": "0x1",
      "cumulativeGasUsed": "0x117b5d",
      "logs": [],
      "logsBloom": "0x00000000000000000000000000000000000000000000000000000000000000000000000000000000000000000000000000000000000000000000000000000000000000000000000000000000000000000000000000000000000000000000000000000000000000000000000000000000000000000000000000000000000000000000000000000000000000000000000000000000000000000000000000000000000000000000000000000000000000000000000000000000000000000000000000000000000000000000000000000000000000000000000000000000000000000000000000000000000000000000000000000000000000000000000000000000",
      "type": "0x2",
      "transactionHash": "0x89cf9f9f91ca5b6666efb3e8eb7430f7066176e43fad7501889c282f0d5432ca",
      "transactionIndex": "0x7",
      "blockHash": "0x0000000000000000000000000000000000000000000000000000000000000000",
      "blockNumber": "0x26ab398",
      "gasUsed": "0xb4f0",
      "effectiveGasPrice": "0x5b8d80",
      "blobGasUsed": "0x39d0",
      "from": "0x05f8cc8753d90d67dbb8c02118440b8283f941c9",
      "to": "0xa1764f0e7e836fd5b8a04622191b49ed737cea97",
      "contractAddress": null,
      "daFootprintGasScalar": "0x94",
      "l1BaseFeeScalar": "0x44d",
      "l1BlobBaseFee": "0x63a8af",
      "l1BlobBaseFeeScalar": "0xa118b",
      "l1Fee": "0x24beb131",
      "l1GasPrice": "0x646e285",
      "l1GasUsed": "0x640"
    },
    {
      "status": "0x1",
      "cumulativeGasUsed": "0x123015",
      "logs": [],
      "logsBloom": "0x00000000000000000000000000000000000000000000000000000000000000000000000000000000000000000000000000000000000000000000000000000000000000000000000000000000000000000000000000000000000000000000000000000000000000000000000000000000000000000000000000000000000000000000000000000000000000000000000000000000000000000000000000000000000000000000000000000000000000000000000000000000000000000000000000000000000000000000000000000000000000000000000000000000000000000000000000000000000000000000000000000000000000000000000000000000",
      "type": "0x2",
      "transactionHash": "0xb65e87427c5ec97ef5fe6d34ae40a657526c1597764d7cfcec4f1ed8020504a8",
      "transactionIndex": "0x8",
      "blockHash": "0x0000000000000000000000000000000000000000000000000000000000000000",
      "blockNumber": "0x26ab398",
      "gasUsed": "0xb4b8",
      "effectiveGasPrice": "0x5b8d80",
      "blobGasUsed": "0x39d0",
      "from": "0x05f8cc8753d90d67dbb8c02118440b8283f941c9",
      "to": "0xa1764f0e7e836fd5b8a04622191b49ed737cea97",
      "contractAddress": null,
      "daFootprintGasScalar": "0x94",
      "l1BaseFeeScalar": "0x44d",
      "l1BlobBaseFee": "0x63a8af",
      "l1BlobBaseFeeScalar": "0xa118b",
      "l1Fee": "0x24beb131",
      "l1GasPrice": "0x646e285",
      "l1GasUsed": "0x640"
    },
    {
      "status": "0x1",
      "cumulativeGasUsed": "0x12954b",
      "logs": [],
      "logsBloom": "0x00000000000000000000000000000000000000000000000000000000000000000000000000000000000000000000000000000000000000000000000000000000000000000000000000000000000000000000000000000000000000000000000000000000000000000000000000000000000000000000000000000000000000000000000000000000000000000000000000000000000000000000000000000000000000000000000000000000000000000000000000000000000000000000000000000000000000000000000000000000000000000000000000000000000000000000000000000000000000000000000000000000000000000000000000000000",
      "type": "0x2",
      "transactionHash": "0xd1a76272a36da05b3d6369044f8c25cd185319342bc962a311a0c373045215df",
      "transactionIndex": "0x9",
      "blockHash": "0x0000000000000000000000000000000000000000000000000000000000000000",
      "blockNumber": "0x26ab398",
      "gasUsed": "0x6536",
      "effectiveGasPrice": "0x5b8d80",
      "blobGasUsed": "0x39d0",
      "from": "0x05f8cc8753d90d67dbb8c02118440b8283f941c9",
      "to": "0xa1764f0e7e836fd5b8a04622191b49ed737cea97",
      "contractAddress": null,
      "daFootprintGasScalar": "0x94",
      "l1BaseFeeScalar": "0x44d",
      "l1BlobBaseFee": "0x63a8af",
      "l1BlobBaseFeeScalar": "0xa118b",
      "l1Fee": "0x24beb131",
      "l1GasPrice": "0x646e285",
      "l1GasUsed": "0x640"
    },
    {
      "status": "0x1",
      "cumulativeGasUsed": "0x13fe87",
      "logs": [],
      "logsBloom": "0x00000000000000000000000000000000000000000000000000000000000000000000000000000000000000000000000000000000000000000000000000000000000000000000000000000000000000000000000000000000000000000000000000000000000000000000000000000000000000000000000000000000000000000000000000000000000000000000000000000000000000000000000000000000000000000000000000000000000000000000000000000000000000000000000000000000000000000000000000000000000000000000000000000000000000000000000000000000000000000000000000000000000000000000000000000000",
      "type": "0x2",
      "transactionHash": "0xfeb277fe9e1cbac4543542ccd11f18d91808eee3a168195c0d80d1985b9c2567",
      "transactionIndex": "0xa",
      "blockHash": "0x0000000000000000000000000000000000000000000000000000000000000000",
      "blockNumber": "0x26ab398",
      "gasUsed": "0x1693c",
      "effectiveGasPrice": "0x5b8d80",
      "blobGasUsed": "0x53d4",
      "from": "0x05f8cc8753d90d67dbb8c02118440b8283f941c9",
      "to": "0x10afefdb684ba1e7afaebbafe10e4117410a60e4",
      "contractAddress": null,
      "daFootprintGasScalar": "0x94",
      "l1BaseFeeScalar": "0x44d",
      "l1BlobBaseFee": "0x63a8af",
      "l1BlobBaseFeeScalar": "0xa118b",
      "l1Fee": "0x24beb131",
      "l1GasPrice": "0x646e285",
      "l1GasUsed": "0x91a"
    },
    {
      "status": "0x1",
      "cumulativeGasUsed": "0x161457",
      "logs": [],
      "logsBloom": "0x00000000000000000000000000000000000000000000000000000000000000000000000000000000000000000000000000000000000000000000000000000000000000000000000000000000000000000000000000000000000000000000000000000000000000000000000000000000000000000000000000000000000000000000000000000000000000000000000000000000000000000000000000000000000000000000000000000000000000000000000000000000000000000000000000000000000000000000000000000000000000000000000000000000000000000000000000000000000000000000000000000000000000000000000000000000",
      "type": "0x2",
      "transactionHash": "0x7cdf28959a5e22f9f94ac903fc4cfbf25d5e92840d8bdb67656a7e7dd85040fb",
      "transactionIndex": "0xb",
      "blockHash": "0x0000000000000000000000000000000000000000000000000000000000000000",
      "blockNumber": "0x26ab398",
      "gasUsed": "0x215d0",
      "effectiveGasPrice": "0x5b8d80",
      "blobGasUsed": "0x4d78",
      "from": "0x05f8cc8753d90d67dbb8c02118440b8283f941c9",
      "to": "0x25ea20f5b3b0104dc65903a5fef5066ce018d6f0",
      "contractAddress": null,
      "daFootprintGasScalar": "0x94",
      "l1BaseFeeScalar": "0x44d",
      "l1BlobBaseFee": "0x63a8af",
      "l1BlobBaseFeeScalar": "0xa118b",
      "l1Fee": "0x24beb131",
      "l1GasPrice": "0x646e285",
      "l1GasUsed": "0x86c"
    },
    {
      "status": "0x1",
      "cumulativeGasUsed": "0x16dd1e",
      "logs": [
        {
          "address": "0xe78c3473b59156416994b57bc261a51ffbeee4fa",
          "topics": [
            "0xd67543d9b94fa2fae98cd5cd9409f07a5b3532a8433e6122d97c34dfc9735b52"
          ],
          "data": "0x000000000000000000000000000000000000000000000000000000000000006000000000000000000000000000000000000000000000000000000000000000a0000000000000000000000000000000000000000000000000000000000000000100000000000000000000000000000000000000000000000000000000000000106f7074696d69736d2d7365706f6c6961000000000000000000000000000000000000000000000000000000000000000000000000000000000000000000000014d0a943f871a4cbc0288ee2eaaae7092b68a1247a000000000000000000000000",
          "blockHash": "0x0000000000000000000000000000000000000000000000000000000000000000",
          "blockNumber": "0x26ab398",
          "blockTimestamp": "0x69e8c610",
          "transactionHash": "0x9b5c675fbd800bb2a7df060c8ec8a69584d23db5863a17fe0e4652000cca01ed",
          "transactionIndex": "0xc",
          "logIndex": "0x15",
          "removed": false
        }
      ],
      "logsBloom": "0x00000000000000000000000000000000000000000000000000000000000000000000000000000000000000000000000000000000000000000000000000000000000000000000000000000000000000000000000000000000000000000000000000000000000000000000000000000000000004000000000000000000000000000000000000000000000100000000000000000800000000040000000000000000000000000000000000000000000000000000000000000000000000000000000000000000000000000000000000000000000400000000000000000000000000000000002000000000000000000000000000000000000000000000000000000000",
      "type": "0x2",
      "transactionHash": "0x9b5c675fbd800bb2a7df060c8ec8a69584d23db5863a17fe0e4652000cca01ed",
      "transactionIndex": "0xc",
      "blockHash": "0x0000000000000000000000000000000000000000000000000000000000000000",
      "blockNumber": "0x26ab398",
      "gasUsed": "0xc8c7",
      "effectiveGasPrice": "0x5b8d80",
      "blobGasUsed": "0x43a4",
      "from": "0x05f8cc8753d90d67dbb8c02118440b8283f941c9",
      "to": "0xe78c3473b59156416994b57bc261a51ffbeee4fa",
      "contractAddress": null,
      "daFootprintGasScalar": "0x94",
      "l1BaseFeeScalar": "0x44d",
      "l1BlobBaseFee": "0x63a8af",
      "l1BlobBaseFeeScalar": "0xa118b",
      "l1Fee": "0x24beb131",
      "l1GasPrice": "0x646e285",
      "l1GasUsed": "0x752"
    },
    {
      "status": "0x1",
      "cumulativeGasUsed": "0x179bda",
      "logs": [
        {
          "address": "0xe78c3473b59156416994b57bc261a51ffbeee4fa",
          "topics": [
            "0xda7086ba3a561c749f4ec23ff7de600b64878a9dca1be22c201e6bd9e630bc91",
            "0x4d2fdc120be87ecf5661b7a75144d5d4b507b525eeb8c9c85c346a255e3b9663",
            "0x0000000000000000000000002f2a9dbfd8c503a0ac56413b774e39030df85331"
          ],
          "data": "0x0000000000000000000000000000000000000000000000000000000000000001",
          "blockHash": "0x0000000000000000000000000000000000000000000000000000000000000000",
          "blockNumber": "0x26ab398",
          "blockTimestamp": "0x69e8c610",
          "transactionHash": "0x25b580ec87f650f3704d7e9f7515212445bab3d8a0e0540dd32c39c6f018b4c8",
          "transactionIndex": "0xd",
          "logIndex": "0x16",
          "removed": false
        }
      ],
      "logsBloom": "0x00000000000000000000000000000000000000000000000000000000000000000000000000000000000000000000000000000000000010000000000010000000020000000000000000000000000000000000000001000000040000000000000000000800000000000000000000000000000000000000000000000000000000000800000000000000000100000000000000000800000000000000000000000000000000000000000000000000000000000000000000000000000000020000000000000000000000000000000000000000000400000000000000000000000000000040000000000000000000000000000000000000000000000000000000000000",
      "type": "0x2",
      "transactionHash": "0x25b580ec87f650f3704d7e9f7515212445bab3d8a0e0540dd32c39c6f018b4c8",
      "transactionIndex": "0xd",
      "blockHash": "0x0000000000000000000000000000000000000000000000000000000000000000",
      "blockNumber": "0x26ab398",
      "gasUsed": "0xbebc",
      "effectiveGasPrice": "0x5b8d80",
      "blobGasUsed": "0x41e8",
      "from": "0x05f8cc8753d90d67dbb8c02118440b8283f941c9",
      "to": "0xe78c3473b59156416994b57bc261a51ffbeee4fa",
      "contractAddress": null,
      "daFootprintGasScalar": "0x94",
      "l1BaseFeeScalar": "0x44d",
      "l1BlobBaseFee": "0x63a8af",
      "l1BlobBaseFeeScalar": "0xa118b",
      "l1Fee": "0x24beb131",
      "l1GasPrice": "0x646e285",
      "l1GasUsed": "0x72a"
    },
    {
      "status": "0x1",
      "cumulativeGasUsed": "0x1856fc",
      "logs": [
        {
          "address": "0xc0fbb4b422204d4bd3aa98705650c8935b01f493",
          "topics": [
            "0x096f300665a57908ac1627e5a821ea670d2a90da7c601a19bf265f8553453f28",
            "0x0000000000000000000000000000000000000000000000000000000000009d28",
            "0x0000000000000000000000001f031f7a2652fd6f10f1fb37befaac8a69039f08"
          ],
          "data": "0x",
          "blockHash": "0x0000000000000000000000000000000000000000000000000000000000000000",
          "blockNumber": "0x26ab398",
          "blockTimestamp": "0x69e8c610",
          "transactionHash": "0x2b3fc6e3bf5a5623bd1e2e1ff5bb05badeccd518768b326ae2a6fca06c598161",
          "transactionIndex": "0xe",
          "logIndex": "0x17",
          "removed": false
        }
      ],
      "logsBloom": "0x00000000000000000000000000000000000000000000000000000000000000000000000000004000000000020000000000000081000000000000000000000000000000440000000000000000000000000000000000000001000000000000000000000000000000000000000000000000000000000000000000000000000000000000020000000100000000000000000000000000000004000000000040000000000000000000000000000000000000000000000000000000000000000000000000000000000000000000000000000000000000000000000000000000000000000000000000000000000000000000000000000004000000000000000000000000",
      "type": "0x2",
      "transactionHash": "0x2b3fc6e3bf5a5623bd1e2e1ff5bb05badeccd518768b326ae2a6fca06c598161",
      "transactionIndex": "0xe",
      "blockHash": "0x0000000000000000000000000000000000000000000000000000000000000000",
      "blockNumber": "0x26ab398",
      "gasUsed": "0xbb22",
      "effectiveGasPrice": "0x5b8d80",
      "blobGasUsed": "0x39d0",
      "from": "0x05f8cc8753d90d67dbb8c02118440b8283f941c9",
      "to": "0xc0fbb4b422204d4bd3aa98705650c8935b01f493",
      "contractAddress": null,
      "daFootprintGasScalar": "0x94",
      "l1BaseFeeScalar": "0x44d",
      "l1BlobBaseFee": "0x63a8af",
      "l1BlobBaseFeeScalar": "0xa118b",
      "l1Fee": "0x24beb131",
      "l1GasPrice": "0x646e285",
      "l1GasUsed": "0x640"
    },
    {
      "status": "0x1",
      "cumulativeGasUsed": "0x18c37d",
      "logs": [
        {
          "address": "0x1500116d88b6583e63e2fa9d4199f2eddf72149b",
          "topics": [
            "0x238399d427b947898edb290f5ff0f9109849b1c3ba196a42e35f00c50a54b98b"
          ],
          "data": "0x0000000000000000000000000000000000000000000000000000000000009d28000000000000000000000000c1d9a1f64291cf47e703eab6b27fa0660cae7324",
          "blockHash": "0x0000000000000000000000000000000000000000000000000000000000000000",
          "blockNumber": "0x26ab398",
          "blockTimestamp": "0x69e8c610",
          "transactionHash": "0x2959c08260cb67a4037bb4e9248fcb4ce23613a5164d17813686ee4c00c56d89",
          "transactionIndex": "0xf",
          "logIndex": "0x18",
          "removed": false
        }
      ],
      "logsBloom": "0x00000000000000000000000000000000000000000000000000000000000000000000000000000000000000000000000000000000000000000800000000000000040000000000000000000000000000000000000000000000000000000000000000000000000800000000000000000000000000000000000000000000000000000000000000000000000000000000000000000000000000000000000000000000000000000000000000000000000000000000000008000000000002000000000000000000000000000000000000000000000000000000000000040000000000000000000000000000000000000000000000000000000000000000000000000000",
      "type": "0x2",
      "transactionHash": "0x2959c08260cb67a4037bb4e9248fcb4ce23613a5164d17813686ee4c00c56d89",
      "transactionIndex": "0xf",
      "blockHash": "0x0000000000000000000000000000000000000000000000000000000000000000",
      "blockNumber": "0x26ab398",
      "gasUsed": "0x6c81",
      "effectiveGasPrice": "0x5b8d80",
      "blobGasUsed": "0x39d0",
      "from": "0x05f8cc8753d90d67dbb8c02118440b8283f941c9",
      "to": "0x1500116d88b6583e63e2fa9d4199f2eddf72149b",
      "contractAddress": null,
      "daFootprintGasScalar": "0x94",
      "l1BaseFeeScalar": "0x44d",
      "l1BlobBaseFee": "0x63a8af",
      "l1BlobBaseFeeScalar": "0xa118b",
      "l1Fee": "0x24beb131",
      "l1GasPrice": "0x646e285",
      "l1GasUsed": "0x640"
    }
  ],
  "libraries": [],
  "pending": [],
  "returns": {},
  "timestamp": 1776862734955,
  "chain": 84532,
  "commit": "9240e6b"
}