{
  "transactions": [
    {
      "hash": "0x2854491c0a509e072e592ec1e8e00c32e802da6a010e0cdb5697152594ae62ce",
      "transactionType": "CALL",
      "contractName": null,
      "contractAddress": "0xf87b70151ccb80fdd2c2d6bb9dc8a1055e34106b",
      "function": "addApprovedCaller(address)",
      "arguments": [
        "0x438ea39C5A52D90b1d9E599DB7F150e5A52a012d"
      ],
      "transaction": {
        "from": "0x05f8cc8753d90d67dbb8c02118440b8283f941c9",
        "to": "0xf87b70151ccb80fdd2c2d6bb9dc8a1055e34106b",
        "gas": "0x107f3",
        "value": "0x0",
        "input": "0xab5cb85a000000000000000000000000438ea39c5a52d90b1d9e599db7f150e5a52a012d",
        "nonce": "0x15e",
        "chainId": "0x14a34"
      },
      "additionalContracts": [],
      "isFixedGasLimit": false
    },
    {
      "hash": "0xf49b74efa2273d9a9142fa3dee67f41972ac80f2b52307ebea72086ebf654480",
      "transactionType": "CALL",
      "contractName": null,
      "contractAddress": "0x86077000248ce1cebed08d2aba40ec3aa8b8fbb9",
      "function": "setChainDomain(uint32,uint32)",
      "arguments": [
        "421614",
        "3"
      ],
      "transaction": {
        "from": "0x05f8cc8753d90d67dbb8c02118440b8283f941c9",
        "to": "0x86077000248ce1cebed08d2aba40ec3aa8b8fbb9",
        "gas": "0x8e14",
        "value": "0x0",
        "input": "0x7ef0d2870000000000000000000000000000000000000000000000000000000000066eee0000000000000000000000000000000000000000000000000000000000000003",
        "nonce": "0x15f",
        "chainId": "0x14a34"
      },
      "additionalContracts": [],
      "isFixedGasLimit": false
    },
    {
      "hash": "0x21f3340bf657c69309aceeffb75547976ed262d2460324786ae4a6d3ad8a8fbe",
      "transactionType": "CALL",
      "contractName": null,
      "contractAddress": "0x86077000248ce1cebed08d2aba40ec3aa8b8fbb9",
      "function": "setDestinationReceiver(uint32,bytes32)",
      "arguments": [
        "421614",
        "0x0000000000000000000000001b7eb489eb0ae102720442fe15b0e08653a13404"
      ],
      "transaction": {
        "from": "0x05f8cc8753d90d67dbb8c02118440b8283f941c9",
        "to": "0x86077000248ce1cebed08d2aba40ec3aa8b8fbb9",
        "gas": "0x8e8c",
        "value": "0x0",
        "input": "0x0267dd6c0000000000000000000000000000000000000000000000000000000000066eee0000000000000000000000001b7eb489eb0ae102720442fe15b0e08653a13404",
        "nonce": "0x160",
        "chainId": "0x14a34"
      },
      "additionalContracts": [],
      "isFixedGasLimit": false
    },
    {
      "hash": "0x5422ce970c140bb8ea50a12226fc4c72c25c925c8088077544a0ae13e3e7e476",
      "transactionType": "CALL",
      "contractName": null,
      "contractAddress": "0xcc89d8bedfb39170fa74bcf1d28c9e399b82ccb2",
      "function": "setRouteConfig(uint32,string,address,bytes32)",
      "arguments": [
        "421614",
        "arbitrum-sepolia",
        "0x1b7Eb489EB0AE102720442Fe15b0e08653A13404",
        "0x8351ce1d9b08b0ec2add9de7e893e4a216235576cd4074bbacb0b9fb9b8f68c6"
      ],
      "transaction": {
        "from": "0x05f8cc8753d90d67dbb8c02118440b8283f941c9",
        "to": "0xcc89d8bedfb39170fa74bcf1d28c9e399b82ccb2",
        "gas": "0xbb87",
        "value": "0x0",
        "input": "0x7513a82a0000000000000000000000000000000000000000000000000000000000066eee00000000000000000000000000000000000000000000000000000000000000800000000000000000000000001b7eb489eb0ae102720442fe15b0e08653a134048351ce1d9b08b0ec2add9de7e893e4a216235576cd4074bbacb0b9fb9b8f68c60000000000000000000000000000000000000000000000000000000000000010617262697472756d2d7365706f6c696100000000000000000000000000000000",
        "nonce": "0x161",
        "chainId": "0x14a34"
      },
      "additionalContracts": [],
      "isFixedGasLimit": false
    },
    {
      "hash": "0xf69b942f0a34834f0c5e79ad7c2286c8166505a89353cafb46b43ba8abfae37d",
      "transactionType": "CALL",
      "contractName": null,
      "contractAddress": "0x438ea39c5a52d90b1d9e599db7f150e5a52a012d",
      "function": "setTrustedSource(string,string,bool)",
      "arguments": [
        "arbitrum-sepolia",
        "0xdb403792c55bfe26beaef235986d4f106e40ee6f",
        "true"
      ],
      "transaction": {
        "from": "0x05f8cc8753d90d67dbb8c02118440b8283f941c9",
        "to": "0x438ea39c5a52d90b1d9e599db7f150e5a52a012d",
        "gas": "0x12713",
        "value": "0x0",
        "input": "0xc5f229d0000000000000000000000000000000000000000000000000000000000000006000000000000000000000000000000000000000000000000000000000000000a000000000000000000000000000000000000000000000000000000000000000010000000000000000000000000000000000000000000000000000000000000010617262697472756d2d7365706f6c696100000000000000000000000000000000000000000000000000000000000000000000000000000000000000000000002a30786462343033373932633535626665323662656165663233353938366434663130366534306565366600000000000000000000000000000000000000000000",
        "nonce": "0x162",
        "chainId": "0x14a34"
      },
      "additionalContracts": [],
      "isFixedGasLimit": false
    }
  ],
  "receipts": [
    {
      "status": "0x1",
      "cumulativeGasUsed": "0x205203",
      "logs": [],
      "logsBloom": "0x00000000000000000000000000000000000000000000000000000000000000000000000000000000000000000000000000000000000000000000000000000000000000000000000000000000000000000000000000000000000000000000000000000000000000000000000000000000000000000000000000000000000000000000000000000000000000000000000000000000000000000000000000000000000000000000000000000000000000000000000000000000000000000000000000000000000000000000000000000000000000000000000000000000000000000000000000000000000000000000000000000000000000000000000000000000",
      "type": "0x2",
      "transactionHash": "0x5422ce970c140bb8ea50a12226fc4c72c25c925c8088077544a0ae13e3e7e476",
      "transactionIndex": "0xa",
      "blockHash": "0x0000000000000000000000000000000000000000000000000000000000000000",
      "blockNumber": "0x2655777",
      "gasUsed": "0xb47b",
      "effectiveGasPrice": "0x5b8d80",
      "blobGasUsed": "0x39d0",
      "from": "0x05f8cc8753d90d67dbb8c02118440b8283f941c9",
      "to": "0xf87b70151ccb80fdd2c2d6bb9dc8a1055e34106b",
      "contractAddress": null,
      "daFootprintGasScalar": "0x94",
      "l1BaseFeeScalar": "0x44d",
      "l1BlobBaseFee": "0x41fcd47",
      "l1BlobBaseFeeScalar": "0xa118b",
      "l1Fee": "0x188657fd4",
      "l1GasPrice": "0x4444552d",
      "l1GasUsed": "0x640"
    },
    {
      "status": "0x1",
      "cumulativeGasUsed": "0x20b8e1",
      "logs": [],
      "logsBloom": "0x00000000000000000000000000000000000000000000000000000000000000000000000000000000000000000000000000000000000000000000000000000000000000000000000000000000000000000000000000000000000000000000000000000000000000000000000000000000000000000000000000000000000000000000000000000000000000000000000000000000000000000000000000000000000000000000000000000000000000000000000000000000000000000000000000000000000000000000000000000000000000000000000000000000000000000000000000000000000000000000000000000000000000000000000000000000",
      "type": "0x2",
      "transactionHash": "0x21f3340bf657c69309aceeffb75547976ed262d2460324786ae4a6d3ad8a8fbe",
      "transactionIndex": "0xb",
      "blockHash": "0x0000000000000000000000000000000000000000000000000000000000000000",
      "blockNumber": "0x2655777",
      "gasUsed": "0x66de",
      "effectiveGasPrice": "0x5b8d80",
      "blobGasUsed": "0x39d0",
      "from": "0x05f8cc8753d90d67dbb8c02118440b8283f941c9",
      "to": "0x86077000248ce1cebed08d2aba40ec3aa8b8fbb9",
      "contractAddress": null,
      "daFootprintGasScalar": "0x94",
      "l1BaseFeeScalar": "0x44d",
      "l1BlobBaseFee": "0x41fcd47",
      "l1BlobBaseFeeScalar": "0xa118b",
      "l1Fee": "0x188657fd4",
      "l1GasPrice": "0x4444552d",
      "l1GasUsed": "0x640"
    },
    {
      "status": "0x1",
      "cumulativeGasUsed": "0x212015",
      "logs": [],
      "logsBloom": "0x00000000000000000000000000000000000000000000000000000000000000000000000000000000000000000000000000000000000000000000000000000000000000000000000000000000000000000000000000000000000000000000000000000000000000000000000000000000000000000000000000000000000000000000000000000000000000000000000000000000000000000000000000000000000000000000000000000000000000000000000000000000000000000000000000000000000000000000000000000000000000000000000000000000000000000000000000000000000000000000000000000000000000000000000000000000",
      "type": "0x2",
      "transactionHash": "0x2854491c0a509e072e592ec1e8e00c32e802da6a010e0cdb5697152594ae62ce",
      "transactionIndex": "0xc",
      "blockHash": "0x0000000000000000000000000000000000000000000000000000000000000000",
      "blockNumber": "0x2655777",
      "gasUsed": "0x6734",
      "effectiveGasPrice": "0x5b8d80",
      "blobGasUsed": "0x39d0",
      "from": "0x05f8cc8753d90d67dbb8c02118440b8283f941c9",
      "to": "0x86077000248ce1cebed08d2aba40ec3aa8b8fbb9",
      "contractAddress": null,
      "daFootprintGasScalar": "0x94",
      "l1BaseFeeScalar": "0x44d",
      "l1BlobBaseFee": "0x41fcd47",
      "l1BlobBaseFeeScalar": "0xa118b",
      "l1Fee": "0x188657fd4",
      "l1GasPrice": "0x4444552d",
      "l1GasUsed": "0x640"
    },
    {
      "status": "0x1",
      "cumulativeGasUsed": "0x21a04f",
      "logs": [],
      "logsBloom": "0x00000000000000000000000000000000000000000000000000000000000000000000000000000000000000000000000000000000000000000000000000000000000000000000000000000000000000000000000000000000000000000000000000000000000000000000000000000000000000000000000000000000000000000000000000000000000000000000000000000000000000000000000000000000000000000000000000000000000000000000000000000000000000000000000000000000000000000000000000000000000000000000000000000000000000000000000000000000000000000000000000000000000000000000000000000000",
      "type": "0x2",
      "transactionHash": "0xf49b74efa2273d9a9142fa3dee67f41972ac80f2b52307ebea72086ebf654480",
      "transactionIndex": "0xd",
      "blockHash": "0x0000000000000000000000000000000000000000000000000000000000000000",
      "blockNumber": "0x2655777",
      "gasUsed": "0x803a",
      "effectiveGasPrice": "0x5b8d80",
      "blobGasUsed": "0x5340",
      "from": "0x05f8cc8753d90d67dbb8c02118440b8283f941c9",
      "to": "0xcc89d8bedfb39170fa74bcf1d28c9e399b82ccb2",
      "contractAddress": null,
      "daFootprintGasScalar": "0x94",
      "l1BaseFeeScalar": "0x44d",
      "l1BlobBaseFee": "0x41fcd47",
      "l1BlobBaseFeeScalar": "0xa118b",
      "l1Fee": "0x188657fd4",
      "l1GasPrice": "0x4444552d",
      "l1GasUsed": "0x90c"
    },
    {
      "status": "0x1",
      "cumulativeGasUsed": "0x3937dd",
      "logs": [
        {
          "address": "0x438ea39c5a52d90b1d9e599db7f150e5a52a012d",
          "topics": [
            "0xc4be60cee9fada79d250ef87fe6761acee8c4f919f811b4095a42b9553da7d71"
          ],
          "data": "0x000000000000000000000000000000000000000000000000000000000000006000000000000000000000000000000000000000000000000000000000000000a000000000000000000000000000000000000000000000000000000000000000010000000000000000000000000000000000000000000000000000000000000010617262697472756d2d7365706f6c696100000000000000000000000000000000000000000000000000000000000000000000000000000000000000000000002a30786462343033373932633535626665323662656165663233353938366434663130366534306565366600000000000000000000000000000000000000000000",
          "blockHash": "0x0000000000000000000000000000000000000000000000000000000000000000",
          "blockNumber": "0x2655777",
          "blockTimestamp": "0x69de0dce",
          "transactionHash": "0xf69b942f0a34834f0c5e79ad7c2286c8166505a89353cafb46b43ba8abfae37d",
          "transactionIndex": "0x13",
          "logIndex": "0x36",
          "removed": false
        }
      ],
      "logsBloom": "0x00000000000010000000000000000000000040000000000000000000000000000000000000000004000000000000000000000000000000000100000000000000000000000000000000000000000000000000000000000000000000000000000002080000000000000000000000000000000000000000000000000000000000000000000000000000000000000000000000000000000000000000000000000000000000000000000000000000000000000000000000000000000000000000000000000000000000000000000000000000000000000000000000000000000000000000000000000000000000000000000000000000000000000000000000000000",
      "type": "0x2",
      "transactionHash": "0xf69b942f0a34834f0c5e79ad7c2286c8166505a89353cafb46b43ba8abfae37d",
      "transactionIndex": "0x13",
      "blockHash": "0x0000000000000000000000000000000000000000000000000000000000000000",
      "blockNumber": "0x2655777",
      "gasUsed": "0xc9c3",
      "effectiveGasPrice": "0x5b8d80",
      "blobGasUsed": "0x5184",
      "from": "0x05f8cc8753d90d67dbb8c02118440b8283f941c9",
      "to": "0x438ea39c5a52d90b1d9e599db7f150e5a52a012d",
      "contractAddress": null,
      "daFootprintGasScalar": "0x94",
      "l1BaseFeeScalar": "0x44d",
      "l1BlobBaseFee": "0x41fcd47",
      "l1BlobBaseFeeScalar": "0xa118b",
      "l1Fee": "0x203a253bf",
      "l1GasPrice": "0x4444552d",
      "l1GasUsed": "0x8d7"
    }
  ],
  "libraries": [],
  "pending": [],
  "returns": {},
  "timestamp": 1776160205461,
  "chain": 84532,
  "commit": "b3b4aa7"
}