{
  "transactions": [
    {
      "hash": "0xca2d14fd98255748315cfffdca2c2bf9a046719f617580fdfd1556ab9491a717",
      "transactionType": "CALL",
      "contractName": null,
      "contractAddress": "0x8fb0438d0799c52920515b31310f53452c33e066",
      "function": "addApprovedCaller(address)",
      "arguments": [
        "0x5fd1F6DB09C8d64f2230415d8F0f9E87f5462fa3"
      ],
      "transaction": {
        "from": "0x05f8cc8753d90d67dbb8c02118440b8283f941c9",
        "to": "0x8fb0438d0799c52920515b31310f53452c33e066",
        "gas": "0x8de9",
        "value": "0x0",
        "input": "0xab5cb85a0000000000000000000000005fd1f6db09c8d64f2230415d8f0f9e87f5462fa3",
        "nonce": "0x1bf",
        "chainId": "0x14a34"
      },
      "additionalContracts": [],
      "isFixedGasLimit": false
    },
    {
      "hash": "0x2b90e4c30598da3016634ccfc1c4b710f63a696a055b418d5b24baf33f9e187a",
      "transactionType": "CALL",
      "contractName": null,
      "contractAddress": "0xd00e7ce0ac312138de62610ed950e814e12d3f89",
      "function": "setRouteConfig(uint32,string,address,bytes32)",
      "arguments": [
        "11155420",
        "optimism-sepolia",
        "0xd8016e376e15b20Fc321a37fD69DC42cfDf951Bb",
        "0x4d2fdc120be87ecf5661b7a75144d5d4b507b525eeb8c9c85c346a255e3b9663"
      ],
      "transaction": {
        "from": "0x05f8cc8753d90d67dbb8c02118440b8283f941c9",
        "to": "0xd00e7ce0ac312138de62610ed950e814e12d3f89",
        "gas": "0xb0df",
        "value": "0x0",
        "input": "0x7513a82a0000000000000000000000000000000000000000000000000000000000aa37dc0000000000000000000000000000000000000000000000000000000000000080000000000000000000000000d8016e376e15b20fc321a37fd69dc42cfdf951bb4d2fdc120be87ecf5661b7a75144d5d4b507b525eeb8c9c85c346a255e3b966300000000000000000000000000000000000000000000000000000000000000106f7074696d69736d2d7365706f6c696100000000000000000000000000000000",
        "nonce": "0x1c0",
        "chainId": "0x14a34"
      },
      "additionalContracts": [],
      "isFixedGasLimit": false
    },
    {
      "hash": "0x1634b115777772ce9691a9d9a7563cba72bb7e6993327f7715440d987ef55903",
      "transactionType": "CALL",
      "contractName": null,
      "contractAddress": "0x5fd1f6db09c8d64f2230415d8f0f9e87f5462fa3",
      "function": "setTrustedSourceAddress(string,address,bool)",
      "arguments": [
        "optimism-sepolia",
        "0xA73776c0aAE79382d8003B1fC7648B5ab32889D0",
        "true"
      ],
      "transaction": {
        "from": "0x05f8cc8753d90d67dbb8c02118440b8283f941c9",
        "to": "0x5fd1f6db09c8d64f2230415d8f0f9e87f5462fa3",
        "gas": "0xa9e2",
        "value": "0x0",
        "input": "0x6dc3df1c0000000000000000000000000000000000000000000000000000000000000060000000000000000000000000a73776c0aae79382d8003b1fc7648b5ab32889d0000000000000000000000000000000000000000000000000000000000000000100000000000000000000000000000000000000000000000000000000000000106f7074696d69736d2d7365706f6c696100000000000000000000000000000000",
        "nonce": "0x1c1",
        "chainId": "0x14a34"
      },
      "additionalContracts": [],
      "isFixedGasLimit": false
    },
    {
      "hash": "0xa65d77e98595fa193191939dc6f870c5573e50e397daf9ee21195f809292e07a",
      "transactionType": "CALL",
      "contractName": null,
      "contractAddress": "0x5fd1f6db09c8d64f2230415d8f0f9e87f5462fa3",
      "function": "setTrustedToken(bytes32,address,bool)",
      "arguments": [
        "0x4d2fdc120be87ecf5661b7a75144d5d4b507b525eeb8c9c85c346a255e3b9663",
        "0x2f2A9DbFd8c503a0aC56413B774e39030df85331",
        "true"
      ],
      "transaction": {
        "from": "0x05f8cc8753d90d67dbb8c02118440b8283f941c9",
        "to": "0x5fd1f6db09c8d64f2230415d8f0f9e87f5462fa3",
        "gas": "0x9c14",
        "value": "0x0",
        "input": "0x001089604d2fdc120be87ecf5661b7a75144d5d4b507b525eeb8c9c85c346a255e3b96630000000000000000000000002f2a9dbfd8c503a0ac56413b774e39030df853310000000000000000000000000000000000000000000000000000000000000001",
        "nonce": "0x1c2",
        "chainId": "0x14a34"
      },
      "additionalContracts": [],
      "isFixedGasLimit": false
    }
  ],
  "receipts": [
    {
      "status": "0x1",
      "cumulativeGasUsed": "0x10d5c32",
      "logs": [],
      "logsBloom": "0x00000000000000000000000000000000000000000000000000000000000000000000000000000000000000000000000000000000000000000000000000000000000000000000000000000000000000000000000000000000000000000000000000000000000000000000000000000000000000000000000000000000000000000000000000000000000000000000000000000000000000000000000000000000000000000000000000000000000000000000000000000000000000000000000000000000000000000000000000000000000000000000000000000000000000000000000000000000000000000000000000000000000000000000000000000000",
      "type": "0x2",
      "transactionHash": "0xca2d14fd98255748315cfffdca2c2bf9a046719f617580fdfd1556ab9491a717",
      "transactionIndex": "0xb",
      "blockHash": "0x0000000000000000000000000000000000000000000000000000000000000000",
      "blockNumber": "0x26a1b9c",
      "gasUsed": "0x66bf",
      "effectiveGasPrice": "0x5b8d80",
      "blobGasUsed": "0x39d0",
      "from": "0x05f8cc8753d90d67dbb8c02118440b8283f941c9",
      "to": "0x8fb0438d0799c52920515b31310f53452c33e066",
      "contractAddress": null,
      "daFootprintGasScalar": "0x94",
      "l1BaseFeeScalar": "0x44d",
      "l1BlobBaseFee": "0x7de7fa6",
      "l1BlobBaseFeeScalar": "0xa118b",
      "l1Fee": "0x2e466f4de",
      "l1GasPrice": "0x7d8b001d",
      "l1GasUsed": "0x640"
    },
    {
      "status": "0x1",
      "cumulativeGasUsed": "0x10ddc40",
      "logs": [],
      "logsBloom": "0x00000000000000000000000000000000000000000000000000000000000000000000000000000000000000000000000000000000000000000000000000000000000000000000000000000000000000000000000000000000000000000000000000000000000000000000000000000000000000000000000000000000000000000000000000000000000000000000000000000000000000000000000000000000000000000000000000000000000000000000000000000000000000000000000000000000000000000000000000000000000000000000000000000000000000000000000000000000000000000000000000000000000000000000000000000000",
      "type": "0x2",
      "transactionHash": "0x2b90e4c30598da3016634ccfc1c4b710f63a696a055b418d5b24baf33f9e187a",
      "transactionIndex": "0xc",
      "blockHash": "0x0000000000000000000000000000000000000000000000000000000000000000",
      "blockNumber": "0x26a1b9c",
      "gasUsed": "0x800e",
      "effectiveGasPrice": "0x5b8d80",
      "blobGasUsed": "0x5340",
      "from": "0x05f8cc8753d90d67dbb8c02118440b8283f941c9",
      "to": "0xd00e7ce0ac312138de62610ed950e814e12d3f89",
      "contractAddress": null,
      "daFootprintGasScalar": "0x94",
      "l1BaseFeeScalar": "0x44d",
      "l1BlobBaseFee": "0x7de7fa6",
      "l1BlobBaseFeeScalar": "0xa118b",
      "l1Fee": "0x2e466f4de",
      "l1GasPrice": "0x7d8b001d",
      "l1GasUsed": "0x90c"
    },
    {
      "status": "0x1",
      "cumulativeGasUsed": "0x10e573f",
      "logs": [
        {
          "address": "0x5fd1f6db09c8d64f2230415d8f0f9e87f5462fa3",
          "topics": [
            "0xd67543d9b94fa2fae98cd5cd9409f07a5b3532a8433e6122d97c34dfc9735b52"
          ],
          "data": "0x000000000000000000000000000000000000000000000000000000000000006000000000000000000000000000000000000000000000000000000000000000a0000000000000000000000000000000000000000000000000000000000000000100000000000000000000000000000000000000000000000000000000000000106f7074696d69736d2d7365706f6c6961000000000000000000000000000000000000000000000000000000000000000000000000000000000000000000000014a73776c0aae79382d8003b1fc7648b5ab32889d0000000000000000000000000",
          "blockHash": "0x0000000000000000000000000000000000000000000000000000000000000000",
          "blockNumber": "0x26a1b9c",
          "blockTimestamp": "0x69e79618",
          "transactionHash": "0xa65d77e98595fa193191939dc6f870c5573e50e397daf9ee21195f809292e07a",
          "transactionIndex": "0xd",
          "logIndex": "0x6c",
          "removed": false
        }
      ],
      "logsBloom": "0x00000000000000000000000000000000000000000000000000000000000000000000000000000000000000000000000000000000000000000000000000000000000000000000000000000000000000000020000040000000000000000000000000000000000000000000000000000000000004000000000000000000000000000000000000000000000000000000000000000000000000040040000000000000000000000000000000000000000000000000000000000000000000000000000000000000000000000000000000000000000000000000000000000000000000000000002000000000000000000000000000000000000000000000000000000000",
      "type": "0x2",
      "transactionHash": "0xa65d77e98595fa193191939dc6f870c5573e50e397daf9ee21195f809292e07a",
      "transactionIndex": "0xd",
      "blockHash": "0x0000000000000000000000000000000000000000000000000000000000000000",
      "blockNumber": "0x26a1b9c",
      "gasUsed": "0x7aff",
      "effectiveGasPrice": "0x5b8d80",
      "blobGasUsed": "0x4310",
      "from": "0x05f8cc8753d90d67dbb8c02118440b8283f941c9",
      "to": "0x5fd1f6db09c8d64f2230415d8f0f9e87f5462fa3",
      "contractAddress": null,
      "daFootprintGasScalar": "0x94",
      "l1BaseFeeScalar": "0x44d",
      "l1BlobBaseFee": "0x7de7fa6",
      "l1BlobBaseFeeScalar": "0xa118b",
      "l1Fee": "0x35d7417b7",
      "l1GasPrice": "0x7d8b001d",
      "l1GasUsed": "0x745"
    },
    {
      "status": "0x1",
      "cumulativeGasUsed": "0x10ec83f",
      "logs": [
        {
          "address": "0x5fd1f6db09c8d64f2230415d8f0f9e87f5462fa3",
          "topics": [
            "0xda7086ba3a561c749f4ec23ff7de600b64878a9dca1be22c201e6bd9e630bc91",
            "0x4d2fdc120be87ecf5661b7a75144d5d4b507b525eeb8c9c85c346a255e3b9663",
            "0x0000000000000000000000002f2a9dbfd8c503a0ac56413b774e39030df85331"
          ],
          "data": "0x0000000000000000000000000000000000000000000000000000000000000001",
          "blockHash": "0x0000000000000000000000000000000000000000000000000000000000000000",
          "blockNumber": "0x26a1b9c",
          "blockTimestamp": "0x69e79618",
          "transactionHash": "0x1634b115777772ce9691a9d9a7563cba72bb7e6993327f7715440d987ef55903",
          "transactionIndex": "0xe",
          "logIndex": "0x6d",
          "removed": false
        }
      ],
      "logsBloom": "0x00000000000000000000000000000000000000000000000000000000000000000000000000000000000000000000000000000000000010000000000010000000020000000000000000000000000000000020000041000000040000000000000000000800000000000000000000000000000000000000000000000000000000000800000000000000000000000000000000000000000000000040000000000000000000000000000000000000000000000000000000000000000000020000000000000000000000000000000000000000000000000000000000000000000000000040000000000000000000000000000000000000000000000000000000000000",
      "type": "0x2",
      "transactionHash": "0x1634b115777772ce9691a9d9a7563cba72bb7e6993327f7715440d987ef55903",
      "transactionIndex": "0xe",
      "blockHash": "0x0000000000000000000000000000000000000000000000000000000000000000",
      "blockNumber": "0x26a1b9c",
      "gasUsed": "0x7100",
      "effectiveGasPrice": "0x5b8d80",
      "blobGasUsed": "0x4154",
      "from": "0x05f8cc8753d90d67dbb8c02118440b8283f941c9",
      "to": "0x5fd1f6db09c8d64f2230415d8f0f9e87f5462fa3",
      "contractAddress": null,
      "daFootprintGasScalar": "0x94",
      "l1BaseFeeScalar": "0x44d",
      "l1BlobBaseFee": "0x7de7fa6",
      "l1BlobBaseFeeScalar": "0xa118b",
      "l1Fee": "0x35d7417b7",
      "l1GasPrice": "0x7d8b001d",
      "l1GasUsed": "0x71d"
    }
  ],
  "libraries": [],
  "pending": [],
  "returns": {},
  "timestamp": 1776784919333,
  "chain": 84532,
  "commit": "bec0627"
}