{
  "transactions": [
    {
      "hash": "0xbd1561a4e7def7cf43895e96fe271a2bd1eedd618a33f8d011f758b62133b18f",
      "transactionType": "CALL",
      "contractName": null,
      "contractAddress": "0x3faa969ba2514af1d99c370fc8686102bad92c1f",
      "function": "registerRailPlugin(address)",
      "arguments": [
        "0xE4D05CD204f1a87ae061d9d6BD64d9Ec3347d631"
      ],
      "transaction": {
        "from": "0x05f8cc8753d90d67dbb8c02118440b8283f941c9",
        "to": "0x3faa969ba2514af1d99c370fc8686102bad92c1f",
        "gas": "0x28be3",
        "value": "0x0",
        "input": "0x172ceb34000000000000000000000000e4d05cd204f1a87ae061d9d6bd64d9ec3347d631",
        "nonce": "0x17c",
        "chainId": "0x14a34"
      },
      "additionalContracts": [],
      "isFixedGasLimit": false
    },
    {
      "hash": "0xb4c2d056208a934106fe4107f353ccdb98d4aeb5d0243720d8bd9876624d8174",
      "transactionType": "CALL",
      "contractName": null,
      "contractAddress": "0x3faa969ba2514af1d99c370fc8686102bad92c1f",
      "function": "registerRailPlugin(address)",
      "arguments": [
        "0xA0F6E96C16D054Ad0Ff9fCB027CDec39B5F50c2f"
      ],
      "transaction": {
        "from": "0x05f8cc8753d90d67dbb8c02118440b8283f941c9",
        "to": "0x3faa969ba2514af1d99c370fc8686102bad92c1f",
        "gas": "0x22ef6",
        "value": "0x0",
        "input": "0x172ceb34000000000000000000000000a0f6e96c16d054ad0ff9fcb027cdec39b5f50c2f",
        "nonce": "0x17d",
        "chainId": "0x14a34"
      },
      "additionalContracts": [],
      "isFixedGasLimit": false
    },
    {
      "hash": "0xc85ce185d0bbe22275f2db99f886caa5964d92e5e8db9eff19153e550e5cb407",
      "transactionType": "CALL",
      "contractName": null,
      "contractAddress": "0x94f41058563e46c27aba75ab592752cc09061c6e",
      "function": "addApprovedCaller(address)",
      "arguments": [
        "0x4b8eDAED00B99Aaf47ad3D9A1f5F7c85a51dc9dC"
      ],
      "transaction": {
        "from": "0x05f8cc8753d90d67dbb8c02118440b8283f941c9",
        "to": "0x94f41058563e46c27aba75ab592752cc09061c6e",
        "gas": "0xf938",
        "value": "0x0",
        "input": "0xab5cb85a0000000000000000000000004b8edaed00b99aaf47ad3d9a1f5f7c85a51dc9dc",
        "nonce": "0x17e",
        "chainId": "0x14a34"
      },
      "additionalContracts": [],
      "isFixedGasLimit": false
    },
    {
      "hash": "0x2f2e6579ad4dc5feec5e16abc26cfeea2d42bdc8bca2ac88da25621fed2c79e8",
      "transactionType": "CALL",
      "contractName": null,
      "contractAddress": "0xe4d05cd204f1a87ae061d9d6bd64d9ec3347d631",
      "function": "setChainDomain(uint32,uint32)",
      "arguments": [
        "421614",
        "3"
      ],
      "transaction": {
        "from": "0x05f8cc8753d90d67dbb8c02118440b8283f941c9",
        "to": "0xe4d05cd204f1a87ae061d9d6bd64d9ec3347d631",
        "gas": "0xf956",
        "value": "0x0",
        "input": "0x7ef0d2870000000000000000000000000000000000000000000000000000000000066eee0000000000000000000000000000000000000000000000000000000000000003",
        "nonce": "0x17f",
        "chainId": "0x14a34"
      },
      "additionalContracts": [],
      "isFixedGasLimit": false
    },
    {
      "hash": "0x88960a33337d0001239bcc5f7ab1c74d6787777ac6b08c0b55bbfdfb3a78437c",
      "transactionType": "CALL",
      "contractName": null,
      "contractAddress": "0xe4d05cd204f1a87ae061d9d6bd64d9ec3347d631",
      "function": "setDestinationReceiver(uint32,bytes32)",
      "arguments": [
        "421614",
        "0x000000000000000000000000b2abe546163021d539e4cc991354c29a124b38ce"
      ],
      "transaction": {
        "from": "0x05f8cc8753d90d67dbb8c02118440b8283f941c9",
        "to": "0xe4d05cd204f1a87ae061d9d6bd64d9ec3347d631",
        "gas": "0xfa09",
        "value": "0x0",
        "input": "0x0267dd6c0000000000000000000000000000000000000000000000000000000000066eee000000000000000000000000b2abe546163021d539e4cc991354c29a124b38ce",
        "nonce": "0x180",
        "chainId": "0x14a34"
      },
      "additionalContracts": [],
      "isFixedGasLimit": false
    },
    {
      "hash": "0xfdca0099716549e8726a49dedb902ca2afcb27c4369de4bb4be308ec0ac4953c",
      "transactionType": "CALL",
      "contractName": null,
      "contractAddress": "0xe4d05cd204f1a87ae061d9d6bd64d9ec3347d631",
      "function": "setDestinationCaller(uint32,bytes32)",
      "arguments": [
        "421614",
        "0x0000000000000000000000000000000000000000000000000000000000000000"
      ],
      "transaction": {
        "from": "0x05f8cc8753d90d67dbb8c02118440b8283f941c9",
        "to": "0xe4d05cd204f1a87ae061d9d6bd64d9ec3347d631",
        "gas": "0x8cf2",
        "value": "0x0",
        "input": "0x00686ed20000000000000000000000000000000000000000000000000000000000066eee0000000000000000000000000000000000000000000000000000000000000000",
        "nonce": "0x181",
        "chainId": "0x14a34"
      },
      "additionalContracts": [],
      "isFixedGasLimit": false
    },
    {
      "hash": "0x3aee67fa05ad7331893359ca054d7f4abb2959d3a522c97d698a029b87fc6af9",
      "transactionType": "CALL",
      "contractName": null,
      "contractAddress": "0xa0f6e96c16d054ad0ff9fcb027cdec39b5f50c2f",
      "function": "setRouteConfig(uint32,string,address,bytes32)",
      "arguments": [
        "421614",
        "arbitrum-sepolia",
        "0xb2abE546163021d539E4cc991354C29a124b38cE",
        "0x8351ce1d9b08b0ec2add9de7e893e4a216235576cd4074bbacb0b9fb9b8f68c6"
      ],
      "transaction": {
        "from": "0x05f8cc8753d90d67dbb8c02118440b8283f941c9",
        "to": "0xa0f6e96c16d054ad0ff9fcb027cdec39b5f50c2f",
        "gas": "0x1f338",
        "value": "0x0",
        "input": "0x7513a82a0000000000000000000000000000000000000000000000000000000000066eee0000000000000000000000000000000000000000000000000000000000000080000000000000000000000000b2abe546163021d539e4cc991354c29a124b38ce8351ce1d9b08b0ec2add9de7e893e4a216235576cd4074bbacb0b9fb9b8f68c60000000000000000000000000000000000000000000000000000000000000010617262697472756d2d7365706f6c696100000000000000000000000000000000",
        "nonce": "0x182",
        "chainId": "0x14a34"
      },
      "additionalContracts": [],
      "isFixedGasLimit": false
    },
    {
      "hash": "0xd483dc40c6811f49e0e8bab29f297d30abac1392f6162016c02e57d22c10da73",
      "transactionType": "CALL",
      "contractName": null,
      "contractAddress": "0x4b8edaed00b99aaf47ad3d9a1f5f7c85a51dc9dc",
      "function": "setTrustedSource(string,string,bool)",
      "arguments": [
        "arbitrum-sepolia",
        "0xed802bbe7b0325c950355b0a10cbef406b2520bc",
        "true"
      ],
      "transaction": {
        "from": "0x05f8cc8753d90d67dbb8c02118440b8283f941c9",
        "to": "0x4b8edaed00b99aaf47ad3d9a1f5f7c85a51dc9dc",
        "gas": "0x12713",
        "value": "0x0",
        "input": "0xc5f229d0000000000000000000000000000000000000000000000000000000000000006000000000000000000000000000000000000000000000000000000000000000a000000000000000000000000000000000000000000000000000000000000000010000000000000000000000000000000000000000000000000000000000000010617262697472756d2d7365706f6c696100000000000000000000000000000000000000000000000000000000000000000000000000000000000000000000002a30786564383032626265376230333235633935303335356230613130636265663430366232353230626300000000000000000000000000000000000000000000",
        "nonce": "0x183",
        "chainId": "0x14a34"
      },
      "additionalContracts": [],
      "isFixedGasLimit": false
    }
  ],
  "receipts": [
    {
      "status": "0x1",
      "cumulativeGasUsed": "0x7a5549",
      "logs": [
        {
          "address": "0x3faa969ba2514af1d99c370fc8686102bad92c1f",
          "topics": [
            "0xa86330cede453edbe00d0dbe74ee3bdbac6d7b048009b0d72d54aa609df01a71",
            "0xb148ea5f936a28661e11743b1650193f1b14a2322b9541503bf6815a84a1a6e9"
          ],
          "data": "0x000000000000000000000000e4d05cd204f1a87ae061d9d6bd64d9ec3347d6310000000000000000000000000000000000000000000000000000000000000000",
          "blockHash": "0x1977dae6a0dc45b00f4b04e2514f50b7ed80a6237bee9f2cc2e26e6bf27dd616",
          "blockNumber": "0x2660afd",
          "blockTimestamp": "0x69df74da",
          "transactionHash": "0x3aee67fa05ad7331893359ca054d7f4abb2959d3a522c97d698a029b87fc6af9",
          "transactionIndex": "0x10",
          "logIndex": "0x69",
          "removed": false
        }
      ],
      "logsBloom": "0x00000400000000002000000000000000000000400000000000000000000000000000000000000000000000000000200000000000000000200000000000000000000000000000000000000000000000000000000020000000000000000000000000000000000000000000000020000000000000000000000000000000000000000000000000000000000000000000000000000000000000000000000000000000000000000000000000000000000000000000000000000000000000000000000000000000000000000000000000200000000000400000000000000000000000000000000000000000000000000000000000000000000000000000000000000000",
      "type": "0x2",
      "transactionHash": "0x3aee67fa05ad7331893359ca054d7f4abb2959d3a522c97d698a029b87fc6af9",
      "transactionIndex": "0x10",
      "blockHash": "0x1977dae6a0dc45b00f4b04e2514f50b7ed80a6237bee9f2cc2e26e6bf27dd616",
      "blockNumber": "0x2660afd",
      "gasUsed": "0x1d7f5",
      "effectiveGasPrice": "0x5b8d80",
      "blobGasUsed": "0x39d0",
      "from": "0x05f8cc8753d90d67dbb8c02118440b8283f941c9",
      "to": "0x3faa969ba2514af1d99c370fc8686102bad92c1f",
      "contractAddress": null,
      "daFootprintGasScalar": "0x94",
      "l1BaseFeeScalar": "0x44d",
      "l1BlobBaseFee": "0x63ec0ed",
      "l1BlobBaseFeeScalar": "0xa118b",
      "l1Fee": "0x25da47ad4",
      "l1GasPrice": "0x6de0285d",
      "l1GasUsed": "0x640"
    },
    {
      "status": "0x1",
      "cumulativeGasUsed": "0x7be9f8",
      "logs": [
        {
          "address": "0x3faa969ba2514af1d99c370fc8686102bad92c1f",
          "topics": [
            "0xa86330cede453edbe00d0dbe74ee3bdbac6d7b048009b0d72d54aa609df01a71",
            "0xdee0b34b74b60e53553685c32477090103c2b806eb925a8cd000efa92bef3e8b"
          ],
          "data": "0x000000000000000000000000a0f6e96c16d054ad0ff9fcb027cdec39b5f50c2f0000000000000000000000000000000000000000000000000000000000000000",
          "blockHash": "0x1977dae6a0dc45b00f4b04e2514f50b7ed80a6237bee9f2cc2e26e6bf27dd616",
          "blockNumber": "0x2660afd",
          "blockTimestamp": "0x69df74da",
          "transactionHash": "0x88960a33337d0001239bcc5f7ab1c74d6787777ac6b08c0b55bbfdfb3a78437c",
          "transactionIndex": "0x11",
          "logIndex": "0x6a",
          "removed": false
        }
      ],
      "logsBloom": "0x00000000000000002000000000000000000000400000000000000000000000000000000000000000000000000000200000000000000000200000000000000000000000000000000000000000000000000000000000000040000000000000000000000000000000000000000000000000000000000000000000000000000000000000000000000004000000000000000000000000000000000000000000000000000000000000000000000000000000000000000000000000000000000000000000000000000000000000000000200000000000400000000000000000000000000000000000000000000000000000100000000000000000000000000000000000",
      "type": "0x2",
      "transactionHash": "0x88960a33337d0001239bcc5f7ab1c74d6787777ac6b08c0b55bbfdfb3a78437c",
      "transactionIndex": "0x11",
      "blockHash": "0x1977dae6a0dc45b00f4b04e2514f50b7ed80a6237bee9f2cc2e26e6bf27dd616",
      "blockNumber": "0x2660afd",
      "gasUsed": "0x194af",
      "effectiveGasPrice": "0x5b8d80",
      "blobGasUsed": "0x39d0",
      "from": "0x05f8cc8753d90d67dbb8c02118440b8283f941c9",
      "to": "0x3faa969ba2514af1d99c370fc8686102bad92c1f",
      "contractAddress": null,
      "daFootprintGasScalar": "0x94",
      "l1BaseFeeScalar": "0x44d",
      "l1BlobBaseFee": "0x63ec0ed",
      "l1BlobBaseFeeScalar": "0xa118b",
      "l1Fee": "0x25da47ad4",
      "l1GasPrice": "0x6de0285d",
      "l1GasUsed": "0x640"
    },
    {
      "status": "0x1",
      "cumulativeGasUsed": "0x7c9e67",
      "logs": [],
      "logsBloom": "0x00000000000000000000000000000000000000000000000000000000000000000000000000000000000000000000000000000000000000000000000000000000000000000000000000000000000000000000000000000000000000000000000000000000000000000000000000000000000000000000000000000000000000000000000000000000000000000000000000000000000000000000000000000000000000000000000000000000000000000000000000000000000000000000000000000000000000000000000000000000000000000000000000000000000000000000000000000000000000000000000000000000000000000000000000000000",
      "type": "0x2",
      "transactionHash": "0xb4c2d056208a934106fe4107f353ccdb98d4aeb5d0243720d8bd9876624d8174",
      "transactionIndex": "0x12",
      "blockHash": "0x1977dae6a0dc45b00f4b04e2514f50b7ed80a6237bee9f2cc2e26e6bf27dd616",
      "blockNumber": "0x2660afd",
      "gasUsed": "0xb46f",
      "effectiveGasPrice": "0x5b8d80",
      "blobGasUsed": "0x39d0",
      "from": "0x05f8cc8753d90d67dbb8c02118440b8283f941c9",
      "to": "0x94f41058563e46c27aba75ab592752cc09061c6e",
      "contractAddress": null,
      "daFootprintGasScalar": "0x94",
      "l1BaseFeeScalar": "0x44d",
      "l1BlobBaseFee": "0x63ec0ed",
      "l1BlobBaseFeeScalar": "0xa118b",
      "l1Fee": "0x25da47ad4",
      "l1GasPrice": "0x6de0285d",
      "l1GasUsed": "0x640"
    },
    {
      "status": "0x1",
      "cumulativeGasUsed": "0x7d52eb",
      "logs": [],
      "logsBloom": "0x00000000000000000000000000000000000000000000000000000000000000000000000000000000000000000000000000000000000000000000000000000000000000000000000000000000000000000000000000000000000000000000000000000000000000000000000000000000000000000000000000000000000000000000000000000000000000000000000000000000000000000000000000000000000000000000000000000000000000000000000000000000000000000000000000000000000000000000000000000000000000000000000000000000000000000000000000000000000000000000000000000000000000000000000000000000",
      "type": "0x2",
      "transactionHash": "0xfdca0099716549e8726a49dedb902ca2afcb27c4369de4bb4be308ec0ac4953c",
      "transactionIndex": "0x13",
      "blockHash": "0x1977dae6a0dc45b00f4b04e2514f50b7ed80a6237bee9f2cc2e26e6bf27dd616",
      "blockNumber": "0x2660afd",
      "gasUsed": "0xb484",
      "effectiveGasPrice": "0x5b8d80",
      "blobGasUsed": "0x39d0",
      "from": "0x05f8cc8753d90d67dbb8c02118440b8283f941c9",
      "to": "0xe4d05cd204f1a87ae061d9d6bd64d9ec3347d631",
      "contractAddress": null,
      "daFootprintGasScalar": "0x94",
      "l1BaseFeeScalar": "0x44d",
      "l1BlobBaseFee": "0x63ec0ed",
      "l1BlobBaseFeeScalar": "0xa118b",
      "l1Fee": "0x25da47ad4",
      "l1GasPrice": "0x6de0285d",
      "l1GasUsed": "0x640"
    },
    {
      "status": "0x1",
      "cumulativeGasUsed": "0x23f76c",
      "logs": [],
      "logsBloom": "0x00000000000000000000000000000000000000000000000000000000000000000000000000000000000000000000000000000000000000000000000000000000000000000000000000000000000000000000000000000000000000000000000000000000000000000000000000000000000000000000000000000000000000000000000000000000000000000000000000000000000000000000000000000000000000000000000000000000000000000000000000000000000000000000000000000000000000000000000000000000000000000000000000000000000000000000000000000000000000000000000000000000000000000000000000000000",
      "type": "0x2",
      "transactionHash": "0xd483dc40c6811f49e0e8bab29f297d30abac1392f6162016c02e57d22c10da73",
      "transactionIndex": "0x9",
      "blockHash": "0x0000000000000000000000000000000000000000000000000000000000000000",
      "blockNumber": "0x2660afe",
      "gasUsed": "0xb506",
      "effectiveGasPrice": "0x5b8d80",
      "blobGasUsed": "0x39d0",
      "from": "0x05f8cc8753d90d67dbb8c02118440b8283f941c9",
      "to": "0xe4d05cd204f1a87ae061d9d6bd64d9ec3347d631",
      "contractAddress": null,
      "daFootprintGasScalar": "0x94",
      "l1BaseFeeScalar": "0x44d",
      "l1BlobBaseFee": "0x6c159ee",
      "l1BlobBaseFeeScalar": "0xa118b",
      "l1Fee": "0xd894ae89b",
      "l1GasPrice": "0x782ee1a9",
      "l1GasUsed": "0x640"
    },
    {
      "status": "0x1",
      "cumulativeGasUsed": "0x245d78",
      "logs": [],
      "logsBloom": "0x00000000000000000000000000000000000000000000000000000000000000000000000000000000000000000000000000000000000000000000000000000000000000000000000000000000000000000000000000000000000000000000000000000000000000000000000000000000000000000000000000000000000000000000000000000000000000000000000000000000000000000000000000000000000000000000000000000000000000000000000000000000000000000000000000000000000000000000000000000000000000000000000000000000000000000000000000000000000000000000000000000000000000000000000000000000",
      "type": "0x2",
      "transactionHash": "0x2f2e6579ad4dc5feec5e16abc26cfeea2d42bdc8bca2ac88da25621fed2c79e8",
      "transactionIndex": "0xa",
      "blockHash": "0x0000000000000000000000000000000000000000000000000000000000000000",
      "blockNumber": "0x2660afe",
      "gasUsed": "0x660c",
      "effectiveGasPrice": "0x5b8d80",
      "blobGasUsed": "0x39d0",
      "from": "0x05f8cc8753d90d67dbb8c02118440b8283f941c9",
      "to": "0xe4d05cd204f1a87ae061d9d6bd64d9ec3347d631",
      "contractAddress": null,
      "daFootprintGasScalar": "0x94",
      "l1BaseFeeScalar": "0x44d",
      "l1BlobBaseFee": "0x6c159ee",
      "l1BlobBaseFeeScalar": "0xa118b",
      "l1Fee": "0xd894ae89b",
      "l1GasPrice": "0x782ee1a9",
      "l1GasUsed": "0x640"
    },
    {
      "status": "0x1",
      "cumulativeGasUsed": "0x25c6e6",
      "logs": [],
      "logsBloom": "0x00000000000000000000000000000000000000000000000000000000000000000000000000000000000000000000000000000000000000000000000000000000000000000000000000000000000000000000000000000000000000000000000000000000000000000000000000000000000000000000000000000000000000000000000000000000000000000000000000000000000000000000000000000000000000000000000000000000000000000000000000000000000000000000000000000000000000000000000000000000000000000000000000000000000000000000000000000000000000000000000000000000000000000000000000000000",
      "type": "0x2",
      "transactionHash": "0xbd1561a4e7def7cf43895e96fe271a2bd1eedd618a33f8d011f758b62133b18f",
      "transactionIndex": "0xb",
      "blockHash": "0x0000000000000000000000000000000000000000000000000000000000000000",
      "blockNumber": "0x2660afe",
      "gasUsed": "0x1696e",
      "effectiveGasPrice": "0x5b8d80",
      "blobGasUsed": "0x53d4",
      "from": "0x05f8cc8753d90d67dbb8c02118440b8283f941c9",
      "to": "0xa0f6e96c16d054ad0ff9fcb027cdec39b5f50c2f",
      "contractAddress": null,
      "daFootprintGasScalar": "0x94",
      "l1BaseFeeScalar": "0x44d",
      "l1BlobBaseFee": "0x6c159ee",
      "l1BlobBaseFeeScalar": "0xa118b",
      "l1Fee": "0xd894ae89b",
      "l1GasPrice": "0x782ee1a9",
      "l1GasUsed": "0x91a"
    },
    {
      "status": "0x1",
      "cumulativeGasUsed": "0x2690a9",
      "logs": [
        {
          "address": "0x4b8edaed00b99aaf47ad3d9a1f5f7c85a51dc9dc",
          "topics": [
            "0xc4be60cee9fada79d250ef87fe6761acee8c4f919f811b4095a42b9553da7d71"
          ],
          "data": "0x000000000000000000000000000000000000000000000000000000000000006000000000000000000000000000000000000000000000000000000000000000a000000000000000000000000000000000000000000000000000000000000000010000000000000000000000000000000000000000000000000000000000000010617262697472756d2d7365706f6c696100000000000000000000000000000000000000000000000000000000000000000000000000000000000000000000002a30786564383032626265376230333235633935303335356230613130636265663430366232353230626300000000000000000000000000000000000000000000",
          "blockHash": "0x0000000000000000000000000000000000000000000000000000000000000000",
          "blockNumber": "0x2660afe",
          "blockTimestamp": "0x69df74dc",
          "transactionHash": "0xc85ce185d0bbe22275f2db99f886caa5964d92e5e8db9eff19153e550e5cb407",
          "transactionIndex": "0xc",
          "logIndex": "0x5c",
          "removed": false
        }
      ],
      "logsBloom": "0x00000000000000000000000000000000000040000000000000000000000000080000000000000004000000000000000000000000000000000180000000000000000000000000000000000000000000000000000000000000000000000000000000000000000000000000000000000000000000000000000000000000000000000000000000000000000000000000000000000000000000000000000000000000000000000000000000000000000000000000000000000000000000000000000000000000000000000000000000000000000000800000000000000000000000000000000000000000000000000000000000000000000000000000000000000000",
      "type": "0x2",
      "transactionHash": "0xc85ce185d0bbe22275f2db99f886caa5964d92e5e8db9eff19153e550e5cb407",
      "transactionIndex": "0xc",
      "blockHash": "0x0000000000000000000000000000000000000000000000000000000000000000",
      "blockNumber": "0x2660afe",
      "gasUsed": "0xc9c3",
      "effectiveGasPrice": "0x5b8d80",
      "blobGasUsed": "0x5184",
      "from": "0x05f8cc8753d90d67dbb8c02118440b8283f941c9",
      "to": "0x4b8edaed00b99aaf47ad3d9a1f5f7c85a51dc9dc",
      "contractAddress": null,
      "daFootprintGasScalar": "0x94",
      "l1BaseFeeScalar": "0x44d",
      "l1BlobBaseFee": "0x6c159ee",
      "l1BlobBaseFeeScalar": "0xa118b",
      "l1Fee": "0xd894ae89b",
      "l1GasPrice": "0x782ee1a9",
      "l1GasUsed": "0x8d7"
    }
  ],
  "libraries": [],
  "pending": [],
  "returns": {},
  "timestamp": 1776252123475,
  "chain": 84532,
  "commit": "adc3b16"
}