{
  "transactions": [
    {
      "hash": "0x94913d484af0e327c0952d46864596bd7d0fac217048a8a658f86f4c84344c42",
      "transactionType": "CALL",
      "contractName": null,
      "contractAddress": "0x94f41058563e46c27aba75ab592752cc09061c6e",
      "function": "addApprovedCaller(address)",
      "arguments": [
        "0x4b8eDAED00B99Aaf47ad3D9A1f5F7c85a51dc9dC"
      ],
      "transaction": {
        "from": "0x05f8cc8753d90d67dbb8c02118440b8283f941c9",
        "to": "0x94f41058563e46c27aba75ab592752cc09061c6e",
        "gas": "0x9632",
        "value": "0x0",
        "input": "0xab5cb85a0000000000000000000000004b8edaed00b99aaf47ad3d9a1f5f7c85a51dc9dc",
        "nonce": "0x192",
        "chainId": "0x14a34"
      },
      "additionalContracts": [],
      "isFixedGasLimit": false
    },
    {
      "hash": "0xc762653a85d4aef70168b7029dc7e4d8d3e832414d306bd2784453f320b5f5c7",
      "transactionType": "CALL",
      "contractName": null,
      "contractAddress": "0x94f41058563e46c27aba75ab592752cc09061c6e",
      "function": "addApprovedCaller(address)",
      "arguments": [
        "0x05F8cC8753D90d67DBB8c02118440b8283F941c9"
      ],
      "transaction": {
        "from": "0x05f8cc8753d90d67dbb8c02118440b8283f941c9",
        "to": "0x94f41058563e46c27aba75ab592752cc09061c6e",
        "gas": "0x107f3",
        "value": "0x0",
        "input": "0xab5cb85a00000000000000000000000005f8cc8753d90d67dbb8c02118440b8283f941c9",
        "nonce": "0x193",
        "chainId": "0x14a34"
      },
      "additionalContracts": [],
      "isFixedGasLimit": false
    },
    {
      "hash": "0x844e8c0f338fdd8efa9b7bd02141f980043cb1a496325c844256207130fa9508",
      "transactionType": "CALL",
      "contractName": null,
      "contractAddress": "0xe4d05cd204f1a87ae061d9d6bd64d9ec3347d631",
      "function": "setChainDomain(uint32,uint32)",
      "arguments": [
        "421614",
        "3"
      ],
      "transaction": {
        "from": "0x05f8cc8753d90d67dbb8c02118440b8283f941c9",
        "to": "0xe4d05cd204f1a87ae061d9d6bd64d9ec3347d631",
        "gas": "0x8df6",
        "value": "0x0",
        "input": "0x7ef0d2870000000000000000000000000000000000000000000000000000000000066eee0000000000000000000000000000000000000000000000000000000000000003",
        "nonce": "0x194",
        "chainId": "0x14a34"
      },
      "additionalContracts": [],
      "isFixedGasLimit": false
    },
    {
      "hash": "0xa61c21569037c4633ebb2717143f68dd0303b2c2d9cb5dc4c089309424cca491",
      "transactionType": "CALL",
      "contractName": null,
      "contractAddress": "0xe4d05cd204f1a87ae061d9d6bd64d9ec3347d631",
      "function": "setDestinationReceiver(uint32,bytes32)",
      "arguments": [
        "421614",
        "0x000000000000000000000000b2abe546163021d539e4cc991354c29a124b38ce"
      ],
      "transaction": {
        "from": "0x05f8cc8753d90d67dbb8c02118440b8283f941c9",
        "to": "0xe4d05cd204f1a87ae061d9d6bd64d9ec3347d631",
        "gas": "0x970f",
        "value": "0x0",
        "input": "0x0267dd6c0000000000000000000000000000000000000000000000000000000000066eee000000000000000000000000b2abe546163021d539e4cc991354c29a124b38ce",
        "nonce": "0x195",
        "chainId": "0x14a34"
      },
      "additionalContracts": [],
      "isFixedGasLimit": false
    },
    {
      "hash": "0xafc216f2f2e199d852aafbdbf044ed2f9068806fc3b9318aaf2fbcf3228c5894",
      "transactionType": "CALL",
      "contractName": null,
      "contractAddress": "0xe4d05cd204f1a87ae061d9d6bd64d9ec3347d631",
      "function": "setDestinationCaller(uint32,bytes32)",
      "arguments": [
        "421614",
        "0x0000000000000000000000000000000000000000000000000000000000000000"
      ],
      "transaction": {
        "from": "0x05f8cc8753d90d67dbb8c02118440b8283f941c9",
        "to": "0xe4d05cd204f1a87ae061d9d6bd64d9ec3347d631",
        "gas": "0x8cf2",
        "value": "0x0",
        "input": "0x00686ed20000000000000000000000000000000000000000000000000000000000066eee0000000000000000000000000000000000000000000000000000000000000000",
        "nonce": "0x196",
        "chainId": "0x14a34"
      },
      "additionalContracts": [],
      "isFixedGasLimit": false
    }
  ],
  "receipts": [
    {
      "status": "0x1",
      "cumulativeGasUsed": "0x1a30d0",
      "logs": [],
      "logsBloom": "0x00000000000000000000000000000000000000000000000000000000000000000000000000000000000000000000000000000000000000000000000000000000000000000000000000000000000000000000000000000000000000000000000000000000000000000000000000000000000000000000000000000000000000000000000000000000000000000000000000000000000000000000000000000000000000000000000000000000000000000000000000000000000000000000000000000000000000000000000000000000000000000000000000000000000000000000000000000000000000000000000000000000000000000000000000000000",
      "type": "0x2",
      "transactionHash": "0x94913d484af0e327c0952d46864596bd7d0fac217048a8a658f86f4c84344c42",
      "transactionIndex": "0x6",
      "blockHash": "0x0000000000000000000000000000000000000000000000000000000000000000",
      "blockNumber": "0x2677986",
      "gasUsed": "0x66b3",
      "effectiveGasPrice": "0x5b8d80",
      "blobGasUsed": "0x39d0",
      "from": "0x05f8cc8753d90d67dbb8c02118440b8283f941c9",
      "to": "0x94f41058563e46c27aba75ab592752cc09061c6e",
      "contractAddress": null,
      "daFootprintGasScalar": "0x94",
      "l1BaseFeeScalar": "0x44d",
      "l1BlobBaseFee": "0x8dfa8b3",
      "l1BlobBaseFeeScalar": "0xa118b",
      "l1Fee": "0x34c881c71",
      "l1GasPrice": "0x9306c667",
      "l1GasUsed": "0x640"
    },
    {
      "status": "0x1",
      "cumulativeGasUsed": "0x1ae54b",
      "logs": [],
      "logsBloom": "0x00000000000000000000000000000000000000000000000000000000000000000000000000000000000000000000000000000000000000000000000000000000000000000000000000000000000000000000000000000000000000000000000000000000000000000000000000000000000000000000000000000000000000000000000000000000000000000000000000000000000000000000000000000000000000000000000000000000000000000000000000000000000000000000000000000000000000000000000000000000000000000000000000000000000000000000000000000000000000000000000000000000000000000000000000000000",
      "type": "0x2",
      "transactionHash": "0xafc216f2f2e199d852aafbdbf044ed2f9068806fc3b9318aaf2fbcf3228c5894",
      "transactionIndex": "0x7",
      "blockHash": "0x0000000000000000000000000000000000000000000000000000000000000000",
      "blockNumber": "0x2677986",
      "gasUsed": "0xb47b",
      "effectiveGasPrice": "0x5b8d80",
      "blobGasUsed": "0x39d0",
      "from": "0x05f8cc8753d90d67dbb8c02118440b8283f941c9",
      "to": "0x94f41058563e46c27aba75ab592752cc09061c6e",
      "contractAddress": null,
      "daFootprintGasScalar": "0x94",
      "l1BaseFeeScalar": "0x44d",
      "l1BlobBaseFee": "0x8dfa8b3",
      "l1BlobBaseFeeScalar": "0xa118b",
      "l1Fee": "0x34c881c71",
      "l1GasPrice": "0x9306c667",
      "l1GasUsed": "0x640"
    },
    {
      "status": "0x1",
      "cumulativeGasUsed": "0x1b4c13",
      "logs": [],
      "logsBloom": "0x00000000000000000000000000000000000000000000000000000000000000000000000000000000000000000000000000000000000000000000000000000000000000000000000000000000000000000000000000000000000000000000000000000000000000000000000000000000000000000000000000000000000000000000000000000000000000000000000000000000000000000000000000000000000000000000000000000000000000000000000000000000000000000000000000000000000000000000000000000000000000000000000000000000000000000000000000000000000000000000000000000000000000000000000000000000",
      "type": "0x2",
      "transactionHash": "0x844e8c0f338fdd8efa9b7bd02141f980043cb1a496325c844256207130fa9508",
      "transactionIndex": "0x8",
      "blockHash": "0x0000000000000000000000000000000000000000000000000000000000000000",
      "blockNumber": "0x2677986",
      "gasUsed": "0x66c8",
      "effectiveGasPrice": "0x5b8d80",
      "blobGasUsed": "0x39d0",
      "from": "0x05f8cc8753d90d67dbb8c02118440b8283f941c9",
      "to": "0xe4d05cd204f1a87ae061d9d6bd64d9ec3347d631",
      "contractAddress": null,
      "daFootprintGasScalar": "0x94",
      "l1BaseFeeScalar": "0x44d",
      "l1BlobBaseFee": "0x8dfa8b3",
      "l1BlobBaseFeeScalar": "0xa118b",
      "l1Fee": "0x34c881c71",
      "l1GasPrice": "0x9306c667",
      "l1GasUsed": "0x640"
    },
    {
      "status": "0x1",
      "cumulativeGasUsed": "0x1bb35d",
      "logs": [],
      "logsBloom": "0x00000000000000000000000000000000000000000000000000000000000000000000000000000000000000000000000000000000000000000000000000000000000000000000000000000000000000000000000000000000000000000000000000000000000000000000000000000000000000000000000000000000000000000000000000000000000000000000000000000000000000000000000000000000000000000000000000000000000000000000000000000000000000000000000000000000000000000000000000000000000000000000000000000000000000000000000000000000000000000000000000000000000000000000000000000000",
      "type": "0x2",
      "transactionHash": "0xc762653a85d4aef70168b7029dc7e4d8d3e832414d306bd2784453f320b5f5c7",
      "transactionIndex": "0x9",
      "blockHash": "0x0000000000000000000000000000000000000000000000000000000000000000",
      "blockNumber": "0x2677986",
      "gasUsed": "0x674a",
      "effectiveGasPrice": "0x5b8d80",
      "blobGasUsed": "0x39d0",
      "from": "0x05f8cc8753d90d67dbb8c02118440b8283f941c9",
      "to": "0xe4d05cd204f1a87ae061d9d6bd64d9ec3347d631",
      "contractAddress": null,
      "daFootprintGasScalar": "0x94",
      "l1BaseFeeScalar": "0x44d",
      "l1BlobBaseFee": "0x8dfa8b3",
      "l1BlobBaseFeeScalar": "0xa118b",
      "l1Fee": "0x34c881c71",
      "l1GasPrice": "0x9306c667",
      "l1GasUsed": "0x640"
    },
    {
      "status": "0x1",
      "cumulativeGasUsed": "0x1c1969",
      "logs": [],
      "logsBloom": "0x00000000000000000000000000000000000000000000000000000000000000000000000000000000000000000000000000000000000000000000000000000000000000000000000000000000000000000000000000000000000000000000000000000000000000000000000000000000000000000000000000000000000000000000000000000000000000000000000000000000000000000000000000000000000000000000000000000000000000000000000000000000000000000000000000000000000000000000000000000000000000000000000000000000000000000000000000000000000000000000000000000000000000000000000000000000",
      "type": "0x2",
      "transactionHash": "0xa61c21569037c4633ebb2717143f68dd0303b2c2d9cb5dc4c089309424cca491",
      "transactionIndex": "0xa",
      "blockHash": "0x0000000000000000000000000000000000000000000000000000000000000000",
      "blockNumber": "0x2677986",
      "gasUsed": "0x660c",
      "effectiveGasPrice": "0x5b8d80",
      "blobGasUsed": "0x39d0",
      "from": "0x05f8cc8753d90d67dbb8c02118440b8283f941c9",
      "to": "0xe4d05cd204f1a87ae061d9d6bd64d9ec3347d631",
      "contractAddress": null,
      "daFootprintGasScalar": "0x94",
      "l1BaseFeeScalar": "0x44d",
      "l1BlobBaseFee": "0x8dfa8b3",
      "l1BlobBaseFeeScalar": "0xa118b",
      "l1Fee": "0x34c881c71",
      "l1GasPrice": "0x9306c667",
      "l1GasUsed": "0x640"
    }
  ],
  "libraries": [],
  "pending": [],
  "returns": {},
  "timestamp": 1776439786663,
  "chain": 84532,
  "commit": "56ff7fe"
}