{
  "transactions": [
    {
      "hash": "0xcfa896e94c8c8eeb5cb158ee370ae746bc4023394d53a1a19819cd3e570a496f",
      "transactionType": "CALL",
      "contractName": null,
      "contractAddress": "0x84c05502ee5ee8cb2ef43273f300439cad0c4020",
      "function": "registerRailPlugin(address)",
      "arguments": [
        "0xae72a52f4A6B36d65cC971dF9FdEFfa07ab5Db5E"
      ],
      "transaction": {
        "from": "0x05f8cc8753d90d67dbb8c02118440b8283f941c9",
        "to": "0x84c05502ee5ee8cb2ef43273f300439cad0c4020",
        "gas": "0x28be3",
        "value": "0x0",
        "input": "0x172ceb34000000000000000000000000ae72a52f4a6b36d65cc971df9fdeffa07ab5db5e",
        "nonce": "0x1a4",
        "chainId": "0x14a34"
      },
      "additionalContracts": [],
      "isFixedGasLimit": false
    },
    {
      "hash": "0x2da2969b4c2a9eee0d637a468ba6a1d29cd4300d5871dc71bc556aa9386664a9",
      "transactionType": "CALL",
      "contractName": null,
      "contractAddress": "0x84c05502ee5ee8cb2ef43273f300439cad0c4020",
      "function": "registerRailPlugin(address)",
      "arguments": [
        "0xAcB6A28814a7BAEA27cEC106e086aB0BDDa37F9C"
      ],
      "transaction": {
        "from": "0x05f8cc8753d90d67dbb8c02118440b8283f941c9",
        "to": "0x84c05502ee5ee8cb2ef43273f300439cad0c4020",
        "gas": "0x22f16",
        "value": "0x0",
        "input": "0x172ceb34000000000000000000000000acb6a28814a7baea27cec106e086ab0bdda37f9c",
        "nonce": "0x1a5",
        "chainId": "0x14a34"
      },
      "additionalContracts": [],
      "isFixedGasLimit": false
    },
    {
      "hash": "0xf23b69167bc08a526d1051a78e24ce5d4415ba598e4a1e99a35c187c3ff599e9",
      "transactionType": "CALL",
      "contractName": null,
      "contractAddress": "0x84c05502ee5ee8cb2ef43273f300439cad0c4020",
      "function": "registerRailPlugin(address)",
      "arguments": [
        "0xd00e7ce0ac312138dE62610eD950E814e12d3F89"
      ],
      "transaction": {
        "from": "0x05f8cc8753d90d67dbb8c02118440b8283f941c9",
        "to": "0x84c05502ee5ee8cb2ef43273f300439cad0c4020",
        "gas": "0x24fb9",
        "value": "0x0",
        "input": "0x172ceb34000000000000000000000000d00e7ce0ac312138de62610ed950e814e12d3f89",
        "nonce": "0x1a6",
        "chainId": "0x14a34"
      },
      "additionalContracts": [],
      "isFixedGasLimit": false
    },
    {
      "hash": "0x8287d6956e0651159803d793b0ce993bb66e0e6743b851b30c668ff24eaa8de2",
      "transactionType": "CALL",
      "contractName": null,
      "contractAddress": "0x84c05502ee5ee8cb2ef43273f300439cad0c4020",
      "function": "registerRailPlugin(address)",
      "arguments": [
        "0x05C5a9DfF519Bbb26E206d02e90aA9ca5105a327"
      ],
      "transaction": {
        "from": "0x05f8cc8753d90d67dbb8c02118440b8283f941c9",
        "to": "0x84c05502ee5ee8cb2ef43273f300439cad0c4020",
        "gas": "0x24fb9",
        "value": "0x0",
        "input": "0x172ceb3400000000000000000000000005c5a9dff519bbb26e206d02e90aa9ca5105a327",
        "nonce": "0x1a7",
        "chainId": "0x14a34"
      },
      "additionalContracts": [],
      "isFixedGasLimit": false
    },
    {
      "hash": "0x53fc752cce39ef6a9fe3f7558e3f1598335cb1b230b6bfdd777c43590183f065",
      "transactionType": "CALL",
      "contractName": null,
      "contractAddress": "0x8fb0438d0799c52920515b31310f53452c33e066",
      "function": "addApprovedCaller(address)",
      "arguments": [
        "0x5fd1F6DB09C8d64f2230415d8F0f9E87f5462fa3"
      ],
      "transaction": {
        "from": "0x05f8cc8753d90d67dbb8c02118440b8283f941c9",
        "to": "0x8fb0438d0799c52920515b31310f53452c33e066",
        "gas": "0x107f3",
        "value": "0x0",
        "input": "0xab5cb85a0000000000000000000000005fd1f6db09c8d64f2230415d8f0f9e87f5462fa3",
        "nonce": "0x1a8",
        "chainId": "0x14a34"
      },
      "additionalContracts": [],
      "isFixedGasLimit": false
    },
    {
      "hash": "0x38e63bb0624a6830b5f90befef0d40d2643047d1f67f7ae8cf1a992228f5b2e7",
      "transactionType": "CALL",
      "contractName": null,
      "contractAddress": "0x8fb0438d0799c52920515b31310f53452c33e066",
      "function": "addApprovedCaller(address)",
      "arguments": [
        "0x4e5d1Ff12514cC396aA37757878A02433887EDe0"
      ],
      "transaction": {
        "from": "0x05f8cc8753d90d67dbb8c02118440b8283f941c9",
        "to": "0x8fb0438d0799c52920515b31310f53452c33e066",
        "gas": "0x107f3",
        "value": "0x0",
        "input": "0xab5cb85a0000000000000000000000004e5d1ff12514cc396aa37757878a02433887ede0",
        "nonce": "0x1a9",
        "chainId": "0x14a34"
      },
      "additionalContracts": [],
      "isFixedGasLimit": false
    },
    {
      "hash": "0x48b5f254dbc9edacf6383cbed62811abad4e8e37d7a33784872e15b9bc0370e0",
      "transactionType": "CALL",
      "contractName": null,
      "contractAddress": "0xae72a52f4a6b36d65cc971df9fdeffa07ab5db5e",
      "function": "setChainDomain(uint32,uint32)",
      "arguments": [
        "11155420",
        "2"
      ],
      "transaction": {
        "from": "0x05f8cc8753d90d67dbb8c02118440b8283f941c9",
        "to": "0xae72a52f4a6b36d65cc971df9fdeffa07ab5db5e",
        "gas": "0xf936",
        "value": "0x0",
        "input": "0x7ef0d2870000000000000000000000000000000000000000000000000000000000aa37dc0000000000000000000000000000000000000000000000000000000000000002",
        "nonce": "0x1aa",
        "chainId": "0x14a34"
      },
      "additionalContracts": [],
      "isFixedGasLimit": false
    },
    {
      "hash": "0x8ec01c5a338ba760ff1f03e22728bbfcf449d084b43a43b0d77659bc689fcfc1",
      "transactionType": "CALL",
      "contractName": null,
      "contractAddress": "0xae72a52f4a6b36d65cc971df9fdeffa07ab5db5e",
      "function": "setDestinationReceiver(uint32,bytes32)",
      "arguments": [
        "11155420",
        "0x000000000000000000000000bc4cbd47e7bf5eec5ede5f3a805c8dcc20d843a0"
      ],
      "transaction": {
        "from": "0x05f8cc8753d90d67dbb8c02118440b8283f941c9",
        "to": "0xae72a52f4a6b36d65cc971df9fdeffa07ab5db5e",
        "gas": "0xfa09",
        "value": "0x0",
        "input": "0x0267dd6c0000000000000000000000000000000000000000000000000000000000aa37dc000000000000000000000000bc4cbd47e7bf5eec5ede5f3a805c8dcc20d843a0",
        "nonce": "0x1ab",
        "chainId": "0x14a34"
      },
      "additionalContracts": [],
      "isFixedGasLimit": false
    },
    {
      "hash": "0x504c5703151f537446dc38fef09492e4c478c13bfc1e4c64b6b118dfe10b038a",
      "transactionType": "CALL",
      "contractName": null,
      "contractAddress": "0xae72a52f4a6b36d65cc971df9fdeffa07ab5db5e",
      "function": "setDestinationCaller(uint32,bytes32)",
      "arguments": [
        "11155420",
        "0x00000000000000000000000005f8cc8753d90d67dbb8c02118440b8283f941c9"
      ],
      "transaction": {
        "from": "0x05f8cc8753d90d67dbb8c02118440b8283f941c9",
        "to": "0xae72a52f4a6b36d65cc971df9fdeffa07ab5db5e",
        "gas": "0xf99d",
        "value": "0x0",
        "input": "0x00686ed20000000000000000000000000000000000000000000000000000000000aa37dc00000000000000000000000005f8cc8753d90d67dbb8c02118440b8283f941c9",
        "nonce": "0x1ac",
        "chainId": "0x14a34"
      },
      "additionalContracts": [],
      "isFixedGasLimit": false
    },
    {
      "hash": "0x024ca1ca4c7c7a244e5c4c7cf72f4db20a689a9b6f3bd562930d8a18a7d3b68a",
      "transactionType": "CALL",
      "contractName": null,
      "contractAddress": "0xacb6a28814a7baea27cec106e086ab0bdda37f9c",
      "function": "setChainDomain(uint32,uint32)",
      "arguments": [
        "11155420",
        "2"
      ],
      "transaction": {
        "from": "0x05f8cc8753d90d67dbb8c02118440b8283f941c9",
        "to": "0xacb6a28814a7baea27cec106e086ab0bdda37f9c",
        "gas": "0x10820",
        "value": "0x0",
        "input": "0x7ef0d2870000000000000000000000000000000000000000000000000000000000aa37dc0000000000000000000000000000000000000000000000000000000000000002",
        "nonce": "0x1ad",
        "chainId": "0x14a34"
      },
      "additionalContracts": [],
      "isFixedGasLimit": false
    },
    {
      "hash": "0x7e2ca25421bda8bff2537d47333d38548a37e0ccc6170721b81864607d250e2e",
      "transactionType": "CALL",
      "contractName": null,
      "contractAddress": "0xacb6a28814a7baea27cec106e086ab0bdda37f9c",
      "function": "setDestinationReceiver(uint32,bytes32)",
      "arguments": [
        "11155420",
        "0x000000000000000000000000bc4cbd47e7bf5eec5ede5f3a805c8dcc20d843a0"
      ],
      "transaction": {
        "from": "0x05f8cc8753d90d67dbb8c02118440b8283f941c9",
        "to": "0xacb6a28814a7baea27cec106e086ab0bdda37f9c",
        "gas": "0xf9eb",
        "value": "0x0",
        "input": "0x0267dd6c0000000000000000000000000000000000000000000000000000000000aa37dc000000000000000000000000bc4cbd47e7bf5eec5ede5f3a805c8dcc20d843a0",
        "nonce": "0x1ae",
        "chainId": "0x14a34"
      },
      "additionalContracts": [],
      "isFixedGasLimit": false
    },
    {
      "hash": "0x7707b619bf6f627e58c353b1bba2aaaa76827ccf6de18b1d5874a7dfb490819b",
      "transactionType": "CALL",
      "contractName": null,
      "contractAddress": "0xacb6a28814a7baea27cec106e086ab0bdda37f9c",
      "function": "setDestinationCaller(uint32,bytes32)",
      "arguments": [
        "11155420",
        "0x00000000000000000000000005f8cc8753d90d67dbb8c02118440b8283f941c9"
      ],
      "transaction": {
        "from": "0x05f8cc8753d90d67dbb8c02118440b8283f941c9",
        "to": "0xacb6a28814a7baea27cec106e086ab0bdda37f9c",
        "gas": "0xf99d",
        "value": "0x0",
        "input": "0x00686ed20000000000000000000000000000000000000000000000000000000000aa37dc00000000000000000000000005f8cc8753d90d67dbb8c02118440b8283f941c9",
        "nonce": "0x1af",
        "chainId": "0x14a34"
      },
      "additionalContracts": [],
      "isFixedGasLimit": false
    },
    {
      "hash": "0xf6b12160ccf6e29f70cd882f61703c3fdfa7a6ac935c43a42c93e89fb7ffd76f",
      "transactionType": "CALL",
      "contractName": null,
      "contractAddress": "0xacb6a28814a7baea27cec106e086ab0bdda37f9c",
      "function": "setMaxFeeBpsCap(uint256)",
      "arguments": [
        "100"
      ],
      "transaction": {
        "from": "0x05f8cc8753d90d67dbb8c02118440b8283f941c9",
        "to": "0xacb6a28814a7baea27cec106e086ab0bdda37f9c",
        "gas": "0x8bcb",
        "value": "0x0",
        "input": "0x357c4ea70000000000000000000000000000000000000000000000000000000000000064",
        "nonce": "0x1b0",
        "chainId": "0x14a34"
      },
      "additionalContracts": [],
      "isFixedGasLimit": false
    },
    {
      "hash": "0x358018533c422efd9e0fdefa1a656bb8dd41e4e17c6f30a99238aef704a1fc4f",
      "transactionType": "CALL",
      "contractName": null,
      "contractAddress": "0xd00e7ce0ac312138de62610ed950e814e12d3f89",
      "function": "setRouteConfig(uint32,string,address,bytes32)",
      "arguments": [
        "11155420",
        "optimism-sepolia",
        "0xd8016e376e15b20Fc321a37fD69DC42cfDf951Bb",
        "0x4d2fdc120be87ecf5661b7a75144d5d4b507b525eeb8c9c85c346a255e3b9663"
      ],
      "transaction": {
        "from": "0x05f8cc8753d90d67dbb8c02118440b8283f941c9",
        "to": "0xd00e7ce0ac312138de62610ed950e814e12d3f89",
        "gas": "0x21056",
        "value": "0x0",
        "input": "0x7513a82a0000000000000000000000000000000000000000000000000000000000aa37dc0000000000000000000000000000000000000000000000000000000000000080000000000000000000000000d8016e376e15b20fc321a37fd69dc42cfdf951bb4d2fdc120be87ecf5661b7a75144d5d4b507b525eeb8c9c85c346a255e3b966300000000000000000000000000000000000000000000000000000000000000106f7074696d69736d2d7365706f6c696100000000000000000000000000000000",
        "nonce": "0x1b1",
        "chainId": "0x14a34"
      },
      "additionalContracts": [],
      "isFixedGasLimit": false
    },
    {
      "hash": "0x1608b274a7fcfd9463778109366a20a1497d2dfb7fad4413f9d0982e6467a1a3",
      "transactionType": "CALL",
      "contractName": null,
      "contractAddress": "0x05c5a9dff519bbb26e206d02e90aa9ca5105a327",
      "function": "setRouteConfig(uint32,uint32,address,bytes)",
      "arguments": [
        "11155420",
        "40232",
        "0x96e67D7295A0Bca3E57c7DE9a1A9bF28fd56FFDc",
        "0x00030100110100000000000000000000000000030d4001001303000000000000000000000000000000061a80"
      ],
      "transaction": {
        "from": "0x05f8cc8753d90d67dbb8c02118440b8283f941c9",
        "to": "0x05c5a9dff519bbb26e206d02e90aa9ca5105a327",
        "gas": "0x2e154",
        "value": "0x0",
        "input": "0xd5bfb7fa0000000000000000000000000000000000000000000000000000000000aa37dc0000000000000000000000000000000000000000000000000000000000009d2800000000000000000000000096e67d7295a0bca3e57c7de9a1a9bf28fd56ffdc0000000000000000000000000000000000000000000000000000000000000080000000000000000000000000000000000000000000000000000000000000002c00030100110100000000000000000000000000030d4001001303000000000000000000000000000000061a800000000000000000000000000000000000000000",
        "nonce": "0x1b2",
        "chainId": "0x14a34"
      },
      "additionalContracts": [],
      "isFixedGasLimit": false
    },
    {
      "hash": "0xcfef3a3820b68a3b2fb8d5fada94ca86c9dcc18e7876139b0cf60e96c0cfde7f",
      "transactionType": "CALL",
      "contractName": null,
      "contractAddress": "0x5fd1f6db09c8d64f2230415d8f0f9e87f5462fa3",
      "function": "setTrustedSourceAddress(string,address,bool)",
      "arguments": [
        "optimism-sepolia",
        "0xA73776c0aAE79382d8003B1fC7648B5ab32889D0",
        "true"
      ],
      "transaction": {
        "from": "0x05f8cc8753d90d67dbb8c02118440b8283f941c9",
        "to": "0x5fd1f6db09c8d64f2230415d8f0f9e87f5462fa3",
        "gas": "0x12591",
        "value": "0x0",
        "input": "0x6dc3df1c0000000000000000000000000000000000000000000000000000000000000060000000000000000000000000a73776c0aae79382d8003b1fc7648b5ab32889d0000000000000000000000000000000000000000000000000000000000000000100000000000000000000000000000000000000000000000000000000000000106f7074696d69736d2d7365706f6c696100000000000000000000000000000000",
        "nonce": "0x1b3",
        "chainId": "0x14a34"
      },
      "additionalContracts": [],
      "isFixedGasLimit": false
    },
    {
      "hash": "0x4fc24313f576d1bd4d59e1c0493f5432c88ab29e0b1cfa6be17270c3b362e919",
      "transactionType": "CALL",
      "contractName": null,
      "contractAddress": "0x5fd1f6db09c8d64f2230415d8f0f9e87f5462fa3",
      "function": "setTrustedToken(bytes32,address,bool)",
      "arguments": [
        "0x4d2fdc120be87ecf5661b7a75144d5d4b507b525eeb8c9c85c346a255e3b9663",
        "0x2f2A9DbFd8c503a0aC56413B774e39030df85331",
        "true"
      ],
      "transaction": {
        "from": "0x05f8cc8753d90d67dbb8c02118440b8283f941c9",
        "to": "0x5fd1f6db09c8d64f2230415d8f0f9e87f5462fa3",
        "gas": "0x10772",
        "value": "0x0",
        "input": "0x001089604d2fdc120be87ecf5661b7a75144d5d4b507b525eeb8c9c85c346a255e3b96630000000000000000000000002f2a9dbfd8c503a0ac56413b774e39030df853310000000000000000000000000000000000000000000000000000000000000001",
        "nonce": "0x1b4",
        "chainId": "0x14a34"
      },
      "additionalContracts": [],
      "isFixedGasLimit": false
    },
    {
      "hash": "0xf0b8a3a85f17e8ed18e726d60257589d847aa187e8924c0b51233d68bb432a37",
      "transactionType": "CALL",
      "contractName": null,
      "contractAddress": "0x4e5d1ff12514cc396aa37757878a02433887ede0",
      "function": "setTrustedPeerAddress(uint32,address)",
      "arguments": [
        "40232",
        "0x55cC592be7E49c4020e67a895FEe9474C7D71dbc"
      ],
      "transaction": {
        "from": "0x05f8cc8753d90d67dbb8c02118440b8283f941c9",
        "to": "0x4e5d1ff12514cc396aa37757878a02433887ede0",
        "gas": "0x111ae",
        "value": "0x0",
        "input": "0x60c5965f0000000000000000000000000000000000000000000000000000000000009d2800000000000000000000000055cc592be7e49c4020e67a895fee9474c7d71dbc",
        "nonce": "0x1b5",
        "chainId": "0x14a34"
      },
      "additionalContracts": [],
      "isFixedGasLimit": false
    }
  ],
  "receipts": [
    {
      "status": "0x1",
      "cumulativeGasUsed": "0x1fe6ef",
      "logs": [
        {
          "address": "0x84c05502ee5ee8cb2ef43273f300439cad0c4020",
          "topics": [
            "0xa86330cede453edbe00d0dbe74ee3bdbac6d7b048009b0d72d54aa609df01a71",
            "0xb148ea5f936a28661e11743b1650193f1b14a2322b9541503bf6815a84a1a6e9"
          ],
          "data": "0x000000000000000000000000ae72a52f4a6b36d65cc971df9fdeffa07ab5db5e0000000000000000000000000000000000000000000000000000000000000000",
          "blockHash": "0x0000000000000000000000000000000000000000000000000000000000000000",
          "blockNumber": "0x2697c42",
          "blockTimestamp": "0x69e65764",
          "transactionHash": "0x024ca1ca4c7c7a244e5c4c7cf72f4db20a689a9b6f3bd562930d8a18a7d3b68a",
          "transactionIndex": "0x7",
          "logIndex": "0x48",
          "removed": false
        }
      ],
      "logsBloom": "0x00000400000000002000000000000000000000000000000000000000000000000000000000000000000000000000000000000000000000000000000000000100000000000000000000000000000000000000000020000000000000000000000000000000000000000000000020000000000000000000000000000000000000000000000000000000000000000000080000000000000000000000000000000008000000000000000000000000000000000000000000000000000000000000000000000000000000000000000000200000000000400000000000000000000000000000000000000000000000000000000000000000000000000000000000000000",
      "type": "0x2",
      "transactionHash": "0x024ca1ca4c7c7a244e5c4c7cf72f4db20a689a9b6f3bd562930d8a18a7d3b68a",
      "transactionIndex": "0x7",
      "blockHash": "0x0000000000000000000000000000000000000000000000000000000000000000",
      "blockNumber": "0x2697c42",
      "gasUsed": "0x1d7f5",
      "effectiveGasPrice": "0x5b8d80",
      "blobGasUsed": "0x39d0",
      "from": "0x05f8cc8753d90d67dbb8c02118440b8283f941c9",
      "to": "0x84c05502ee5ee8cb2ef43273f300439cad0c4020",
      "contractAddress": null,
      "daFootprintGasScalar": "0x94",
      "l1BaseFeeScalar": "0x44d",
      "l1BlobBaseFee": "0x998526d",
      "l1BlobBaseFeeScalar": "0xa118b",
      "l1Fee": "0x959c9cb27",
      "l1GasPrice": "0x1d0d23413",
      "l1GasUsed": "0x640"
    },
    {
      "status": "0x1",
      "cumulativeGasUsed": "0x217bb4",
      "logs": [
        {
          "address": "0x84c05502ee5ee8cb2ef43273f300439cad0c4020",
          "topics": [
            "0xa86330cede453edbe00d0dbe74ee3bdbac6d7b048009b0d72d54aa609df01a71",
            "0x9181644edfd36b07ccd623494a3681a4a6b9cd5d52611accda20264cd09259ac"
          ],
          "data": "0x000000000000000000000000acb6a28814a7baea27cec106e086ab0bdda37f9c0000000000000000000000000000000000000000000000000000000000000000",
          "blockHash": "0x0000000000000000000000000000000000000000000000000000000000000000",
          "blockNumber": "0x2697c42",
          "blockTimestamp": "0x69e65764",
          "transactionHash": "0x38e63bb0624a6830b5f90befef0d40d2643047d1f67f7ae8cf1a992228f5b2e7",
          "transactionIndex": "0x8",
          "logIndex": "0x49",
          "removed": false
        }
      ],
      "logsBloom": "0x00000000000000002000000000000000000000004000000000000000000000008000000000000000000000000000000000000000000000000000000000000100000000000000000000000000000000000000000000000000000000000000000000000000000000000000000000000000000000000000000000000000000000000000000000000008000000000000080000000000000000000000000000000008000000000000000000000000000000000000000000000000000000000000000000000000000000000000000000200000000000400000000000000000000000000000000000000000000000000000000000000000000000000000000000000000",
      "type": "0x2",
      "transactionHash": "0x38e63bb0624a6830b5f90befef0d40d2643047d1f67f7ae8cf1a992228f5b2e7",
      "transactionIndex": "0x8",
      "blockHash": "0x0000000000000000000000000000000000000000000000000000000000000000",
      "blockNumber": "0x2697c42",
      "gasUsed": "0x194c5",
      "effectiveGasPrice": "0x5b8d80",
      "blobGasUsed": "0x39d0",
      "from": "0x05f8cc8753d90d67dbb8c02118440b8283f941c9",
      "to": "0x84c05502ee5ee8cb2ef43273f300439cad0c4020",
      "contractAddress": null,
      "daFootprintGasScalar": "0x94",
      "l1BaseFeeScalar": "0x44d",
      "l1BlobBaseFee": "0x998526d",
      "l1BlobBaseFeeScalar": "0xa118b",
      "l1Fee": "0x959c9cb27",
      "l1GasPrice": "0x1d0d23413",
      "l1GasUsed": "0x640"
    },
    {
      "status": "0x1",
      "cumulativeGasUsed": "0x23104d",
      "logs": [
        {
          "address": "0x84c05502ee5ee8cb2ef43273f300439cad0c4020",
          "topics": [
            "0xa86330cede453edbe00d0dbe74ee3bdbac6d7b048009b0d72d54aa609df01a71",
            "0xdee0b34b74b60e53553685c32477090103c2b806eb925a8cd000efa92bef3e8b"
          ],
          "data": "0x000000000000000000000000d00e7ce0ac312138de62610ed950e814e12d3f890000000000000000000000000000000000000000000000000000000000000000",
          "blockHash": "0x0000000000000000000000000000000000000000000000000000000000000000",
          "blockNumber": "0x2697c42",
          "blockTimestamp": "0x69e65764",
          "transactionHash": "0xcfa896e94c8c8eeb5cb158ee370ae746bc4023394d53a1a19819cd3e570a496f",
          "transactionIndex": "0x9",
          "logIndex": "0x4a",
          "removed": false
        }
      ],
      "logsBloom": "0x00000000000000002000000000000000000000000000000000000000000000000000000000000000000000000000000000000000000000000000000000000100000000000000000000000000000000000000000000000040000000000000000000000000000000000000000000000000000000000000000000000000000000000000000000000004000000000000080000000000000000000000000000000008000000000000000000000000000000000000000000000000000000000000000000000000000000000000000000200000000000400000000000000000000000000000000000000000000000000000100000000000000000000000000000000000",
      "type": "0x2",
      "transactionHash": "0xcfa896e94c8c8eeb5cb158ee370ae746bc4023394d53a1a19819cd3e570a496f",
      "transactionIndex": "0x9",
      "blockHash": "0x0000000000000000000000000000000000000000000000000000000000000000",
      "blockNumber": "0x2697c42",
      "gasUsed": "0x19499",
      "effectiveGasPrice": "0x5b8d80",
      "blobGasUsed": "0x39d0",
      "from": "0x05f8cc8753d90d67dbb8c02118440b8283f941c9",
      "to": "0x84c05502ee5ee8cb2ef43273f300439cad0c4020",
      "contractAddress": null,
      "daFootprintGasScalar": "0x94",
      "l1BaseFeeScalar": "0x44d",
      "l1BlobBaseFee": "0x998526d",
      "l1BlobBaseFeeScalar": "0xa118b",
      "l1Fee": "0x959c9cb27",
      "l1GasPrice": "0x1d0d23413",
      "l1GasUsed": "0x640"
    },
    {
      "status": "0x1",
      "cumulativeGasUsed": "0x24a4e6",
      "logs": [
        {
          "address": "0x84c05502ee5ee8cb2ef43273f300439cad0c4020",
          "topics": [
            "0xa86330cede453edbe00d0dbe74ee3bdbac6d7b048009b0d72d54aa609df01a71",
            "0xc472efb7b9a986e1446d8bf9dec51e88548a1d8eb4a0810e6424d97a878d34fc"
          ],
          "data": "0x00000000000000000000000005c5a9dff519bbb26e206d02e90aa9ca5105a3270000000000000000000000000000000000000000000000000000000000000000",
          "blockHash": "0x0000000000000000000000000000000000000000000000000000000000000000",
          "blockNumber": "0x2697c42",
          "blockTimestamp": "0x69e65764",
          "transactionHash": "0x8287d6956e0651159803d793b0ce993bb66e0e6743b851b30c668ff24eaa8de2",
          "transactionIndex": "0xa",
          "logIndex": "0x4b",
          "removed": false
        }
      ],
      "logsBloom": "0x00000000000000002000000000000000000000000000000000000000000000000000000000000000000000000000000000000000000000000000000000000100000000000000000000000000000000000000000000000000000000000000000000000800000000000000000000000000000040000000000000000000000000000000000000000000000000000000080000000000000000000000000000000008000002000000000000000000000000000000000000000000000000000000000000000000000000000000000000200000000000400000000000000000000000000000000000000000000000000000000000000000000000000000000000000000",
      "type": "0x2",
      "transactionHash": "0x8287d6956e0651159803d793b0ce993bb66e0e6743b851b30c668ff24eaa8de2",
      "transactionIndex": "0xa",
      "blockHash": "0x0000000000000000000000000000000000000000000000000000000000000000",
      "blockNumber": "0x2697c42",
      "gasUsed": "0x19499",
      "effectiveGasPrice": "0x5b8d80",
      "blobGasUsed": "0x39d0",
      "from": "0x05f8cc8753d90d67dbb8c02118440b8283f941c9",
      "to": "0x84c05502ee5ee8cb2ef43273f300439cad0c4020",
      "contractAddress": null,
      "daFootprintGasScalar": "0x94",
      "l1BaseFeeScalar": "0x44d",
      "l1BlobBaseFee": "0x998526d",
      "l1BlobBaseFeeScalar": "0xa118b",
      "l1Fee": "0x959c9cb27",
      "l1GasPrice": "0x1d0d23413",
      "l1GasUsed": "0x640"
    },
    {
      "status": "0x1",
      "cumulativeGasUsed": "0x255961",
      "logs": [],
      "logsBloom": "0x00000000000000000000000000000000000000000000000000000000000000000000000000000000000000000000000000000000000000000000000000000000000000000000000000000000000000000000000000000000000000000000000000000000000000000000000000000000000000000000000000000000000000000000000000000000000000000000000000000000000000000000000000000000000000000000000000000000000000000000000000000000000000000000000000000000000000000000000000000000000000000000000000000000000000000000000000000000000000000000000000000000000000000000000000000000",
      "type": "0x2",
      "transactionHash": "0x2da2969b4c2a9eee0d637a468ba6a1d29cd4300d5871dc71bc556aa9386664a9",
      "transactionIndex": "0xb",
      "blockHash": "0x0000000000000000000000000000000000000000000000000000000000000000",
      "blockNumber": "0x2697c42",
      "gasUsed": "0xb47b",
      "effectiveGasPrice": "0x5b8d80",
      "blobGasUsed": "0x39d0",
      "from": "0x05f8cc8753d90d67dbb8c02118440b8283f941c9",
      "to": "0x8fb0438d0799c52920515b31310f53452c33e066",
      "contractAddress": null,
      "daFootprintGasScalar": "0x94",
      "l1BaseFeeScalar": "0x44d",
      "l1BlobBaseFee": "0x998526d",
      "l1BlobBaseFeeScalar": "0xa118b",
      "l1Fee": "0x959c9cb27",
      "l1GasPrice": "0x1d0d23413",
      "l1GasUsed": "0x640"
    },
    {
      "status": "0x1",
      "cumulativeGasUsed": "0x260ddc",
      "logs": [],
      "logsBloom": "0x00000000000000000000000000000000000000000000000000000000000000000000000000000000000000000000000000000000000000000000000000000000000000000000000000000000000000000000000000000000000000000000000000000000000000000000000000000000000000000000000000000000000000000000000000000000000000000000000000000000000000000000000000000000000000000000000000000000000000000000000000000000000000000000000000000000000000000000000000000000000000000000000000000000000000000000000000000000000000000000000000000000000000000000000000000000",
      "type": "0x2",
      "transactionHash": "0xf23b69167bc08a526d1051a78e24ce5d4415ba598e4a1e99a35c187c3ff599e9",
      "transactionIndex": "0xc",
      "blockHash": "0x0000000000000000000000000000000000000000000000000000000000000000",
      "blockNumber": "0x2697c42",
      "gasUsed": "0xb47b",
      "effectiveGasPrice": "0x5b8d80",
      "blobGasUsed": "0x39d0",
      "from": "0x05f8cc8753d90d67dbb8c02118440b8283f941c9",
      "to": "0x8fb0438d0799c52920515b31310f53452c33e066",
      "contractAddress": null,
      "daFootprintGasScalar": "0x94",
      "l1BaseFeeScalar": "0x44d",
      "l1BlobBaseFee": "0x998526d",
      "l1BlobBaseFeeScalar": "0xa118b",
      "l1Fee": "0x959c9cb27",
      "l1GasPrice": "0x1d0d23413",
      "l1GasUsed": "0x640"
    },
    {
      "status": "0x1",
      "cumulativeGasUsed": "0x3b02ed",
      "logs": [],
      "logsBloom": "0x00000000000000000000000000000000000000000000000000000000000000000000000000000000000000000000000000000000000000000000000000000000000000000000000000000000000000000000000000000000000000000000000000000000000000000000000000000000000000000000000000000000000000000000000000000000000000000000000000000000000000000000000000000000000000000000000000000000000000000000000000000000000000000000000000000000000000000000000000000000000000000000000000000000000000000000000000000000000000000000000000000000000000000000000000000000",
      "type": "0x2",
      "transactionHash": "0x7707b619bf6f627e58c353b1bba2aaaa76827ccf6de18b1d5874a7dfb490819b",
      "transactionIndex": "0x14",
      "blockHash": "0x0000000000000000000000000000000000000000000000000000000000000000",
      "blockNumber": "0x2697c42",
      "gasUsed": "0xb46e",
      "effectiveGasPrice": "0x5b8d80",
      "blobGasUsed": "0x39d0",
      "from": "0x05f8cc8753d90d67dbb8c02118440b8283f941c9",
      "to": "0xae72a52f4a6b36d65cc971df9fdeffa07ab5db5e",
      "contractAddress": null,
      "daFootprintGasScalar": "0x94",
      "l1BaseFeeScalar": "0x44d",
      "l1BlobBaseFee": "0x998526d",
      "l1BlobBaseFeeScalar": "0xa118b",
      "l1Fee": "0x1857cd7de6",
      "l1GasPrice": "0x1d0d23413",
      "l1GasUsed": "0x640"
    },
    {
      "status": "0x1",
      "cumulativeGasUsed": "0x3bb7f3",
      "logs": [],
      "logsBloom": "0x00000000000000000000000000000000000000000000000000000000000000000000000000000000000000000000000000000000000000000000000000000000000000000000000000000000000000000000000000000000000000000000000000000000000000000000000000000000000000000000000000000000000000000000000000000000000000000000000000000000000000000000000000000000000000000000000000000000000000000000000000000000000000000000000000000000000000000000000000000000000000000000000000000000000000000000000000000000000000000000000000000000000000000000000000000000",
      "type": "0x2",
      "transactionHash": "0xf6b12160ccf6e29f70cd882f61703c3fdfa7a6ac935c43a42c93e89fb7ffd76f",
      "transactionIndex": "0x15",
      "blockHash": "0x0000000000000000000000000000000000000000000000000000000000000000",
      "blockNumber": "0x2697c42",
      "gasUsed": "0xb506",
      "effectiveGasPrice": "0x5b8d80",
      "blobGasUsed": "0x39d0",
      "from": "0x05f8cc8753d90d67dbb8c02118440b8283f941c9",
      "to": "0xae72a52f4a6b36d65cc971df9fdeffa07ab5db5e",
      "contractAddress": null,
      "daFootprintGasScalar": "0x94",
      "l1BaseFeeScalar": "0x44d",
      "l1BlobBaseFee": "0x998526d",
      "l1BlobBaseFeeScalar": "0xa118b",
      "l1Fee": "0x1857cd7de6",
      "l1GasPrice": "0x1d0d23413",
      "l1GasUsed": "0x640"
    },
    {
      "status": "0x1",
      "cumulativeGasUsed": "0x3c6cab",
      "logs": [],
      "logsBloom": "0x00000000000000000000000000000000000000000000000000000000000000000000000000000000000000000000000000000000000000000000000000000000000000000000000000000000000000000000000000000000000000000000000000000000000000000000000000000000000000000000000000000000000000000000000000000000000000000000000000000000000000000000000000000000000000000000000000000000000000000000000000000000000000000000000000000000000000000000000000000000000000000000000000000000000000000000000000000000000000000000000000000000000000000000000000000000",
      "type": "0x2",
      "transactionHash": "0xcfef3a3820b68a3b2fb8d5fada94ca86c9dcc18e7876139b0cf60e96c0cfde7f",
      "transactionIndex": "0x16",
      "blockHash": "0x0000000000000000000000000000000000000000000000000000000000000000",
      "blockNumber": "0x2697c42",
      "gasUsed": "0xb4b8",
      "effectiveGasPrice": "0x5b8d80",
      "blobGasUsed": "0x39d0",
      "from": "0x05f8cc8753d90d67dbb8c02118440b8283f941c9",
      "to": "0xae72a52f4a6b36d65cc971df9fdeffa07ab5db5e",
      "contractAddress": null,
      "daFootprintGasScalar": "0x94",
      "l1BaseFeeScalar": "0x44d",
      "l1BlobBaseFee": "0x998526d",
      "l1BlobBaseFeeScalar": "0xa118b",
      "l1Fee": "0x1857cd7de6",
      "l1GasPrice": "0x1d0d23413",
      "l1GasUsed": "0x640"
    },
    {
      "status": "0x1",
      "cumulativeGasUsed": "0x3d2145",
      "logs": [],
      "logsBloom": "0x00000000000000000000000000000000000000000000000000000000000000000000000000000000000000000000000000000000000000000000000000000000000000000000000000000000000000000000000000000000000000000000000000000000000000000000000000000000000000000000000000000000000000000000000000000000000000000000000000000000000000000000000000000000000000000000000000000000000000000000000000000000000000000000000000000000000000000000000000000000000000000000000000000000000000000000000000000000000000000000000000000000000000000000000000000000",
      "type": "0x2",
      "transactionHash": "0x358018533c422efd9e0fdefa1a656bb8dd41e4e17c6f30a99238aef704a1fc4f",
      "transactionIndex": "0x17",
      "blockHash": "0x0000000000000000000000000000000000000000000000000000000000000000",
      "blockNumber": "0x2697c42",
      "gasUsed": "0xb49a",
      "effectiveGasPrice": "0x5b8d80",
      "blobGasUsed": "0x39d0",
      "from": "0x05f8cc8753d90d67dbb8c02118440b8283f941c9",
      "to": "0xacb6a28814a7baea27cec106e086ab0bdda37f9c",
      "contractAddress": null,
      "daFootprintGasScalar": "0x94",
      "l1BaseFeeScalar": "0x44d",
      "l1BlobBaseFee": "0x998526d",
      "l1BlobBaseFeeScalar": "0xa118b",
      "l1Fee": "0x1857cd7de6",
      "l1GasPrice": "0x1d0d23413",
      "l1GasUsed": "0x640"
    },
    {
      "status": "0x1",
      "cumulativeGasUsed": "0x3dd635",
      "logs": [],
      "logsBloom": "0x00000000000000000000000000000000000000000000000000000000000000000000000000000000000000000000000000000000000000000000000000000000000000000000000000000000000000000000000000000000000000000000000000000000000000000000000000000000000000000000000000000000000000000000000000000000000000000000000000000000000000000000000000000000000000000000000000000000000000000000000000000000000000000000000000000000000000000000000000000000000000000000000000000000000000000000000000000000000000000000000000000000000000000000000000000000",
      "type": "0x2",
      "transactionHash": "0x1608b274a7fcfd9463778109366a20a1497d2dfb7fad4413f9d0982e6467a1a3",
      "transactionIndex": "0x18",
      "blockHash": "0x0000000000000000000000000000000000000000000000000000000000000000",
      "blockNumber": "0x2697c42",
      "gasUsed": "0xb4f0",
      "effectiveGasPrice": "0x5b8d80",
      "blobGasUsed": "0x39d0",
      "from": "0x05f8cc8753d90d67dbb8c02118440b8283f941c9",
      "to": "0xacb6a28814a7baea27cec106e086ab0bdda37f9c",
      "contractAddress": null,
      "daFootprintGasScalar": "0x94",
      "l1BaseFeeScalar": "0x44d",
      "l1BlobBaseFee": "0x998526d",
      "l1BlobBaseFeeScalar": "0xa118b",
      "l1Fee": "0x1857cd7de6",
      "l1GasPrice": "0x1d0d23413",
      "l1GasUsed": "0x640"
    },
    {
      "status": "0x1",
      "cumulativeGasUsed": "0x3e8aed",
      "logs": [],
      "logsBloom": "0x00000000000000000000000000000000000000000000000000000000000000000000000000000000000000000000000000000000000000000000000000000000000000000000000000000000000000000000000000000000000000000000000000000000000000000000000000000000000000000000000000000000000000000000000000000000000000000000000000000000000000000000000000000000000000000000000000000000000000000000000000000000000000000000000000000000000000000000000000000000000000000000000000000000000000000000000000000000000000000000000000000000000000000000000000000000",
      "type": "0x2",
      "transactionHash": "0x504c5703151f537446dc38fef09492e4c478c13bfc1e4c64b6b118dfe10b038a",
      "transactionIndex": "0x19",
      "blockHash": "0x0000000000000000000000000000000000000000000000000000000000000000",
      "blockNumber": "0x2697c42",
      "gasUsed": "0xb4b8",
      "effectiveGasPrice": "0x5b8d80",
      "blobGasUsed": "0x39d0",
      "from": "0x05f8cc8753d90d67dbb8c02118440b8283f941c9",
      "to": "0xacb6a28814a7baea27cec106e086ab0bdda37f9c",
      "contractAddress": null,
      "daFootprintGasScalar": "0x94",
      "l1BaseFeeScalar": "0x44d",
      "l1BlobBaseFee": "0x998526d",
      "l1BlobBaseFeeScalar": "0xa118b",
      "l1Fee": "0x1857cd7de6",
      "l1GasPrice": "0x1d0d23413",
      "l1GasUsed": "0x640"
    },
    {
      "status": "0x1",
      "cumulativeGasUsed": "0x3ef023",
      "logs": [],
      "logsBloom": "0x00000000000000000000000000000000000000000000000000000000000000000000000000000000000000000000000000000000000000000000000000000000000000000000000000000000000000000000000000000000000000000000000000000000000000000000000000000000000000000000000000000000000000000000000000000000000000000000000000000000000000000000000000000000000000000000000000000000000000000000000000000000000000000000000000000000000000000000000000000000000000000000000000000000000000000000000000000000000000000000000000000000000000000000000000000000",
      "type": "0x2",
      "transactionHash": "0x8ec01c5a338ba760ff1f03e22728bbfcf449d084b43a43b0d77659bc689fcfc1",
      "transactionIndex": "0x1a",
      "blockHash": "0x0000000000000000000000000000000000000000000000000000000000000000",
      "blockNumber": "0x2697c42",
      "gasUsed": "0x6536",
      "effectiveGasPrice": "0x5b8d80",
      "blobGasUsed": "0x39d0",
      "from": "0x05f8cc8753d90d67dbb8c02118440b8283f941c9",
      "to": "0xacb6a28814a7baea27cec106e086ab0bdda37f9c",
      "contractAddress": null,
      "daFootprintGasScalar": "0x94",
      "l1BaseFeeScalar": "0x44d",
      "l1BlobBaseFee": "0x998526d",
      "l1BlobBaseFeeScalar": "0xa118b",
      "l1Fee": "0x1857cd7de6",
      "l1GasPrice": "0x1d0d23413",
      "l1GasUsed": "0x640"
    },
    {
      "status": "0x1",
      "cumulativeGasUsed": "0x405965",
      "logs": [],
      "logsBloom": "0x00000000000000000000000000000000000000000000000000000000000000000000000000000000000000000000000000000000000000000000000000000000000000000000000000000000000000000000000000000000000000000000000000000000000000000000000000000000000000000000000000000000000000000000000000000000000000000000000000000000000000000000000000000000000000000000000000000000000000000000000000000000000000000000000000000000000000000000000000000000000000000000000000000000000000000000000000000000000000000000000000000000000000000000000000000000",
      "type": "0x2",
      "transactionHash": "0xf0b8a3a85f17e8ed18e726d60257589d847aa187e8924c0b51233d68bb432a37",
      "transactionIndex": "0x1b",
      "blockHash": "0x0000000000000000000000000000000000000000000000000000000000000000",
      "blockNumber": "0x2697c42",
      "gasUsed": "0x16942",
      "effectiveGasPrice": "0x5b8d80",
      "blobGasUsed": "0x53d4",
      "from": "0x05f8cc8753d90d67dbb8c02118440b8283f941c9",
      "to": "0xd00e7ce0ac312138de62610ed950e814e12d3f89",
      "contractAddress": null,
      "daFootprintGasScalar": "0x94",
      "l1BaseFeeScalar": "0x44d",
      "l1BlobBaseFee": "0x998526d",
      "l1BlobBaseFeeScalar": "0xa118b",
      "l1Fee": "0x1857cd7de6",
      "l1GasPrice": "0x1d0d23413",
      "l1GasUsed": "0x91a"
    },
    {
      "status": "0x1",
      "cumulativeGasUsed": "0x426f35",
      "logs": [],
      "logsBloom": "0x00000000000000000000000000000000000000000000000000000000000000000000000000000000000000000000000000000000000000000000000000000000000000000000000000000000000000000000000000000000000000000000000000000000000000000000000000000000000000000000000000000000000000000000000000000000000000000000000000000000000000000000000000000000000000000000000000000000000000000000000000000000000000000000000000000000000000000000000000000000000000000000000000000000000000000000000000000000000000000000000000000000000000000000000000000000",
      "type": "0x2",
      "transactionHash": "0x48b5f254dbc9edacf6383cbed62811abad4e8e37d7a33784872e15b9bc0370e0",
      "transactionIndex": "0x1c",
      "blockHash": "0x0000000000000000000000000000000000000000000000000000000000000000",
      "blockNumber": "0x2697c42",
      "gasUsed": "0x215d0",
      "effectiveGasPrice": "0x5b8d80",
      "blobGasUsed": "0x4a94",
      "from": "0x05f8cc8753d90d67dbb8c02118440b8283f941c9",
      "to": "0x05c5a9dff519bbb26e206d02e90aa9ca5105a327",
      "contractAddress": null,
      "daFootprintGasScalar": "0x94",
      "l1BaseFeeScalar": "0x44d",
      "l1BlobBaseFee": "0x998526d",
      "l1BlobBaseFeeScalar": "0xa118b",
      "l1Fee": "0x1857cd7de6",
      "l1GasPrice": "0x1d0d23413",
      "l1GasUsed": "0x81b"
    },
    {
      "status": "0x1",
      "cumulativeGasUsed": "0x4337f0",
      "logs": [
        {
          "address": "0x5fd1f6db09c8d64f2230415d8f0f9e87f5462fa3",
          "topics": [
            "0xd67543d9b94fa2fae98cd5cd9409f07a5b3532a8433e6122d97c34dfc9735b52"
          ],
          "data": "0x000000000000000000000000000000000000000000000000000000000000006000000000000000000000000000000000000000000000000000000000000000a0000000000000000000000000000000000000000000000000000000000000000100000000000000000000000000000000000000000000000000000000000000106f7074696d69736d2d7365706f6c6961000000000000000000000000000000000000000000000000000000000000000000000000000000000000000000000014a73776c0aae79382d8003b1fc7648b5ab32889d0000000000000000000000000",
          "blockHash": "0x0000000000000000000000000000000000000000000000000000000000000000",
          "blockNumber": "0x2697c42",
          "blockTimestamp": "0x69e65764",
          "transactionHash": "0x4fc24313f576d1bd4d59e1c0493f5432c88ab29e0b1cfa6be17270c3b362e919",
          "transactionIndex": "0x1d",
          "logIndex": "0x5d",
          "removed": false
        }
      ],
      "logsBloom": "0x00000000000000000000000000000000000000000000000000000000000000000000000000000000000000000000000000000000000000000000000000000000000000000000000000000000000000000020000040000000000000000000000000000000000000000000000000000000000004000000000000000000000000000000000000000000000000000000000000000000000000040040000000000000000000000000000000000000000000000000000000000000000000000000000000000000000000000000000000000000000000000000000000000000000000000000002000000000000000000000000000000000000000000000000000000000",
      "type": "0x2",
      "transactionHash": "0x4fc24313f576d1bd4d59e1c0493f5432c88ab29e0b1cfa6be17270c3b362e919",
      "transactionIndex": "0x1d",
      "blockHash": "0x0000000000000000000000000000000000000000000000000000000000000000",
      "blockNumber": "0x2697c42",
      "gasUsed": "0xc8bb",
      "effectiveGasPrice": "0x5b8d80",
      "blobGasUsed": "0x43a4",
      "from": "0x05f8cc8753d90d67dbb8c02118440b8283f941c9",
      "to": "0x5fd1f6db09c8d64f2230415d8f0f9e87f5462fa3",
      "contractAddress": null,
      "daFootprintGasScalar": "0x94",
      "l1BaseFeeScalar": "0x44d",
      "l1BlobBaseFee": "0x998526d",
      "l1BlobBaseFeeScalar": "0xa118b",
      "l1Fee": "0x1857cd7de6",
      "l1GasPrice": "0x1d0d23413",
      "l1GasUsed": "0x752"
    },
    {
      "status": "0x1",
      "cumulativeGasUsed": "0x43f6ac",
      "logs": [
        {
          "address": "0x5fd1f6db09c8d64f2230415d8f0f9e87f5462fa3",
          "topics": [
            "0xda7086ba3a561c749f4ec23ff7de600b64878a9dca1be22c201e6bd9e630bc91",
            "0x4d2fdc120be87ecf5661b7a75144d5d4b507b525eeb8c9c85c346a255e3b9663",
            "0x0000000000000000000000002f2a9dbfd8c503a0ac56413b774e39030df85331"
          ],
          "data": "0x0000000000000000000000000000000000000000000000000000000000000001",
          "blockHash": "0x0000000000000000000000000000000000000000000000000000000000000000",
          "blockNumber": "0x2697c42",
          "blockTimestamp": "0x69e65764",
          "transactionHash": "0x7e2ca25421bda8bff2537d47333d38548a37e0ccc6170721b81864607d250e2e",
          "transactionIndex": "0x1e",
          "logIndex": "0x5e",
          "removed": false
        }
      ],
      "logsBloom": "0x00000000000000000000000000000000000000000000000000000000000000000000000000000000000000000000000000000000000010000000000010000000020000000000000000000000000000000020000041000000040000000000000000000800000000000000000000000000000000000000000000000000000000000800000000000000000000000000000000000000000000000040000000000000000000000000000000000000000000000000000000000000000000020000000000000000000000000000000000000000000000000000000000000000000000000040000000000000000000000000000000000000000000000000000000000000",
      "type": "0x2",
      "transactionHash": "0x7e2ca25421bda8bff2537d47333d38548a37e0ccc6170721b81864607d250e2e",
      "transactionIndex": "0x1e",
      "blockHash": "0x0000000000000000000000000000000000000000000000000000000000000000",
      "blockNumber": "0x2697c42",
      "gasUsed": "0xbebc",
      "effectiveGasPrice": "0x5b8d80",
      "blobGasUsed": "0x41e8",
      "from": "0x05f8cc8753d90d67dbb8c02118440b8283f941c9",
      "to": "0x5fd1f6db09c8d64f2230415d8f0f9e87f5462fa3",
      "contractAddress": null,
      "daFootprintGasScalar": "0x94",
      "l1BaseFeeScalar": "0x44d",
      "l1BlobBaseFee": "0x998526d",
      "l1BlobBaseFeeScalar": "0xa118b",
      "l1Fee": "0x1857cd7de6",
      "l1GasPrice": "0x1d0d23413",
      "l1GasUsed": "0x72a"
    },
    {
      "status": "0x1",
      "cumulativeGasUsed": "0x44b1ce",
      "logs": [
        {
          "address": "0x4e5d1ff12514cc396aa37757878a02433887ede0",
          "topics": [
            "0x096f300665a57908ac1627e5a821ea670d2a90da7c601a19bf265f8553453f28",
            "0x0000000000000000000000000000000000000000000000000000000000009d28",
            "0x00000000000000000000000055cc592be7e49c4020e67a895fee9474c7d71dbc"
          ],
          "data": "0x",
          "blockHash": "0x0000000000000000000000000000000000000000000000000000000000000000",
          "blockNumber": "0x2697c42",
          "blockTimestamp": "0x69e65764",
          "transactionHash": "0x53fc752cce39ef6a9fe3f7558e3f1598335cb1b230b6bfdd777c43590183f065",
          "transactionIndex": "0x1f",
          "logIndex": "0x5f",
          "removed": false
        }
      ],
      "logsBloom": "0x00000000000000000000000000000000000000000000010000000000000000000000000000000000000000000000000000000081000000000000000000000000000000440080000000008000000000000000000200000001000000000000000000000000000100000000000000000000000000000000000000000000000000000000000000000000000000000000000000000000000004000000000000000000000000000000000000000000000000000000000000000000000000000000000000000000000000000000000000000000000000000000000000000000000000000000000000000000000000000000000000000000000100000000000000000000",
      "type": "0x2",
      "transactionHash": "0x53fc752cce39ef6a9fe3f7558e3f1598335cb1b230b6bfdd777c43590183f065",
      "transactionIndex": "0x1f",
      "blockHash": "0x0000000000000000000000000000000000000000000000000000000000000000",
      "blockNumber": "0x2697c42",
      "gasUsed": "0xbb22",
      "effectiveGasPrice": "0x5b8d80",
      "blobGasUsed": "0x39d0",
      "from": "0x05f8cc8753d90d67dbb8c02118440b8283f941c9",
      "to": "0x4e5d1ff12514cc396aa37757878a02433887ede0",
      "contractAddress": null,
      "daFootprintGasScalar": "0x94",
      "l1BaseFeeScalar": "0x44d",
      "l1BlobBaseFee": "0x998526d",
      "l1BlobBaseFeeScalar": "0xa118b",
      "l1Fee": "0x1857cd7de6",
      "l1GasPrice": "0x1d0d23413",
      "l1GasUsed": "0x640"
    }
  ],
  "libraries": [],
  "pending": [],
  "returns": {},
  "timestamp": 1776703332049,
  "chain": 84532,
  "commit": "bec0627"
}