{
  "transactions": [
    {
      "hash": "0x70ea203e39b8f65d53f075fda1872beb82695979dd2c792e8662967b269a3ab5",
      "transactionType": "CALL",
      "contractName": null,
      "contractAddress": "0xb71d8b4769f66b4ca4d92b627f75b67dbb0dd344",
      "function": "registerRailPlugin(address)",
      "arguments": [
        "0x4966e2DEE5a908586e58c5776B3996C108804FB5"
      ],
      "transaction": {
        "from": "0x05f8cc8753d90d67dbb8c02118440b8283f941c9",
        "to": "0xb71d8b4769f66b4ca4d92b627f75b67dbb0dd344",
        "gas": "0x2b25b",
        "value": "0x0",
        "input": "0x172ceb340000000000000000000000004966e2dee5a908586e58c5776b3996c108804fb5",
        "nonce": "0x14e",
        "chainId": "0x14a34"
      },
      "additionalContracts": [],
      "isFixedGasLimit": false
    },
    {
      "hash": "0xa8ee70100aa91c5cfc38a58a446cf5d19c19062e438d8a65c590fa064e24408f",
      "transactionType": "CALL",
      "contractName": null,
      "contractAddress": "0x0234a6fe0f7d577e2ece168896277a56ba313ffe",
      "function": "addApprovedCaller(address)",
      "arguments": [
        "0xa311bcAaa3FEd89B62453DD516f90a37E997F066"
      ],
      "transaction": {
        "from": "0x05f8cc8753d90d67dbb8c02118440b8283f941c9",
        "to": "0x0234a6fe0f7d577e2ece168896277a56ba313ffe",
        "gas": "0x107f3",
        "value": "0x0",
        "input": "0xab5cb85a000000000000000000000000a311bcaaa3fed89b62453dd516f90a37e997f066",
        "nonce": "0x14f",
        "chainId": "0x14a34"
      },
      "additionalContracts": [],
      "isFixedGasLimit": false
    },
    {
      "hash": "0x3e605c72eed457dba654197999d28b90bac65f36b841cc1446c97dae287f0323",
      "transactionType": "CALL",
      "contractName": null,
      "contractAddress": "0x4966e2dee5a908586e58c5776b3996c108804fb5",
      "function": "setChainDomain(uint32,uint32)",
      "arguments": [
        "421614",
        "3"
      ],
      "transaction": {
        "from": "0x05f8cc8753d90d67dbb8c02118440b8283f941c9",
        "to": "0x4966e2dee5a908586e58c5776b3996c108804fb5",
        "gas": "0x10820",
        "value": "0x0",
        "input": "0x7ef0d2870000000000000000000000000000000000000000000000000000000000066eee0000000000000000000000000000000000000000000000000000000000000003",
        "nonce": "0x150",
        "chainId": "0x14a34"
      },
      "additionalContracts": [],
      "isFixedGasLimit": false
    },
    {
      "hash": "0xcd5ea604d97e67d64f8f8ecdeca6b89a579122f75f3ebb1240cca0015b9110b0",
      "transactionType": "CALL",
      "contractName": null,
      "contractAddress": "0x4966e2dee5a908586e58c5776b3996c108804fb5",
      "function": "setDestinationReceiver(uint32,bytes32)",
      "arguments": [
        "421614",
        "0x000000000000000000000000e0ce1f340dc88f575f1afec742bdfd220af06f74"
      ],
      "transaction": {
        "from": "0x05f8cc8753d90d67dbb8c02118440b8283f941c9",
        "to": "0x4966e2dee5a908586e58c5776b3996c108804fb5",
        "gas": "0xf9eb",
        "value": "0x0",
        "input": "0x0267dd6c0000000000000000000000000000000000000000000000000000000000066eee000000000000000000000000e0ce1f340dc88f575f1afec742bdfd220af06f74",
        "nonce": "0x151",
        "chainId": "0x14a34"
      },
      "additionalContracts": [],
      "isFixedGasLimit": false
    }
  ],
  "receipts": [
    {
      "status": "0x1",
      "cumulativeGasUsed": "0x19038b",
      "logs": [
        {
          "address": "0xb71d8b4769f66b4ca4d92b627f75b67dbb0dd344",
          "topics": [
            "0xa86330cede453edbe00d0dbe74ee3bdbac6d7b048009b0d72d54aa609df01a71",
            "0xb148ea5f936a28661e11743b1650193f1b14a2322b9541503bf6815a84a1a6e9"
          ],
          "data": "0x0000000000000000000000004966e2dee5a908586e58c5776b3996c108804fb50000000000000000000000000000000000000000000000000000000000000000",
          "blockHash": "0x0000000000000000000000000000000000000000000000000000000000000000",
          "blockNumber": "0x262e977",
          "blockTimestamp": "0x69d931ce",
          "transactionHash": "0x70ea203e39b8f65d53f075fda1872beb82695979dd2c792e8662967b269a3ab5",
          "transactionIndex": "0x8",
          "logIndex": "0x36",
          "removed": false
        }
      ],
      "logsBloom": "0x00000400000000002000000000000000000000000000000000000000000000000000000000000000000010000000000000000000000000000000000000000000000000000000000000000000000000000000000020000000000000000000000000000000000000000000000020000000000000000000000000000000000000000000000000000000000000000000000000000000000000000000000000000000000000000000000000000000000000000000000000000000000000000000002000000000000000000000000000200000000000400000000400000000000000000000000000000000000000000000000000000000000000000000000000000000",
      "type": "0x2",
      "transactionHash": "0x70ea203e39b8f65d53f075fda1872beb82695979dd2c792e8662967b269a3ab5",
      "transactionIndex": "0x8",
      "blockHash": "0x0000000000000000000000000000000000000000000000000000000000000000",
      "blockNumber": "0x262e977",
      "gasUsed": "0x1d80a",
      "effectiveGasPrice": "0x5b8d80",
      "blobGasUsed": "0x39d0",
      "from": "0x05f8cc8753d90d67dbb8c02118440b8283f941c9",
      "to": "0xb71d8b4769f66b4ca4d92b627f75b67dbb0dd344",
      "contractAddress": null,
      "daFootprintGasScalar": "0x94",
      "l1BaseFeeScalar": "0x44d",
      "l1BlobBaseFee": "0x579db8c",
      "l1BlobBaseFeeScalar": "0xa118b",
      "l1Fee": "0x2081ad016",
      "l1GasPrice": "0x5a20d4aa",
      "l1GasUsed": "0x640"
    },
    {
      "status": "0x1",
      "cumulativeGasUsed": "0x19b806",
      "logs": [],
      "logsBloom": "0x00000000000000000000000000000000000000000000000000000000000000000000000000000000000000000000000000000000000000000000000000000000000000000000000000000000000000000000000000000000000000000000000000000000000000000000000000000000000000000000000000000000000000000000000000000000000000000000000000000000000000000000000000000000000000000000000000000000000000000000000000000000000000000000000000000000000000000000000000000000000000000000000000000000000000000000000000000000000000000000000000000000000000000000000000000000",
      "type": "0x2",
      "transactionHash": "0xa8ee70100aa91c5cfc38a58a446cf5d19c19062e438d8a65c590fa064e24408f",
      "transactionIndex": "0x9",
      "blockHash": "0x0000000000000000000000000000000000000000000000000000000000000000",
      "blockNumber": "0x262e977",
      "gasUsed": "0xb47b",
      "effectiveGasPrice": "0x5b8d80",
      "blobGasUsed": "0x39d0",
      "from": "0x05f8cc8753d90d67dbb8c02118440b8283f941c9",
      "to": "0x0234a6fe0f7d577e2ece168896277a56ba313ffe",
      "contractAddress": null,
      "daFootprintGasScalar": "0x94",
      "l1BaseFeeScalar": "0x44d",
      "l1BlobBaseFee": "0x579db8c",
      "l1BlobBaseFeeScalar": "0xa118b",
      "l1Fee": "0x2081ad016",
      "l1GasPrice": "0x5a20d4aa",
      "l1GasUsed": "0x640"
    },
    {
      "status": "0x1",
      "cumulativeGasUsed": "0x1a6ca0",
      "logs": [],
      "logsBloom": "0x00000000000000000000000000000000000000000000000000000000000000000000000000000000000000000000000000000000000000000000000000000000000000000000000000000000000000000000000000000000000000000000000000000000000000000000000000000000000000000000000000000000000000000000000000000000000000000000000000000000000000000000000000000000000000000000000000000000000000000000000000000000000000000000000000000000000000000000000000000000000000000000000000000000000000000000000000000000000000000000000000000000000000000000000000000000",
      "type": "0x2",
      "transactionHash": "0xcd5ea604d97e67d64f8f8ecdeca6b89a579122f75f3ebb1240cca0015b9110b0",
      "transactionIndex": "0xa",
      "blockHash": "0x0000000000000000000000000000000000000000000000000000000000000000",
      "blockNumber": "0x262e977",
      "gasUsed": "0xb49a",
      "effectiveGasPrice": "0x5b8d80",
      "blobGasUsed": "0x39d0",
      "from": "0x05f8cc8753d90d67dbb8c02118440b8283f941c9",
      "to": "0x4966e2dee5a908586e58c5776b3996c108804fb5",
      "contractAddress": null,
      "daFootprintGasScalar": "0x94",
      "l1BaseFeeScalar": "0x44d",
      "l1BlobBaseFee": "0x579db8c",
      "l1BlobBaseFeeScalar": "0xa118b",
      "l1Fee": "0x2081ad016",
      "l1GasPrice": "0x5a20d4aa",
      "l1GasUsed": "0x640"
    },
    {
      "status": "0x1",
      "cumulativeGasUsed": "0x1b2190",
      "logs": [],
      "logsBloom": "0x00000000000000000000000000000000000000000000000000000000000000000000000000000000000000000000000000000000000000000000000000000000000000000000000000000000000000000000000000000000000000000000000000000000000000000000000000000000000000000000000000000000000000000000000000000000000000000000000000000000000000000000000000000000000000000000000000000000000000000000000000000000000000000000000000000000000000000000000000000000000000000000000000000000000000000000000000000000000000000000000000000000000000000000000000000000",
      "type": "0x2",
      "transactionHash": "0x3e605c72eed457dba654197999d28b90bac65f36b841cc1446c97dae287f0323",
      "transactionIndex": "0xb",
      "blockHash": "0x0000000000000000000000000000000000000000000000000000000000000000",
      "blockNumber": "0x262e977",
      "gasUsed": "0xb4f0",
      "effectiveGasPrice": "0x5b8d80",
      "blobGasUsed": "0x39d0",
      "from": "0x05f8cc8753d90d67dbb8c02118440b8283f941c9",
      "to": "0x4966e2dee5a908586e58c5776b3996c108804fb5",
      "contractAddress": null,
      "daFootprintGasScalar": "0x94",
      "l1BaseFeeScalar": "0x44d",
      "l1BlobBaseFee": "0x579db8c",
      "l1BlobBaseFeeScalar": "0xa118b",
      "l1Fee": "0x2081ad016",
      "l1GasPrice": "0x5a20d4aa",
      "l1GasUsed": "0x640"
    }
  ],
  "libraries": [],
  "pending": [],
  "returns": {},
  "timestamp": 1775841740641,
  "chain": 84532,
  "commit": "52f01ed"
}