{
  "transactions": [
    {
      "hash": "0x10689c9ce0fd3fd4efb0c9226bf67b67a4785bb94eb205e2a9aedea92404863d",
      "transactionType": "CALL",
      "contractName": null,
      "contractAddress": "0x83a93500d23fbc3e82b410ad07a6a9f7a0670d66",
      "function": "approveDeployRemoteInterchainToken(address,bytes32,string,bytes)",
      "arguments": [
        "0x05F8cC8753D90d67DBB8c02118440b8283F941c9",
        "0xc8b381b55deda609bc41d9b3157b5f2952f87c9304179cd5e3960537e74d46c6",
        "optimism-sepolia",
        "0x05f8cc8753d90d67dbb8c02118440b8283f941c9"
      ],
      "transaction": {
        "from": "0x05f8cc8753d90d67dbb8c02118440b8283f941c9",
        "to": "0x83a93500d23fbc3e82b410ad07a6a9f7a0670d66",
        "gas": "0x1ca08",
        "value": "0x0",
        "input": "0xe8a1d6f600000000000000000000000005f8cc8753d90d67dbb8c02118440b8283f941c9c8b381b55deda609bc41d9b3157b5f2952f87c9304179cd5e3960537e74d46c6000000000000000000000000000000000000000000000000000000000000008000000000000000000000000000000000000000000000000000000000000000c000000000000000000000000000000000000000000000000000000000000000106f7074696d69736d2d7365706f6c696100000000000000000000000000000000000000000000000000000000000000000000000000000000000000000000001405f8cc8753d90d67dbb8c02118440b8283f941c9000000000000000000000000",
        "nonce": "0x1bd",
        "chainId": "0x14a34"
      },
      "additionalContracts": [],
      "isFixedGasLimit": false
    }
  ],
  "receipts": [
    {
      "status": "0x1",
      "cumulativeGasUsed": "0x4195b9",
      "logs": [
        {
          "address": "0x83a93500d23fbc3e82b410ad07a6a9f7a0670d66",
          "topics": [
            "0xa8c6a99761ac63f2758a4683a64d2be54964d5d74b9d296b6563a5b4c0d23fce",
            "0x00000000000000000000000005f8cc8753d90d67dbb8c02118440b8283f941c9",
            "0x00000000000000000000000005f8cc8753d90d67dbb8c02118440b8283f941c9",
            "0x93e0937af3b1c3b2fe6a6d0c62347af46eb037c8d01e751766527c8007fd6870"
          ],
          "data": "0x0000000000000000000000000000000000000000000000000000000000000040000000000000000000000000000000000000000000000000000000000000008000000000000000000000000000000000000000000000000000000000000000106f7074696d69736d2d7365706f6c696100000000000000000000000000000000000000000000000000000000000000000000000000000000000000000000001405f8cc8753d90d67dbb8c02118440b8283f941c9000000000000000000000000",
          "blockHash": "0x0000000000000000000000000000000000000000000000000000000000000000",
          "blockNumber": "0x26a09f2",
          "blockTimestamp": "0x69e772c4",
          "transactionHash": "0x10689c9ce0fd3fd4efb0c9226bf67b67a4785bb94eb205e2a9aedea92404863d",
          "transactionIndex": "0xa",
          "logIndex": "0x52",
          "removed": false
        }
      ],
      "logsBloom": "0x00000000000000000000000000000000000040000000000000000000000000000000000000000000000000000000000000000000000000000000000000000000000000000000000000000000000000000000000000000000000000000000000000000000000000000000100000000000000102000000000000000000000000000000000000000300000000000400000000000000000000000000000000000000000000000000000000000000000000000000000000000000000000000000000000000000000000000000000000000000000000000000000000000002000000000000008000000000000040000000000000000000000000000000000000000084",
      "type": "0x2",
      "transactionHash": "0x10689c9ce0fd3fd4efb0c9226bf67b67a4785bb94eb205e2a9aedea92404863d",
      "transactionIndex": "0xa",
      "blockHash": "0x0000000000000000000000000000000000000000000000000000000000000000",
      "blockNumber": "0x26a09f2",
      "gasUsed": "0x14b9c",
      "effectiveGasPrice": "0x5b8d80",
      "blobGasUsed": "0x599c",
      "from": "0x05f8cc8753d90d67dbb8c02118440b8283f941c9",
      "to": "0x83a93500d23fbc3e82b410ad07a6a9f7a0670d66",
      "contractAddress": null,
      "daFootprintGasScalar": "0x94",
      "l1BaseFeeScalar": "0x44d",
      "l1BlobBaseFee": "0x2978dff",
      "l1BlobBaseFeeScalar": "0xa118b",
      "l1Fee": "0x19d6f6a66",
      "l1GasPrice": "0x2bd54ee2",
      "l1GasUsed": "0x9ba"
    }
  ],
  "libraries": [],
  "pending": [],
  "returns": {},
  "timestamp": 1776775876308,
  "chain": 84532,
  "commit": "bec0627"
}