{
  "transactions": [
    {
      "hash": "0xe65d9e10da4e11de9edb5686ff5e4a86ec3cffb2e480a4c838c223813339daa1",
      "transactionType": "CALL",
      "contractName": null,
      "contractAddress": "0x83a93500d23fbc3e82b410ad07a6a9f7a0670d66",
      "function": "deployInterchainToken(bytes32,string,string,uint8,uint256,address)",
      "arguments": [
        "0xc8b381b55deda609bc41d9b3157b5f2952f87c9304179cd5e3960537e74d46c6",
        "aUSDC",
        "aUSDC",
        "6",
        "1000000000000",
        "0x05F8cC8753D90d67DBB8c02118440b8283F941c9"
      ],
      "transaction": {
        "from": "0x05f8cc8753d90d67dbb8c02118440b8283f941c9",
        "to": "0x83a93500d23fbc3e82b410ad07a6a9f7a0670d66",
        "gas": "0x1361a9",
        "value": "0x0",
        "input": "0x3e12f8c5c8b381b55deda609bc41d9b3157b5f2952f87c9304179cd5e3960537e74d46c600000000000000000000000000000000000000000000000000000000000000c000000000000000000000000000000000000000000000000000000000000001000000000000000000000000000000000000000000000000000000000000000006000000000000000000000000000000000000000000000000000000e8d4a5100000000000000000000000000005f8cc8753d90d67dbb8c02118440b8283f941c90000000000000000000000000000000000000000000000000000000000000005615553444300000000000000000000000000000000000000000000000000000000000000000000000000000000000000000000000000000000000000000000056155534443000000000000000000000000000000000000000000000000000000",
        "nonce": "0x1bc",
        "chainId": "0x14a34"
      },
      "additionalContracts": [
        {
          "transactionType": "CREATE2",
          "contractName": null,
          "address": "0x63edf82894b14fc0a14ff641dc8a3f27c6ee914c",
          "initCode": "0x608060405234801561001057600080fd5b50610162806100206000396000f3fe60806040526004361061001d5760003560e01c806277436014610022575b600080fd5b61003561003036600461007b565b610037565b005b8051602082016000f061004957600080fd5b50565b7f4e487b7100000000000000000000000000000000000000000000000000000000600052604160045260246000fd5b60006020828403121561008d57600080fd5b813567ffffffffffffffff808211156100a557600080fd5b818401915084601f8301126100b957600080fd5b8135818111156100cb576100cb61004c565b604051601f8201601f19908116603f011681019083821181831017156100f3576100f361004c565b8160405282815287602084870101111561010c57600080fd5b82602086016020830137600092810160200192909252509594505050505056fea264697066735822122094780ce55d28f1d568f4e0ab1b9dc230b96e952b73d2e06456fbff2289fa27f464736f6c63430008150033"
        },
        {
          "transactionType": "CREATE",
          "contractName": null,
          "address": "0x8a1bd5076b4b316b6855647d914bf24a92101c44",
          "initCode": "0x3d602d80600a3d3981f3363d3d373d3d3d363d737f9f70da4af54671a6abac58e705b5634cac88195af43d82803e903d91602b57fd5bf3"
        },
        {
          "transactionType": "CREATE2",
          "contractName": null,
          "address": "0x45f9fef893a270a480dc6a2bee09323e24cdec01",
          "initCode": "0x608060405234801561001057600080fd5b50610162806100206000396000f3fe60806040526004361061001d5760003560e01c806277436014610022575b600080fd5b61003561003036600461007b565b610037565b005b8051602082016000f061004957600080fd5b50565b7f4e487b7100000000000000000000000000000000000000000000000000000000600052604160045260246000fd5b60006020828403121561008d57600080fd5b813567ffffffffffffffff808211156100a557600080fd5b818401915084601f8301126100b957600080fd5b8135818111156100cb576100cb61004c565b604051601f8201601f19908116603f011681019083821181831017156100f3576100f361004c565b8160405282815287602084870101111561010c57600080fd5b82602086016020830137600092810160200192909252509594505050505056fea264697066735822122094780ce55d28f1d568f4e0ab1b9dc230b96e952b73d2e06456fbff2289fa27f464736f6c63430008150033"
        },
        {
          "transactionType": "CREATE",
          "contractName": null,
          "address": "0x7e4ff5205ac1cce5d99a0c85509a85c528ea25cf",
          "initCode": "0x61010060405234801561001157600080fd5b50604051610875380380610875833981016040819052610030916102b6565b6001600160a01b0384166100575760405163d92e233d60e01b815260040160405180910390fd5b6001600160a01b03841660805260a083905260c0829052600061007a85856101ed565b90506001600160a01b0381166100a35760405163340aafcd60e11b815260040160405180910390fd5b6000816001600160a01b0316639ded06df60e01b846040516024016100c8919061038e565b60408051601f198184030181529181526020820180516001600160e01b03166001600160e01b031990941693909317909252905161010691906103c1565b600060405180830381855af49150503d8060008114610141576040519150601f19603f3d011682016040523d82523d6000602084013e610146565b606091505b5050905080610168576040516397905dfb60e01b815260040160405180910390fd5b60405163f5983e8360e01b81526001600160a01b0383169063f5983e839061019490869060040161038e565b602060405180830381865afa1580156101b1573d6000803e3d6000fd5b505050506040513d601f19601f820116820180604052508101906101d591906103dd565b6001600160a01b031660e052506103f8945050505050565b604051633f0a8fd360e11b8152600481018290526000906001600160a01b03841690637e151fa690602401602060405180830381865afa158015610235573d6000803e3d6000fd5b505050506040513d601f19601f8201168201806040525081019061025991906103dd565b9392505050565b80516001600160a01b038116811461027757600080fd5b919050565b634e487b7160e01b600052604160045260246000fd5b60005b838110156102ad578181015183820152602001610295565b50506000910152565b600080600080608085870312156102cc57600080fd5b6102d585610260565b60208601516040870151606088015192965090945092506001600160401b0381111561030057600080fd5b8501601f8101871361031157600080fd5b80516001600160401b0381111561032a5761032a61027c565b604051601f8201601f19908116603f011681016001600160401b03811182821017156103585761035861027c565b60405281815282820160200189101561037057600080fd5b610381826020830160208601610292565b9598949750929550505050565b60208152600082518060208401526103ad816040850160208701610292565b601f01601f19169190910160400192915050565b600082516103d3818460208701610292565b9190910192915050565b6000602082840312156103ef57600080fd5b61025982610260565b60805160a05160c05160e05161042961044c600039600081816101a801526102340152600061011d01526000818161015f015281816101fc015261028701526000818160bf015261026601526104296000f3fe6080604052600436106100745760003560e01c80635c60da1b1161004e5780635c60da1b146101815780639d76ea58146101965780639ded06df146101ca578063d4ae3c42146101e95761007b565b806309c6bed9146100ad578063129d81881461010b5780634fdf7cb51461014d5761007b565b3661007b57005b600061008561025f565b90503660008037600080366000845af43d6000803e8080156100a6573d6000f35b3d6000fd5b005b3480156100b957600080fd5b506100e17f000000000000000000000000000000000000000000000000000000000000000081565b60405173ffffffffffffffffffffffffffffffffffffffff90911681526020015b60405180910390f35b34801561011757600080fd5b5061013f7f000000000000000000000000000000000000000000000000000000000000000081565b604051908152602001610102565b34801561015957600080fd5b5061013f7f000000000000000000000000000000000000000000000000000000000000000081565b34801561018d57600080fd5b506100e161025f565b3480156101a257600080fd5b506100e17f000000000000000000000000000000000000000000000000000000000000000081565b3480156101d657600080fd5b506100ab6101e5366004610349565b5050565b3480156101f557600080fd5b50604080517f0000000000000000000000000000000000000000000000000000000000000000815273ffffffffffffffffffffffffffffffffffffffff7f000000000000000000000000000000000000000000000000000000000000000016602082015201610102565b60006102ab7f00000000000000000000000000000000000000000000000000000000000000007f00000000000000000000000000000000000000000000000000000000000000006102b0565b905090565b6040517f7e151fa60000000000000000000000000000000000000000000000000000000081526004810182905260009073ffffffffffffffffffffffffffffffffffffffff841690637e151fa690602401602060405180830381865afa15801561031e573d6000803e3d6000fd5b505050506040513d601f19601f8201168201806040525081019061034291906103bd565b9392505050565b6000806020838503121561035c57600080fd5b823567ffffffffffffffff81111561037357600080fd5b8301601f8101851361038457600080fd5b803567ffffffffffffffff81111561039b57600080fd5b8560208284010111156103ad57600080fd5b6020919091019590945092505050565b6000602082840312156103cf57600080fd5b815173ffffffffffffffffffffffffffffffffffffffff8116811461034257600080fdfea2646970667358221220fe36e72a99474f08534df4ada0b102f7c198df65bf7daafff03a225fb00724c964736f6c634300081b0033000000000000000000000000b5fb4be02232b1bba4dc8f81dc24c26980de9e3c000000000000000000000000000000000000000000000000000000000000000093e0937af3b1c3b2fe6a6d0c62347af46eb037c8d01e751766527c8007fd68700000000000000000000000000000000000000000000000000000000000000080000000000000000000000000000000000000000000000000000000000000008000000000000000000000000000000000000000000000000000000000000000400000000000000000000000008a1bd5076b4b316b6855647d914bf24a92101c44000000000000000000000000000000000000000000000000000000000000001483a93500d23fbc3e82b410ad07a6a9f7a0670d66000000000000000000000000"
        }
      ],
      "isFixedGasLimit": false
    }
  ],
  "receipts": [
    {
      "status": "0x1",
      "cumulativeGasUsed": "0x54de45",
      "logs": [
        {
          "address": "0xb5fb4be02232b1bba4dc8f81dc24c26980de9e3c",
          "topics": [
            "0x04ddbfaa222e81ab9447c070310e87608bf6a4c5d42be5c2fdf0f370b186af79",
            "0x93e0937af3b1c3b2fe6a6d0c62347af46eb037c8d01e751766527c8007fd6870",
            "0x0000000000000000000000000000000000000000000000000000000000000000",
            "0x6d2f2af5f322779c68c7398953aaf2acf7cb29aa8d2a22e5607fd288ee0be5df"
          ],
          "data": "0x",
          "blockHash": "0x0000000000000000000000000000000000000000000000000000000000000000",
          "blockNumber": "0x26a0789",
          "blockTimestamp": "0x69e76df2",
          "transactionHash": "0xe65d9e10da4e11de9edb5686ff5e4a86ec3cffb2e480a4c838c223813339daa1",
          "transactionIndex": "0x10",
          "logIndex": "0x5f",
          "removed": false
        },
        {
          "address": "0x8a1bd5076b4b316b6855647d914bf24a92101c44",
          "topics": [
            "0x34e73c57659d4b6809b53db4feee9b007b892e978114eda420d2991aba150143",
            "0x000000000000000000000000b5fb4be02232b1bba4dc8f81dc24c26980de9e3c"
          ],
          "data": "0x0000000000000000000000000000000000000000000000000000000000000001",
          "blockHash": "0x0000000000000000000000000000000000000000000000000000000000000000",
          "blockNumber": "0x26a0789",
          "blockTimestamp": "0x69e76df2",
          "transactionHash": "0xe65d9e10da4e11de9edb5686ff5e4a86ec3cffb2e480a4c838c223813339daa1",
          "transactionIndex": "0x10",
          "logIndex": "0x60",
          "removed": false
        },
        {
          "address": "0x8a1bd5076b4b316b6855647d914bf24a92101c44",
          "topics": [
            "0x34e73c57659d4b6809b53db4feee9b007b892e978114eda420d2991aba150143",
            "0x00000000000000000000000083a93500d23fbc3e82b410ad07a6a9f7a0670d66"
          ],
          "data": "0x0000000000000000000000000000000000000000000000000000000000000001",
          "blockHash": "0x0000000000000000000000000000000000000000000000000000000000000000",
          "blockNumber": "0x26a0789",
          "blockTimestamp": "0x69e76df2",
          "transactionHash": "0xe65d9e10da4e11de9edb5686ff5e4a86ec3cffb2e480a4c838c223813339daa1",
          "transactionIndex": "0x10",
          "logIndex": "0x61",
          "removed": false
        },
        {
          "address": "0xb5fb4be02232b1bba4dc8f81dc24c26980de9e3c",
          "topics": [
            "0xf0d7beb2b03d35e597f432391dc2a6f6eb1a621be6cb5b325f55a49090085239",
            "0x93e0937af3b1c3b2fe6a6d0c62347af46eb037c8d01e751766527c8007fd6870",
            "0x00000000000000000000000083a93500d23fbc3e82b410ad07a6a9f7a0670d66"
          ],
          "data": "0x0000000000000000000000008a1bd5076b4b316b6855647d914bf24a92101c44000000000000000000000000000000000000000000000000000000000000008000000000000000000000000000000000000000000000000000000000000000c000000000000000000000000000000000000000000000000000000000000000060000000000000000000000000000000000000000000000000000000000000005615553444300000000000000000000000000000000000000000000000000000000000000000000000000000000000000000000000000000000000000000000056155534443000000000000000000000000000000000000000000000000000000",
          "blockHash": "0x0000000000000000000000000000000000000000000000000000000000000000",
          "blockNumber": "0x26a0789",
          "blockTimestamp": "0x69e76df2",
          "transactionHash": "0xe65d9e10da4e11de9edb5686ff5e4a86ec3cffb2e480a4c838c223813339daa1",
          "transactionIndex": "0x10",
          "logIndex": "0x62",
          "removed": false
        },
        {
          "address": "0x7e4ff5205ac1cce5d99a0c85509a85c528ea25cf",
          "topics": [
            "0x34e73c57659d4b6809b53db4feee9b007b892e978114eda420d2991aba150143",
            "0x00000000000000000000000083a93500d23fbc3e82b410ad07a6a9f7a0670d66"
          ],
          "data": "0x0000000000000000000000000000000000000000000000000000000000000006",
          "blockHash": "0x0000000000000000000000000000000000000000000000000000000000000000",
          "blockNumber": "0x26a0789",
          "blockTimestamp": "0x69e76df2",
          "transactionHash": "0xe65d9e10da4e11de9edb5686ff5e4a86ec3cffb2e480a4c838c223813339daa1",
          "transactionIndex": "0x10",
          "logIndex": "0x63",
          "removed": false
        },
        {
          "address": "0x7e4ff5205ac1cce5d99a0c85509a85c528ea25cf",
          "topics": [
            "0x34e73c57659d4b6809b53db4feee9b007b892e978114eda420d2991aba150143",
            "0x000000000000000000000000b5fb4be02232b1bba4dc8f81dc24c26980de9e3c"
          ],
          "data": "0x0000000000000000000000000000000000000000000000000000000000000006",
          "blockHash": "0x0000000000000000000000000000000000000000000000000000000000000000",
          "blockNumber": "0x26a0789",
          "blockTimestamp": "0x69e76df2",
          "transactionHash": "0xe65d9e10da4e11de9edb5686ff5e4a86ec3cffb2e480a4c838c223813339daa1",
          "transactionIndex": "0x10",
          "logIndex": "0x64",
          "removed": false
        },
        {
          "address": "0x8a1bd5076b4b316b6855647d914bf24a92101c44",
          "topics": [
            "0xccf920c8facee98a9c2a6c6124f2857b87b17e9f3a819bfcc6945196ee77366b",
            "0x000000000000000000000000b5fb4be02232b1bba4dc8f81dc24c26980de9e3c"
          ],
          "data": "0x0000000000000000000000000000000000000000000000000000000000000001",
          "blockHash": "0x0000000000000000000000000000000000000000000000000000000000000000",
          "blockNumber": "0x26a0789",
          "blockTimestamp": "0x69e76df2",
          "transactionHash": "0xe65d9e10da4e11de9edb5686ff5e4a86ec3cffb2e480a4c838c223813339daa1",
          "transactionIndex": "0x10",
          "logIndex": "0x65",
          "removed": false
        },
        {
          "address": "0x8a1bd5076b4b316b6855647d914bf24a92101c44",
          "topics": [
            "0x34e73c57659d4b6809b53db4feee9b007b892e978114eda420d2991aba150143",
            "0x0000000000000000000000007e4ff5205ac1cce5d99a0c85509a85c528ea25cf"
          ],
          "data": "0x0000000000000000000000000000000000000000000000000000000000000001",
          "blockHash": "0x0000000000000000000000000000000000000000000000000000000000000000",
          "blockNumber": "0x26a0789",
          "blockTimestamp": "0x69e76df2",
          "transactionHash": "0xe65d9e10da4e11de9edb5686ff5e4a86ec3cffb2e480a4c838c223813339daa1",
          "transactionIndex": "0x10",
          "logIndex": "0x66",
          "removed": false
        },
        {
          "address": "0xb5fb4be02232b1bba4dc8f81dc24c26980de9e3c",
          "topics": [
            "0x5284c2478b9c1a55e973429331078be39b5fb3eeb9d87d10b34d65a4c89ee4eb",
            "0x93e0937af3b1c3b2fe6a6d0c62347af46eb037c8d01e751766527c8007fd6870",
            "0x0000000000000000000000000000000000000000000000000000000000000000"
          ],
          "data": "0x0000000000000000000000007e4ff5205ac1cce5d99a0c85509a85c528ea25cf0000000000000000000000000000000000000000000000000000000000000040000000000000000000000000000000000000000000000000000000000000008000000000000000000000000000000000000000000000000000000000000000400000000000000000000000008a1bd5076b4b316b6855647d914bf24a92101c44000000000000000000000000000000000000000000000000000000000000001483a93500d23fbc3e82b410ad07a6a9f7a0670d66000000000000000000000000",
          "blockHash": "0x0000000000000000000000000000000000000000000000000000000000000000",
          "blockNumber": "0x26a0789",
          "blockTimestamp": "0x69e76df2",
          "transactionHash": "0xe65d9e10da4e11de9edb5686ff5e4a86ec3cffb2e480a4c838c223813339daa1",
          "transactionIndex": "0x10",
          "logIndex": "0x67",
          "removed": false
        },
        {
          "address": "0x8a1bd5076b4b316b6855647d914bf24a92101c44",
          "topics": [
            "0xddf252ad1be2c89b69c2b068fc378daa952ba7f163c4a11628f55a4df523b3ef",
            "0x0000000000000000000000000000000000000000000000000000000000000000",
            "0x00000000000000000000000005f8cc8753d90d67dbb8c02118440b8283f941c9"
          ],
          "data": "0x000000000000000000000000000000000000000000000000000000e8d4a51000",
          "blockHash": "0x0000000000000000000000000000000000000000000000000000000000000000",
          "blockNumber": "0x26a0789",
          "blockTimestamp": "0x69e76df2",
          "transactionHash": "0xe65d9e10da4e11de9edb5686ff5e4a86ec3cffb2e480a4c838c223813339daa1",
          "transactionIndex": "0x10",
          "logIndex": "0x68",
          "removed": false
        },
        {
          "address": "0x8a1bd5076b4b316b6855647d914bf24a92101c44",
          "topics": [
            "0xccf920c8facee98a9c2a6c6124f2857b87b17e9f3a819bfcc6945196ee77366b",
            "0x00000000000000000000000083a93500d23fbc3e82b410ad07a6a9f7a0670d66"
          ],
          "data": "0x0000000000000000000000000000000000000000000000000000000000000001",
          "blockHash": "0x0000000000000000000000000000000000000000000000000000000000000000",
          "blockNumber": "0x26a0789",
          "blockTimestamp": "0x69e76df2",
          "transactionHash": "0xe65d9e10da4e11de9edb5686ff5e4a86ec3cffb2e480a4c838c223813339daa1",
          "transactionIndex": "0x10",
          "logIndex": "0x69",
          "removed": false
        },
        {
          "address": "0x8a1bd5076b4b316b6855647d914bf24a92101c44",
          "topics": [
            "0x34e73c57659d4b6809b53db4feee9b007b892e978114eda420d2991aba150143",
            "0x00000000000000000000000005f8cc8753d90d67dbb8c02118440b8283f941c9"
          ],
          "data": "0x0000000000000000000000000000000000000000000000000000000000000001",
          "blockHash": "0x0000000000000000000000000000000000000000000000000000000000000000",
          "blockNumber": "0x26a0789",
          "blockTimestamp": "0x69e76df2",
          "transactionHash": "0xe65d9e10da4e11de9edb5686ff5e4a86ec3cffb2e480a4c838c223813339daa1",
          "transactionIndex": "0x10",
          "logIndex": "0x6a",
          "removed": false
        },
        {
          "address": "0x7e4ff5205ac1cce5d99a0c85509a85c528ea25cf",
          "topics": [
            "0xccf920c8facee98a9c2a6c6124f2857b87b17e9f3a819bfcc6945196ee77366b",
            "0x00000000000000000000000083a93500d23fbc3e82b410ad07a6a9f7a0670d66"
          ],
          "data": "0x0000000000000000000000000000000000000000000000000000000000000004",
          "blockHash": "0x0000000000000000000000000000000000000000000000000000000000000000",
          "blockNumber": "0x26a0789",
          "blockTimestamp": "0x69e76df2",
          "transactionHash": "0xe65d9e10da4e11de9edb5686ff5e4a86ec3cffb2e480a4c838c223813339daa1",
          "transactionIndex": "0x10",
          "logIndex": "0x6b",
          "removed": false
        },
        {
          "address": "0x7e4ff5205ac1cce5d99a0c85509a85c528ea25cf",
          "topics": [
            "0x34e73c57659d4b6809b53db4feee9b007b892e978114eda420d2991aba150143",
            "0x00000000000000000000000005f8cc8753d90d67dbb8c02118440b8283f941c9"
          ],
          "data": "0x0000000000000000000000000000000000000000000000000000000000000004",
          "blockHash": "0x0000000000000000000000000000000000000000000000000000000000000000",
          "blockNumber": "0x26a0789",
          "blockTimestamp": "0x69e76df2",
          "transactionHash": "0xe65d9e10da4e11de9edb5686ff5e4a86ec3cffb2e480a4c838c223813339daa1",
          "transactionIndex": "0x10",
          "logIndex": "0x6c",
          "removed": false
        },
        {
          "address": "0x7e4ff5205ac1cce5d99a0c85509a85c528ea25cf",
          "topics": [
            "0xccf920c8facee98a9c2a6c6124f2857b87b17e9f3a819bfcc6945196ee77366b",
            "0x00000000000000000000000083a93500d23fbc3e82b410ad07a6a9f7a0670d66"
          ],
          "data": "0x0000000000000000000000000000000000000000000000000000000000000002",
          "blockHash": "0x0000000000000000000000000000000000000000000000000000000000000000",
          "blockNumber": "0x26a0789",
          "blockTimestamp": "0x69e76df2",
          "transactionHash": "0xe65d9e10da4e11de9edb5686ff5e4a86ec3cffb2e480a4c838c223813339daa1",
          "transactionIndex": "0x10",
          "logIndex": "0x6d",
          "removed": false
        },
        {
          "address": "0x7e4ff5205ac1cce5d99a0c85509a85c528ea25cf",
          "topics": [
            "0x34e73c57659d4b6809b53db4feee9b007b892e978114eda420d2991aba150143",
            "0x00000000000000000000000005f8cc8753d90d67dbb8c02118440b8283f941c9"
          ],
          "data": "0x0000000000000000000000000000000000000000000000000000000000000002",
          "blockHash": "0x0000000000000000000000000000000000000000000000000000000000000000",
          "blockNumber": "0x26a0789",
          "blockTimestamp": "0x69e76df2",
          "transactionHash": "0xe65d9e10da4e11de9edb5686ff5e4a86ec3cffb2e480a4c838c223813339daa1",
          "transactionIndex": "0x10",
          "logIndex": "0x6e",
          "removed": false
        }
      ],
      "logsBloom": "0x020000000000001000000000080080000004000400000000000000000000000000000000000000000000100000000000108000000000000000200000000000000400000000002000000000080000000020008000008000000000000000000000400000000200000000000010800008000001000000000000000000100000000000000000000002000000000000000008000000200000000000000080000002000028000002000000000000000000000000000000000000000000000010000101000000020000000080000000000000000000000000420000000000020000200800000080000000800000c0000004000000000000000000001000000000000004",
      "type": "0x2",
      "transactionHash": "0xe65d9e10da4e11de9edb5686ff5e4a86ec3cffb2e480a4c838c223813339daa1",
      "transactionIndex": "0x10",
      "blockHash": "0x0000000000000000000000000000000000000000000000000000000000000000",
      "blockNumber": "0x26a0789",
      "gasUsed": "0xe08fa",
      "effectiveGasPrice": "0x5b8d80",
      "blobGasUsed": "0x574c",
      "from": "0x05f8cc8753d90d67dbb8c02118440b8283f941c9",
      "to": "0x83a93500d23fbc3e82b410ad07a6a9f7a0670d66",
      "contractAddress": null,
      "daFootprintGasScalar": "0x94",
      "l1BaseFeeScalar": "0x44d",
      "l1BlobBaseFee": "0x3029b5f",
      "l1BlobBaseFeeScalar": "0xa118b",
      "l1Fee": "0x1aad4c5bf",
      "l1GasPrice": "0x2f326de9",
      "l1GasUsed": "0x977"
    }
  ],
  "libraries": [],
  "pending": [],
  "returns": {},
  "timestamp": 1776774641981,
  "chain": 84532,
  "commit": "bec0627"
}