{
  "transactions": [
    {
      "hash": "0x31fc5b1ea193c18352c89b0b642db8a3c604411fbb1bdd9dafb6b76dad95bf0f",
      "transactionType": "CALL",
      "contractName": null,
      "contractAddress": "0x71d9490466b1076e31eaa36f555bfaa914e84bb9",
      "function": "registerRailPlugin(address)",
      "arguments": [
        "0xe0c4Aa6A461f5032F3153DC2801dD5fcEf9D469e"
      ],
      "transaction": {
        "from": "0x05f8cc8753d90d67dbb8c02118440b8283f941c9",
        "to": "0x71d9490466b1076e31eaa36f555bfaa914e84bb9",
        "gas": "0x2714e",
        "value": "0x0",
        "input": "0x172ceb34000000000000000000000000e0c4aa6a461f5032f3153dc2801dd5fcef9d469e",
        "nonce": "0xd7",
        "chainId": "0x66eee"
      },
      "additionalContracts": [],
      "isFixedGasLimit": false
    },
    {
      "hash": "0x6da6578bd5a65958630b6a663b8d36d78e7db5f0367b85bcbfcd65606d8876bc",
      "transactionType": "CALL",
      "contractName": null,
      "contractAddress": "0x71d9490466b1076e31eaa36f555bfaa914e84bb9",
      "function": "registerRailPlugin(address)",
      "arguments": [
        "0x9a64E7a18f5A9edcE3A3728B2C12643FA0cee26B"
      ],
      "transaction": {
        "from": "0x05f8cc8753d90d67dbb8c02118440b8283f941c9",
        "to": "0x71d9490466b1076e31eaa36f555bfaa914e84bb9",
        "gas": "0x27094",
        "value": "0x0",
        "input": "0x172ceb340000000000000000000000009a64e7a18f5a9edce3a3728b2c12643fa0cee26b",
        "nonce": "0xd8",
        "chainId": "0x66eee"
      },
      "additionalContracts": [],
      "isFixedGasLimit": false
    },
    {
      "hash": "0xfe99d200633eced47dc20220f7d4309beca4b3e9533d9461ea090fe5ee0db268",
      "transactionType": "CALL",
      "contractName": null,
      "contractAddress": "0xe92d374a55655f4b8447e3a6eaca87bbc09dd8d7",
      "function": "addApprovedCaller(address)",
      "arguments": [
        "0x845Cd50644A9592de43BCAC0212656480744AAcA"
      ],
      "transaction": {
        "from": "0x05f8cc8753d90d67dbb8c02118440b8283f941c9",
        "to": "0xe92d374a55655f4b8447e3a6eaca87bbc09dd8d7",
        "gas": "0xf2d0",
        "value": "0x0",
        "input": "0xab5cb85a000000000000000000000000845cd50644a9592de43bcac0212656480744aaca",
        "nonce": "0xd9",
        "chainId": "0x66eee"
      },
      "additionalContracts": [],
      "isFixedGasLimit": false
    },
    {
      "hash": "0xd2e4dd2fa55044f2a6541acd91c68a9a5bc25f7bf7f687b84c4b85e7da638dda",
      "transactionType": "CALL",
      "contractName": null,
      "contractAddress": "0xe0c4aa6a461f5032f3153dc2801dd5fcef9d469e",
      "function": "setChainDomain(uint32,uint32)",
      "arguments": [
        "84532",
        "6"
      ],
      "transaction": {
        "from": "0x05f8cc8753d90d67dbb8c02118440b8283f941c9",
        "to": "0xe0c4aa6a461f5032f3153dc2801dd5fcef9d469e",
        "gas": "0xf42d",
        "value": "0x0",
        "input": "0x7ef0d2870000000000000000000000000000000000000000000000000000000000014a340000000000000000000000000000000000000000000000000000000000000006",
        "nonce": "0xda",
        "chainId": "0x66eee"
      },
      "additionalContracts": [],
      "isFixedGasLimit": false
    },
    {
      "hash": "0xc0dbcecfc79884d6329531b846bf7ccf456fe709dc1dc1f4807cfedb761a27e4",
      "transactionType": "CALL",
      "contractName": null,
      "contractAddress": "0xe0c4aa6a461f5032f3153dc2801dd5fcef9d469e",
      "function": "setDestinationReceiver(uint32,bytes32)",
      "arguments": [
        "84532",
        "0x000000000000000000000000f87b70151ccb80fdd2c2d6bb9dc8a1055e34106b"
      ],
      "transaction": {
        "from": "0x05f8cc8753d90d67dbb8c02118440b8283f941c9",
        "to": "0xe0c4aa6a461f5032f3153dc2801dd5fcef9d469e",
        "gas": "0xf49e",
        "value": "0x0",
        "input": "0x0267dd6c0000000000000000000000000000000000000000000000000000000000014a34000000000000000000000000f87b70151ccb80fdd2c2d6bb9dc8a1055e34106b",
        "nonce": "0xdb",
        "chainId": "0x66eee"
      },
      "additionalContracts": [],
      "isFixedGasLimit": false
    },
    {
      "hash": "0x141aee59464f011feb084b7ba59c578de7ff20cc071c91ec2a9d6932f791e8fd",
      "transactionType": "CALL",
      "contractName": null,
      "contractAddress": "0x9a64e7a18f5a9edce3a3728b2c12643fa0cee26b",
      "function": "setRouteConfig(uint32,string,address,bytes32)",
      "arguments": [
        "84532",
        "base-sepolia",
        "0xf87B70151Ccb80FDd2c2d6bB9dc8a1055E34106B",
        "0x8351ce1d9b08b0ec2add9de7e893e4a216235576cd4074bbacb0b9fb9b8f68c6"
      ],
      "transaction": {
        "from": "0x05f8cc8753d90d67dbb8c02118440b8283f941c9",
        "to": "0x9a64e7a18f5a9edce3a3728b2c12643fa0cee26b",
        "gas": "0x1e698",
        "value": "0x0",
        "input": "0x7513a82a0000000000000000000000000000000000000000000000000000000000014a340000000000000000000000000000000000000000000000000000000000000080000000000000000000000000f87b70151ccb80fdd2c2d6bb9dc8a1055e34106b8351ce1d9b08b0ec2add9de7e893e4a216235576cd4074bbacb0b9fb9b8f68c6000000000000000000000000000000000000000000000000000000000000000c626173652d7365706f6c69610000000000000000000000000000000000000000",
        "nonce": "0xdc",
        "chainId": "0x66eee"
      },
      "additionalContracts": [],
      "isFixedGasLimit": false
    },
    {
      "hash": "0x417a02187ca7affb3256c978a54690a91a98c85d837909a19449828fbe2f0969",
      "transactionType": "CALL",
      "contractName": null,
      "contractAddress": "0xd4d2b0ce967f948c2e1c5f7ae361f8088bd094d8",
      "function": "setTrustedSource(string,string,bool)",
      "arguments": [
        "base-sepolia",
        "0xb78da66c5308d84b60da5a869332cc4e0f4d3995",
        "true"
      ],
      "transaction": {
        "from": "0x05f8cc8753d90d67dbb8c02118440b8283f941c9",
        "to": "0xd4d2b0ce967f948c2e1c5f7ae361f8088bd094d8",
        "gas": "0x11549",
        "value": "0x0",
        "input": "0xc5f229d0000000000000000000000000000000000000000000000000000000000000006000000000000000000000000000000000000000000000000000000000000000a00000000000000000000000000000000000000000000000000000000000000001000000000000000000000000000000000000000000000000000000000000000c626173652d7365706f6c69610000000000000000000000000000000000000000000000000000000000000000000000000000000000000000000000000000002a30786237386461363663353330386438346236306461356138363933333263633465306634643339393500000000000000000000000000000000000000000000",
        "nonce": "0xdd",
        "chainId": "0x66eee"
      },
      "additionalContracts": [],
      "isFixedGasLimit": false
    }
  ],
  "receipts": [
    {
      "status": "0x1",
      "cumulativeGasUsed": "0x1dbd3",
      "logs": [
        {
          "address": "0x71d9490466b1076e31eaa36f555bfaa914e84bb9",
          "topics": [
            "0xa86330cede453edbe00d0dbe74ee3bdbac6d7b048009b0d72d54aa609df01a71",
            "0xb148ea5f936a28661e11743b1650193f1b14a2322b9541503bf6815a84a1a6e9"
          ],
          "data": "0x000000000000000000000000e0c4aa6a461f5032f3153dc2801dd5fcef9d469e0000000000000000000000000000000000000000000000000000000000000000",
          "blockHash": "0x927b90454ab89fd56755edfceb4f6d6bbcb2f2d82080eba19df56a6d7024ab43",
          "blockNumber": "0xf782656",
          "blockTimestamp": "0x69de3d16",
          "transactionHash": "0x31fc5b1ea193c18352c89b0b642db8a3c604411fbb1bdd9dafb6b76dad95bf0f",
          "transactionIndex": "0x1",
          "logIndex": "0x0",
          "removed": false
        }
      ],
      "logsBloom": "0x00000400000000002000000000000000000000000000000000000000000000000000000000000000000000000000000000000000000000000000000000000000000000000000000000000000000000000000000020000000000000000000000000000000000000000000000020000000000000000000000000000000000000000000040000000000000000000000000000000000000000000000000000000000000000000000000000000000000000000000000000000000000000000000000000000000000000000000000020200000000000400000000000000000000000002000000000000000000000000000000000000000000000000000000000000000",
      "type": "0x2",
      "transactionHash": "0x31fc5b1ea193c18352c89b0b642db8a3c604411fbb1bdd9dafb6b76dad95bf0f",
      "transactionIndex": "0x1",
      "blockHash": "0x927b90454ab89fd56755edfceb4f6d6bbcb2f2d82080eba19df56a6d7024ab43",
      "blockNumber": "0xf782656",
      "gasUsed": "0x1dbd3",
      "effectiveGasPrice": "0x1316b80",
      "from": "0x05f8cc8753d90d67dbb8c02118440b8283f941c9",
      "to": "0x71d9490466b1076e31eaa36f555bfaa914e84bb9",
      "contractAddress": null,
      "gasUsedForL1": "0x3c9",
      "l1BlockNumber": "0xa2a19b",
      "timeboosted": false
    },
    {
      "status": "0x1",
      "cumulativeGasUsed": "0x39a97",
      "logs": [
        {
          "address": "0x71d9490466b1076e31eaa36f555bfaa914e84bb9",
          "topics": [
            "0xa86330cede453edbe00d0dbe74ee3bdbac6d7b048009b0d72d54aa609df01a71",
            "0xdee0b34b74b60e53553685c32477090103c2b806eb925a8cd000efa92bef3e8b"
          ],
          "data": "0x0000000000000000000000009a64e7a18f5a9edce3a3728b2c12643fa0cee26b0000000000000000000000000000000000000000000000000000000000000000",
          "blockHash": "0x67ab054562577618efbf8ab9e749a2606f83268e43d8692aa3e9476ff804a15f",
          "blockNumber": "0xf78265b",
          "blockTimestamp": "0x69de3d17",
          "transactionHash": "0x6da6578bd5a65958630b6a663b8d36d78e7db5f0367b85bcbfcd65606d8876bc",
          "transactionIndex": "0x2",
          "logIndex": "0x2",
          "removed": false
        }
      ],
      "logsBloom": "0x00000000000000002000000000000000000000000000000000000000000000000000000000000000000000000000000000000000000000000000000000000000000000000000000000000000000000000000000000000040000000000000000000000000000000000000000000000000000000000000000000000000000000000000040000000004000000000000000000000000000000000000000000000000000000000000000000000000000000000000000000000000000000000000000000000000000000000000000020200000000000400000000000000000000000002000000000000000000000000000100000000000000000000000000000000000",
      "type": "0x2",
      "transactionHash": "0x6da6578bd5a65958630b6a663b8d36d78e7db5f0367b85bcbfcd65606d8876bc",
      "transactionIndex": "0x2",
      "blockHash": "0x67ab054562577618efbf8ab9e749a2606f83268e43d8692aa3e9476ff804a15f",
      "blockNumber": "0xf78265b",
      "gasUsed": "0x19877",
      "effectiveGasPrice": "0x1318ac0",
      "from": "0x05f8cc8753d90d67dbb8c02118440b8283f941c9",
      "to": "0x71d9490466b1076e31eaa36f555bfaa914e84bb9",
      "contractAddress": null,
      "gasUsedForL1": "0x3c8",
      "l1BlockNumber": "0xa2a19b",
      "timeboosted": false
    },
    {
      "status": "0x1",
      "cumulativeGasUsed": "0xb83c",
      "logs": [],
      "logsBloom": "0x00000000000000000000000000000000000000000000000000000000000000000000000000000000000000000000000000000000000000000000000000000000000000000000000000000000000000000000000000000000000000000000000000000000000000000000000000000000000000000000000000000000000000000000000000000000000000000000000000000000000000000000000000000000000000000000000000000000000000000000000000000000000000000000000000000000000000000000000000000000000000000000000000000000000000000000000000000000000000000000000000000000000000000000000000000000",
      "type": "0x2",
      "transactionHash": "0xfe99d200633eced47dc20220f7d4309beca4b3e9533d9461ea090fe5ee0db268",
      "transactionIndex": "0x1",
      "blockHash": "0xac0b01971db5b5a071125ed899e1d7ae29de6b95068429ac99be8e10d9c845da",
      "blockNumber": "0xf782667",
      "gasUsed": "0xb83c",
      "effectiveGasPrice": "0x131c940",
      "from": "0x05f8cc8753d90d67dbb8c02118440b8283f941c9",
      "to": "0xe92d374a55655f4b8447e3a6eaca87bbc09dd8d7",
      "contractAddress": null,
      "gasUsedForL1": "0x3c1",
      "l1BlockNumber": "0xa2a19b",
      "timeboosted": false
    },
    {
      "status": "0x1",
      "cumulativeGasUsed": "0xb931",
      "logs": [],
      "logsBloom": "0x00000000000000000000000000000000000000000000000000000000000000000000000000000000000000000000000000000000000000000000000000000000000000000000000000000000000000000000000000000000000000000000000000000000000000000000000000000000000000000000000000000000000000000000000000000000000000000000000000000000000000000000000000000000000000000000000000000000000000000000000000000000000000000000000000000000000000000000000000000000000000000000000000000000000000000000000000000000000000000000000000000000000000000000000000000000",
      "type": "0x2",
      "transactionHash": "0xd2e4dd2fa55044f2a6541acd91c68a9a5bc25f7bf7f687b84c4b85e7da638dda",
      "transactionIndex": "0x1",
      "blockHash": "0x118165c63c7547a509173fa06e25a015a4ecd7587576714e60f1ad3e706915d4",
      "blockNumber": "0xf78266d",
      "gasUsed": "0xb931",
      "effectiveGasPrice": "0x131aa00",
      "from": "0x05f8cc8753d90d67dbb8c02118440b8283f941c9",
      "to": "0xe0c4aa6a461f5032f3153dc2801dd5fcef9d469e",
      "contractAddress": null,
      "gasUsedForL1": "0x497",
      "l1BlockNumber": "0xa2a19b",
      "timeboosted": false
    },
    {
      "status": "0x1",
      "cumulativeGasUsed": "0xb988",
      "logs": [],
      "logsBloom": "0x00000000000000000000000000000000000000000000000000000000000000000000000000000000000000000000000000000000000000000000000000000000000000000000000000000000000000000000000000000000000000000000000000000000000000000000000000000000000000000000000000000000000000000000000000000000000000000000000000000000000000000000000000000000000000000000000000000000000000000000000000000000000000000000000000000000000000000000000000000000000000000000000000000000000000000000000000000000000000000000000000000000000000000000000000000000",
      "type": "0x2",
      "transactionHash": "0xc0dbcecfc79884d6329531b846bf7ccf456fe709dc1dc1f4807cfedb761a27e4",
      "transactionIndex": "0x1",
      "blockHash": "0x54327644aedadbd3c90931a243c5ff5d80a4fd99b2d701995fd65b9ace708522",
      "blockNumber": "0xf782675",
      "gasUsed": "0xb988",
      "effectiveGasPrice": "0x1315be0",
      "from": "0x05f8cc8753d90d67dbb8c02118440b8283f941c9",
      "to": "0xe0c4aa6a461f5032f3153dc2801dd5fcef9d469e",
      "contractAddress": null,
      "gasUsedForL1": "0x498",
      "l1BlockNumber": "0xa2a19c",
      "timeboosted": false
    },
    {
      "status": "0x1",
      "cumulativeGasUsed": "0x3d383",
      "logs": [],
      "logsBloom": "0x00000000000000000000000000000000000000000000000000000000000000000000000000000000000000000000000000000000000000000000000000000000000000000000000000000000000000000000000000000000000000000000000000000000000000000000000000000000000000000000000000000000000000000000000000000000000000000000000000000000000000000000000000000000000000000000000000000000000000000000000000000000000000000000000000000000000000000000000000000000000000000000000000000000000000000000000000000000000000000000000000000000000000000000000000000000",
      "type": "0x2",
      "transactionHash": "0x141aee59464f011feb084b7ba59c578de7ff20cc071c91ec2a9d6932f791e8fd",
      "transactionIndex": "0x3",
      "blockHash": "0x5a21279e28b8154997d20e88c84c83fd93c50994929f746ed971238338c35d74",
      "blockNumber": "0xf782684",
      "gasUsed": "0x170fb",
      "effectiveGasPrice": "0x131b1d0",
      "from": "0x05f8cc8753d90d67dbb8c02118440b8283f941c9",
      "to": "0x9a64e7a18f5a9edce3a3728b2c12643fa0cee26b",
      "contractAddress": null,
      "gasUsedForL1": "0x7bd",
      "l1BlockNumber": "0xa2a19c",
      "timeboosted": false
    },
    {
      "status": "0x1",
      "cumulativeGasUsed": "0x273a0",
      "logs": [
        {
          "address": "0xd4d2b0ce967f948c2e1c5f7ae361f8088bd094d8",
          "topics": [
            "0xc4be60cee9fada79d250ef87fe6761acee8c4f919f811b4095a42b9553da7d71"
          ],
          "data": "0x000000000000000000000000000000000000000000000000000000000000006000000000000000000000000000000000000000000000000000000000000000a00000000000000000000000000000000000000000000000000000000000000001000000000000000000000000000000000000000000000000000000000000000c626173652d7365706f6c69610000000000000000000000000000000000000000000000000000000000000000000000000000000000000000000000000000002a30786237386461363663353330386438346236306461356138363933333263633465306634643339393500000000000000000000000000000000000000000000",
          "blockHash": "0x31f790f33079d08402748c2ac85e46059c2b78f95dc54ebe6ba01b979de0ecc1",
          "blockNumber": "0xf782691",
          "blockTimestamp": "0x69de3d27",
          "transactionHash": "0x417a02187ca7affb3256c978a54690a91a98c85d837909a19449828fbe2f0969",
          "transactionIndex": "0x2",
          "logIndex": "0x3",
          "removed": false
        }
      ],
      "logsBloom": "0x00000000000000000000000000000000000040000000000000000000000000000000000000000004000000000000000000000000000000000100000000000000000000000000000000000000000000000000000000000000000000000000000000000000000000000000000000000000040000000000000000000000000000000000000000000000000000000000000000000000000000000000000000000000000000000000000000000000000000000000000000000000000040000000000000000000000000000000000000000400000000000000000000000000000000000000000000000000000000000000000000000000000000000000000000000000",
      "type": "0x2",
      "transactionHash": "0x417a02187ca7affb3256c978a54690a91a98c85d837909a19449828fbe2f0969",
      "transactionIndex": "0x2",
      "blockHash": "0x31f790f33079d08402748c2ac85e46059c2b78f95dc54ebe6ba01b979de0ecc1",
      "blockNumber": "0xf782691",
      "gasUsed": "0xd07b",
      "effectiveGasPrice": "0x131c170",
      "from": "0x05f8cc8753d90d67dbb8c02118440b8283f941c9",
      "to": "0xd4d2b0ce967f948c2e1c5f7ae361f8088bd094d8",
      "contractAddress": null,
      "gasUsedForL1": "0x6e8",
      "l1BlockNumber": "0xa2a19c",
      "timeboosted": false
    }
  ],
  "libraries": [],
  "pending": [],
  "returns": {},
  "timestamp": 1776172327705,
  "chain": 421614,
  "commit": "b3b4aa7"
}