{
  "transactions": [
    {
      "hash": "0xdfe8f7f3deb3b5a372a91e44be070b28eb8f7da6b482eff125f5f2e35864a0f7",
      "transactionType": "CALL",
      "contractName": null,
      "contractAddress": "0x8badd5256a22f3452afbfeec3a3caf3f98173c25",
      "function": "registerRailPlugin(address)",
      "arguments": [
        "0x4d1B4d2240a8E09F5b0AE3aDb90322706d59ef5d"
      ],
      "transaction": {
        "from": "0x05f8cc8753d90d67dbb8c02118440b8283f941c9",
        "to": "0x8badd5256a22f3452afbfeec3a3caf3f98173c25",
        "gas": "0x29410",
        "value": "0x0",
        "input": "0x172ceb340000000000000000000000004d1b4d2240a8e09f5b0ae3adb90322706d59ef5d",
        "nonce": "0xe4",
        "chainId": "0x66eee"
      },
      "additionalContracts": [],
      "isFixedGasLimit": false
    },
    {
      "hash": "0x044159850adf1c3eebbf57495d47f79b008da8c0b5e253f8b34abe6006dcced9",
      "transactionType": "CALL",
      "contractName": null,
      "contractAddress": "0x8badd5256a22f3452afbfeec3a3caf3f98173c25",
      "function": "registerRailPlugin(address)",
      "arguments": [
        "0xED802bbe7b0325c950355b0A10cbEF406B2520Bc"
      ],
      "transaction": {
        "from": "0x05f8cc8753d90d67dbb8c02118440b8283f941c9",
        "to": "0x8badd5256a22f3452afbfeec3a3caf3f98173c25",
        "gas": "0x29372",
        "value": "0x0",
        "input": "0x172ceb34000000000000000000000000ed802bbe7b0325c950355b0a10cbef406b2520bc",
        "nonce": "0xe5",
        "chainId": "0x66eee"
      },
      "additionalContracts": [],
      "isFixedGasLimit": false
    },
    {
      "hash": "0x2ef6d457349698f8a5ca8a36d5ef0ab696080d575378597d5f59e11afbe23aab",
      "transactionType": "CALL",
      "contractName": null,
      "contractAddress": "0xb2abe546163021d539e4cc991354c29a124b38ce",
      "function": "addApprovedCaller(address)",
      "arguments": [
        "0x6671F536193478372c5ef348B353eEd4625C2B2e"
      ],
      "transaction": {
        "from": "0x05f8cc8753d90d67dbb8c02118440b8283f941c9",
        "to": "0xb2abe546163021d539e4cc991354c29a124b38ce",
        "gas": "0x117a4",
        "value": "0x0",
        "input": "0xab5cb85a0000000000000000000000006671f536193478372c5ef348b353eed4625c2b2e",
        "nonce": "0xe6",
        "chainId": "0x66eee"
      },
      "additionalContracts": [],
      "isFixedGasLimit": false
    },
    {
      "hash": "0xa3781eb82f8a949076ab0509bcca299881e289d85437ead1ab205d40b29edbcb",
      "transactionType": "CALL",
      "contractName": null,
      "contractAddress": "0xb2abe546163021d539e4cc991354c29a124b38ce",
      "function": "addApprovedCaller(address)",
      "arguments": [
        "0x05F8cC8753D90d67DBB8c02118440b8283F941c9"
      ],
      "transaction": {
        "from": "0x05f8cc8753d90d67dbb8c02118440b8283f941c9",
        "to": "0xb2abe546163021d539e4cc991354c29a124b38ce",
        "gas": "0x117a4",
        "value": "0x0",
        "input": "0xab5cb85a00000000000000000000000005f8cc8753d90d67dbb8c02118440b8283f941c9",
        "nonce": "0xe7",
        "chainId": "0x66eee"
      },
      "additionalContracts": [],
      "isFixedGasLimit": false
    },
    {
      "hash": "0xace155fd423b29e2dc4c90568fa9b6d30fe20703e5fc15772a51394633fcb114",
      "transactionType": "CALL",
      "contractName": null,
      "contractAddress": "0x4d1b4d2240a8e09f5b0ae3adb90322706d59ef5d",
      "function": "setChainDomain(uint32,uint32)",
      "arguments": [
        "84532",
        "6"
      ],
      "transaction": {
        "from": "0x05f8cc8753d90d67dbb8c02118440b8283f941c9",
        "to": "0x4d1b4d2240a8e09f5b0ae3adb90322706d59ef5d",
        "gas": "0x11f9e",
        "value": "0x0",
        "input": "0x7ef0d2870000000000000000000000000000000000000000000000000000000000014a340000000000000000000000000000000000000000000000000000000000000006",
        "nonce": "0xe8",
        "chainId": "0x66eee"
      },
      "additionalContracts": [],
      "isFixedGasLimit": false
    },
    {
      "hash": "0x0291bee757c11a3c571c04ce738ebbe5d5824f5691bd6cc56d507ad843a66e47",
      "transactionType": "CALL",
      "contractName": null,
      "contractAddress": "0x4d1b4d2240a8e09f5b0ae3adb90322706d59ef5d",
      "function": "setDestinationReceiver(uint32,bytes32)",
      "arguments": [
        "84532",
        "0x00000000000000000000000094f41058563e46c27aba75ab592752cc09061c6e"
      ],
      "transaction": {
        "from": "0x05f8cc8753d90d67dbb8c02118440b8283f941c9",
        "to": "0x4d1b4d2240a8e09f5b0ae3adb90322706d59ef5d",
        "gas": "0x12049",
        "value": "0x0",
        "input": "0x0267dd6c0000000000000000000000000000000000000000000000000000000000014a3400000000000000000000000094f41058563e46c27aba75ab592752cc09061c6e",
        "nonce": "0xe9",
        "chainId": "0x66eee"
      },
      "additionalContracts": [],
      "isFixedGasLimit": false
    },
    {
      "hash": "0x3beb30e0a3b67faead5c7b1398cbd7881ea1da5097fd06c85b0e63baa9b4887f",
      "transactionType": "CALL",
      "contractName": null,
      "contractAddress": "0x4d1b4d2240a8e09f5b0ae3adb90322706d59ef5d",
      "function": "setDestinationCaller(uint32,bytes32)",
      "arguments": [
        "84532",
        "0x0000000000000000000000000000000000000000000000000000000000000000"
      ],
      "transaction": {
        "from": "0x05f8cc8753d90d67dbb8c02118440b8283f941c9",
        "to": "0x4d1b4d2240a8e09f5b0ae3adb90322706d59ef5d",
        "gas": "0xb75d",
        "value": "0x0",
        "input": "0x00686ed20000000000000000000000000000000000000000000000000000000000014a340000000000000000000000000000000000000000000000000000000000000000",
        "nonce": "0xea",
        "chainId": "0x66eee"
      },
      "additionalContracts": [],
      "isFixedGasLimit": false
    },
    {
      "hash": "0xb4009f83c19bcb84212b46e9384f07c6d31d19f4ac7689e3883a09877de295c0",
      "transactionType": "CALL",
      "contractName": null,
      "contractAddress": "0xed802bbe7b0325c950355b0a10cbef406b2520bc",
      "function": "setRouteConfig(uint32,string,address,bytes32)",
      "arguments": [
        "84532",
        "base-sepolia",
        "0x94f41058563e46C27ABA75aB592752CC09061C6E",
        "0x8351ce1d9b08b0ec2add9de7e893e4a216235576cd4074bbacb0b9fb9b8f68c6"
      ],
      "transaction": {
        "from": "0x05f8cc8753d90d67dbb8c02118440b8283f941c9",
        "to": "0xed802bbe7b0325c950355b0a10cbef406b2520bc",
        "gas": "0x22a0c",
        "value": "0x0",
        "input": "0x7513a82a0000000000000000000000000000000000000000000000000000000000014a34000000000000000000000000000000000000000000000000000000000000008000000000000000000000000094f41058563e46c27aba75ab592752cc09061c6e8351ce1d9b08b0ec2add9de7e893e4a216235576cd4074bbacb0b9fb9b8f68c6000000000000000000000000000000000000000000000000000000000000000c626173652d7365706f6c69610000000000000000000000000000000000000000",
        "nonce": "0xeb",
        "chainId": "0x66eee"
      },
      "additionalContracts": [],
      "isFixedGasLimit": false
    },
    {
      "hash": "0xcbf71d8473c919328ffe01dd32e52f12ca9da9d4d2cad0b0090ef7619a0dfe3d",
      "transactionType": "CALL",
      "contractName": null,
      "contractAddress": "0x6671f536193478372c5ef348b353eed4625c2b2e",
      "function": "setTrustedSource(string,string,bool)",
      "arguments": [
        "base-sepolia",
        "0xa0f6e96c16d054ad0ff9fcb027cdec39b5f50c2f",
        "true"
      ],
      "transaction": {
        "from": "0x05f8cc8753d90d67dbb8c02118440b8283f941c9",
        "to": "0x6671f536193478372c5ef348b353eed4625c2b2e",
        "gas": "0x15273",
        "value": "0x0",
        "input": "0xc5f229d0000000000000000000000000000000000000000000000000000000000000006000000000000000000000000000000000000000000000000000000000000000a00000000000000000000000000000000000000000000000000000000000000001000000000000000000000000000000000000000000000000000000000000000c626173652d7365706f6c69610000000000000000000000000000000000000000000000000000000000000000000000000000000000000000000000000000002a30786130663665393663313664303534616430666639666362303237636465633339623566353063326600000000000000000000000000000000000000000000",
        "nonce": "0xec",
        "chainId": "0x66eee"
      },
      "additionalContracts": [],
      "isFixedGasLimit": false
    }
  ],
  "receipts": [
    {
      "status": "0x1",
      "cumulativeGasUsed": "0x1f0d6",
      "logs": [
        {
          "address": "0x8badd5256a22f3452afbfeec3a3caf3f98173c25",
          "topics": [
            "0xa86330cede453edbe00d0dbe74ee3bdbac6d7b048009b0d72d54aa609df01a71",
            "0xb148ea5f936a28661e11743b1650193f1b14a2322b9541503bf6815a84a1a6e9"
          ],
          "data": "0x0000000000000000000000004d1b4d2240a8e09f5b0ae3adb90322706d59ef5d0000000000000000000000000000000000000000000000000000000000000000",
          "blockHash": "0x0c6b6a6bcee4d4c9b5671e26f70f07a8f9bd40efa397c1bdb0a897b1a90e5f52",
          "blockNumber": "0xf7c8d1d",
          "blockTimestamp": "0x69df77cb",
          "transactionHash": "0xdfe8f7f3deb3b5a372a91e44be070b28eb8f7da6b482eff125f5f2e35864a0f7",
          "transactionIndex": "0x1",
          "logIndex": "0x0",
          "removed": false
        }
      ],
      "logsBloom": "0x00000400000000002000000000800000000000000000000000000000000000000000000000000000000000000000000000000000000000000000000000000000000000000000000000000000000000000100000020000000000000000000000000000000000000000000000020000000000000000000000000000000000000000080000000000000000000000000000000000000000000000000000000000000000000000000000000000000000000000000000000000000000000000000000000000000000000000000000000200000000000400000000000000000000000000000000000000000000000000000000000000000000000000000000000000000",
      "type": "0x2",
      "transactionHash": "0xdfe8f7f3deb3b5a372a91e44be070b28eb8f7da6b482eff125f5f2e35864a0f7",
      "transactionIndex": "0x1",
      "blockHash": "0x0c6b6a6bcee4d4c9b5671e26f70f07a8f9bd40efa397c1bdb0a897b1a90e5f52",
      "blockNumber": "0xf7c8d1d",
      "gasUsed": "0x1f0d6",
      "effectiveGasPrice": "0x1313ca0",
      "from": "0x05f8cc8753d90d67dbb8c02118440b8283f941c9",
      "to": "0x8badd5256a22f3452afbfeec3a3caf3f98173c25",
      "contractAddress": null,
      "gasUsedForL1": "0x18e1",
      "l1BlockNumber": "0xa2ba3d",
      "timeboosted": false
    },
    {
      "status": "0x1",
      "cumulativeGasUsed": "0x1ad8e",
      "logs": [
        {
          "address": "0x8badd5256a22f3452afbfeec3a3caf3f98173c25",
          "topics": [
            "0xa86330cede453edbe00d0dbe74ee3bdbac6d7b048009b0d72d54aa609df01a71",
            "0xdee0b34b74b60e53553685c32477090103c2b806eb925a8cd000efa92bef3e8b"
          ],
          "data": "0x000000000000000000000000ed802bbe7b0325c950355b0a10cbef406b2520bc0000000000000000000000000000000000000000000000000000000000000000",
          "blockHash": "0x6b6ccfe40bd53c296e2fccb9df19fc656afca8c96d7b5d588996d7a7f6bad4b1",
          "blockNumber": "0xf7c8d28",
          "blockTimestamp": "0x69df77cd",
          "transactionHash": "0x044159850adf1c3eebbf57495d47f79b008da8c0b5e253f8b34abe6006dcced9",
          "transactionIndex": "0x1",
          "logIndex": "0x0",
          "removed": false
        }
      ],
      "logsBloom": "0x00000000000000002000000000800000000000000000000000000000000000000000000000000000000000000000000000000000000000000000000000000000000000000000000000000000000000000100000000000040000000000000000000000000000000000000000000000000000000000000000000000000000000000080000000000004000000000000000000000000000000000000000000000000000000000000000000000000000000000000000000000000000000000000000000000000000000000000000000200000000000400000000000000000000000000000000000000000000000000000100000000000000000000000000000000000",
      "type": "0x2",
      "transactionHash": "0x044159850adf1c3eebbf57495d47f79b008da8c0b5e253f8b34abe6006dcced9",
      "transactionIndex": "0x1",
      "blockHash": "0x6b6ccfe40bd53c296e2fccb9df19fc656afca8c96d7b5d588996d7a7f6bad4b1",
      "blockNumber": "0xf7c8d28",
      "gasUsed": "0x1ad8e",
      "effectiveGasPrice": "0x1315410",
      "from": "0x05f8cc8753d90d67dbb8c02118440b8283f941c9",
      "to": "0x8badd5256a22f3452afbfeec3a3caf3f98173c25",
      "contractAddress": null,
      "gasUsedForL1": "0x18df",
      "l1BlockNumber": "0xa2ba3d",
      "timeboosted": false
    },
    {
      "status": "0x1",
      "cumulativeGasUsed": "0xcd5c",
      "logs": [],
      "logsBloom": "0x00000000000000000000000000000000000000000000000000000000000000000000000000000000000000000000000000000000000000000000000000000000000000000000000000000000000000000000000000000000000000000000000000000000000000000000000000000000000000000000000000000000000000000000000000000000000000000000000000000000000000000000000000000000000000000000000000000000000000000000000000000000000000000000000000000000000000000000000000000000000000000000000000000000000000000000000000000000000000000000000000000000000000000000000000000000",
      "type": "0x2",
      "transactionHash": "0x2ef6d457349698f8a5ca8a36d5ef0ab696080d575378597d5f59e11afbe23aab",
      "transactionIndex": "0x1",
      "blockHash": "0x47128efc2fc23315096473ff71ae34ec1f673642546eec0e784fb1c17e08f3d5",
      "blockNumber": "0xf7c8d33",
      "gasUsed": "0xcd5c",
      "effectiveGasPrice": "0x1313ca0",
      "from": "0x05f8cc8753d90d67dbb8c02118440b8283f941c9",
      "to": "0xb2abe546163021d539e4cc991354c29a124b38ce",
      "contractAddress": null,
      "gasUsedForL1": "0x18e1",
      "l1BlockNumber": "0xa2ba3d",
      "timeboosted": false
    },
    {
      "status": "0x1",
      "cumulativeGasUsed": "0xcd5d",
      "logs": [],
      "logsBloom": "0x00000000000000000000000000000000000000000000000000000000000000000000000000000000000000000000000000000000000000000000000000000000000000000000000000000000000000000000000000000000000000000000000000000000000000000000000000000000000000000000000000000000000000000000000000000000000000000000000000000000000000000000000000000000000000000000000000000000000000000000000000000000000000000000000000000000000000000000000000000000000000000000000000000000000000000000000000000000000000000000000000000000000000000000000000000000",
      "type": "0x2",
      "transactionHash": "0xa3781eb82f8a949076ab0509bcca299881e289d85437ead1ab205d40b29edbcb",
      "transactionIndex": "0x1",
      "blockHash": "0xcee76b017b4906f530d74db33ccb68475919c62fa808c03b8d3a05db06d482b7",
      "blockNumber": "0xf7c8d42",
      "gasUsed": "0xcd5d",
      "effectiveGasPrice": "0x1312d00",
      "from": "0x05f8cc8753d90d67dbb8c02118440b8283f941c9",
      "to": "0xb2abe546163021d539e4cc991354c29a124b38ce",
      "contractAddress": null,
      "gasUsedForL1": "0x18e2",
      "l1BlockNumber": "0xa2ba3d",
      "timeboosted": false
    },
    {
      "status": "0x1",
      "cumulativeGasUsed": "0xd2e0",
      "logs": [],
      "logsBloom": "0x00000000000000000000000000000000000000000000000000000000000000000000000000000000000000000000000000000000000000000000000000000000000000000000000000000000000000000000000000000000000000000000000000000000000000000000000000000000000000000000000000000000000000000000000000000000000000000000000000000000000000000000000000000000000000000000000000000000000000000000000000000000000000000000000000000000000000000000000000000000000000000000000000000000000000000000000000000000000000000000000000000000000000000000000000000000",
      "type": "0x2",
      "transactionHash": "0xace155fd423b29e2dc4c90568fa9b6d30fe20703e5fc15772a51394633fcb114",
      "transactionIndex": "0x1",
      "blockHash": "0x84f0fd9127413756eafdef4ca496cabcec563a0f3a111c09f643b306711e3ba1",
      "blockNumber": "0xf7c8d44",
      "gasUsed": "0xd2e0",
      "effectiveGasPrice": "0x1312d00",
      "from": "0x05f8cc8753d90d67dbb8c02118440b8283f941c9",
      "to": "0x4d1b4d2240a8e09f5b0ae3adb90322706d59ef5d",
      "contractAddress": null,
      "gasUsedForL1": "0x1e5c",
      "l1BlockNumber": "0xa2ba3e",
      "timeboosted": false
    },
    {
      "status": "0x1",
      "cumulativeGasUsed": "0xd35e",
      "logs": [],
      "logsBloom": "0x00000000000000000000000000000000000000000000000000000000000000000000000000000000000000000000000000000000000000000000000000000000000000000000000000000000000000000000000000000000000000000000000000000000000000000000000000000000000000000000000000000000000000000000000000000000000000000000000000000000000000000000000000000000000000000000000000000000000000000000000000000000000000000000000000000000000000000000000000000000000000000000000000000000000000000000000000000000000000000000000000000000000000000000000000000000",
      "type": "0x2",
      "transactionHash": "0x0291bee757c11a3c571c04ce738ebbe5d5824f5691bd6cc56d507ad843a66e47",
      "transactionIndex": "0x1",
      "blockHash": "0xde18a386a6d1ec87a74f92c93d8c8cc041373c00a36643ec9427a8b78a03d417",
      "blockNumber": "0xf7c8d4a",
      "gasUsed": "0xd35e",
      "effectiveGasPrice": "0x1315410",
      "from": "0x05f8cc8753d90d67dbb8c02118440b8283f941c9",
      "to": "0x4d1b4d2240a8e09f5b0ae3adb90322706d59ef5d",
      "contractAddress": null,
      "gasUsedForL1": "0x1e58",
      "l1BlockNumber": "0xa2ba3e",
      "timeboosted": false
    },
    {
      "status": "0x1",
      "cumulativeGasUsed": "0x843c",
      "logs": [],
      "logsBloom": "0x00000000000000000000000000000000000000000000000000000000000000000000000000000000000000000000000000000000000000000000000000000000000000000000000000000000000000000000000000000000000000000000000000000000000000000000000000000000000000000000000000000000000000000000000000000000000000000000000000000000000000000000000000000000000000000000000000000000000000000000000000000000000000000000000000000000000000000000000000000000000000000000000000000000000000000000000000000000000000000000000000000000000000000000000000000000",
      "type": "0x2",
      "transactionHash": "0x3beb30e0a3b67faead5c7b1398cbd7881ea1da5097fd06c85b0e63baa9b4887f",
      "transactionIndex": "0x1",
      "blockHash": "0x92e8ff1acefea845a8e1c3299ed9600da2f90d5bbf8f43843d4ef424801d3b56",
      "blockNumber": "0xf7c8d4f",
      "gasUsed": "0x843c",
      "effectiveGasPrice": "0x13134d0",
      "from": "0x05f8cc8753d90d67dbb8c02118440b8283f941c9",
      "to": "0x4d1b4d2240a8e09f5b0ae3adb90322706d59ef5d",
      "contractAddress": null,
      "gasUsedForL1": "0x1e30",
      "l1BlockNumber": "0xa2ba3e",
      "timeboosted": false
    },
    {
      "status": "0x1",
      "cumulativeGasUsed": "0x91df6",
      "logs": [],
      "logsBloom": "0x00000000000000000000000000000000000000000000000000000000000000000000000000000000000000000000000000000000000000000000000000000000000000000000000000000000000000000000000000000000000000000000000000000000000000000000000000000000000000000000000000000000000000000000000000000000000000000000000000000000000000000000000000000000000000000000000000000000000000000000000000000000000000000000000000000000000000000000000000000000000000000000000000000000000000000000000000000000000000000000000000000000000000000000000000000000",
      "type": "0x2",
      "transactionHash": "0xb4009f83c19bcb84212b46e9384f07c6d31d19f4ac7689e3883a09877de295c0",
      "transactionIndex": "0x3",
      "blockHash": "0xf4a5ffb76e09a43ed456398a826475fcb929a9b3a19d4f723492465883b84055",
      "blockNumber": "0xf7c8d57",
      "gasUsed": "0x19c78",
      "effectiveGasPrice": "0x13163b0",
      "from": "0x05f8cc8753d90d67dbb8c02118440b8283f941c9",
      "to": "0xed802bbe7b0325c950355b0a10cbef406b2520bc",
      "contractAddress": null,
      "gasUsedForL1": "0x333a",
      "l1BlockNumber": "0xa2ba3e",
      "timeboosted": false
    },
    {
      "status": "0x1",
      "cumulativeGasUsed": "0xf642",
      "logs": [
        {
          "address": "0x6671f536193478372c5ef348b353eed4625c2b2e",
          "topics": [
            "0xc4be60cee9fada79d250ef87fe6761acee8c4f919f811b4095a42b9553da7d71"
          ],
          "data": "0x000000000000000000000000000000000000000000000000000000000000006000000000000000000000000000000000000000000000000000000000000000a00000000000000000000000000000000000000000000000000000000000000001000000000000000000000000000000000000000000000000000000000000000c626173652d7365706f6c69610000000000000000000000000000000000000000000000000000000000000000000000000000000000000000000000000000002a30786130663665393663313664303534616430666639666362303237636465633339623566353063326600000000000000000000000000000000000000000000",
          "blockHash": "0x6fe8510ccdd6ade6b798190561c377ac3c602b2d249357b3f552860da823ffd1",
          "blockNumber": "0xf7c8d5e",
          "blockTimestamp": "0x69df77de",
          "transactionHash": "0xcbf71d8473c919328ffe01dd32e52f12ca9da9d4d2cad0b0090ef7619a0dfe3d",
          "transactionIndex": "0x1",
          "logIndex": "0x0",
          "removed": false
        }
      ],
      "logsBloom": "0x00000000000000000000000000000000000040000000000000000000000000000000000000000004000000000000000000000000000000000100000000000000000000000000000000000000000000000000000000000000000000000000000000000000000000000000000000000000000000000000000000000000001000000000000000000000000000000000000000000000000000000000000000000000004000000000000000000000000000000000000000000000000000000000000000800000000000000000000000000000000000000000000000000000000000000000000000000000000000000000000000000000000000000000000000000000",
      "type": "0x2",
      "transactionHash": "0xcbf71d8473c919328ffe01dd32e52f12ca9da9d4d2cad0b0090ef7619a0dfe3d",
      "transactionIndex": "0x1",
      "blockHash": "0x6fe8510ccdd6ade6b798190561c377ac3c602b2d249357b3f552860da823ffd1",
      "blockNumber": "0xf7c8d5e",
      "gasUsed": "0xf642",
      "effectiveGasPrice": "0x131e880",
      "from": "0x05f8cc8753d90d67dbb8c02118440b8283f941c9",
      "to": "0x6671f536193478372c5ef348b353eed4625c2b2e",
      "contractAddress": null,
      "gasUsedForL1": "0x2caf",
      "l1BlockNumber": "0xa2ba3e",
      "timeboosted": false
    }
  ],
  "libraries": [],
  "pending": [],
  "returns": {},
  "timestamp": 1776252895479,
  "chain": 421614,
  "commit": "adc3b16"
}