{
  "transactions": [
    {
      "hash": "0xb9d44b3649f21cc6afea131d2fa679dce8bb01a18de4acad050cfaed81284642",
      "transactionType": "CALL",
      "contractName": null,
      "contractAddress": "0x4886016e3ba0ab33891cdcaa441ea1a19026303d",
      "function": "registerRailPlugin(address)",
      "arguments": [
        "0xd8138130E078694Ccc45E8201bB7bB48cdB9d764"
      ],
      "transaction": {
        "from": "0x05f8cc8753d90d67dbb8c02118440b8283f941c9",
        "to": "0x4886016e3ba0ab33891cdcaa441ea1a19026303d",
        "gas": "0x2834e",
        "value": "0x0",
        "input": "0x172ceb34000000000000000000000000d8138130e078694ccc45e8201bb7bb48cdb9d764",
        "nonce": "0xf5",
        "chainId": "0x66eee"
      },
      "additionalContracts": [],
      "isFixedGasLimit": false
    },
    {
      "hash": "0x79f16b30b42da6d6523b90335ff55f2c9757b738f8457811b87fbb62b351db71",
      "transactionType": "CALL",
      "contractName": null,
      "contractAddress": "0x14efac395eff2a422ce551a59cf8a6984bb6ec53",
      "function": "addApprovedCaller(address)",
      "arguments": [
        "0x4392E30Ddd3bA7a318DE9D5EF8f7b4254f0d7Bc6"
      ],
      "transaction": {
        "from": "0x05f8cc8753d90d67dbb8c02118440b8283f941c9",
        "to": "0x14efac395eff2a422ce551a59cf8a6984bb6ec53",
        "gas": "0x1059e",
        "value": "0x0",
        "input": "0xab5cb85a0000000000000000000000004392e30ddd3ba7a318de9d5ef8f7b4254f0d7bc6",
        "nonce": "0xf6",
        "chainId": "0x66eee"
      },
      "additionalContracts": [],
      "isFixedGasLimit": false
    },
    {
      "hash": "0x0aa7838213961e4fb80fd57e33a5fd940a0f1f7d868433bf38ef5da113074454",
      "transactionType": "CALL",
      "contractName": null,
      "contractAddress": "0xd8138130e078694ccc45e8201bb7bb48cdb9d764",
      "function": "setRouteConfig(uint32,uint32,address,bytes)",
      "arguments": [
        "11155420",
        "40232",
        "0x4392E30Ddd3bA7a318DE9D5EF8f7b4254f0d7Bc6",
        "0x00030100110100000000000000000000000000030d4001001303000000000000000000000000000000061a80"
      ],
      "transaction": {
        "from": "0x05f8cc8753d90d67dbb8c02118440b8283f941c9",
        "to": "0xd8138130e078694ccc45e8201bb7bb48cdb9d764",
        "gas": "0x2e897",
        "value": "0x0",
        "input": "0xd5bfb7fa0000000000000000000000000000000000000000000000000000000000aa37dc0000000000000000000000000000000000000000000000000000000000009d280000000000000000000000004392e30ddd3ba7a318de9d5ef8f7b4254f0d7bc60000000000000000000000000000000000000000000000000000000000000080000000000000000000000000000000000000000000000000000000000000002c00030100110100000000000000000000000000030d4001001303000000000000000000000000000000061a800000000000000000000000000000000000000000",
        "nonce": "0xf7",
        "chainId": "0x66eee"
      },
      "additionalContracts": [],
      "isFixedGasLimit": false
    },
    {
      "hash": "0xb750544f509e40b31e1d27958c865e67f81fd788c182ff5a38ed7030c364de42",
      "transactionType": "CALL",
      "contractName": null,
      "contractAddress": "0x82fbdf627599d8cbab7ef85ff40082679fb98610",
      "function": "setTrustedPeerAddress(uint32,address)",
      "arguments": [
        "40231",
        "0xd8138130E078694Ccc45E8201bB7bB48cdB9d764"
      ],
      "transaction": {
        "from": "0x05f8cc8753d90d67dbb8c02118440b8283f941c9",
        "to": "0x82fbdf627599d8cbab7ef85ff40082679fb98610",
        "gas": "0x11524",
        "value": "0x0",
        "input": "0x60c5965f0000000000000000000000000000000000000000000000000000000000009d27000000000000000000000000d8138130e078694ccc45e8201bb7bb48cdb9d764",
        "nonce": "0xf8",
        "chainId": "0x66eee"
      },
      "additionalContracts": [],
      "isFixedGasLimit": false
    }
  ],
  "receipts": [
    {
      "status": "0x1",
      "cumulativeGasUsed": "0x1e690",
      "logs": [
        {
          "address": "0x4886016e3ba0ab33891cdcaa441ea1a19026303d",
          "topics": [
            "0xa86330cede453edbe00d0dbe74ee3bdbac6d7b048009b0d72d54aa609df01a71",
            "0xc472efb7b9a986e1446d8bf9dec51e88548a1d8eb4a0810e6424d97a878d34fc"
          ],
          "data": "0x000000000000000000000000d8138130e078694ccc45e8201bb7bb48cdb9d7640000000000000000000000000000000000000000000000000000000000000000",
          "blockHash": "0x2da40c225c7c923d5208b3cdf1831d5f65d609484193209b8c00c6d8b3024a5b",
          "blockNumber": "0xf81ee37",
          "blockTimestamp": "0x69e10c66",
          "transactionHash": "0xb9d44b3649f21cc6afea131d2fa679dce8bb01a18de4acad050cfaed81284642",
          "transactionIndex": "0x1",
          "logIndex": "0x0",
          "removed": false
        }
      ],
      "logsBloom": "0x00000000000000002000000000000001000000000000010001000000000000000000000000000000000000000000000000000000000000000000000000000000000000000000000000000000000000000000000000000000000000000000000000000800000000000000000000000000000040000000000000000000000000000000000000000000000000000000000000000000000000000000000000000000000002000000000000000000000000000000000000000000000000000000000000000000000000000000000000200000000000400000000000000000000000000000000000000000000000000000000000000000000000000000000000000000",
      "type": "0x2",
      "transactionHash": "0xb9d44b3649f21cc6afea131d2fa679dce8bb01a18de4acad050cfaed81284642",
      "transactionIndex": "0x1",
      "blockHash": "0x2da40c225c7c923d5208b3cdf1831d5f65d609484193209b8c00c6d8b3024a5b",
      "blockNumber": "0xf81ee37",
      "gasUsed": "0x1e690",
      "effectiveGasPrice": "0x1318ac0",
      "from": "0x05f8cc8753d90d67dbb8c02118440b8283f941c9",
      "to": "0x4886016e3ba0ab33891cdcaa441ea1a19026303d",
      "contractAddress": null,
      "gasUsedForL1": "0xf2b",
      "l1BlockNumber": "0xa2d8e4",
      "timeboosted": false
    },
    {
      "status": "0x1",
      "cumulativeGasUsed": "0xc3ab",
      "logs": [],
      "logsBloom": "0x00000000000000000000000000000000000000000000000000000000000000000000000000000000000000000000000000000000000000000000000000000000000000000000000000000000000000000000000000000000000000000000000000000000000000000000000000000000000000000000000000000000000000000000000000000000000000000000000000000000000000000000000000000000000000000000000000000000000000000000000000000000000000000000000000000000000000000000000000000000000000000000000000000000000000000000000000000000000000000000000000000000000000000000000000000000",
      "type": "0x2",
      "transactionHash": "0x79f16b30b42da6d6523b90335ff55f2c9757b738f8457811b87fbb62b351db71",
      "transactionIndex": "0x1",
      "blockHash": "0x83395e8600f8a15294c72117544cfefd774ac58f7aa9bf32003a3f0eebcf3751",
      "blockNumber": "0xf81ee3d",
      "gasUsed": "0xc3ab",
      "effectiveGasPrice": "0x13134d0",
      "from": "0x05f8cc8753d90d67dbb8c02118440b8283f941c9",
      "to": "0x14efac395eff2a422ce551a59cf8a6984bb6ec53",
      "contractAddress": null,
      "gasUsedForL1": "0xf30",
      "l1BlockNumber": "0xa2d8e4",
      "timeboosted": false
    },
    {
      "status": "0x1",
      "cumulativeGasUsed": "0x3ef91",
      "logs": [],
      "logsBloom": "0x00000000000000000000000000000000000000000000000000000000000000000000000000000000000000000000000000000000000000000000000000000000000000000000000000000000000000000000000000000000000000000000000000000000000000000000000000000000000000000000000000000000000000000000000000000000000000000000000000000000000000000000000000000000000000000000000000000000000000000000000000000000000000000000000000000000000000000000000000000000000000000000000000000000000000000000000000000000000000000000000000000000000000000000000000000000",
      "type": "0x2",
      "transactionHash": "0x0aa7838213961e4fb80fd57e33a5fd940a0f1f7d868433bf38ef5da113074454",
      "transactionIndex": "0x2",
      "blockHash": "0x140664462e45a04b7e9a404ca38a3bb8325f3924d147605566d1cedb602cbe48",
      "blockNumber": "0xf81ee45",
      "gasUsed": "0x232c5",
      "effectiveGasPrice": "0x13134d0",
      "from": "0x05f8cc8753d90d67dbb8c02118440b8283f941c9",
      "to": "0xd8138130e078694ccc45e8201bb7bb48cdb9d764",
      "contractAddress": null,
      "gasUsedForL1": "0x1cf5",
      "l1BlockNumber": "0xa2d8e4",
      "timeboosted": false
    },
    {
      "status": "0x1",
      "cumulativeGasUsed": "0xcda9",
      "logs": [
        {
          "address": "0x82fbdf627599d8cbab7ef85ff40082679fb98610",
          "topics": [
            "0x096f300665a57908ac1627e5a821ea670d2a90da7c601a19bf265f8553453f28",
            "0x0000000000000000000000000000000000000000000000000000000000009d27",
            "0x000000000000000000000000d8138130e078694ccc45e8201bb7bb48cdb9d764"
          ],
          "data": "0x",
          "blockHash": "0x0862d33fc40a25609bd63afb9c48ee2e32a794d95adc0ddf2b85f05e53ed32a0",
          "blockNumber": "0xf81ee50",
          "blockTimestamp": "0x69e10c6f",
          "transactionHash": "0xb750544f509e40b31e1d27958c865e67f81fd788c182ff5a38ed7030c364de42",
          "transactionIndex": "0x1",
          "logIndex": "0x0",
          "removed": false
        }
      ],
      "logsBloom": "0x00000000000001000000000100000000000000000000000000000000000000000000000000000000000000000000000000000000000000020000000000000000000000400000000000000000000000000000000000000001000000000000000000000000000040000004000000000000000000000000000000000000000000000000000000000000000000000000000002000000000004000000000000000000000000000000000000100000000000000000000000000000000000000000000000000000000000000100000000000000000000000000000000000000000040000000000000000000000000000000000000000000000000000000000000000000",
      "type": "0x2",
      "transactionHash": "0xb750544f509e40b31e1d27958c865e67f81fd788c182ff5a38ed7030c364de42",
      "transactionIndex": "0x1",
      "blockHash": "0x0862d33fc40a25609bd63afb9c48ee2e32a794d95adc0ddf2b85f05e53ed32a0",
      "blockNumber": "0xf81ee50",
      "gasUsed": "0xcda9",
      "effectiveGasPrice": "0x1312d00",
      "from": "0x05f8cc8753d90d67dbb8c02118440b8283f941c9",
      "to": "0x82fbdf627599d8cbab7ef85ff40082679fb98610",
      "contractAddress": null,
      "gasUsedForL1": "0x1287",
      "l1BlockNumber": "0xa2d8e4",
      "timeboosted": false
    }
  ],
  "libraries": [],
  "pending": [],
  "returns": {},
  "timestamp": 1776356466352,
  "chain": 421614,
  "commit": "27e74a4"
}