{
  "transactions": [
    {
      "hash": "0x861c46e6d1ced6ec3d3daad35e0700b6cc61111735b126f2c24298610c7a79cf",
      "transactionType": "CALL",
      "contractName": null,
      "contractAddress": "0x1b7eb489eb0ae102720442fe15b0e08653a13404",
      "function": "addApprovedCaller(address)",
      "arguments": [
        "0x1b7Eb489EB0AE102720442Fe15b0e08653A13404"
      ],
      "transaction": {
        "from": "0x05f8cc8753d90d67dbb8c02118440b8283f941c9",
        "to": "0x1b7eb489eb0ae102720442fe15b0e08653a13404",
        "gas": "0xec90",
        "value": "0x0",
        "input": "0xab5cb85a0000000000000000000000001b7eb489eb0ae102720442fe15b0e08653a13404",
        "nonce": "0xc8",
        "chainId": "0x66eee"
      },
      "additionalContracts": [],
      "isFixedGasLimit": false
    },
    {
      "hash": "0xf2e19494fd81f592bd89deb3b4a3d6855a57fd38a6f4fb628c8fd629781c030e",
      "transactionType": "CALL",
      "contractName": null,
      "contractAddress": "0x050c6c2555c2d54aba01420fbc02ff0f1d10e8df",
      "function": "setChainDomain(uint32,uint32)",
      "arguments": [
        "84532",
        "6"
      ],
      "transaction": {
        "from": "0x05f8cc8753d90d67dbb8c02118440b8283f941c9",
        "to": "0x050c6c2555c2d54aba01420fbc02ff0f1d10e8df",
        "gas": "0x91f5",
        "value": "0x0",
        "input": "0x7ef0d2870000000000000000000000000000000000000000000000000000000000014a340000000000000000000000000000000000000000000000000000000000000006",
        "nonce": "0xc9",
        "chainId": "0x66eee"
      },
      "additionalContracts": [],
      "isFixedGasLimit": false
    },
    {
      "hash": "0x3275860c6584d0a0de85ce5c5ab924fa51a4e8722b61b5ad15ecf4c3d9240491",
      "transactionType": "CALL",
      "contractName": null,
      "contractAddress": "0x050c6c2555c2d54aba01420fbc02ff0f1d10e8df",
      "function": "setDestinationReceiver(uint32,bytes32)",
      "arguments": [
        "84532",
        "0x00000000000000000000000032c486ecd4dd5a45e5a63a7aa8812b5ccfd71740"
      ],
      "transaction": {
        "from": "0x05f8cc8753d90d67dbb8c02118440b8283f941c9",
        "to": "0x050c6c2555c2d54aba01420fbc02ff0f1d10e8df",
        "gas": "0x87e7",
        "value": "0x0",
        "input": "0x0267dd6c0000000000000000000000000000000000000000000000000000000000014a3400000000000000000000000032c486ecd4dd5a45e5a63a7aa8812b5ccfd71740",
        "nonce": "0xca",
        "chainId": "0x66eee"
      },
      "additionalContracts": [],
      "isFixedGasLimit": false
    },
    {
      "hash": "0x374461db7d6a772c1f12dc223de7a709346d9545157ae45d69faeaa2e5dcf584",
      "transactionType": "CALL",
      "contractName": null,
      "contractAddress": "0xdb403792c55bfe26beaef235986d4f106e40ee6f",
      "function": "setRouteConfig(uint32,string,address,bytes32)",
      "arguments": [
        "84532",
        "base-sepolia",
        "0x438ea39C5A52D90b1d9E599DB7F150e5A52a012d",
        "0x8351ce1d9b08b0ec2add9de7e893e4a216235576cd4074bbacb0b9fb9b8f68c6"
      ],
      "transaction": {
        "from": "0x05f8cc8753d90d67dbb8c02118440b8283f941c9",
        "to": "0xdb403792c55bfe26beaef235986d4f106e40ee6f",
        "gas": "0xb680",
        "value": "0x0",
        "input": "0x7513a82a0000000000000000000000000000000000000000000000000000000000014a340000000000000000000000000000000000000000000000000000000000000080000000000000000000000000438ea39c5a52d90b1d9e599db7f150e5a52a012d8351ce1d9b08b0ec2add9de7e893e4a216235576cd4074bbacb0b9fb9b8f68c6000000000000000000000000000000000000000000000000000000000000000c626173652d7365706f6c69610000000000000000000000000000000000000000",
        "nonce": "0xcb",
        "chainId": "0x66eee"
      },
      "additionalContracts": [],
      "isFixedGasLimit": false
    }
  ],
  "receipts": [
    {
      "status": "0x1",
      "cumulativeGasUsed": "0xb47b",
      "logs": [],
      "logsBloom": "0x00000000000000000000000000000000000000000000000000000000000000000000000000000000000000000000000000000000000000000000000000000000000000000000000000000000000000000000000000000000000000000000000000000000000000000000000000000000000000000000000000000000000000000000000000000000000000000000000000000000000000000000000000000000000000000000000000000000000000000000000000000000000000000000000000000000000000000000000000000000000000000000000000000000000000000000000000000000000000000000000000000000000000000000000000000000",
      "type": "0x2",
      "transactionHash": "0x861c46e6d1ced6ec3d3daad35e0700b6cc61111735b126f2c24298610c7a79cf",
      "transactionIndex": "0x1",
      "blockHash": "0x958edf9d7fba4327c814ff7b37fd1b8a77807a769b935e93c2ea439578326b12",
      "blockNumber": "0xf7430e1",
      "gasUsed": "0xb47b",
      "effectiveGasPrice": "0x1312d00",
      "from": "0x05f8cc8753d90d67dbb8c02118440b8283f941c9",
      "to": "0x1b7eb489eb0ae102720442fe15b0e08653a13404",
      "contractAddress": null,
      "gasUsedForL1": "0x0",
      "l1BlockNumber": "0xa28b94",
      "timeboosted": false
    },
    {
      "status": "0x1",
      "cumulativeGasUsed": "0x66de",
      "logs": [],
      "logsBloom": "0x00000000000000000000000000000000000000000000000000000000000000000000000000000000000000000000000000000000000000000000000000000000000000000000000000000000000000000000000000000000000000000000000000000000000000000000000000000000000000000000000000000000000000000000000000000000000000000000000000000000000000000000000000000000000000000000000000000000000000000000000000000000000000000000000000000000000000000000000000000000000000000000000000000000000000000000000000000000000000000000000000000000000000000000000000000000",
      "type": "0x2",
      "transactionHash": "0xf2e19494fd81f592bd89deb3b4a3d6855a57fd38a6f4fb628c8fd629781c030e",
      "transactionIndex": "0x1",
      "blockHash": "0x3ada1b835ad1348ad9d2fb8f17e2edd3837bea579ae510032ff26e44da80363f",
      "blockNumber": "0xf7430ed",
      "gasUsed": "0x66de",
      "effectiveGasPrice": "0x1313ca0",
      "from": "0x05f8cc8753d90d67dbb8c02118440b8283f941c9",
      "to": "0x050c6c2555c2d54aba01420fbc02ff0f1d10e8df",
      "contractAddress": null,
      "gasUsedForL1": "0x0",
      "l1BlockNumber": "0xa28b94",
      "timeboosted": false
    },
    {
      "status": "0x1",
      "cumulativeGasUsed": "0x1217f",
      "logs": [],
      "logsBloom": "0x00000000000000000000000000000000000000000000000000000000000000000000000000000000000000000000000000000000000000000000000000000000000000000000000000000000000000000000000000000000000000000000000000000000000000000000000000000000000000000000000000000000000000000000000000000000000000000000000000000000000000000000000000000000000000000000000000000000000000000000000000000000000000000000000000000000000000000000000000000000000000000000000000000000000000000000000000000000000000000000000000000000000000000000000000000000",
      "type": "0x2",
      "transactionHash": "0x3275860c6584d0a0de85ce5c5ab924fa51a4e8722b61b5ad15ecf4c3d9240491",
      "transactionIndex": "0x3",
      "blockHash": "0x614398eb1e540a50f87de7f138bb50f9fa0ff1b8aa0ce64dc7071acc6c745707",
      "blockNumber": "0xf7430f3",
      "gasUsed": "0x6734",
      "effectiveGasPrice": "0x1312d00",
      "from": "0x05f8cc8753d90d67dbb8c02118440b8283f941c9",
      "to": "0x050c6c2555c2d54aba01420fbc02ff0f1d10e8df",
      "contractAddress": null,
      "gasUsedForL1": "0x0",
      "l1BlockNumber": "0xa28b94",
      "timeboosted": false
    },
    {
      "status": "0x1",
      "cumulativeGasUsed": "0x8afa",
      "logs": [],
      "logsBloom": "0x00000000000000000000000000000000000000000000000000000000000000000000000000000000000000000000000000000000000000000000000000000000000000000000000000000000000000000000000000000000000000000000000000000000000000000000000000000000000000000000000000000000000000000000000000000000000000000000000000000000000000000000000000000000000000000000000000000000000000000000000000000000000000000000000000000000000000000000000000000000000000000000000000000000000000000000000000000000000000000000000000000000000000000000000000000000",
      "type": "0x2",
      "transactionHash": "0x374461db7d6a772c1f12dc223de7a709346d9545157ae45d69faeaa2e5dcf584",
      "transactionIndex": "0x1",
      "blockHash": "0x6c7a5dbddc4a2356c97f67230bdd7bb965b8d61eda34dc6d2e86c5a47c844e06",
      "blockNumber": "0xf7430fd",
      "gasUsed": "0x8afa",
      "effectiveGasPrice": "0x1315410",
      "from": "0x05f8cc8753d90d67dbb8c02118440b8283f941c9",
      "to": "0xdb403792c55bfe26beaef235986d4f106e40ee6f",
      "contractAddress": null,
      "gasUsedForL1": "0x0",
      "l1BlockNumber": "0xa28b94",
      "timeboosted": false
    }
  ],
  "libraries": [],
  "pending": [],
  "returns": {},
  "timestamp": 1776102460987,
  "chain": 421614,
  "commit": "b3b4aa7"
}