{
  "transactions": [
    {
      "hash": "0x55ad9f59b9e61c5515d28d3848257ca8eab5c1528fdd99f5e17a0224d84eb0b2",
      "transactionType": "CALL",
      "contractName": null,
      "contractAddress": "0xb2abe546163021d539e4cc991354c29a124b38ce",
      "function": "addApprovedCaller(address)",
      "arguments": [
        "0x6671F536193478372c5ef348B353eEd4625C2B2e"
      ],
      "transaction": {
        "from": "0x05f8cc8753d90d67dbb8c02118440b8283f941c9",
        "to": "0xb2abe546163021d539e4cc991354c29a124b38ce",
        "gas": "0x10c6b",
        "value": "0x0",
        "input": "0xab5cb85a0000000000000000000000006671f536193478372c5ef348b353eed4625c2b2e",
        "nonce": "0xf9",
        "chainId": "0x66eee"
      },
      "additionalContracts": [],
      "isFixedGasLimit": false
    },
    {
      "hash": "0x9c08508484fa8faae7a1f0402b5a7eea23091450f0d6f3b5069bf0b58f42d3fa",
      "transactionType": "CALL",
      "contractName": null,
      "contractAddress": "0xb2abe546163021d539e4cc991354c29a124b38ce",
      "function": "addApprovedCaller(address)",
      "arguments": [
        "0x05F8cC8753D90d67DBB8c02118440b8283F941c9"
      ],
      "transaction": {
        "from": "0x05f8cc8753d90d67dbb8c02118440b8283f941c9",
        "to": "0xb2abe546163021d539e4cc991354c29a124b38ce",
        "gas": "0x10c6b",
        "value": "0x0",
        "input": "0xab5cb85a00000000000000000000000005f8cc8753d90d67dbb8c02118440b8283f941c9",
        "nonce": "0xfa",
        "chainId": "0x66eee"
      },
      "additionalContracts": [],
      "isFixedGasLimit": false
    },
    {
      "hash": "0x9e0a3374c3d0f4629cfc0c694905dca57a672af89fba689a9e2438e50e1c0168",
      "transactionType": "CALL",
      "contractName": null,
      "contractAddress": "0x4d1b4d2240a8e09f5b0ae3adb90322706d59ef5d",
      "function": "setChainDomain(uint32,uint32)",
      "arguments": [
        "84532",
        "6"
      ],
      "transaction": {
        "from": "0x05f8cc8753d90d67dbb8c02118440b8283f941c9",
        "to": "0x4d1b4d2240a8e09f5b0ae3adb90322706d59ef5d",
        "gas": "0x12474",
        "value": "0x0",
        "input": "0x7ef0d2870000000000000000000000000000000000000000000000000000000000014a340000000000000000000000000000000000000000000000000000000000000006",
        "nonce": "0xfb",
        "chainId": "0x66eee"
      },
      "additionalContracts": [],
      "isFixedGasLimit": false
    },
    {
      "hash": "0xf37dc8badeea8740c800e1b6a55cdef980dfa6171ba0cdda791275f2bb082506",
      "transactionType": "CALL",
      "contractName": null,
      "contractAddress": "0x4d1b4d2240a8e09f5b0ae3adb90322706d59ef5d",
      "function": "setDestinationReceiver(uint32,bytes32)",
      "arguments": [
        "84532",
        "0x00000000000000000000000094f41058563e46c27aba75ab592752cc09061c6e"
      ],
      "transaction": {
        "from": "0x05f8cc8753d90d67dbb8c02118440b8283f941c9",
        "to": "0x4d1b4d2240a8e09f5b0ae3adb90322706d59ef5d",
        "gas": "0x11cf5",
        "value": "0x0",
        "input": "0x0267dd6c0000000000000000000000000000000000000000000000000000000000014a3400000000000000000000000094f41058563e46c27aba75ab592752cc09061c6e",
        "nonce": "0xfc",
        "chainId": "0x66eee"
      },
      "additionalContracts": [],
      "isFixedGasLimit": false
    },
    {
      "hash": "0xdd66459ec26565732e47620244aab8cea1a2d09d205be43553bb72ed2e00caab",
      "transactionType": "CALL",
      "contractName": null,
      "contractAddress": "0x4d1b4d2240a8e09f5b0ae3adb90322706d59ef5d",
      "function": "setDestinationCaller(uint32,bytes32)",
      "arguments": [
        "84532",
        "0x0000000000000000000000000000000000000000000000000000000000000000"
      ],
      "transaction": {
        "from": "0x05f8cc8753d90d67dbb8c02118440b8283f941c9",
        "to": "0x4d1b4d2240a8e09f5b0ae3adb90322706d59ef5d",
        "gas": "0x11b56",
        "value": "0x0",
        "input": "0x00686ed20000000000000000000000000000000000000000000000000000000000014a340000000000000000000000000000000000000000000000000000000000000000",
        "nonce": "0xfd",
        "chainId": "0x66eee"
      },
      "additionalContracts": [],
      "isFixedGasLimit": false
    }
  ],
  "receipts": [
    {
      "status": "0x1",
      "cumulativeGasUsed": "0xb153",
      "logs": [],
      "logsBloom": "0x00000000000000000000000000000000000000000000000000000000000000000000000000000000000000000000000000000000000000000000000000000000000000000000000000000000000000000000000000000000000000000000000000000000000000000000000000000000000000000000000000000000000000000000000000000000000000000000000000000000000000000000000000000000000000000000000000000000000000000000000000000000000000000000000000000000000000000000000000000000000000000000000000000000000000000000000000000000000000000000000000000000000000000000000000000000",
      "type": "0x2",
      "transactionHash": "0x55ad9f59b9e61c5515d28d3848257ca8eab5c1528fdd99f5e17a0224d84eb0b2",
      "transactionIndex": "0x1",
      "blockHash": "0x82ae8d553209d6aced42511d701c3c3fca2c25d19b53e681c4f218c528cc4247",
      "blockNumber": "0xf86200f",
      "gasUsed": "0xb153",
      "effectiveGasPrice": "0x1317b20",
      "from": "0x05f8cc8753d90d67dbb8c02118440b8283f941c9",
      "to": "0xb2abe546163021d539e4cc991354c29a124b38ce",
      "contractAddress": null,
      "gasUsedForL1": "0x4a94",
      "l1BlockNumber": "0xa2f14e",
      "timeboosted": false
    },
    {
      "status": "0x1",
      "cumulativeGasUsed": "0xb165",
      "logs": [],
      "logsBloom": "0x00000000000000000000000000000000000000000000000000000000000000000000000000000000000000000000000000000000000000000000000000000000000000000000000000000000000000000000000000000000000000000000000000000000000000000000000000000000000000000000000000000000000000000000000000000000000000000000000000000000000000000000000000000000000000000000000000000000000000000000000000000000000000000000000000000000000000000000000000000000000000000000000000000000000000000000000000000000000000000000000000000000000000000000000000000000",
      "type": "0x2",
      "transactionHash": "0x9c08508484fa8faae7a1f0402b5a7eea23091450f0d6f3b5069bf0b58f42d3fa",
      "transactionIndex": "0x1",
      "blockHash": "0x6ed6fa7500dd9699517cad1fa2ddd812e7ab25c8aaa3014baf535bd50d7bbd51",
      "blockNumber": "0xf862014",
      "gasUsed": "0xb165",
      "effectiveGasPrice": "0x13134d0",
      "from": "0x05f8cc8753d90d67dbb8c02118440b8283f941c9",
      "to": "0xb2abe546163021d539e4cc991354c29a124b38ce",
      "contractAddress": null,
      "gasUsedForL1": "0x4aa6",
      "l1BlockNumber": "0xa2f14e",
      "timeboosted": false
    },
    {
      "status": "0x1",
      "cumulativeGasUsed": "0xc1dc",
      "logs": [],
      "logsBloom": "0x00000000000000000000000000000000000000000000000000000000000000000000000000000000000000000000000000000000000000000000000000000000000000000000000000000000000000000000000000000000000000000000000000000000000000000000000000000000000000000000000000000000000000000000000000000000000000000000000000000000000000000000000000000000000000000000000000000000000000000000000000000000000000000000000000000000000000000000000000000000000000000000000000000000000000000000000000000000000000000000000000000000000000000000000000000000",
      "type": "0x2",
      "transactionHash": "0x9e0a3374c3d0f4629cfc0c694905dca57a672af89fba689a9e2438e50e1c0168",
      "transactionIndex": "0x1",
      "blockHash": "0x9191b8aaf239106793f006d10347d252a0f798b302adf8eeaa816ab930d33c43",
      "blockNumber": "0xf86201b",
      "gasUsed": "0xc1dc",
      "effectiveGasPrice": "0x1312d00",
      "from": "0x05f8cc8753d90d67dbb8c02118440b8283f941c9",
      "to": "0x4d1b4d2240a8e09f5b0ae3adb90322706d59ef5d",
      "contractAddress": null,
      "gasUsedForL1": "0x5b14",
      "l1BlockNumber": "0xa2f14e",
      "timeboosted": false
    },
    {
      "status": "0x1",
      "cumulativeGasUsed": "0x291d9",
      "logs": [],
      "logsBloom": "0x00000000000000000000000000000000000000000000000000000000000000000000000000000000000000000000000000000000000000000000000000000000000000000000000000000000000000000000000000000000000000000000000000000000000000000000000000000000000000000000000000000000000000000000000000000000000000000000000000000000000000000000000000000000000000000000000000000000000000000000000000000000000000000000000000000000000000000000000000000000000000000000000000000000000000000000000000000000000000000000000000000000000000000000000000000000",
      "type": "0x2",
      "transactionHash": "0xf37dc8badeea8740c800e1b6a55cdef980dfa6171ba0cdda791275f2bb082506",
      "transactionIndex": "0x2",
      "blockHash": "0x71525b391f82da75bbfd3185746b4e7fe34188d6347f46e7236d44195125c86b",
      "blockNumber": "0xf862022",
      "gasUsed": "0xc250",
      "effectiveGasPrice": "0x1315be0",
      "from": "0x05f8cc8753d90d67dbb8c02118440b8283f941c9",
      "to": "0x4d1b4d2240a8e09f5b0ae3adb90322706d59ef5d",
      "contractAddress": null,
      "gasUsedForL1": "0x5b06",
      "l1BlockNumber": "0xa2f14e",
      "timeboosted": false
    },
    {
      "status": "0x1",
      "cumulativeGasUsed": "0xc110",
      "logs": [],
      "logsBloom": "0x00000000000000000000000000000000000000000000000000000000000000000000000000000000000000000000000000000000000000000000000000000000000000000000000000000000000000000000000000000000000000000000000000000000000000000000000000000000000000000000000000000000000000000000000000000000000000000000000000000000000000000000000000000000000000000000000000000000000000000000000000000000000000000000000000000000000000000000000000000000000000000000000000000000000000000000000000000000000000000000000000000000000000000000000000000000",
      "type": "0x2",
      "transactionHash": "0xdd66459ec26565732e47620244aab8cea1a2d09d205be43553bb72ed2e00caab",
      "transactionIndex": "0x1",
      "blockHash": "0x41dedb02ec9980e3bf5da47fcea9bb13767e80a1d4ac533dce43cb0d9091aa26",
      "blockNumber": "0xf86202d",
      "gasUsed": "0xc110",
      "effectiveGasPrice": "0x13163b0",
      "from": "0x05f8cc8753d90d67dbb8c02118440b8283f941c9",
      "to": "0x4d1b4d2240a8e09f5b0ae3adb90322706d59ef5d",
      "contractAddress": null,
      "gasUsedForL1": "0x5b04",
      "l1BlockNumber": "0xa2f150",
      "timeboosted": false
    }
  ],
  "libraries": [],
  "pending": [],
  "returns": {},
  "timestamp": 1776439974699,
  "chain": 421614,
  "commit": "56ff7fe"
}