{
  "transactions": [
    {
      "hash": "0xbd03ccbc4f5867923914974ad6d42e45fe66cc0652879a25f13c79267f0c8c82",
      "transactionType": "CALL",
      "contractName": null,
      "contractAddress": "0x65642ac8fd57eff8dd4651cb76be48814c8bf386",
      "function": "registerRailPlugin(address)",
      "arguments": [
        "0x050c6C2555c2d54AbA01420FBc02fF0F1d10E8dF"
      ],
      "transaction": {
        "from": "0x05f8cc8753d90d67dbb8c02118440b8283f941c9",
        "to": "0x65642ac8fd57eff8dd4651cb76be48814c8bf386",
        "gas": "0x26b0b",
        "value": "0x0",
        "input": "0x172ceb34000000000000000000000000050c6c2555c2d54aba01420fbc02ff0f1d10e8df",
        "nonce": "0xc2",
        "chainId": "0x66eee"
      },
      "additionalContracts": [],
      "isFixedGasLimit": false
    },
    {
      "hash": "0x35e4319a1e12cd5c786561f8d5f2b41f5013daf3dd69a9b3b58a3833fee901c6",
      "transactionType": "CALL",
      "contractName": null,
      "contractAddress": "0x65642ac8fd57eff8dd4651cb76be48814c8bf386",
      "function": "registerRailPlugin(address)",
      "arguments": [
        "0xDb403792c55bFE26beaeF235986D4F106E40Ee6F"
      ],
      "transaction": {
        "from": "0x05f8cc8753d90d67dbb8c02118440b8283f941c9",
        "to": "0x65642ac8fd57eff8dd4651cb76be48814c8bf386",
        "gas": "0x26a51",
        "value": "0x0",
        "input": "0x172ceb34000000000000000000000000db403792c55bfe26beaef235986d4f106e40ee6f",
        "nonce": "0xc3",
        "chainId": "0x66eee"
      },
      "additionalContracts": [],
      "isFixedGasLimit": false
    },
    {
      "hash": "0x349e8b588fdc9726bdaa5ec1cffa5889df70352b41ed8ceeef1d815a3cdfb7a6",
      "transactionType": "CALL",
      "contractName": null,
      "contractAddress": "0x1b7eb489eb0ae102720442fe15b0e08653a13404",
      "function": "addApprovedCaller(address)",
      "arguments": [
        "0x438ea39C5A52D90b1d9E599DB7F150e5A52a012d"
      ],
      "transaction": {
        "from": "0x05f8cc8753d90d67dbb8c02118440b8283f941c9",
        "to": "0x1b7eb489eb0ae102720442fe15b0e08653a13404",
        "gas": "0xec90",
        "value": "0x0",
        "input": "0xab5cb85a000000000000000000000000438ea39c5a52d90b1d9e599db7f150e5a52a012d",
        "nonce": "0xc4",
        "chainId": "0x66eee"
      },
      "additionalContracts": [],
      "isFixedGasLimit": false
    },
    {
      "hash": "0xb538d14c36a8243a192bbc1fb72028024556d2d0d418759e5e309dd204b3d1eb",
      "transactionType": "CALL",
      "contractName": null,
      "contractAddress": "0x050c6c2555c2d54aba01420fbc02ff0f1d10e8df",
      "function": "setChainDomain(uint32,uint32)",
      "arguments": [
        "84532",
        "6"
      ],
      "transaction": {
        "from": "0x05f8cc8753d90d67dbb8c02118440b8283f941c9",
        "to": "0x050c6c2555c2d54aba01420fbc02ff0f1d10e8df",
        "gas": "0xecb8",
        "value": "0x0",
        "input": "0x7ef0d2870000000000000000000000000000000000000000000000000000000000014a340000000000000000000000000000000000000000000000000000000000000006",
        "nonce": "0xc5",
        "chainId": "0x66eee"
      },
      "additionalContracts": [],
      "isFixedGasLimit": false
    },
    {
      "hash": "0xfb584f0bdee4b830314a01b9da6539a1f985aa1313b789d5ae93c158eb5f8d8c",
      "transactionType": "CALL",
      "contractName": null,
      "contractAddress": "0x050c6c2555c2d54aba01420fbc02ff0f1d10e8df",
      "function": "setDestinationReceiver(uint32,bytes32)",
      "arguments": [
        "84532",
        "0x00000000000000000000000032c486ecd4dd5a45e5a63a7aa8812b5ccfd71740"
      ],
      "transaction": {
        "from": "0x05f8cc8753d90d67dbb8c02118440b8283f941c9",
        "to": "0x050c6c2555c2d54aba01420fbc02ff0f1d10e8df",
        "gas": "0xed29",
        "value": "0x0",
        "input": "0x0267dd6c0000000000000000000000000000000000000000000000000000000000014a3400000000000000000000000032c486ecd4dd5a45e5a63a7aa8812b5ccfd71740",
        "nonce": "0xc6",
        "chainId": "0x66eee"
      },
      "additionalContracts": [],
      "isFixedGasLimit": false
    },
    {
      "hash": "0x6aeb2b4ae84c8c51bf42a2880322a0142847427248455628415e16e12f2ef58c",
      "transactionType": "CALL",
      "contractName": null,
      "contractAddress": "0xdb403792c55bfe26beaef235986d4f106e40ee6f",
      "function": "setRouteConfig(uint32,string,address,bytes32)",
      "arguments": [
        "84532",
        "base-sepolia",
        "0xE6EF55853f548b7EdFa403056f91f85fD3B3F086",
        "0x8351ce1d9b08b0ec2add9de7e893e4a216235576cd4074bbacb0b9fb9b8f68c6"
      ],
      "transaction": {
        "from": "0x05f8cc8753d90d67dbb8c02118440b8283f941c9",
        "to": "0xdb403792c55bfe26beaef235986d4f106e40ee6f",
        "gas": "0x1da70",
        "value": "0x0",
        "input": "0x7513a82a0000000000000000000000000000000000000000000000000000000000014a340000000000000000000000000000000000000000000000000000000000000080000000000000000000000000e6ef55853f548b7edfa403056f91f85fd3b3f0868351ce1d9b08b0ec2add9de7e893e4a216235576cd4074bbacb0b9fb9b8f68c6000000000000000000000000000000000000000000000000000000000000000c626173652d7365706f6c69610000000000000000000000000000000000000000",
        "nonce": "0xc7",
        "chainId": "0x66eee"
      },
      "additionalContracts": [],
      "isFixedGasLimit": false
    }
  ],
  "receipts": [
    {
      "status": "0x1",
      "cumulativeGasUsed": "0x22a12",
      "logs": [
        {
          "address": "0x65642ac8fd57eff8dd4651cb76be48814c8bf386",
          "topics": [
            "0xa86330cede453edbe00d0dbe74ee3bdbac6d7b048009b0d72d54aa609df01a71",
            "0xb148ea5f936a28661e11743b1650193f1b14a2322b9541503bf6815a84a1a6e9"
          ],
          "data": "0x000000000000000000000000050c6c2555c2d54aba01420fbc02ff0f1d10e8df0000000000000000000000000000000000000000000000000000000000000000",
          "blockHash": "0xa4ac760f1456592a3896445951f57722be10c0b96c65e4ef513825c2b60edd68",
          "blockNumber": "0xf742408",
          "blockTimestamp": "0x69dd288b",
          "transactionHash": "0xbd03ccbc4f5867923914974ad6d42e45fe66cc0652879a25f13c79267f0c8c82",
          "transactionIndex": "0x2",
          "logIndex": "0x0",
          "removed": false
        }
      ],
      "logsBloom": "0x00000400000000002000000000000000000000000000000000000000000000000000000000000000000000000000000000000000000000000000000000000000000000000000000000000000000000000000000020000000000000000000000000000000000000000000000020000000000000000000000000000000002000000000000000000000000000000000000000200000000000000000000000000000000000000000000000000000000000000000000000000000000000000000000000000000000000000000000000200000000000400000000000000000000000000000000000000800000000000000000000000000000000000000000000000000",
      "type": "0x2",
      "transactionHash": "0xbd03ccbc4f5867923914974ad6d42e45fe66cc0652879a25f13c79267f0c8c82",
      "transactionIndex": "0x2",
      "blockHash": "0xa4ac760f1456592a3896445951f57722be10c0b96c65e4ef513825c2b60edd68",
      "blockNumber": "0xf742408",
      "gasUsed": "0x1d80a",
      "effectiveGasPrice": "0x1313ca0",
      "from": "0x05f8cc8753d90d67dbb8c02118440b8283f941c9",
      "to": "0x65642ac8fd57eff8dd4651cb76be48814c8bf386",
      "contractAddress": null,
      "gasUsedForL1": "0x0",
      "l1BlockNumber": "0xa28b46",
      "timeboosted": false
    },
    {
      "status": "0x1",
      "cumulativeGasUsed": "0x32f34",
      "logs": [
        {
          "address": "0x65642ac8fd57eff8dd4651cb76be48814c8bf386",
          "topics": [
            "0xa86330cede453edbe00d0dbe74ee3bdbac6d7b048009b0d72d54aa609df01a71",
            "0xdee0b34b74b60e53553685c32477090103c2b806eb925a8cd000efa92bef3e8b"
          ],
          "data": "0x000000000000000000000000db403792c55bfe26beaef235986d4f106e40ee6f0000000000000000000000000000000000000000000000000000000000000000",
          "blockHash": "0x6fbf97bf586aae80dd73e496a4543aca326807e9ee87cfef6c3099c2b71e4163",
          "blockNumber": "0xf74240f",
          "blockTimestamp": "0x69dd288d",
          "transactionHash": "0x35e4319a1e12cd5c786561f8d5f2b41f5013daf3dd69a9b3b58a3833fee901c6",
          "transactionIndex": "0x2",
          "logIndex": "0x3",
          "removed": false
        }
      ],
      "logsBloom": "0x00000000000000002000000000000000000000000000000000000000000000000000000000000000000000000000000000000000000000000000000000000000000000000000000000000000000000000000000000000040000000000000000000000000000000000000000000000000000000000000000000000000002000000000000000000004000000000000000000200000000000000000000000000000000000000000000000000000000000000000000000000000000000000000000000000000000000000000000000200000000000400000000000000000000000000000000000000800000000000000100000000000000000000000000000000000",
      "type": "0x2",
      "transactionHash": "0x35e4319a1e12cd5c786561f8d5f2b41f5013daf3dd69a9b3b58a3833fee901c6",
      "transactionIndex": "0x2",
      "blockHash": "0x6fbf97bf586aae80dd73e496a4543aca326807e9ee87cfef6c3099c2b71e4163",
      "blockNumber": "0xf74240f",
      "gasUsed": "0x194af",
      "effectiveGasPrice": "0x1312d00",
      "from": "0x05f8cc8753d90d67dbb8c02118440b8283f941c9",
      "to": "0x65642ac8fd57eff8dd4651cb76be48814c8bf386",
      "contractAddress": null,
      "gasUsedForL1": "0x0",
      "l1BlockNumber": "0xa28b46",
      "timeboosted": false
    },
    {
      "status": "0x1",
      "cumulativeGasUsed": "0xb47b",
      "logs": [],
      "logsBloom": "0x00000000000000000000000000000000000000000000000000000000000000000000000000000000000000000000000000000000000000000000000000000000000000000000000000000000000000000000000000000000000000000000000000000000000000000000000000000000000000000000000000000000000000000000000000000000000000000000000000000000000000000000000000000000000000000000000000000000000000000000000000000000000000000000000000000000000000000000000000000000000000000000000000000000000000000000000000000000000000000000000000000000000000000000000000000000",
      "type": "0x2",
      "transactionHash": "0x349e8b588fdc9726bdaa5ec1cffa5889df70352b41ed8ceeef1d815a3cdfb7a6",
      "transactionIndex": "0x1",
      "blockHash": "0x5d8d9237edf6319da5b60a7227755b2ae5d6d00152e950a6a15f8e773729032e",
      "blockNumber": "0xf742413",
      "gasUsed": "0xb47b",
      "effectiveGasPrice": "0x1312d00",
      "from": "0x05f8cc8753d90d67dbb8c02118440b8283f941c9",
      "to": "0x1b7eb489eb0ae102720442fe15b0e08653a13404",
      "contractAddress": null,
      "gasUsedForL1": "0x0",
      "l1BlockNumber": "0xa28b46",
      "timeboosted": false
    },
    {
      "status": "0x1",
      "cumulativeGasUsed": "0xb49a",
      "logs": [],
      "logsBloom": "0x00000000000000000000000000000000000000000000000000000000000000000000000000000000000000000000000000000000000000000000000000000000000000000000000000000000000000000000000000000000000000000000000000000000000000000000000000000000000000000000000000000000000000000000000000000000000000000000000000000000000000000000000000000000000000000000000000000000000000000000000000000000000000000000000000000000000000000000000000000000000000000000000000000000000000000000000000000000000000000000000000000000000000000000000000000000",
      "type": "0x2",
      "transactionHash": "0xb538d14c36a8243a192bbc1fb72028024556d2d0d418759e5e309dd204b3d1eb",
      "transactionIndex": "0x1",
      "blockHash": "0x1066e8eac886f56f48b194996522815d110162a74b4ae8dbd6becf699c2cb073",
      "blockNumber": "0xf74241b",
      "gasUsed": "0xb49a",
      "effectiveGasPrice": "0x1314470",
      "from": "0x05f8cc8753d90d67dbb8c02118440b8283f941c9",
      "to": "0x050c6c2555c2d54aba01420fbc02ff0f1d10e8df",
      "contractAddress": null,
      "gasUsedForL1": "0x0",
      "l1BlockNumber": "0xa28b47",
      "timeboosted": false
    },
    {
      "status": "0x1",
      "cumulativeGasUsed": "0xb4f0",
      "logs": [],
      "logsBloom": "0x00000000000000000000000000000000000000000000000000000000000000000000000000000000000000000000000000000000000000000000000000000000000000000000000000000000000000000000000000000000000000000000000000000000000000000000000000000000000000000000000000000000000000000000000000000000000000000000000000000000000000000000000000000000000000000000000000000000000000000000000000000000000000000000000000000000000000000000000000000000000000000000000000000000000000000000000000000000000000000000000000000000000000000000000000000000",
      "type": "0x2",
      "transactionHash": "0xfb584f0bdee4b830314a01b9da6539a1f985aa1313b789d5ae93c158eb5f8d8c",
      "transactionIndex": "0x1",
      "blockHash": "0xecbf2052933f3eb7edfd04e129f868ee5f1fe73b9e4a67709de6394f4fffedbe",
      "blockNumber": "0xf742422",
      "gasUsed": "0xb4f0",
      "effectiveGasPrice": "0x1313ca0",
      "from": "0x05f8cc8753d90d67dbb8c02118440b8283f941c9",
      "to": "0x050c6c2555c2d54aba01420fbc02ff0f1d10e8df",
      "contractAddress": null,
      "gasUsedForL1": "0x0",
      "l1BlockNumber": "0xa28b47",
      "timeboosted": false
    },
    {
      "status": "0x1",
      "cumulativeGasUsed": "0x1693e",
      "logs": [],
      "logsBloom": "0x00000000000000000000000000000000000000000000000000000000000000000000000000000000000000000000000000000000000000000000000000000000000000000000000000000000000000000000000000000000000000000000000000000000000000000000000000000000000000000000000000000000000000000000000000000000000000000000000000000000000000000000000000000000000000000000000000000000000000000000000000000000000000000000000000000000000000000000000000000000000000000000000000000000000000000000000000000000000000000000000000000000000000000000000000000000",
      "type": "0x2",
      "transactionHash": "0x6aeb2b4ae84c8c51bf42a2880322a0142847427248455628415e16e12f2ef58c",
      "transactionIndex": "0x1",
      "blockHash": "0x353fb0b63aaa12136ac57e05cb6e2a883b1ef950f8d488438a8108bffaa21046",
      "blockNumber": "0xf742426",
      "gasUsed": "0x1693e",
      "effectiveGasPrice": "0x1312d00",
      "from": "0x05f8cc8753d90d67dbb8c02118440b8283f941c9",
      "to": "0xdb403792c55bfe26beaef235986d4f106e40ee6f",
      "contractAddress": null,
      "gasUsedForL1": "0x0",
      "l1BlockNumber": "0xa28b47",
      "timeboosted": false
    }
  ],
  "libraries": [],
  "pending": [],
  "returns": {},
  "timestamp": 1776101526514,
  "chain": 421614,
  "commit": "b3b4aa7"
}