{
  "transactions": [
    {
      "hash": "0x6a46eb2755da5bb31e0caee544696d66122771492edda472f0b50e7c7f05fc6e",
      "transactionType": "CALL",
      "contractName": null,
      "contractAddress": "0x1b7eb489eb0ae102720442fe15b0e08653a13404",
      "function": "addApprovedCaller(address)",
      "arguments": [
        "0x845Cd50644A9592de43BCAC0212656480744AAcA"
      ],
      "transaction": {
        "from": "0x05f8cc8753d90d67dbb8c02118440b8283f941c9",
        "to": "0x1b7eb489eb0ae102720442fe15b0e08653a13404",
        "gas": "0xec90",
        "value": "0x0",
        "input": "0xab5cb85a000000000000000000000000845cd50644a9592de43bcac0212656480744aaca",
        "nonce": "0xcc",
        "chainId": "0x66eee"
      },
      "additionalContracts": [],
      "isFixedGasLimit": false
    },
    {
      "hash": "0x779951302e1480a07edc30a1d8327fc9980fb0b2dd34928f34325143a4d8efee",
      "transactionType": "CALL",
      "contractName": null,
      "contractAddress": "0x050c6c2555c2d54aba01420fbc02ff0f1d10e8df",
      "function": "setChainDomain(uint32,uint32)",
      "arguments": [
        "84532",
        "6"
      ],
      "transaction": {
        "from": "0x05f8cc8753d90d67dbb8c02118440b8283f941c9",
        "to": "0x050c6c2555c2d54aba01420fbc02ff0f1d10e8df",
        "gas": "0x91f5",
        "value": "0x0",
        "input": "0x7ef0d2870000000000000000000000000000000000000000000000000000000000014a340000000000000000000000000000000000000000000000000000000000000006",
        "nonce": "0xcd",
        "chainId": "0x66eee"
      },
      "additionalContracts": [],
      "isFixedGasLimit": false
    },
    {
      "hash": "0x123e23d405355f973213fc89a844910c7605ea30f4b3c0e90d1977f4828afcc3",
      "transactionType": "CALL",
      "contractName": null,
      "contractAddress": "0x050c6c2555c2d54aba01420fbc02ff0f1d10e8df",
      "function": "setDestinationReceiver(uint32,bytes32)",
      "arguments": [
        "84532",
        "0x000000000000000000000000f87b70151ccb80fdd2c2d6bb9dc8a1055e34106b"
      ],
      "transaction": {
        "from": "0x05f8cc8753d90d67dbb8c02118440b8283f941c9",
        "to": "0x050c6c2555c2d54aba01420fbc02ff0f1d10e8df",
        "gas": "0x9627",
        "value": "0x0",
        "input": "0x0267dd6c0000000000000000000000000000000000000000000000000000000000014a34000000000000000000000000f87b70151ccb80fdd2c2d6bb9dc8a1055e34106b",
        "nonce": "0xce",
        "chainId": "0x66eee"
      },
      "additionalContracts": [],
      "isFixedGasLimit": false
    },
    {
      "hash": "0xe1f75b37f053e2e09b6db1a236890bddc1e124c9374baa5fda8e1069e7bf8935",
      "transactionType": "CALL",
      "contractName": null,
      "contractAddress": "0xdb403792c55bfe26beaef235986d4f106e40ee6f",
      "function": "setRouteConfig(uint32,string,address,bytes32)",
      "arguments": [
        "84532",
        "base-sepolia",
        "0xf87B70151Ccb80FDd2c2d6bB9dc8a1055E34106B",
        "0x8351ce1d9b08b0ec2add9de7e893e4a216235576cd4074bbacb0b9fb9b8f68c6"
      ],
      "transaction": {
        "from": "0x05f8cc8753d90d67dbb8c02118440b8283f941c9",
        "to": "0xdb403792c55bfe26beaef235986d4f106e40ee6f",
        "gas": "0xb680",
        "value": "0x0",
        "input": "0x7513a82a0000000000000000000000000000000000000000000000000000000000014a340000000000000000000000000000000000000000000000000000000000000080000000000000000000000000f87b70151ccb80fdd2c2d6bb9dc8a1055e34106b8351ce1d9b08b0ec2add9de7e893e4a216235576cd4074bbacb0b9fb9b8f68c6000000000000000000000000000000000000000000000000000000000000000c626173652d7365706f6c69610000000000000000000000000000000000000000",
        "nonce": "0xcf",
        "chainId": "0x66eee"
      },
      "additionalContracts": [],
      "isFixedGasLimit": false
    },
    {
      "hash": "0x49073d5274c182675d1b229d81f72a67686c4148e49e93a14eb1849cedbbac0a",
      "transactionType": "CALL",
      "contractName": null,
      "contractAddress": "0x845cd50644a9592de43bcac0212656480744aaca",
      "function": "setTrustedSource(string,string,bool)",
      "arguments": [
        "base-sepolia",
        "0xcc89d8bedfb39170fa74bcf1d28c9e399b82ccb2",
        "true"
      ],
      "transaction": {
        "from": "0x05f8cc8753d90d67dbb8c02118440b8283f941c9",
        "to": "0x845cd50644a9592de43bcac0212656480744aaca",
        "gas": "0x1080a",
        "value": "0x0",
        "input": "0xc5f229d0000000000000000000000000000000000000000000000000000000000000006000000000000000000000000000000000000000000000000000000000000000a00000000000000000000000000000000000000000000000000000000000000001000000000000000000000000000000000000000000000000000000000000000c626173652d7365706f6c69610000000000000000000000000000000000000000000000000000000000000000000000000000000000000000000000000000002a30786363383964386265646662333931373066613734626366316432386339653339396238326363623200000000000000000000000000000000000000000000",
        "nonce": "0xd0",
        "chainId": "0x66eee"
      },
      "additionalContracts": [],
      "isFixedGasLimit": false
    }
  ],
  "receipts": [
    {
      "status": "0x1",
      "cumulativeGasUsed": "0x10683",
      "logs": [],
      "logsBloom": "0x00000000000000000000000000000000000000000000000000000000000000000000000000000000000000000000000000000000000000000000000000000000000000000000000000000000000000000000000000000000000000000000000000000000000000000000000000000000000000000000000000000000000000000000000000000000000000000000000000000000000000000000000000000000000000000000000000000000000000000000000000000000000000000000000000000000000000000000000000000000000000000000000000000000000000000000000000000000000000000000000000000000000000000000000000000000",
      "type": "0x2",
      "transactionHash": "0x6a46eb2755da5bb31e0caee544696d66122771492edda472f0b50e7c7f05fc6e",
      "transactionIndex": "0x2",
      "blockHash": "0x32b5e79cca7d518705dc2a0763598dc4f62698cd64f8ac3f1d5c9f9df21702d1",
      "blockNumber": "0xf77ce7c",
      "gasUsed": "0xb47b",
      "effectiveGasPrice": "0x1315be0",
      "from": "0x05f8cc8753d90d67dbb8c02118440b8283f941c9",
      "to": "0x1b7eb489eb0ae102720442fe15b0e08653a13404",
      "contractAddress": null,
      "gasUsedForL1": "0x0",
      "l1BlockNumber": "0xa29fb7",
      "timeboosted": false
    },
    {
      "status": "0x1",
      "cumulativeGasUsed": "0x66de",
      "logs": [],
      "logsBloom": "0x00000000000000000000000000000000000000000000000000000000000000000000000000000000000000000000000000000000000000000000000000000000000000000000000000000000000000000000000000000000000000000000000000000000000000000000000000000000000000000000000000000000000000000000000000000000000000000000000000000000000000000000000000000000000000000000000000000000000000000000000000000000000000000000000000000000000000000000000000000000000000000000000000000000000000000000000000000000000000000000000000000000000000000000000000000000",
      "type": "0x2",
      "transactionHash": "0x779951302e1480a07edc30a1d8327fc9980fb0b2dd34928f34325143a4d8efee",
      "transactionIndex": "0x1",
      "blockHash": "0xf44a7253cac931e0a6b152e89653a73ad1e7f84dda6da190357c648354930e98",
      "blockNumber": "0xf77ce87",
      "gasUsed": "0x66de",
      "effectiveGasPrice": "0x1313ca0",
      "from": "0x05f8cc8753d90d67dbb8c02118440b8283f941c9",
      "to": "0x050c6c2555c2d54aba01420fbc02ff0f1d10e8df",
      "contractAddress": null,
      "gasUsedForL1": "0x0",
      "l1BlockNumber": "0xa29fb8",
      "timeboosted": false
    },
    {
      "status": "0x1",
      "cumulativeGasUsed": "0x20c9d",
      "logs": [],
      "logsBloom": "0x00000000000000000000000000000000000000000000000000000000000000000000000000000000000000000000000000000000000000000000000000000000000000000000000000000000000000000000000000000000000000000000000000000000000000000000000000000000000000000000000000000000000000000000000000000000000000000000000000000000000000000000000000000000000000000000000000000000000000000000000000000000000000000000000000000000000000000000000000000000000000000000000000000000000000000000000000000000000000000000000000000000000000000000000000000000",
      "type": "0x2",
      "transactionHash": "0x123e23d405355f973213fc89a844910c7605ea30f4b3c0e90d1977f4828afcc3",
      "transactionIndex": "0x2",
      "blockHash": "0xfc5b412c323cd32478d0bec35227745bf812e9f7bef76a3ea84b75a5ae1d965f",
      "blockNumber": "0xf77ce93",
      "gasUsed": "0x7224",
      "effectiveGasPrice": "0x132c340",
      "from": "0x05f8cc8753d90d67dbb8c02118440b8283f941c9",
      "to": "0x050c6c2555c2d54aba01420fbc02ff0f1d10e8df",
      "contractAddress": null,
      "gasUsedForL1": "0x0",
      "l1BlockNumber": "0xa29fb8",
      "timeboosted": false
    },
    {
      "status": "0x1",
      "cumulativeGasUsed": "0x36cd3",
      "logs": [],
      "logsBloom": "0x00000000000000000000000000000000000000000000000000000000000000000000000000000000000000000000000000000000000000000000000000000000000000000000000000000000000000000000000000000000000000000000000000000000000000000000000000000000000000000000000000000000000000000000000000000000000000000000000000000000000000000000000000000000000000000000000000000000000000000000000000000000000000000000000000000000000000000000000000000000000000000000000000000000000000000000000000000000000000000000000000000000000000000000000000000000",
      "type": "0x2",
      "transactionHash": "0xe1f75b37f053e2e09b6db1a236890bddc1e124c9374baa5fda8e1069e7bf8935",
      "transactionIndex": "0x4",
      "blockHash": "0xefdb04285d094da80a1cea2fab324cca892002126f20ab3f2b3ae2595a5b8c24",
      "blockNumber": "0xf77ce9f",
      "gasUsed": "0x8afa",
      "effectiveGasPrice": "0x1319290",
      "from": "0x05f8cc8753d90d67dbb8c02118440b8283f941c9",
      "to": "0xdb403792c55bfe26beaef235986d4f106e40ee6f",
      "contractAddress": null,
      "gasUsedForL1": "0x0",
      "l1BlockNumber": "0xa29fb8",
      "timeboosted": false
    },
    {
      "status": "0x1",
      "cumulativeGasUsed": "0x5003e",
      "logs": [
        {
          "address": "0x845cd50644a9592de43bcac0212656480744aaca",
          "topics": [
            "0xc4be60cee9fada79d250ef87fe6761acee8c4f919f811b4095a42b9553da7d71"
          ],
          "data": "0x000000000000000000000000000000000000000000000000000000000000006000000000000000000000000000000000000000000000000000000000000000a00000000000000000000000000000000000000000000000000000000000000001000000000000000000000000000000000000000000000000000000000000000c626173652d7365706f6c69610000000000000000000000000000000000000000000000000000000000000000000000000000000000000000000000000000002a30786363383964386265646662333931373066613734626366316432386339653339396238326363623200000000000000000000000000000000000000000000",
          "blockHash": "0x2947b33df37d30f85d75a92a41aa27e6239d57511cf44da09f5f86f5da4cfe99",
          "blockNumber": "0xf77ceab",
          "blockTimestamp": "0x69de261f",
          "transactionHash": "0x49073d5274c182675d1b229d81f72a67686c4148e49e93a14eb1849cedbbac0a",
          "transactionIndex": "0x4",
          "logIndex": "0x6",
          "removed": false
        }
      ],
      "logsBloom": "0x00000000000000000000000000000000000040000000000000000000000000000000000000000004004000000000000000000000000000000100000000000000000000000000000000008000000000000000000000000000000000000000000000000000000000000000000000000000000000000000000000000000000000000000000000000000000000000000000000000000000000000000000000000000000000000000000000000000000000000000000000000000000000000000000000000000000000000000000000000000000000000000000000000000000000000000000000000000000000000000000000000000000000000000000000000080",
      "type": "0x2",
      "transactionHash": "0x49073d5274c182675d1b229d81f72a67686c4148e49e93a14eb1849cedbbac0a",
      "transactionIndex": "0x4",
      "blockHash": "0x2947b33df37d30f85d75a92a41aa27e6239d57511cf44da09f5f86f5da4cfe99",
      "blockNumber": "0xf77ceab",
      "gasUsed": "0xc993",
      "effectiveGasPrice": "0x1315410",
      "from": "0x05f8cc8753d90d67dbb8c02118440b8283f941c9",
      "to": "0x845cd50644a9592de43bcac0212656480744aaca",
      "contractAddress": null,
      "gasUsedForL1": "0x0",
      "l1BlockNumber": "0xa29fb8",
      "timeboosted": false
    }
  ],
  "libraries": [],
  "pending": [],
  "returns": {},
  "timestamp": 1776166434130,
  "chain": 421614,
  "commit": "b3b4aa7"
}