{
  "transactions": [
    {
      "hash": "0xd54fa8a71365678a4dc7665274b729d264add9e0121221d4b7a0e62718c1bd5e",
      "transactionType": "CALL",
      "contractName": null,
      "contractAddress": "0xa4699da48fbeda613aee3ea8de7ac1983195e4f2",
      "function": "registerRailPlugin(address)",
      "arguments": [
        "0x55FDD805D3cC7b564ff13398359CF5aBd8c4637b"
      ],
      "transaction": {
        "from": "0x05f8cc8753d90d67dbb8c02118440b8283f941c9",
        "to": "0xa4699da48fbeda613aee3ea8de7ac1983195e4f2",
        "gas": "0x2a149",
        "value": "0x0",
        "input": "0x172ceb3400000000000000000000000055fdd805d3cc7b564ff13398359cf5abd8c4637b",
        "nonce": "0xaf",
        "chainId": "0x66eee"
      },
      "additionalContracts": [],
      "isFixedGasLimit": false
    },
    {
      "hash": "0x6be4e02cdf4535eb13115442d0da50aed9086e90bcb9ad4eed0af3c4f3f31ce1",
      "transactionType": "CALL",
      "contractName": null,
      "contractAddress": "0xa4699da48fbeda613aee3ea8de7ac1983195e4f2",
      "function": "registerRailPlugin(address)",
      "arguments": [
        "0xf283A5df86FbC521CB4F5508db167C6d476a7AB9"
      ],
      "transaction": {
        "from": "0x05f8cc8753d90d67dbb8c02118440b8283f941c9",
        "to": "0xa4699da48fbeda613aee3ea8de7ac1983195e4f2",
        "gas": "0x2a08e",
        "value": "0x0",
        "input": "0x172ceb34000000000000000000000000f283a5df86fbc521cb4f5508db167c6d476a7ab9",
        "nonce": "0xb0",
        "chainId": "0x66eee"
      },
      "additionalContracts": [],
      "isFixedGasLimit": false
    },
    {
      "hash": "0x0d333691dcfa61b0af9ff9b8dc70bf4eabc147c9a33d1b7123be4d337dce6ec5",
      "transactionType": "CALL",
      "contractName": null,
      "contractAddress": "0xe0ce1f340dc88f575f1afec742bdfd220af06f74",
      "function": "addApprovedCaller(address)",
      "arguments": [
        "0x0f63A9DFA5f0c711e0Cf9411E42Ee17CCEc8B4C8"
      ],
      "transaction": {
        "from": "0x05f8cc8753d90d67dbb8c02118440b8283f941c9",
        "to": "0xe0ce1f340dc88f575f1afec742bdfd220af06f74",
        "gas": "0x124c1",
        "value": "0x0",
        "input": "0xab5cb85a0000000000000000000000000f63a9dfa5f0c711e0cf9411e42ee17ccec8b4c8",
        "nonce": "0xb1",
        "chainId": "0x66eee"
      },
      "additionalContracts": [],
      "isFixedGasLimit": false
    },
    {
      "hash": "0x25067e7054e94a247bfd41181808bf7d5e15a955d4b27d65e9729437a566025a",
      "transactionType": "CALL",
      "contractName": null,
      "contractAddress": "0x55fdd805d3cc7b564ff13398359cf5abd8c4637b",
      "function": "setChainDomain(uint32,uint32)",
      "arguments": [
        "84532",
        "6"
      ],
      "transaction": {
        "from": "0x05f8cc8753d90d67dbb8c02118440b8283f941c9",
        "to": "0x55fdd805d3cc7b564ff13398359cf5abd8c4637b",
        "gas": "0x12f61",
        "value": "0x0",
        "input": "0x7ef0d2870000000000000000000000000000000000000000000000000000000000014a340000000000000000000000000000000000000000000000000000000000000006",
        "nonce": "0xb2",
        "chainId": "0x66eee"
      },
      "additionalContracts": [],
      "isFixedGasLimit": false
    },
    {
      "hash": "0x261b1f266e0c526e2bf1e1f38a08e6ef1e565fe48d3186e60499758e657cc13a",
      "transactionType": "CALL",
      "contractName": null,
      "contractAddress": "0x55fdd805d3cc7b564ff13398359cf5abd8c4637b",
      "function": "setDestinationReceiver(uint32,bytes32)",
      "arguments": [
        "84532",
        "0x0000000000000000000000000234a6fe0f7d577e2ece168896277a56ba313ffe"
      ],
      "transaction": {
        "from": "0x05f8cc8753d90d67dbb8c02118440b8283f941c9",
        "to": "0x55fdd805d3cc7b564ff13398359cf5abd8c4637b",
        "gas": "0x12fd1",
        "value": "0x0",
        "input": "0x0267dd6c0000000000000000000000000000000000000000000000000000000000014a340000000000000000000000000234a6fe0f7d577e2ece168896277a56ba313ffe",
        "nonce": "0xb3",
        "chainId": "0x66eee"
      },
      "additionalContracts": [],
      "isFixedGasLimit": false
    },
    {
      "hash": "0x7217fadd174a5d020fb871aa3bf4118cd557ee886b12e3b897ccad1c66771d5a",
      "transactionType": "CALL",
      "contractName": null,
      "contractAddress": "0xf283a5df86fbc521cb4f5508db167c6d476a7ab9",
      "function": "setRouteConfig(uint32,string,address,bytes32)",
      "arguments": [
        "84532",
        "base-sepolia",
        "0xa311bcAaa3FEd89B62453DD516f90a37E997F066",
        "0x8f709b1b855776b4b59998cdbc16a25da06fa45245f3c3e529171bbd76a2ea72"
      ],
      "transaction": {
        "from": "0x05f8cc8753d90d67dbb8c02118440b8283f941c9",
        "to": "0xf283a5df86fbc521cb4f5508db167c6d476a7ab9",
        "gas": "0x2418b",
        "value": "0x0",
        "input": "0x7513a82a0000000000000000000000000000000000000000000000000000000000014a340000000000000000000000000000000000000000000000000000000000000080000000000000000000000000a311bcaaa3fed89b62453dd516f90a37e997f0668f709b1b855776b4b59998cdbc16a25da06fa45245f3c3e529171bbd76a2ea72000000000000000000000000000000000000000000000000000000000000000c626173652d7365706f6c69610000000000000000000000000000000000000000",
        "nonce": "0xb4",
        "chainId": "0x66eee"
      },
      "additionalContracts": [],
      "isFixedGasLimit": false
    },
    {
      "hash": "0xeb5163c6ea8f566359631a62b1cd67c578c821ef999e391a92cdcd09fee75dfe",
      "transactionType": "CALL",
      "contractName": null,
      "contractAddress": "0x0f63a9dfa5f0c711e0cf9411e42ee17ccec8b4c8",
      "function": "setTrustedSource(string,string,bool)",
      "arguments": [
        "base-sepolia",
        "0xe227b51f5d7079faa07b7621657e3aa5906d2185",
        "true"
      ],
      "transaction": {
        "from": "0x05f8cc8753d90d67dbb8c02118440b8283f941c9",
        "to": "0x0f63a9dfa5f0c711e0cf9411e42ee17ccec8b4c8",
        "gas": "0x16a29",
        "value": "0x0",
        "input": "0xc5f229d0000000000000000000000000000000000000000000000000000000000000006000000000000000000000000000000000000000000000000000000000000000a00000000000000000000000000000000000000000000000000000000000000001000000000000000000000000000000000000000000000000000000000000000c626173652d7365706f6c69610000000000000000000000000000000000000000000000000000000000000000000000000000000000000000000000000000002a30786532323762353166356437303739666161303762373632313635376533616135393036643231383500000000000000000000000000000000000000000000",
        "nonce": "0xb5",
        "chainId": "0x66eee"
      },
      "additionalContracts": [],
      "isFixedGasLimit": false
    }
  ],
  "receipts": [
    {
      "status": "0x1",
      "cumulativeGasUsed": "0x1f8a7",
      "logs": [
        {
          "address": "0xa4699da48fbeda613aee3ea8de7ac1983195e4f2",
          "topics": [
            "0xa86330cede453edbe00d0dbe74ee3bdbac6d7b048009b0d72d54aa609df01a71",
            "0xb148ea5f936a28661e11743b1650193f1b14a2322b9541503bf6815a84a1a6e9"
          ],
          "data": "0x00000000000000000000000055fdd805d3cc7b564ff13398359cf5abd8c4637b0000000000000000000000000000000000000000000000000000000000000000",
          "blockHash": "0x33257a0d4eb728e304e578b6efed49581bc202fad5186a01de3db212cd04914b",
          "blockNumber": "0xf6668eb",
          "blockTimestamp": "0x69d92c1d",
          "transactionHash": "0xd54fa8a71365678a4dc7665274b729d264add9e0121221d4b7a0e62718c1bd5e",
          "transactionIndex": "0x1",
          "logIndex": "0x0",
          "removed": false
        }
      ],
      "logsBloom": "0x00000400004000002000000000000000000000000000000000000000000000000000000000000000000000000000000000000000000000000000000000000000000000000000000000000000000000000000000020000000000000000000000000000000000000000000000020000000000000000000000000000000000000000000000000000000000000000000000000000000000000000000000000000000000000000000000000000000000000000000000000000000000000000000000000000000000000000000000000200000000000400000000000000000000000000800000000000000000000000010000000000000000000000000000000000000",
      "type": "0x2",
      "transactionHash": "0xd54fa8a71365678a4dc7665274b729d264add9e0121221d4b7a0e62718c1bd5e",
      "transactionIndex": "0x1",
      "blockHash": "0x33257a0d4eb728e304e578b6efed49581bc202fad5186a01de3db212cd04914b",
      "blockNumber": "0xf6668eb",
      "gasUsed": "0x1f8a7",
      "effectiveGasPrice": "0x1331930",
      "from": "0x05f8cc8753d90d67dbb8c02118440b8283f941c9",
      "to": "0xa4699da48fbeda613aee3ea8de7ac1983195e4f2",
      "contractAddress": null,
      "gasUsedForL1": "0x209d",
      "l1BlockNumber": "0xa238e2",
      "timeboosted": false
    },
    {
      "status": "0x1",
      "cumulativeGasUsed": "0x1b57f",
      "logs": [
        {
          "address": "0xa4699da48fbeda613aee3ea8de7ac1983195e4f2",
          "topics": [
            "0xa86330cede453edbe00d0dbe74ee3bdbac6d7b048009b0d72d54aa609df01a71",
            "0xdee0b34b74b60e53553685c32477090103c2b806eb925a8cd000efa92bef3e8b"
          ],
          "data": "0x000000000000000000000000f283a5df86fbc521cb4f5508db167c6d476a7ab90000000000000000000000000000000000000000000000000000000000000000",
          "blockHash": "0x1403685eab507989f6d5c670619cf3ceeb9857c0a9a6d21a1a33c0f0730e2dc1",
          "blockNumber": "0xf6668f6",
          "blockTimestamp": "0x69d92c21",
          "transactionHash": "0x6be4e02cdf4535eb13115442d0da50aed9086e90bcb9ad4eed0af3c4f3f31ce1",
          "transactionIndex": "0x1",
          "logIndex": "0x0",
          "removed": false
        }
      ],
      "logsBloom": "0x00000000004000002000000000000000000000000000000000000000000000000000000000000000000000000000000000000000000000000000000000000000000000000000000000000000000000000000000000000040000000000000000000000000000000000000000000000000000000000000000000000000000000000000000000000004000000000000000000000000000000000000000000000000000000000000000000000000000000000000000000000000000000000000000000000000000000000000000000200000000000400000000000000000000000000800000000000000000000000010100000000000000000000000000000000000",
      "type": "0x2",
      "transactionHash": "0x6be4e02cdf4535eb13115442d0da50aed9086e90bcb9ad4eed0af3c4f3f31ce1",
      "transactionIndex": "0x1",
      "blockHash": "0x1403685eab507989f6d5c670619cf3ceeb9857c0a9a6d21a1a33c0f0730e2dc1",
      "blockNumber": "0xf6668f6",
      "gasUsed": "0x1b57f",
      "effectiveGasPrice": "0x13134d0",
      "from": "0x05f8cc8753d90d67dbb8c02118440b8283f941c9",
      "to": "0xa4699da48fbeda613aee3ea8de7ac1983195e4f2",
      "contractAddress": null,
      "gasUsedForL1": "0x20d0",
      "l1BlockNumber": "0xa238e4",
      "timeboosted": false
    },
    {
      "status": "0x1",
      "cumulativeGasUsed": "0xd54a",
      "logs": [],
      "logsBloom": "0x00000000000000000000000000000000000000000000000000000000000000000000000000000000000000000000000000000000000000000000000000000000000000000000000000000000000000000000000000000000000000000000000000000000000000000000000000000000000000000000000000000000000000000000000000000000000000000000000000000000000000000000000000000000000000000000000000000000000000000000000000000000000000000000000000000000000000000000000000000000000000000000000000000000000000000000000000000000000000000000000000000000000000000000000000000000",
      "type": "0x2",
      "transactionHash": "0x0d333691dcfa61b0af9ff9b8dc70bf4eabc147c9a33d1b7123be4d337dce6ec5",
      "transactionIndex": "0x1",
      "blockHash": "0xcd18728c8e43edf76fea2b84cf0ad7d686e8545c6af13833f17e41b8863f973c",
      "blockNumber": "0xf6668fc",
      "gasUsed": "0xd54a",
      "effectiveGasPrice": "0x1314470",
      "from": "0x05f8cc8753d90d67dbb8c02118440b8283f941c9",
      "to": "0xe0ce1f340dc88f575f1afec742bdfd220af06f74",
      "contractAddress": null,
      "gasUsedForL1": "0x20cf",
      "l1BlockNumber": "0xa238e4",
      "timeboosted": false
    },
    {
      "status": "0x1",
      "cumulativeGasUsed": "0xdc93",
      "logs": [],
      "logsBloom": "0x00000000000000000000000000000000000000000000000000000000000000000000000000000000000000000000000000000000000000000000000000000000000000000000000000000000000000000000000000000000000000000000000000000000000000000000000000000000000000000000000000000000000000000000000000000000000000000000000000000000000000000000000000000000000000000000000000000000000000000000000000000000000000000000000000000000000000000000000000000000000000000000000000000000000000000000000000000000000000000000000000000000000000000000000000000000",
      "type": "0x2",
      "transactionHash": "0x25067e7054e94a247bfd41181808bf7d5e15a955d4b27d65e9729437a566025a",
      "transactionIndex": "0x1",
      "blockHash": "0xc31d4cf5769cfac031e1da994e0622015da4a04639ca7e686e7973c044a8679a",
      "blockNumber": "0xf666902",
      "gasUsed": "0xdc93",
      "effectiveGasPrice": "0x131aa00",
      "from": "0x05f8cc8753d90d67dbb8c02118440b8283f941c9",
      "to": "0x55fdd805d3cc7b564ff13398359cf5abd8c4637b",
      "contractAddress": null,
      "gasUsedForL1": "0x27f9",
      "l1BlockNumber": "0xa238e4",
      "timeboosted": false
    },
    {
      "status": "0x1",
      "cumulativeGasUsed": "0xdcf9",
      "logs": [],
      "logsBloom": "0x00000000000000000000000000000000000000000000000000000000000000000000000000000000000000000000000000000000000000000000000000000000000000000000000000000000000000000000000000000000000000000000000000000000000000000000000000000000000000000000000000000000000000000000000000000000000000000000000000000000000000000000000000000000000000000000000000000000000000000000000000000000000000000000000000000000000000000000000000000000000000000000000000000000000000000000000000000000000000000000000000000000000000000000000000000000",
      "type": "0x2",
      "transactionHash": "0x261b1f266e0c526e2bf1e1f38a08e6ef1e565fe48d3186e60499758e657cc13a",
      "transactionIndex": "0x1",
      "blockHash": "0x9b8223639d99776792a91ad94251b762c03d6c1a262c0de39cd5f6c60302b026",
      "blockNumber": "0xf66690f",
      "gasUsed": "0xdcf9",
      "effectiveGasPrice": "0x1312d00",
      "from": "0x05f8cc8753d90d67dbb8c02118440b8283f941c9",
      "to": "0x55fdd805d3cc7b564ff13398359cf5abd8c4637b",
      "contractAddress": null,
      "gasUsedForL1": "0x2809",
      "l1BlockNumber": "0xa238e4",
      "timeboosted": false
    },
    {
      "status": "0x1",
      "cumulativeGasUsed": "0x1ad44",
      "logs": [],
      "logsBloom": "0x00000000000000000000000000000000000000000000000000000000000000000000000000000000000000000000000000000000000000000000000000000000000000000000000000000000000000000000000000000000000000000000000000000000000000000000000000000000000000000000000000000000000000000000000000000000000000000000000000000000000000000000000000000000000000000000000000000000000000000000000000000000000000000000000000000000000000000000000000000000000000000000000000000000000000000000000000000000000000000000000000000000000000000000000000000000",
      "type": "0x2",
      "transactionHash": "0x7217fadd174a5d020fb871aa3bf4118cd557ee886b12e3b897ccad1c66771d5a",
      "transactionIndex": "0x1",
      "blockHash": "0x924d8c829d62ad2ff14fea28502c86320362296c644dc14e793b9b480c8b725b",
      "blockNumber": "0xf66691c",
      "gasUsed": "0x1ad44",
      "effectiveGasPrice": "0x1314470",
      "from": "0x05f8cc8753d90d67dbb8c02118440b8283f941c9",
      "to": "0xf283a5df86fbc521cb4f5508db167c6d476a7ab9",
      "contractAddress": null,
      "gasUsedForL1": "0x4406",
      "l1BlockNumber": "0xa238e4",
      "timeboosted": false
    },
    {
      "status": "0x1",
      "cumulativeGasUsed": "0x10619",
      "logs": [
        {
          "address": "0x0f63a9dfa5f0c711e0cf9411e42ee17ccec8b4c8",
          "topics": [
            "0xc4be60cee9fada79d250ef87fe6761acee8c4f919f811b4095a42b9553da7d71"
          ],
          "data": "0x000000000000000000000000000000000000000000000000000000000000006000000000000000000000000000000000000000000000000000000000000000a00000000000000000000000000000000000000000000000000000000000000001000000000000000000000000000000000000000000000000000000000000000c626173652d7365706f6c69610000000000000000000000000000000000000000000000000000000000000000000000000000000000000000000000000000002a30786532323762353166356437303739666161303762373632313635376533616135393036643231383500000000000000000000000000000000000000000000",
          "blockHash": "0xd69727ea3b4e168202cae09b8b2393d183113421fa4c62b6f9ad5197e6d67f69",
          "blockNumber": "0xf666926",
          "blockTimestamp": "0x69d92c2d",
          "transactionHash": "0xeb5163c6ea8f566359631a62b1cd67c578c821ef999e391a92cdcd09fee75dfe",
          "transactionIndex": "0x1",
          "logIndex": "0x0",
          "removed": false
        }
      ],
      "logsBloom": "0x00000000000000000000000000000000000040000000000000200000000000000000000000000004000000000000000000000000000000000100000000000000000000000000000000000000000000000000000000000000000000000000000000000000000000000000000000000000000000000000000000000000000000000000000000000000000000000000000000000000000000000000000000000000000000000000000000000000000000000000000000000000000000000000000000000000000000000000000000000000000000000000000000000000000000100000000000000000000000000000000002000000000000000000000000000000",
      "type": "0x2",
      "transactionHash": "0xeb5163c6ea8f566359631a62b1cd67c578c821ef999e391a92cdcd09fee75dfe",
      "transactionIndex": "0x1",
      "blockHash": "0xd69727ea3b4e168202cae09b8b2393d183113421fa4c62b6f9ad5197e6d67f69",
      "blockNumber": "0xf666926",
      "gasUsed": "0x10619",
      "effectiveGasPrice": "0x1319290",
      "from": "0x05f8cc8753d90d67dbb8c02118440b8283f941c9",
      "to": "0x0f63a9dfa5f0c711e0cf9411e42ee17ccec8b4c8",
      "contractAddress": null,
      "gasUsedForL1": "0x3c86",
      "l1BlockNumber": "0xa238e5",
      "timeboosted": false
    }
  ],
  "libraries": [],
  "pending": [],
  "returns": {},
  "timestamp": 1775840302775,
  "chain": 421614,
  "commit": "52f01ed"
}