{
  "transactions": [
    {
      "hash": "0xf2f62a7fb5de2b22c19f85f95ba8565c8b49e5d1ee86bd82da2ef33bef6123fd",
      "transactionType": "CALL",
      "contractName": null,
      "contractAddress": "0x1d13f20678a2a1e2b264648d10cfde3e2408bad7",
      "function": "registerRailPlugin(address)",
      "arguments": [
        "0x83BE9b7b17b9600Cb369ED7062F4980D5a2f6cDB"
      ],
      "transaction": {
        "from": "0x05f8cc8753d90d67dbb8c02118440b8283f941c9",
        "to": "0x1d13f20678a2a1e2b264648d10cfde3e2408bad7",
        "gas": "0x28be3",
        "value": "0x0",
        "input": "0x172ceb3400000000000000000000000083be9b7b17b9600cb369ed7062f4980d5a2f6cdb",
        "nonce": "0x6a",
        "chainId": "0xaa37dc"
      },
      "additionalContracts": [],
      "isFixedGasLimit": false
    },
    {
      "hash": "0x5567aa9c2d297a2b9e520d1e8f32d1e5be46995e7be4f73397d70124dc955041",
      "transactionType": "CALL",
      "contractName": null,
      "contractAddress": "0x1d13f20678a2a1e2b264648d10cfde3e2408bad7",
      "function": "registerRailPlugin(address)",
      "arguments": [
        "0x1D64595c11a4727551Cc11d12D2f7239A64e15F0"
      ],
      "transaction": {
        "from": "0x05f8cc8753d90d67dbb8c02118440b8283f941c9",
        "to": "0x1d13f20678a2a1e2b264648d10cfde3e2408bad7",
        "gas": "0x22f16",
        "value": "0x0",
        "input": "0x172ceb340000000000000000000000001d64595c11a4727551cc11d12d2f7239a64e15f0",
        "nonce": "0x6b",
        "chainId": "0xaa37dc"
      },
      "additionalContracts": [],
      "isFixedGasLimit": false
    },
    {
      "hash": "0xde0e4a4dcc7ce18a6be4742786ca276f60906778aa9f4e7e46c186201de7e09a",
      "transactionType": "CALL",
      "contractName": null,
      "contractAddress": "0x1d13f20678a2a1e2b264648d10cfde3e2408bad7",
      "function": "registerRailPlugin(address)",
      "arguments": [
        "0xd0A943F871A4cbc0288ee2EaaAE7092b68A1247A"
      ],
      "transaction": {
        "from": "0x05f8cc8753d90d67dbb8c02118440b8283f941c9",
        "to": "0x1d13f20678a2a1e2b264648d10cfde3e2408bad7",
        "gas": "0x24fb9",
        "value": "0x0",
        "input": "0x172ceb34000000000000000000000000d0a943f871a4cbc0288ee2eaaae7092b68a1247a",
        "nonce": "0x6c",
        "chainId": "0xaa37dc"
      },
      "additionalContracts": [],
      "isFixedGasLimit": false
    },
    {
      "hash": "0x9f84040ead567c6c9b38a473a6106d71f855edd1ecd4ac6afa8e47f029cfc5a7",
      "transactionType": "CALL",
      "contractName": null,
      "contractAddress": "0x1d13f20678a2a1e2b264648d10cfde3e2408bad7",
      "function": "registerRailPlugin(address)",
      "arguments": [
        "0x1F031F7A2652fD6f10F1FB37BEfaac8A69039f08"
      ],
      "transaction": {
        "from": "0x05f8cc8753d90d67dbb8c02118440b8283f941c9",
        "to": "0x1d13f20678a2a1e2b264648d10cfde3e2408bad7",
        "gas": "0x24fb9",
        "value": "0x0",
        "input": "0x172ceb340000000000000000000000001f031f7a2652fd6f10f1fb37befaac8a69039f08",
        "nonce": "0x6d",
        "chainId": "0xaa37dc"
      },
      "additionalContracts": [],
      "isFixedGasLimit": false
    },
    {
      "hash": "0x0dd4f6b4f407493c94efbb6317c62d6b3f8e907b1c98928e7ca499826bad333d",
      "transactionType": "CALL",
      "contractName": null,
      "contractAddress": "0x7307fee834ddc88a716904830c0cb356a4878be1",
      "function": "addApprovedCaller(address)",
      "arguments": [
        "0x50d03965Ed30de5d246BdDa18E7B10A8904B8CF1"
      ],
      "transaction": {
        "from": "0x05f8cc8753d90d67dbb8c02118440b8283f941c9",
        "to": "0x7307fee834ddc88a716904830c0cb356a4878be1",
        "gas": "0x107f3",
        "value": "0x0",
        "input": "0xab5cb85a00000000000000000000000050d03965ed30de5d246bdda18e7b10a8904b8cf1",
        "nonce": "0x6e",
        "chainId": "0xaa37dc"
      },
      "additionalContracts": [],
      "isFixedGasLimit": false
    },
    {
      "hash": "0x7788e17803fb5873ecf87f61bdde87b890e0a1a24965e8da654850d34480137b",
      "transactionType": "CALL",
      "contractName": null,
      "contractAddress": "0x7307fee834ddc88a716904830c0cb356a4878be1",
      "function": "addApprovedCaller(address)",
      "arguments": [
        "0xF1c5241FaEFC0dB9B9333D9E2196e992a20dFD3d"
      ],
      "transaction": {
        "from": "0x05f8cc8753d90d67dbb8c02118440b8283f941c9",
        "to": "0x7307fee834ddc88a716904830c0cb356a4878be1",
        "gas": "0x107f3",
        "value": "0x0",
        "input": "0xab5cb85a000000000000000000000000f1c5241faefc0db9b9333d9e2196e992a20dfd3d",
        "nonce": "0x6f",
        "chainId": "0xaa37dc"
      },
      "additionalContracts": [],
      "isFixedGasLimit": false
    },
    {
      "hash": "0xab7b5589817d3b3f8d4ac0441023ae08d0f883d72e2b8ce5922d7322e12448c9",
      "transactionType": "CALL",
      "contractName": null,
      "contractAddress": "0x83be9b7b17b9600cb369ed7062f4980d5a2f6cdb",
      "function": "setChainDomain(uint32,uint32)",
      "arguments": [
        "84532",
        "6"
      ],
      "transaction": {
        "from": "0x05f8cc8753d90d67dbb8c02118440b8283f941c9",
        "to": "0x83be9b7b17b9600cb369ed7062f4980d5a2f6cdb",
        "gas": "0xf936",
        "value": "0x0",
        "input": "0x7ef0d2870000000000000000000000000000000000000000000000000000000000014a340000000000000000000000000000000000000000000000000000000000000006",
        "nonce": "0x70",
        "chainId": "0xaa37dc"
      },
      "additionalContracts": [],
      "isFixedGasLimit": false
    },
    {
      "hash": "0xd44f273cbaa0553fccc22d46128e98f9ea33050096cf7edc1b2bdd703bde04e5",
      "transactionType": "CALL",
      "contractName": null,
      "contractAddress": "0x83be9b7b17b9600cb369ed7062f4980d5a2f6cdb",
      "function": "setDestinationReceiver(uint32,bytes32)",
      "arguments": [
        "84532",
        "0x000000000000000000000000b006c9609b8fe8d52d2a16b4463446eda853264b"
      ],
      "transaction": {
        "from": "0x05f8cc8753d90d67dbb8c02118440b8283f941c9",
        "to": "0x83be9b7b17b9600cb369ed7062f4980d5a2f6cdb",
        "gas": "0xfa09",
        "value": "0x0",
        "input": "0x0267dd6c0000000000000000000000000000000000000000000000000000000000014a34000000000000000000000000b006c9609b8fe8d52d2a16b4463446eda853264b",
        "nonce": "0x71",
        "chainId": "0xaa37dc"
      },
      "additionalContracts": [],
      "isFixedGasLimit": false
    },
    {
      "hash": "0x2533c11fec68cf480520b1f8e20296f5e67caee144d7626105d94af453ed04d3",
      "transactionType": "CALL",
      "contractName": null,
      "contractAddress": "0x83be9b7b17b9600cb369ed7062f4980d5a2f6cdb",
      "function": "setDestinationCaller(uint32,bytes32)",
      "arguments": [
        "84532",
        "0x00000000000000000000000005f8cc8753d90d67dbb8c02118440b8283f941c9"
      ],
      "transaction": {
        "from": "0x05f8cc8753d90d67dbb8c02118440b8283f941c9",
        "to": "0x83be9b7b17b9600cb369ed7062f4980d5a2f6cdb",
        "gas": "0xf99d",
        "value": "0x0",
        "input": "0x00686ed20000000000000000000000000000000000000000000000000000000000014a3400000000000000000000000005f8cc8753d90d67dbb8c02118440b8283f941c9",
        "nonce": "0x72",
        "chainId": "0xaa37dc"
      },
      "additionalContracts": [],
      "isFixedGasLimit": false
    },
    {
      "hash": "0xc412ec20165f6e0f0ccc71cd7fd9df345a3f0e7d3bb7a0e1d419c72503c1a010",
      "transactionType": "CALL",
      "contractName": null,
      "contractAddress": "0x1d64595c11a4727551cc11d12d2f7239a64e15f0",
      "function": "setChainDomain(uint32,uint32)",
      "arguments": [
        "84532",
        "6"
      ],
      "transaction": {
        "from": "0x05f8cc8753d90d67dbb8c02118440b8283f941c9",
        "to": "0x1d64595c11a4727551cc11d12d2f7239a64e15f0",
        "gas": "0x10820",
        "value": "0x0",
        "input": "0x7ef0d2870000000000000000000000000000000000000000000000000000000000014a340000000000000000000000000000000000000000000000000000000000000006",
        "nonce": "0x73",
        "chainId": "0xaa37dc"
      },
      "additionalContracts": [],
      "isFixedGasLimit": false
    },
    {
      "hash": "0xd854a9205408b03917c724f3bc795ca98c771799db0d2a2bc8ada89c82ef11af",
      "transactionType": "CALL",
      "contractName": null,
      "contractAddress": "0x1d64595c11a4727551cc11d12d2f7239a64e15f0",
      "function": "setDestinationReceiver(uint32,bytes32)",
      "arguments": [
        "84532",
        "0x000000000000000000000000b006c9609b8fe8d52d2a16b4463446eda853264b"
      ],
      "transaction": {
        "from": "0x05f8cc8753d90d67dbb8c02118440b8283f941c9",
        "to": "0x1d64595c11a4727551cc11d12d2f7239a64e15f0",
        "gas": "0xf9eb",
        "value": "0x0",
        "input": "0x0267dd6c0000000000000000000000000000000000000000000000000000000000014a34000000000000000000000000b006c9609b8fe8d52d2a16b4463446eda853264b",
        "nonce": "0x74",
        "chainId": "0xaa37dc"
      },
      "additionalContracts": [],
      "isFixedGasLimit": false
    },
    {
      "hash": "0xac294127b08903fcaab98596ff2260fb1dadfaddc0049df027bb22e1ada17969",
      "transactionType": "CALL",
      "contractName": null,
      "contractAddress": "0x1d64595c11a4727551cc11d12d2f7239a64e15f0",
      "function": "setDestinationCaller(uint32,bytes32)",
      "arguments": [
        "84532",
        "0x00000000000000000000000005f8cc8753d90d67dbb8c02118440b8283f941c9"
      ],
      "transaction": {
        "from": "0x05f8cc8753d90d67dbb8c02118440b8283f941c9",
        "to": "0x1d64595c11a4727551cc11d12d2f7239a64e15f0",
        "gas": "0xf99d",
        "value": "0x0",
        "input": "0x00686ed20000000000000000000000000000000000000000000000000000000000014a3400000000000000000000000005f8cc8753d90d67dbb8c02118440b8283f941c9",
        "nonce": "0x75",
        "chainId": "0xaa37dc"
      },
      "additionalContracts": [],
      "isFixedGasLimit": false
    },
    {
      "hash": "0xec74f61dbfc7b0e1e1f7279356f1ccbfcc115f55ef3261e7f47a12df9d0d6517",
      "transactionType": "CALL",
      "contractName": null,
      "contractAddress": "0x1d64595c11a4727551cc11d12d2f7239a64e15f0",
      "function": "setMaxFeeBpsCap(uint256)",
      "arguments": [
        "100"
      ],
      "transaction": {
        "from": "0x05f8cc8753d90d67dbb8c02118440b8283f941c9",
        "to": "0x1d64595c11a4727551cc11d12d2f7239a64e15f0",
        "gas": "0x8bcb",
        "value": "0x0",
        "input": "0x357c4ea70000000000000000000000000000000000000000000000000000000000000064",
        "nonce": "0x76",
        "chainId": "0xaa37dc"
      },
      "additionalContracts": [],
      "isFixedGasLimit": false
    },
    {
      "hash": "0xba19cbcd705ccfbdfdb23aaa8c31f7cc605d933eece53b539e2887883f8e5952",
      "transactionType": "CALL",
      "contractName": null,
      "contractAddress": "0xd0a943f871a4cbc0288ee2eaaae7092b68a1247a",
      "function": "setRouteConfig(uint32,string,address,bytes32)",
      "arguments": [
        "84532",
        "base-sepolia",
        "0xE78C3473B59156416994b57bC261a51fFbEee4FA",
        "0x4d2fdc120be87ecf5661b7a75144d5d4b507b525eeb8c9c85c346a255e3b9663"
      ],
      "transaction": {
        "from": "0x05f8cc8753d90d67dbb8c02118440b8283f941c9",
        "to": "0xd0a943f871a4cbc0288ee2eaaae7092b68a1247a",
        "gas": "0x1f2b1",
        "value": "0x0",
        "input": "0x7513a82a0000000000000000000000000000000000000000000000000000000000014a340000000000000000000000000000000000000000000000000000000000000080000000000000000000000000e78c3473b59156416994b57bc261a51ffbeee4fa4d2fdc120be87ecf5661b7a75144d5d4b507b525eeb8c9c85c346a255e3b9663000000000000000000000000000000000000000000000000000000000000000c626173652d7365706f6c69610000000000000000000000000000000000000000",
        "nonce": "0x77",
        "chainId": "0xaa37dc"
      },
      "additionalContracts": [],
      "isFixedGasLimit": false
    },
    {
      "hash": "0xde1ba9e000d37ea3baf440ef9d859533ad80511164d3275b680ce10ca1eeb4af",
      "transactionType": "CALL",
      "contractName": null,
      "contractAddress": "0x1f031f7a2652fd6f10f1fb37befaac8a69039f08",
      "function": "setRouteConfig(uint32,uint32,address,bytes)",
      "arguments": [
        "84532",
        "40245",
        "0xC0Fbb4b422204D4bD3Aa98705650C8935B01f493",
        "0x00030100110100000000000000000000000000030d4001001303000000000000000000000000000000061a80"
      ],
      "transaction": {
        "from": "0x05f8cc8753d90d67dbb8c02118440b8283f941c9",
        "to": "0x1f031f7a2652fd6f10f1fb37befaac8a69039f08",
        "gas": "0x2e154",
        "value": "0x0",
        "input": "0xd5bfb7fa0000000000000000000000000000000000000000000000000000000000014a340000000000000000000000000000000000000000000000000000000000009d35000000000000000000000000c0fbb4b422204d4bd3aa98705650c8935b01f4930000000000000000000000000000000000000000000000000000000000000080000000000000000000000000000000000000000000000000000000000000002c00030100110100000000000000000000000000030d4001001303000000000000000000000000000000061a800000000000000000000000000000000000000000",
        "nonce": "0x78",
        "chainId": "0xaa37dc"
      },
      "additionalContracts": [],
      "isFixedGasLimit": false
    },
    {
      "hash": "0x27768cd59aed5bf472d1c09300c397c9e1138b47cb0f6bd556124a7d8747256c",
      "transactionType": "CALL",
      "contractName": null,
      "contractAddress": "0x50d03965ed30de5d246bdda18e7b10a8904b8cf1",
      "function": "setTrustedSourceAddress(string,address,bool)",
      "arguments": [
        "base-sepolia",
        "0x10aFEFDb684ba1e7AfaEbBAfe10e4117410a60E4",
        "true"
      ],
      "transaction": {
        "from": "0x05f8cc8753d90d67dbb8c02118440b8283f941c9",
        "to": "0x50d03965ed30de5d246bdda18e7b10a8904b8cf1",
        "gas": "0x11510",
        "value": "0x0",
        "input": "0x6dc3df1c000000000000000000000000000000000000000000000000000000000000006000000000000000000000000010afefdb684ba1e7afaebbafe10e4117410a60e40000000000000000000000000000000000000000000000000000000000000001000000000000000000000000000000000000000000000000000000000000000c626173652d7365706f6c69610000000000000000000000000000000000000000",
        "nonce": "0x79",
        "chainId": "0xaa37dc"
      },
      "additionalContracts": [],
      "isFixedGasLimit": false
    },
    {
      "hash": "0x67b49fb6cd1d23cb675caaa196eb00ba6b505e78af58fd79a5da7c5739ce53f4",
      "transactionType": "CALL",
      "contractName": null,
      "contractAddress": "0x50d03965ed30de5d246bdda18e7b10a8904b8cf1",
      "function": "setTrustedToken(bytes32,address,bool)",
      "arguments": [
        "0x4d2fdc120be87ecf5661b7a75144d5d4b507b525eeb8c9c85c346a255e3b9663",
        "0x2f2A9DbFd8c503a0aC56413B774e39030df85331",
        "true"
      ],
      "transaction": {
        "from": "0x05f8cc8753d90d67dbb8c02118440b8283f941c9",
        "to": "0x50d03965ed30de5d246bdda18e7b10a8904b8cf1",
        "gas": "0x10772",
        "value": "0x0",
        "input": "0x001089604d2fdc120be87ecf5661b7a75144d5d4b507b525eeb8c9c85c346a255e3b96630000000000000000000000002f2a9dbfd8c503a0ac56413b774e39030df853310000000000000000000000000000000000000000000000000000000000000001",
        "nonce": "0x7a",
        "chainId": "0xaa37dc"
      },
      "additionalContracts": [],
      "isFixedGasLimit": false
    },
    {
      "hash": "0xf79723dac7faff055db91e6cbb0627da91d477d2d96738d44bbd80e74db76062",
      "transactionType": "CALL",
      "contractName": null,
      "contractAddress": "0xf1c5241faefc0db9b9333d9e2196e992a20dfd3d",
      "function": "setTrustedPeerAddress(uint32,address)",
      "arguments": [
        "40245",
        "0x25ea20f5b3b0104DC65903a5fEF5066cE018D6F0"
      ],
      "transaction": {
        "from": "0x05f8cc8753d90d67dbb8c02118440b8283f941c9",
        "to": "0xf1c5241faefc0db9b9333d9e2196e992a20dfd3d",
        "gas": "0x111ae",
        "value": "0x0",
        "input": "0x60c5965f0000000000000000000000000000000000000000000000000000000000009d3500000000000000000000000025ea20f5b3b0104dc65903a5fef5066ce018d6f0",
        "nonce": "0x7b",
        "chainId": "0xaa37dc"
      },
      "additionalContracts": [],
      "isFixedGasLimit": false
    },
    {
      "hash": "0x5a0e0ba2c90485b4ff4fa1c77efd2bad05ad27df2f747b697fe8aa688f01b78c",
      "transactionType": "CALL",
      "contractName": null,
      "contractAddress": "0xc1d9a1f64291cf47e703eab6b27fa0660cae7324",
      "function": "setPeer(uint32,bytes32)",
      "arguments": [
        "40245",
        "0x0000000000000000000000001500116d88b6583e63e2fa9d4199f2eddf72149b"
      ],
      "transaction": {
        "from": "0x05f8cc8753d90d67dbb8c02118440b8283f941c9",
        "to": "0xc1d9a1f64291cf47e703eab6b27fa0660cae7324",
        "gas": "0x95ce",
        "value": "0x0",
        "input": "0x3400288b0000000000000000000000000000000000000000000000000000000000009d350000000000000000000000001500116d88b6583e63e2fa9d4199f2eddf72149b",
        "nonce": "0x7c",
        "chainId": "0xaa37dc"
      },
      "additionalContracts": [],
      "isFixedGasLimit": false
    }
  ],
  "receipts": [
    {
      "status": "0x1",
      "cumulativeGasUsed": "0x28c73",
      "logs": [
        {
          "address": "0x1d13f20678a2a1e2b264648d10cfde3e2408bad7",
          "topics": [
            "0xa86330cede453edbe00d0dbe74ee3bdbac6d7b048009b0d72d54aa609df01a71",
            "0xb148ea5f936a28661e11743b1650193f1b14a2322b9541503bf6815a84a1a6e9"
          ],
          "data": "0x00000000000000000000000083be9b7b17b9600cb369ed7062f4980d5a2f6cdb0000000000000000000000000000000000000000000000000000000000000000",
          "blockHash": "0x10f844b01ada095295767f3dd5a8b4a095863503d5df684b07bc964cee948b76",
          "blockNumber": "0x288f5f7",
          "blockTimestamp": "0x69e8c79a",
          "transactionHash": "0x5567aa9c2d297a2b9e520d1e8f32d1e5be46995e7be4f73397d70124dc955041",
          "transactionIndex": "0x1",
          "logIndex": "0x0",
          "removed": false
        }
      ],
      "logsBloom": "0x00000400000000002000000000000000000000000000000000000000000000000000000000000000000000000000000000000000000000000000000000000000000800000000000000000000000000000000000020000000000000000000000000000000000000000000000020000000000000000000000000000000000000000000000000000000000000000000000000000000000000000000000000000000000000000000000000000000000000008000000000000000000080000000000000000000000000000000000000200000000000400000000000000000000000000000000000000000000000000000000000000000000000000000000000000000",
      "type": "0x2",
      "transactionHash": "0x5567aa9c2d297a2b9e520d1e8f32d1e5be46995e7be4f73397d70124dc955041",
      "transactionIndex": "0x1",
      "blockHash": "0x10f844b01ada095295767f3dd5a8b4a095863503d5df684b07bc964cee948b76",
      "blockNumber": "0x288f5f7",
      "gasUsed": "0x1d7f5",
      "effectiveGasPrice": "0xfb",
      "blobGasUsed": "0x9c40",
      "from": "0x05f8cc8753d90d67dbb8c02118440b8283f941c9",
      "to": "0x1d13f20678a2a1e2b264648d10cfde3e2408bad7",
      "contractAddress": null,
      "daFootprintGasScalar": "0x190",
      "l1BaseFeeScalar": "0x1db0",
      "l1BlobBaseFee": "0x6774b0",
      "l1BlobBaseFeeScalar": "0xd2730",
      "l1Fee": "0x712ce368",
      "l1GasPrice": "0x6714279",
      "l1GasUsed": "0x640"
    },
    {
      "status": "0x1",
      "cumulativeGasUsed": "0x42138",
      "logs": [
        {
          "address": "0x1d13f20678a2a1e2b264648d10cfde3e2408bad7",
          "topics": [
            "0xa86330cede453edbe00d0dbe74ee3bdbac6d7b048009b0d72d54aa609df01a71",
            "0x9181644edfd36b07ccd623494a3681a4a6b9cd5d52611accda20264cd09259ac"
          ],
          "data": "0x0000000000000000000000001d64595c11a4727551cc11d12d2f7239a64e15f00000000000000000000000000000000000000000000000000000000000000000",
          "blockHash": "0x10f844b01ada095295767f3dd5a8b4a095863503d5df684b07bc964cee948b76",
          "blockNumber": "0x288f5f7",
          "blockTimestamp": "0x69e8c79a",
          "transactionHash": "0xf2f62a7fb5de2b22c19f85f95ba8565c8b49e5d1ee86bd82da2ef33bef6123fd",
          "transactionIndex": "0x2",
          "logIndex": "0x1",
          "removed": false
        }
      ],
      "logsBloom": "0x00000000000000002000000000000000000000004000000000000000000000008000000000000000000000000000000000000000000000000000000000000000000800000000000000000000000000000000000000000000000000000000000000000000000000000000000000000000000000000000000000000000000000000000000000000008000000000000000000000000000000000000000000000000000000000000000000000000000000008000000000000000000080000000000000000000000000000000000000200000000000400000000000000000000000000000000000000000000000000000000000000000000000000000000000000000",
      "type": "0x2",
      "transactionHash": "0xf2f62a7fb5de2b22c19f85f95ba8565c8b49e5d1ee86bd82da2ef33bef6123fd",
      "transactionIndex": "0x2",
      "blockHash": "0x10f844b01ada095295767f3dd5a8b4a095863503d5df684b07bc964cee948b76",
      "blockNumber": "0x288f5f7",
      "gasUsed": "0x194c5",
      "effectiveGasPrice": "0xfb",
      "blobGasUsed": "0x9c40",
      "from": "0x05f8cc8753d90d67dbb8c02118440b8283f941c9",
      "to": "0x1d13f20678a2a1e2b264648d10cfde3e2408bad7",
      "contractAddress": null,
      "daFootprintGasScalar": "0x190",
      "l1BaseFeeScalar": "0x1db0",
      "l1BlobBaseFee": "0x6774b0",
      "l1BlobBaseFeeScalar": "0xd2730",
      "l1Fee": "0x712ce368",
      "l1GasPrice": "0x6714279",
      "l1GasUsed": "0x640"
    },
    {
      "status": "0x1",
      "cumulativeGasUsed": "0x5b5d1",
      "logs": [
        {
          "address": "0x1d13f20678a2a1e2b264648d10cfde3e2408bad7",
          "topics": [
            "0xa86330cede453edbe00d0dbe74ee3bdbac6d7b048009b0d72d54aa609df01a71",
            "0xdee0b34b74b60e53553685c32477090103c2b806eb925a8cd000efa92bef3e8b"
          ],
          "data": "0x000000000000000000000000d0a943f871a4cbc0288ee2eaaae7092b68a1247a0000000000000000000000000000000000000000000000000000000000000000",
          "blockHash": "0x10f844b01ada095295767f3dd5a8b4a095863503d5df684b07bc964cee948b76",
          "blockNumber": "0x288f5f7",
          "blockTimestamp": "0x69e8c79a",
          "transactionHash": "0x7788e17803fb5873ecf87f61bdde87b890e0a1a24965e8da654850d34480137b",
          "transactionIndex": "0x3",
          "logIndex": "0x2",
          "removed": false
        }
      ],
      "logsBloom": "0x00000000000000002000000000000000000000000000000000000000000000000000000000000000000000000000000000000000000000000000000000000000000800000000000000000000000000000000000000000040000000000000000000000000000000000000000000000000000000000000000000000000000000000000000000000004000000000000000000000000000000000000000000000000000000000000000000000000000000008000000000000000000080000000000000000000000000000000000000200000000000400000000000000000000000000000000000000000000000000000100000000000000000000000000000000000",
      "type": "0x2",
      "transactionHash": "0x7788e17803fb5873ecf87f61bdde87b890e0a1a24965e8da654850d34480137b",
      "transactionIndex": "0x3",
      "blockHash": "0x10f844b01ada095295767f3dd5a8b4a095863503d5df684b07bc964cee948b76",
      "blockNumber": "0x288f5f7",
      "gasUsed": "0x19499",
      "effectiveGasPrice": "0xfb",
      "blobGasUsed": "0x9c40",
      "from": "0x05f8cc8753d90d67dbb8c02118440b8283f941c9",
      "to": "0x1d13f20678a2a1e2b264648d10cfde3e2408bad7",
      "contractAddress": null,
      "daFootprintGasScalar": "0x190",
      "l1BaseFeeScalar": "0x1db0",
      "l1BlobBaseFee": "0x6774b0",
      "l1BlobBaseFeeScalar": "0xd2730",
      "l1Fee": "0x712ce368",
      "l1GasPrice": "0x6714279",
      "l1GasUsed": "0x640"
    },
    {
      "status": "0x1",
      "cumulativeGasUsed": "0x74a6a",
      "logs": [
        {
          "address": "0x1d13f20678a2a1e2b264648d10cfde3e2408bad7",
          "topics": [
            "0xa86330cede453edbe00d0dbe74ee3bdbac6d7b048009b0d72d54aa609df01a71",
            "0xc472efb7b9a986e1446d8bf9dec51e88548a1d8eb4a0810e6424d97a878d34fc"
          ],
          "data": "0x0000000000000000000000001f031f7a2652fd6f10f1fb37befaac8a69039f080000000000000000000000000000000000000000000000000000000000000000",
          "blockHash": "0x10f844b01ada095295767f3dd5a8b4a095863503d5df684b07bc964cee948b76",
          "blockNumber": "0x288f5f7",
          "blockTimestamp": "0x69e8c79a",
          "transactionHash": "0xde0e4a4dcc7ce18a6be4742786ca276f60906778aa9f4e7e46c186201de7e09a",
          "transactionIndex": "0x4",
          "logIndex": "0x3",
          "removed": false
        }
      ],
      "logsBloom": "0x00000000000000002000000000000000000000000000000000000000000000000000000000000000000000000000000000000000000000000000000000000000000800000000000000000000000000000000000000000000000000000000000000000800000000000000000000000000000040000000000000000000000000000000000000000000000000000000000000000000000000000000000000000000000002000000000000000000000000008000000000000000000080000000000000000000000000000000000000200000000000400000000000000000000000000000000000000000000000000000000000000000000000000000000000000000",
      "type": "0x2",
      "transactionHash": "0xde0e4a4dcc7ce18a6be4742786ca276f60906778aa9f4e7e46c186201de7e09a",
      "transactionIndex": "0x4",
      "blockHash": "0x10f844b01ada095295767f3dd5a8b4a095863503d5df684b07bc964cee948b76",
      "blockNumber": "0x288f5f7",
      "gasUsed": "0x19499",
      "effectiveGasPrice": "0xfb",
      "blobGasUsed": "0x9c40",
      "from": "0x05f8cc8753d90d67dbb8c02118440b8283f941c9",
      "to": "0x1d13f20678a2a1e2b264648d10cfde3e2408bad7",
      "contractAddress": null,
      "daFootprintGasScalar": "0x190",
      "l1BaseFeeScalar": "0x1db0",
      "l1BlobBaseFee": "0x6774b0",
      "l1BlobBaseFeeScalar": "0xd2730",
      "l1Fee": "0x712ce368",
      "l1GasPrice": "0x6714279",
      "l1GasUsed": "0x640"
    },
    {
      "status": "0x1",
      "cumulativeGasUsed": "0x7fee5",
      "logs": [],
      "logsBloom": "0x00000000000000000000000000000000000000000000000000000000000000000000000000000000000000000000000000000000000000000000000000000000000000000000000000000000000000000000000000000000000000000000000000000000000000000000000000000000000000000000000000000000000000000000000000000000000000000000000000000000000000000000000000000000000000000000000000000000000000000000000000000000000000000000000000000000000000000000000000000000000000000000000000000000000000000000000000000000000000000000000000000000000000000000000000000000",
      "type": "0x2",
      "transactionHash": "0xd44f273cbaa0553fccc22d46128e98f9ea33050096cf7edc1b2bdd703bde04e5",
      "transactionIndex": "0x5",
      "blockHash": "0x10f844b01ada095295767f3dd5a8b4a095863503d5df684b07bc964cee948b76",
      "blockNumber": "0x288f5f7",
      "gasUsed": "0xb47b",
      "effectiveGasPrice": "0xfb",
      "blobGasUsed": "0x9c40",
      "from": "0x05f8cc8753d90d67dbb8c02118440b8283f941c9",
      "to": "0x7307fee834ddc88a716904830c0cb356a4878be1",
      "contractAddress": null,
      "daFootprintGasScalar": "0x190",
      "l1BaseFeeScalar": "0x1db0",
      "l1BlobBaseFee": "0x6774b0",
      "l1BlobBaseFeeScalar": "0xd2730",
      "l1Fee": "0x712ce368",
      "l1GasPrice": "0x6714279",
      "l1GasUsed": "0x640"
    },
    {
      "status": "0x1",
      "cumulativeGasUsed": "0x8b360",
      "logs": [],
      "logsBloom": "0x00000000000000000000000000000000000000000000000000000000000000000000000000000000000000000000000000000000000000000000000000000000000000000000000000000000000000000000000000000000000000000000000000000000000000000000000000000000000000000000000000000000000000000000000000000000000000000000000000000000000000000000000000000000000000000000000000000000000000000000000000000000000000000000000000000000000000000000000000000000000000000000000000000000000000000000000000000000000000000000000000000000000000000000000000000000",
      "type": "0x2",
      "transactionHash": "0xab7b5589817d3b3f8d4ac0441023ae08d0f883d72e2b8ce5922d7322e12448c9",
      "transactionIndex": "0x6",
      "blockHash": "0x10f844b01ada095295767f3dd5a8b4a095863503d5df684b07bc964cee948b76",
      "blockNumber": "0x288f5f7",
      "gasUsed": "0xb47b",
      "effectiveGasPrice": "0xfb",
      "blobGasUsed": "0x9c40",
      "from": "0x05f8cc8753d90d67dbb8c02118440b8283f941c9",
      "to": "0x7307fee834ddc88a716904830c0cb356a4878be1",
      "contractAddress": null,
      "daFootprintGasScalar": "0x190",
      "l1BaseFeeScalar": "0x1db0",
      "l1BlobBaseFee": "0x6774b0",
      "l1BlobBaseFeeScalar": "0xd2730",
      "l1Fee": "0x712ce368",
      "l1GasPrice": "0x6714279",
      "l1GasUsed": "0x640"
    },
    {
      "status": "0x1",
      "cumulativeGasUsed": "0x967ce",
      "logs": [],
      "logsBloom": "0x00000000000000000000000000000000000000000000000000000000000000000000000000000000000000000000000000000000000000000000000000000000000000000000000000000000000000000000000000000000000000000000000000000000000000000000000000000000000000000000000000000000000000000000000000000000000000000000000000000000000000000000000000000000000000000000000000000000000000000000000000000000000000000000000000000000000000000000000000000000000000000000000000000000000000000000000000000000000000000000000000000000000000000000000000000000",
      "type": "0x2",
      "transactionHash": "0x9f84040ead567c6c9b38a473a6106d71f855edd1ecd4ac6afa8e47f029cfc5a7",
      "transactionIndex": "0x7",
      "blockHash": "0x10f844b01ada095295767f3dd5a8b4a095863503d5df684b07bc964cee948b76",
      "blockNumber": "0x288f5f7",
      "gasUsed": "0xb46e",
      "effectiveGasPrice": "0xfb",
      "blobGasUsed": "0x9c40",
      "from": "0x05f8cc8753d90d67dbb8c02118440b8283f941c9",
      "to": "0x83be9b7b17b9600cb369ed7062f4980d5a2f6cdb",
      "contractAddress": null,
      "daFootprintGasScalar": "0x190",
      "l1BaseFeeScalar": "0x1db0",
      "l1BlobBaseFee": "0x6774b0",
      "l1BlobBaseFeeScalar": "0xd2730",
      "l1Fee": "0x712ce368",
      "l1GasPrice": "0x6714279",
      "l1GasUsed": "0x640"
    },
    {
      "status": "0x1",
      "cumulativeGasUsed": "0xa1cd4",
      "logs": [],
      "logsBloom": "0x00000000000000000000000000000000000000000000000000000000000000000000000000000000000000000000000000000000000000000000000000000000000000000000000000000000000000000000000000000000000000000000000000000000000000000000000000000000000000000000000000000000000000000000000000000000000000000000000000000000000000000000000000000000000000000000000000000000000000000000000000000000000000000000000000000000000000000000000000000000000000000000000000000000000000000000000000000000000000000000000000000000000000000000000000000000",
      "type": "0x2",
      "transactionHash": "0x0dd4f6b4f407493c94efbb6317c62d6b3f8e907b1c98928e7ca499826bad333d",
      "transactionIndex": "0x8",
      "blockHash": "0x10f844b01ada095295767f3dd5a8b4a095863503d5df684b07bc964cee948b76",
      "blockNumber": "0x288f5f7",
      "gasUsed": "0xb506",
      "effectiveGasPrice": "0xfb",
      "blobGasUsed": "0x9c40",
      "from": "0x05f8cc8753d90d67dbb8c02118440b8283f941c9",
      "to": "0x83be9b7b17b9600cb369ed7062f4980d5a2f6cdb",
      "contractAddress": null,
      "daFootprintGasScalar": "0x190",
      "l1BaseFeeScalar": "0x1db0",
      "l1BlobBaseFee": "0x6774b0",
      "l1BlobBaseFeeScalar": "0xd2730",
      "l1Fee": "0x712ce368",
      "l1GasPrice": "0x6714279",
      "l1GasUsed": "0x640"
    },
    {
      "status": "0x1",
      "cumulativeGasUsed": "0xad18c",
      "logs": [],
      "logsBloom": "0x00000000000000000000000000000000000000000000000000000000000000000000000000000000000000000000000000000000000000000000000000000000000000000000000000000000000000000000000000000000000000000000000000000000000000000000000000000000000000000000000000000000000000000000000000000000000000000000000000000000000000000000000000000000000000000000000000000000000000000000000000000000000000000000000000000000000000000000000000000000000000000000000000000000000000000000000000000000000000000000000000000000000000000000000000000000",
      "type": "0x2",
      "transactionHash": "0xc412ec20165f6e0f0ccc71cd7fd9df345a3f0e7d3bb7a0e1d419c72503c1a010",
      "transactionIndex": "0x9",
      "blockHash": "0x10f844b01ada095295767f3dd5a8b4a095863503d5df684b07bc964cee948b76",
      "blockNumber": "0x288f5f7",
      "gasUsed": "0xb4b8",
      "effectiveGasPrice": "0xfb",
      "blobGasUsed": "0x9c40",
      "from": "0x05f8cc8753d90d67dbb8c02118440b8283f941c9",
      "to": "0x83be9b7b17b9600cb369ed7062f4980d5a2f6cdb",
      "contractAddress": null,
      "daFootprintGasScalar": "0x190",
      "l1BaseFeeScalar": "0x1db0",
      "l1BlobBaseFee": "0x6774b0",
      "l1BlobBaseFeeScalar": "0xd2730",
      "l1Fee": "0x712ce368",
      "l1GasPrice": "0x6714279",
      "l1GasUsed": "0x640"
    },
    {
      "status": "0x1",
      "cumulativeGasUsed": "0xb8626",
      "logs": [],
      "logsBloom": "0x00000000000000000000000000000000000000000000000000000000000000000000000000000000000000000000000000000000000000000000000000000000000000000000000000000000000000000000000000000000000000000000000000000000000000000000000000000000000000000000000000000000000000000000000000000000000000000000000000000000000000000000000000000000000000000000000000000000000000000000000000000000000000000000000000000000000000000000000000000000000000000000000000000000000000000000000000000000000000000000000000000000000000000000000000000000",
      "type": "0x2",
      "transactionHash": "0x2533c11fec68cf480520b1f8e20296f5e67caee144d7626105d94af453ed04d3",
      "transactionIndex": "0xa",
      "blockHash": "0x10f844b01ada095295767f3dd5a8b4a095863503d5df684b07bc964cee948b76",
      "blockNumber": "0x288f5f7",
      "gasUsed": "0xb49a",
      "effectiveGasPrice": "0xfb",
      "blobGasUsed": "0x9c40",
      "from": "0x05f8cc8753d90d67dbb8c02118440b8283f941c9",
      "to": "0x1d64595c11a4727551cc11d12d2f7239a64e15f0",
      "contractAddress": null,
      "daFootprintGasScalar": "0x190",
      "l1BaseFeeScalar": "0x1db0",
      "l1BlobBaseFee": "0x6774b0",
      "l1BlobBaseFeeScalar": "0xd2730",
      "l1Fee": "0x712ce368",
      "l1GasPrice": "0x6714279",
      "l1GasUsed": "0x640"
    },
    {
      "status": "0x1",
      "cumulativeGasUsed": "0xc3b16",
      "logs": [],
      "logsBloom": "0x00000000000000000000000000000000000000000000000000000000000000000000000000000000000000000000000000000000000000000000000000000000000000000000000000000000000000000000000000000000000000000000000000000000000000000000000000000000000000000000000000000000000000000000000000000000000000000000000000000000000000000000000000000000000000000000000000000000000000000000000000000000000000000000000000000000000000000000000000000000000000000000000000000000000000000000000000000000000000000000000000000000000000000000000000000000",
      "type": "0x2",
      "transactionHash": "0xac294127b08903fcaab98596ff2260fb1dadfaddc0049df027bb22e1ada17969",
      "transactionIndex": "0xb",
      "blockHash": "0x10f844b01ada095295767f3dd5a8b4a095863503d5df684b07bc964cee948b76",
      "blockNumber": "0x288f5f7",
      "gasUsed": "0xb4f0",
      "effectiveGasPrice": "0xfb",
      "blobGasUsed": "0x9c40",
      "from": "0x05f8cc8753d90d67dbb8c02118440b8283f941c9",
      "to": "0x1d64595c11a4727551cc11d12d2f7239a64e15f0",
      "contractAddress": null,
      "daFootprintGasScalar": "0x190",
      "l1BaseFeeScalar": "0x1db0",
      "l1BlobBaseFee": "0x6774b0",
      "l1BlobBaseFeeScalar": "0xd2730",
      "l1Fee": "0x712ce368",
      "l1GasPrice": "0x6714279",
      "l1GasUsed": "0x640"
    },
    {
      "status": "0x1",
      "cumulativeGasUsed": "0xcefce",
      "logs": [],
      "logsBloom": "0x00000000000000000000000000000000000000000000000000000000000000000000000000000000000000000000000000000000000000000000000000000000000000000000000000000000000000000000000000000000000000000000000000000000000000000000000000000000000000000000000000000000000000000000000000000000000000000000000000000000000000000000000000000000000000000000000000000000000000000000000000000000000000000000000000000000000000000000000000000000000000000000000000000000000000000000000000000000000000000000000000000000000000000000000000000000",
      "type": "0x2",
      "transactionHash": "0xd854a9205408b03917c724f3bc795ca98c771799db0d2a2bc8ada89c82ef11af",
      "transactionIndex": "0xc",
      "blockHash": "0x10f844b01ada095295767f3dd5a8b4a095863503d5df684b07bc964cee948b76",
      "blockNumber": "0x288f5f7",
      "gasUsed": "0xb4b8",
      "effectiveGasPrice": "0xfb",
      "blobGasUsed": "0x9c40",
      "from": "0x05f8cc8753d90d67dbb8c02118440b8283f941c9",
      "to": "0x1d64595c11a4727551cc11d12d2f7239a64e15f0",
      "contractAddress": null,
      "daFootprintGasScalar": "0x190",
      "l1BaseFeeScalar": "0x1db0",
      "l1BlobBaseFee": "0x6774b0",
      "l1BlobBaseFeeScalar": "0xd2730",
      "l1Fee": "0x712ce368",
      "l1GasPrice": "0x6714279",
      "l1GasUsed": "0x640"
    },
    {
      "status": "0x1",
      "cumulativeGasUsed": "0xd5504",
      "logs": [],
      "logsBloom": "0x00000000000000000000000000000000000000000000000000000000000000000000000000000000000000000000000000000000000000000000000000000000000000000000000000000000000000000000000000000000000000000000000000000000000000000000000000000000000000000000000000000000000000000000000000000000000000000000000000000000000000000000000000000000000000000000000000000000000000000000000000000000000000000000000000000000000000000000000000000000000000000000000000000000000000000000000000000000000000000000000000000000000000000000000000000000",
      "type": "0x2",
      "transactionHash": "0xba19cbcd705ccfbdfdb23aaa8c31f7cc605d933eece53b539e2887883f8e5952",
      "transactionIndex": "0xd",
      "blockHash": "0x10f844b01ada095295767f3dd5a8b4a095863503d5df684b07bc964cee948b76",
      "blockNumber": "0x288f5f7",
      "gasUsed": "0x6536",
      "effectiveGasPrice": "0xfb",
      "blobGasUsed": "0x9c40",
      "from": "0x05f8cc8753d90d67dbb8c02118440b8283f941c9",
      "to": "0x1d64595c11a4727551cc11d12d2f7239a64e15f0",
      "contractAddress": null,
      "daFootprintGasScalar": "0x190",
      "l1BaseFeeScalar": "0x1db0",
      "l1BlobBaseFee": "0x6774b0",
      "l1BlobBaseFeeScalar": "0xd2730",
      "l1Fee": "0x712ce368",
      "l1GasPrice": "0x6714279",
      "l1GasUsed": "0x640"
    },
    {
      "status": "0x1",
      "cumulativeGasUsed": "0xebe10",
      "logs": [],
      "logsBloom": "0x00000000000000000000000000000000000000000000000000000000000000000000000000000000000000000000000000000000000000000000000000000000000000000000000000000000000000000000000000000000000000000000000000000000000000000000000000000000000000000000000000000000000000000000000000000000000000000000000000000000000000000000000000000000000000000000000000000000000000000000000000000000000000000000000000000000000000000000000000000000000000000000000000000000000000000000000000000000000000000000000000000000000000000000000000000000",
      "type": "0x2",
      "transactionHash": "0xec74f61dbfc7b0e1e1f7279356f1ccbfcc115f55ef3261e7f47a12df9d0d6517",
      "transactionIndex": "0xe",
      "blockHash": "0x10f844b01ada095295767f3dd5a8b4a095863503d5df684b07bc964cee948b76",
      "blockNumber": "0x288f5f7",
      "gasUsed": "0x1690c",
      "effectiveGasPrice": "0xfb",
      "blobGasUsed": "0xd610",
      "from": "0x05f8cc8753d90d67dbb8c02118440b8283f941c9",
      "to": "0xd0a943f871a4cbc0288ee2eaaae7092b68a1247a",
      "contractAddress": null,
      "daFootprintGasScalar": "0x190",
      "l1BaseFeeScalar": "0x1db0",
      "l1BlobBaseFee": "0x6774b0",
      "l1BlobBaseFeeScalar": "0xd2730",
      "l1Fee": "0x9b58bcab",
      "l1GasPrice": "0x6714279",
      "l1GasUsed": "0x894"
    },
    {
      "status": "0x1",
      "cumulativeGasUsed": "0x10d3e0",
      "logs": [],
      "logsBloom": "0x00000000000000000000000000000000000000000000000000000000000000000000000000000000000000000000000000000000000000000000000000000000000000000000000000000000000000000000000000000000000000000000000000000000000000000000000000000000000000000000000000000000000000000000000000000000000000000000000000000000000000000000000000000000000000000000000000000000000000000000000000000000000000000000000000000000000000000000000000000000000000000000000000000000000000000000000000000000000000000000000000000000000000000000000000000000",
      "type": "0x2",
      "transactionHash": "0xde1ba9e000d37ea3baf440ef9d859533ad80511164d3275b680ce10ca1eeb4af",
      "transactionIndex": "0xf",
      "blockHash": "0x10f844b01ada095295767f3dd5a8b4a095863503d5df684b07bc964cee948b76",
      "blockNumber": "0x288f5f7",
      "gasUsed": "0x215d0",
      "effectiveGasPrice": "0xfb",
      "blobGasUsed": "0xc990",
      "from": "0x05f8cc8753d90d67dbb8c02118440b8283f941c9",
      "to": "0x1f031f7a2652fd6f10f1fb37befaac8a69039f08",
      "contractAddress": null,
      "daFootprintGasScalar": "0x190",
      "l1BaseFeeScalar": "0x1db0",
      "l1BlobBaseFee": "0x6774b0",
      "l1BlobBaseFeeScalar": "0xd2730",
      "l1Fee": "0x92d3835a",
      "l1GasPrice": "0x6714279",
      "l1GasUsed": "0x81b"
    },
    {
      "status": "0x1",
      "cumulativeGasUsed": "0x119c77",
      "logs": [
        {
          "address": "0x50d03965ed30de5d246bdda18e7b10a8904b8cf1",
          "topics": [
            "0xd67543d9b94fa2fae98cd5cd9409f07a5b3532a8433e6122d97c34dfc9735b52"
          ],
          "data": "0x000000000000000000000000000000000000000000000000000000000000006000000000000000000000000000000000000000000000000000000000000000a00000000000000000000000000000000000000000000000000000000000000001000000000000000000000000000000000000000000000000000000000000000c626173652d7365706f6c69610000000000000000000000000000000000000000000000000000000000000000000000000000000000000000000000000000001410afefdb684ba1e7afaebbafe10e4117410a60e4000000000000000000000000",
          "blockHash": "0x10f844b01ada095295767f3dd5a8b4a095863503d5df684b07bc964cee948b76",
          "blockNumber": "0x288f5f7",
          "blockTimestamp": "0x69e8c79a",
          "transactionHash": "0x5a0e0ba2c90485b4ff4fa1c77efd2bad05ad27df2f747b697fe8aa688f01b78c",
          "transactionIndex": "0x10",
          "logIndex": "0x4",
          "removed": false
        }
      ],
      "logsBloom": "0x00000000000000000000000000000000040000000000000000000000002000000000200000000000000000000000000000000000000000000000000000000000000000000000000000000000000000000000000000000000000000000000000000000000000000000000000000000000000004000000000000000000000000000000000000000000000000000000000000000000000000040000000000000000000000000000000000000000000000000000000000000000000000000000000000000000000000000000000000000000000000000000000000000000000000000000002000000000000000000000000000000000000000000000000000000000",
      "type": "0x2",
      "transactionHash": "0x5a0e0ba2c90485b4ff4fa1c77efd2bad05ad27df2f747b697fe8aa688f01b78c",
      "transactionIndex": "0x10",
      "blockHash": "0x10f844b01ada095295767f3dd5a8b4a095863503d5df684b07bc964cee948b76",
      "blockNumber": "0x288f5f7",
      "gasUsed": "0xc897",
      "effectiveGasPrice": "0xfb",
      "blobGasUsed": "0xa8c0",
      "from": "0x05f8cc8753d90d67dbb8c02118440b8283f941c9",
      "to": "0x50d03965ed30de5d246bdda18e7b10a8904b8cf1",
      "contractAddress": null,
      "daFootprintGasScalar": "0x190",
      "l1BaseFeeScalar": "0x1db0",
      "l1BlobBaseFee": "0x6774b0",
      "l1BlobBaseFeeScalar": "0xd2730",
      "l1Fee": "0x7b288ecd",
      "l1GasPrice": "0x6714279",
      "l1GasUsed": "0x6cd"
    },
    {
      "status": "0x1",
      "cumulativeGasUsed": "0x125b33",
      "logs": [
        {
          "address": "0x50d03965ed30de5d246bdda18e7b10a8904b8cf1",
          "topics": [
            "0xda7086ba3a561c749f4ec23ff7de600b64878a9dca1be22c201e6bd9e630bc91",
            "0x4d2fdc120be87ecf5661b7a75144d5d4b507b525eeb8c9c85c346a255e3b9663",
            "0x0000000000000000000000002f2a9dbfd8c503a0ac56413b774e39030df85331"
          ],
          "data": "0x0000000000000000000000000000000000000000000000000000000000000001",
          "blockHash": "0x10f844b01ada095295767f3dd5a8b4a095863503d5df684b07bc964cee948b76",
          "blockNumber": "0x288f5f7",
          "blockTimestamp": "0x69e8c79a",
          "transactionHash": "0x27768cd59aed5bf472d1c09300c397c9e1138b47cb0f6bd556124a7d8747256c",
          "transactionIndex": "0x11",
          "logIndex": "0x5",
          "removed": false
        }
      ],
      "logsBloom": "0x00000000000000000000000000000000040000000000000000000000002000000000200000000000000000000000000000000000000010000000000010000000020000000000000000000000000000000000000001000000040000000000000000000800000000000000000000000000000000000000000000000000000000000800000000000000000000000000000000000000000000000000000000000000000000000000000000000000000000000000000000000000000000020000000000000000000000000000000000000000000000000000000000000000000000000040000000000000000000000000000000000000000000000000000000000000",
      "type": "0x2",
      "transactionHash": "0x27768cd59aed5bf472d1c09300c397c9e1138b47cb0f6bd556124a7d8747256c",
      "transactionIndex": "0x11",
      "blockHash": "0x10f844b01ada095295767f3dd5a8b4a095863503d5df684b07bc964cee948b76",
      "blockNumber": "0x288f5f7",
      "gasUsed": "0xbebc",
      "effectiveGasPrice": "0xfb",
      "blobGasUsed": "0xaa50",
      "from": "0x05f8cc8753d90d67dbb8c02118440b8283f941c9",
      "to": "0x50d03965ed30de5d246bdda18e7b10a8904b8cf1",
      "contractAddress": null,
      "daFootprintGasScalar": "0x190",
      "l1BaseFeeScalar": "0x1db0",
      "l1BlobBaseFee": "0x6774b0",
      "l1BlobBaseFeeScalar": "0xd2730",
      "l1Fee": "0x7c1aea81",
      "l1GasPrice": "0x6714279",
      "l1GasUsed": "0x6da"
    },
    {
      "status": "0x1",
      "cumulativeGasUsed": "0x131655",
      "logs": [
        {
          "address": "0xf1c5241faefc0db9b9333d9e2196e992a20dfd3d",
          "topics": [
            "0x096f300665a57908ac1627e5a821ea670d2a90da7c601a19bf265f8553453f28",
            "0x0000000000000000000000000000000000000000000000000000000000009d35",
            "0x00000000000000000000000025ea20f5b3b0104dc65903a5fef5066ce018d6f0"
          ],
          "data": "0x",
          "blockHash": "0x10f844b01ada095295767f3dd5a8b4a095863503d5df684b07bc964cee948b76",
          "blockNumber": "0x288f5f7",
          "blockTimestamp": "0x69e8c79a",
          "transactionHash": "0x67b49fb6cd1d23cb675caaa196eb00ba6b505e78af58fd79a5da7c5739ce53f4",
          "transactionIndex": "0x12",
          "logIndex": "0x6",
          "removed": false
        }
      ],
      "logsBloom": "0x00000000000000000000000000000000000000000000000000000000400000000000000000000000000000000000000000000000000000000000000000000000000000420000000000000000000000000000000000000001080000000000000000000800000000000000000000000000000000000000000000000000000000000000000000000000000000000000000000000000000004000000000000000000000000000000000000000000000000000000000000000000000000000000000002000000000000000000000000000000000000000000000000000000000000400000000000000000200000000000000000000000000100100000000000000000",
      "type": "0x2",
      "transactionHash": "0x67b49fb6cd1d23cb675caaa196eb00ba6b505e78af58fd79a5da7c5739ce53f4",
      "transactionIndex": "0x12",
      "blockHash": "0x10f844b01ada095295767f3dd5a8b4a095863503d5df684b07bc964cee948b76",
      "blockNumber": "0x288f5f7",
      "gasUsed": "0xbb22",
      "effectiveGasPrice": "0xfb",
      "blobGasUsed": "0x9c40",
      "from": "0x05f8cc8753d90d67dbb8c02118440b8283f941c9",
      "to": "0xf1c5241faefc0db9b9333d9e2196e992a20dfd3d",
      "contractAddress": null,
      "daFootprintGasScalar": "0x190",
      "l1BaseFeeScalar": "0x1db0",
      "l1BlobBaseFee": "0x6774b0",
      "l1BlobBaseFeeScalar": "0xd2730",
      "l1Fee": "0x712ce368",
      "l1GasPrice": "0x6714279",
      "l1GasUsed": "0x640"
    },
    {
      "status": "0x1",
      "cumulativeGasUsed": "0x1382ca",
      "logs": [
        {
          "address": "0xc1d9a1f64291cf47e703eab6b27fa0660cae7324",
          "topics": [
            "0x238399d427b947898edb290f5ff0f9109849b1c3ba196a42e35f00c50a54b98b"
          ],
          "data": "0x0000000000000000000000000000000000000000000000000000000000009d350000000000000000000000001500116d88b6583e63e2fa9d4199f2eddf72149b",
          "blockHash": "0x10f844b01ada095295767f3dd5a8b4a095863503d5df684b07bc964cee948b76",
          "blockNumber": "0x288f5f7",
          "blockTimestamp": "0x69e8c79a",
          "transactionHash": "0xf79723dac7faff055db91e6cbb0627da91d477d2d96738d44bbd80e74db76062",
          "transactionIndex": "0x13",
          "logIndex": "0x7",
          "removed": false
        }
      ],
      "logsBloom": "0x00000000000000000000000000000000000000000000000000000000000000000000000000000000000000000000000000000000000000000800000000000000000000000008000000000000020000000000000000000000000000000000000000000000000000000000000000000000000000000000000000000000000000000000000000000000000000000000000000000000000000000000000000000000000000000000000000000000000000000000000000000000000002000000000000000000000000000000000000000400000000000000000000040000000000000000000000000000000000000000000000000000000000000000000000000000",
      "type": "0x2",
      "transactionHash": "0xf79723dac7faff055db91e6cbb0627da91d477d2d96738d44bbd80e74db76062",
      "transactionIndex": "0x13",
      "blockHash": "0x10f844b01ada095295767f3dd5a8b4a095863503d5df684b07bc964cee948b76",
      "blockNumber": "0x288f5f7",
      "gasUsed": "0x6c75",
      "effectiveGasPrice": "0xfb",
      "blobGasUsed": "0x9c40",
      "from": "0x05f8cc8753d90d67dbb8c02118440b8283f941c9",
      "to": "0xc1d9a1f64291cf47e703eab6b27fa0660cae7324",
      "contractAddress": null,
      "daFootprintGasScalar": "0x190",
      "l1BaseFeeScalar": "0x1db0",
      "l1BlobBaseFee": "0x6774b0",
      "l1BlobBaseFeeScalar": "0xd2730",
      "l1Fee": "0x712ce368",
      "l1GasPrice": "0x6714279",
      "l1GasUsed": "0x640"
    }
  ],
  "libraries": [],
  "pending": [],
  "returns": {},
  "timestamp": 1776863131642,
  "chain": 11155420,
  "commit": "9240e6b"
}