{
  "transactions": [
    {
      "hash": "0x6338988ed43a936e8c73a08502587c15f40b2e12e5bccde805b2e5babeb9d649",
      "transactionType": "CALL",
      "contractName": null,
      "contractAddress": "0x5e8297763d7448718917b16b88347766b0920af9",
      "function": "registerRailPlugin(address)",
      "arguments": [
        "0x6A790BF1991d3a53b81Bb9316fb3B3E8217C5699"
      ],
      "transaction": {
        "from": "0x05f8cc8753d90d67dbb8c02118440b8283f941c9",
        "to": "0x5e8297763d7448718917b16b88347766b0920af9",
        "gas": "0x22f16",
        "value": "0x0",
        "input": "0x172ceb340000000000000000000000006a790bf1991d3a53b81bb9316fb3b3e8217c5699",
        "nonce": "0x36",
        "chainId": "0xaa37dc"
      },
      "additionalContracts": [],
      "isFixedGasLimit": false
    },
    {
      "hash": "0x4ac71a6c003f5591e2e46a3045856a69764390243cf5aa8184584c68e55173d7",
      "transactionType": "CALL",
      "contractName": null,
      "contractAddress": "0xbc4cbd47e7bf5eec5ede5f3a805c8dcc20d843a0",
      "function": "addApprovedCaller(address)",
      "arguments": [
        "0xd8016e376e15b20Fc321a37fD69DC42cfDf951Bb"
      ],
      "transaction": {
        "from": "0x05f8cc8753d90d67dbb8c02118440b8283f941c9",
        "to": "0xbc4cbd47e7bf5eec5ede5f3a805c8dcc20d843a0",
        "gas": "0x8de9",
        "value": "0x0",
        "input": "0xab5cb85a000000000000000000000000d8016e376e15b20fc321a37fd69dc42cfdf951bb",
        "nonce": "0x37",
        "chainId": "0xaa37dc"
      },
      "additionalContracts": [],
      "isFixedGasLimit": false
    },
    {
      "hash": "0x593ccc127f840aba5e0fd07f76bd059c41afadc79dbadc6cfc8495da4866d320",
      "transactionType": "CALL",
      "contractName": null,
      "contractAddress": "0xbc4cbd47e7bf5eec5ede5f3a805c8dcc20d843a0",
      "function": "addApprovedCaller(address)",
      "arguments": [
        "0x05F8cC8753D90d67DBB8c02118440b8283F941c9"
      ],
      "transaction": {
        "from": "0x05f8cc8753d90d67dbb8c02118440b8283f941c9",
        "to": "0xbc4cbd47e7bf5eec5ede5f3a805c8dcc20d843a0",
        "gas": "0x8de9",
        "value": "0x0",
        "input": "0xab5cb85a00000000000000000000000005f8cc8753d90d67dbb8c02118440b8283f941c9",
        "nonce": "0x38",
        "chainId": "0xaa37dc"
      },
      "additionalContracts": [],
      "isFixedGasLimit": false
    },
    {
      "hash": "0x57a8f095b078d781802bc5c74858c2c7aedfcf47d269645cd802e60862155b7f",
      "transactionType": "CALL",
      "contractName": null,
      "contractAddress": "0xbc4cbd47e7bf5eec5ede5f3a805c8dcc20d843a0",
      "function": "addApprovedCaller(address)",
      "arguments": [
        "0x96e67D7295A0Bca3E57c7DE9a1A9bF28fd56FFDc"
      ],
      "transaction": {
        "from": "0x05f8cc8753d90d67dbb8c02118440b8283f941c9",
        "to": "0xbc4cbd47e7bf5eec5ede5f3a805c8dcc20d843a0",
        "gas": "0x8de9",
        "value": "0x0",
        "input": "0xab5cb85a00000000000000000000000096e67d7295a0bca3e57c7de9a1a9bf28fd56ffdc",
        "nonce": "0x39",
        "chainId": "0xaa37dc"
      },
      "additionalContracts": [],
      "isFixedGasLimit": false
    },
    {
      "hash": "0x99ad4bc5c263f2cd312892b3154ae40c867f6de2fcd6404e5011cdc604804cdc",
      "transactionType": "CALL",
      "contractName": null,
      "contractAddress": "0xb1b9c30c08c37af935cda3be0e3f124a580cb1a6",
      "function": "setChainDomain(uint32,uint32)",
      "arguments": [
        "84532",
        "6"
      ],
      "transaction": {
        "from": "0x05f8cc8753d90d67dbb8c02118440b8283f941c9",
        "to": "0xb1b9c30c08c37af935cda3be0e3f124a580cb1a6",
        "gas": "0x9630",
        "value": "0x0",
        "input": "0x7ef0d2870000000000000000000000000000000000000000000000000000000000014a340000000000000000000000000000000000000000000000000000000000000006",
        "nonce": "0x3a",
        "chainId": "0xaa37dc"
      },
      "additionalContracts": [],
      "isFixedGasLimit": false
    },
    {
      "hash": "0xf8629373513f6a0bb77b0bdb81eae172dc79b02af6a614acbd4c9a21de9ee7f0",
      "transactionType": "CALL",
      "contractName": null,
      "contractAddress": "0xb1b9c30c08c37af935cda3be0e3f124a580cb1a6",
      "function": "setDestinationReceiver(uint32,bytes32)",
      "arguments": [
        "84532",
        "0x0000000000000000000000008fb0438d0799c52920515b31310f53452c33e066"
      ],
      "transaction": {
        "from": "0x05f8cc8753d90d67dbb8c02118440b8283f941c9",
        "to": "0xb1b9c30c08c37af935cda3be0e3f124a580cb1a6",
        "gas": "0x970f",
        "value": "0x0",
        "input": "0x0267dd6c0000000000000000000000000000000000000000000000000000000000014a340000000000000000000000008fb0438d0799c52920515b31310f53452c33e066",
        "nonce": "0x3b",
        "chainId": "0xaa37dc"
      },
      "additionalContracts": [],
      "isFixedGasLimit": false
    },
    {
      "hash": "0x4e4cca21e63a6b528868000295616028f780d160089b3a59dac1ef74568f68d0",
      "transactionType": "CALL",
      "contractName": null,
      "contractAddress": "0xb1b9c30c08c37af935cda3be0e3f124a580cb1a6",
      "function": "setDestinationCaller(uint32,bytes32)",
      "arguments": [
        "84532",
        "0x0000000000000000000000000000000000000000000000000000000000000000"
      ],
      "transaction": {
        "from": "0x05f8cc8753d90d67dbb8c02118440b8283f941c9",
        "to": "0xb1b9c30c08c37af935cda3be0e3f124a580cb1a6",
        "gas": "0x8cf2",
        "value": "0x0",
        "input": "0x00686ed20000000000000000000000000000000000000000000000000000000000014a340000000000000000000000000000000000000000000000000000000000000000",
        "nonce": "0x3c",
        "chainId": "0xaa37dc"
      },
      "additionalContracts": [],
      "isFixedGasLimit": false
    },
    {
      "hash": "0xdca2905982962684390e64b707bfa2ca85728e258ab2b2c1d2266d72af80a2c0",
      "transactionType": "CALL",
      "contractName": null,
      "contractAddress": "0x6a790bf1991d3a53b81bb9316fb3b3e8217c5699",
      "function": "setChainDomain(uint32,uint32)",
      "arguments": [
        "84532",
        "6"
      ],
      "transaction": {
        "from": "0x05f8cc8753d90d67dbb8c02118440b8283f941c9",
        "to": "0x6a790bf1991d3a53b81bb9316fb3b3e8217c5699",
        "gas": "0x8e14",
        "value": "0x0",
        "input": "0x7ef0d2870000000000000000000000000000000000000000000000000000000000014a340000000000000000000000000000000000000000000000000000000000000006",
        "nonce": "0x3d",
        "chainId": "0xaa37dc"
      },
      "additionalContracts": [],
      "isFixedGasLimit": false
    },
    {
      "hash": "0xaebed422f82e30d7fe74437a38100370eeb69073e90a0f9303e7e300eeaba76c",
      "transactionType": "CALL",
      "contractName": null,
      "contractAddress": "0x6a790bf1991d3a53b81bb9316fb3b3e8217c5699",
      "function": "setDestinationReceiver(uint32,bytes32)",
      "arguments": [
        "84532",
        "0x0000000000000000000000008fb0438d0799c52920515b31310f53452c33e066"
      ],
      "transaction": {
        "from": "0x05f8cc8753d90d67dbb8c02118440b8283f941c9",
        "to": "0x6a790bf1991d3a53b81bb9316fb3b3e8217c5699",
        "gas": "0x8e8c",
        "value": "0x0",
        "input": "0x0267dd6c0000000000000000000000000000000000000000000000000000000000014a340000000000000000000000008fb0438d0799c52920515b31310f53452c33e066",
        "nonce": "0x3e",
        "chainId": "0xaa37dc"
      },
      "additionalContracts": [],
      "isFixedGasLimit": false
    },
    {
      "hash": "0xf00cee113d630ebd884a5b973f04c0e84ab0615adeec091108fb94b64ed84f80",
      "transactionType": "CALL",
      "contractName": null,
      "contractAddress": "0x6a790bf1991d3a53b81bb9316fb3b3e8217c5699",
      "function": "setDestinationCaller(uint32,bytes32)",
      "arguments": [
        "84532",
        "0x0000000000000000000000000000000000000000000000000000000000000000"
      ],
      "transaction": {
        "from": "0x05f8cc8753d90d67dbb8c02118440b8283f941c9",
        "to": "0x6a790bf1991d3a53b81bb9316fb3b3e8217c5699",
        "gas": "0x8cf2",
        "value": "0x0",
        "input": "0x00686ed20000000000000000000000000000000000000000000000000000000000014a340000000000000000000000000000000000000000000000000000000000000000",
        "nonce": "0x3f",
        "chainId": "0xaa37dc"
      },
      "additionalContracts": [],
      "isFixedGasLimit": false
    },
    {
      "hash": "0x808d9351dd0f7dc6d8fd9303adc6d372f3e2a9620922ce9daf12c2cca4540021",
      "transactionType": "CALL",
      "contractName": null,
      "contractAddress": "0x6a790bf1991d3a53b81bb9316fb3b3e8217c5699",
      "function": "setMaxFeeBpsCap(uint256)",
      "arguments": [
        "100"
      ],
      "transaction": {
        "from": "0x05f8cc8753d90d67dbb8c02118440b8283f941c9",
        "to": "0x6a790bf1991d3a53b81bb9316fb3b3e8217c5699",
        "gas": "0x8bcb",
        "value": "0x0",
        "input": "0x357c4ea70000000000000000000000000000000000000000000000000000000000000064",
        "nonce": "0x40",
        "chainId": "0xaa37dc"
      },
      "additionalContracts": [],
      "isFixedGasLimit": false
    },
    {
      "hash": "0xce4db17a8ea2e353eda1c94e92d4fb5574720029b6d0aa8701cb00dd61ff2245",
      "transactionType": "CALL",
      "contractName": null,
      "contractAddress": "0xa73776c0aae79382d8003b1fc7648b5ab32889d0",
      "function": "setRouteConfig(uint32,string,address,bytes32)",
      "arguments": [
        "84532",
        "base-sepolia",
        "0xd8016e376e15b20Fc321a37fD69DC42cfDf951Bb",
        "0x4d2fdc120be87ecf5661b7a75144d5d4b507b525eeb8c9c85c346a255e3b9663"
      ],
      "transaction": {
        "from": "0x05f8cc8753d90d67dbb8c02118440b8283f941c9",
        "to": "0xa73776c0aae79382d8003b1fc7648b5ab32889d0",
        "gas": "0xb09c",
        "value": "0x0",
        "input": "0x7513a82a0000000000000000000000000000000000000000000000000000000000014a340000000000000000000000000000000000000000000000000000000000000080000000000000000000000000d8016e376e15b20fc321a37fd69dc42cfdf951bb4d2fdc120be87ecf5661b7a75144d5d4b507b525eeb8c9c85c346a255e3b9663000000000000000000000000000000000000000000000000000000000000000c626173652d7365706f6c69610000000000000000000000000000000000000000",
        "nonce": "0x41",
        "chainId": "0xaa37dc"
      },
      "additionalContracts": [],
      "isFixedGasLimit": false
    },
    {
      "hash": "0x7bc7c891599ba79890131d50d61c8d5844fe496e40443e822413862e5de53f59",
      "transactionType": "CALL",
      "contractName": null,
      "contractAddress": "0x55cc592be7e49c4020e67a895fee9474c7d71dbc",
      "function": "setRouteConfig(uint32,uint32,address,bytes)",
      "arguments": [
        "84532",
        "40245",
        "0x4e5d1Ff12514cC396aA37757878A02433887EDe0",
        "0x00030100110100000000000000000000000000030d4001001303000000000000000000000000000000061a80"
      ],
      "transaction": {
        "from": "0x05f8cc8753d90d67dbb8c02118440b8283f941c9",
        "to": "0x55cc592be7e49c4020e67a895fee9474c7d71dbc",
        "gas": "0xc941",
        "value": "0x0",
        "input": "0xd5bfb7fa0000000000000000000000000000000000000000000000000000000000014a340000000000000000000000000000000000000000000000000000000000009d350000000000000000000000004e5d1ff12514cc396aa37757878a02433887ede00000000000000000000000000000000000000000000000000000000000000080000000000000000000000000000000000000000000000000000000000000002c00030100110100000000000000000000000000030d4001001303000000000000000000000000000000061a800000000000000000000000000000000000000000",
        "nonce": "0x42",
        "chainId": "0xaa37dc"
      },
      "additionalContracts": [],
      "isFixedGasLimit": false
    }
  ],
  "receipts": [
    {
      "status": "0x1",
      "cumulativeGasUsed": "0x2495b",
      "logs": [
        {
          "address": "0x5e8297763d7448718917b16b88347766b0920af9",
          "topics": [
            "0xa86330cede453edbe00d0dbe74ee3bdbac6d7b048009b0d72d54aa609df01a71",
            "0x9181644edfd36b07ccd623494a3681a4a6b9cd5d52611accda20264cd09259ac"
          ],
          "data": "0x0000000000000000000000006a790bf1991d3a53b81bb9316fb3b3e8217c56990000000000000000000000000000000000000000000000000000000000000000",
          "blockHash": "0xbda0d31949d8705dd0885b1f3fef6c308ec78e29257524f998b49663ee5decbf",
          "blockNumber": "0x287bcfb",
          "blockTimestamp": "0x69e655a2",
          "transactionHash": "0xaebed422f82e30d7fe74437a38100370eeb69073e90a0f9303e7e300eeaba76c",
          "transactionIndex": "0x1",
          "logIndex": "0x0",
          "removed": false
        }
      ],
      "logsBloom": "0x00000000000000002000000000000000000000004000000000000020000000008000000000000000000000000000000000000000000000000000000000000000000000000000000000000000000000000000000000000000000000000000000000000000000000000000000000000000000000000000000000000000000000000000000000000008000000000000000000000000000000400000000000000000000000000000000000000000000000000000000000000000000000000000000000000000000000000000000000200000000000400000000000000000000000000000040000000000000000000000000000000000000000000000000000000000",
      "type": "0x2",
      "transactionHash": "0xaebed422f82e30d7fe74437a38100370eeb69073e90a0f9303e7e300eeaba76c",
      "transactionIndex": "0x1",
      "blockHash": "0xbda0d31949d8705dd0885b1f3fef6c308ec78e29257524f998b49663ee5decbf",
      "blockNumber": "0x287bcfb",
      "gasUsed": "0x194c5",
      "effectiveGasPrice": "0xfb",
      "blobGasUsed": "0x9c40",
      "from": "0x05f8cc8753d90d67dbb8c02118440b8283f941c9",
      "to": "0x5e8297763d7448718917b16b88347766b0920af9",
      "contractAddress": null,
      "daFootprintGasScalar": "0x190",
      "l1BaseFeeScalar": "0x1db0",
      "l1BlobBaseFee": "0x762a8e6",
      "l1BlobBaseFeeScalar": "0xd2730",
      "l1Fee": "0x7d4b440a9",
      "l1GasPrice": "0x7081c222",
      "l1GasUsed": "0x640"
    },
    {
      "status": "0x1",
      "cumulativeGasUsed": "0x2b01a",
      "logs": [],
      "logsBloom": "0x00000000000000000000000000000000000000000000000000000000000000000000000000000000000000000000000000000000000000000000000000000000000000000000000000000000000000000000000000000000000000000000000000000000000000000000000000000000000000000000000000000000000000000000000000000000000000000000000000000000000000000000000000000000000000000000000000000000000000000000000000000000000000000000000000000000000000000000000000000000000000000000000000000000000000000000000000000000000000000000000000000000000000000000000000000000",
      "type": "0x2",
      "transactionHash": "0xdca2905982962684390e64b707bfa2ca85728e258ab2b2c1d2266d72af80a2c0",
      "transactionIndex": "0x2",
      "blockHash": "0x0000000000000000000000000000000000000000000000000000000000000000",
      "blockNumber": "0x287bcfb",
      "gasUsed": "0x66bf",
      "effectiveGasPrice": "0xfb",
      "blobGasUsed": "0x9c40",
      "from": "0x05f8cc8753d90d67dbb8c02118440b8283f941c9",
      "to": "0xbc4cbd47e7bf5eec5ede5f3a805c8dcc20d843a0",
      "contractAddress": null,
      "daFootprintGasScalar": "0x190",
      "l1BaseFeeScalar": "0x1db0",
      "l1BlobBaseFee": "0x762a8e6",
      "l1BlobBaseFeeScalar": "0xd2730",
      "l1Fee": "0x7d4b440a9",
      "l1GasPrice": "0x7081c222",
      "l1GasUsed": "0x640"
    },
    {
      "status": "0x1",
      "cumulativeGasUsed": "0x316d9",
      "logs": [],
      "logsBloom": "0x00000000000000000000000000000000000000000000000000000000000000000000000000000000000000000000000000000000000000000000000000000000000000000000000000000000000000000000000000000000000000000000000000000000000000000000000000000000000000000000000000000000000000000000000000000000000000000000000000000000000000000000000000000000000000000000000000000000000000000000000000000000000000000000000000000000000000000000000000000000000000000000000000000000000000000000000000000000000000000000000000000000000000000000000000000000",
      "type": "0x2",
      "transactionHash": "0xf8629373513f6a0bb77b0bdb81eae172dc79b02af6a614acbd4c9a21de9ee7f0",
      "transactionIndex": "0x3",
      "blockHash": "0x0000000000000000000000000000000000000000000000000000000000000000",
      "blockNumber": "0x287bcfb",
      "gasUsed": "0x66bf",
      "effectiveGasPrice": "0xfb",
      "blobGasUsed": "0x9c40",
      "from": "0x05f8cc8753d90d67dbb8c02118440b8283f941c9",
      "to": "0xbc4cbd47e7bf5eec5ede5f3a805c8dcc20d843a0",
      "contractAddress": null,
      "daFootprintGasScalar": "0x190",
      "l1BaseFeeScalar": "0x1db0",
      "l1BlobBaseFee": "0x762a8e6",
      "l1BlobBaseFeeScalar": "0xd2730",
      "l1Fee": "0x7d4b440a9",
      "l1GasPrice": "0x7081c222",
      "l1GasUsed": "0x640"
    },
    {
      "status": "0x1",
      "cumulativeGasUsed": "0x37d98",
      "logs": [],
      "logsBloom": "0x00000000000000000000000000000000000000000000000000000000000000000000000000000000000000000000000000000000000000000000000000000000000000000000000000000000000000000000000000000000000000000000000000000000000000000000000000000000000000000000000000000000000000000000000000000000000000000000000000000000000000000000000000000000000000000000000000000000000000000000000000000000000000000000000000000000000000000000000000000000000000000000000000000000000000000000000000000000000000000000000000000000000000000000000000000000",
      "type": "0x2",
      "transactionHash": "0x99ad4bc5c263f2cd312892b3154ae40c867f6de2fcd6404e5011cdc604804cdc",
      "transactionIndex": "0x4",
      "blockHash": "0x0000000000000000000000000000000000000000000000000000000000000000",
      "blockNumber": "0x287bcfb",
      "gasUsed": "0x66bf",
      "effectiveGasPrice": "0xfb",
      "blobGasUsed": "0x9c40",
      "from": "0x05f8cc8753d90d67dbb8c02118440b8283f941c9",
      "to": "0xbc4cbd47e7bf5eec5ede5f3a805c8dcc20d843a0",
      "contractAddress": null,
      "daFootprintGasScalar": "0x190",
      "l1BaseFeeScalar": "0x1db0",
      "l1BlobBaseFee": "0x762a8e6",
      "l1BlobBaseFeeScalar": "0xd2730",
      "l1Fee": "0x7d4b440a9",
      "l1GasPrice": "0x7081c222",
      "l1GasUsed": "0x640"
    },
    {
      "status": "0x1",
      "cumulativeGasUsed": "0x3e44a",
      "logs": [],
      "logsBloom": "0x00000000000000000000000000000000000000000000000000000000000000000000000000000000000000000000000000000000000000000000000000000000000000000000000000000000000000000000000000000000000000000000000000000000000000000000000000000000000000000000000000000000000000000000000000000000000000000000000000000000000000000000000000000000000000000000000000000000000000000000000000000000000000000000000000000000000000000000000000000000000000000000000000000000000000000000000000000000000000000000000000000000000000000000000000000000",
      "type": "0x2",
      "transactionHash": "0x57a8f095b078d781802bc5c74858c2c7aedfcf47d269645cd802e60862155b7f",
      "transactionIndex": "0x5",
      "blockHash": "0x0000000000000000000000000000000000000000000000000000000000000000",
      "blockNumber": "0x287bcfb",
      "gasUsed": "0x66b2",
      "effectiveGasPrice": "0xfb",
      "blobGasUsed": "0x9c40",
      "from": "0x05f8cc8753d90d67dbb8c02118440b8283f941c9",
      "to": "0xb1b9c30c08c37af935cda3be0e3f124a580cb1a6",
      "contractAddress": null,
      "daFootprintGasScalar": "0x190",
      "l1BaseFeeScalar": "0x1db0",
      "l1BlobBaseFee": "0x762a8e6",
      "l1BlobBaseFeeScalar": "0xd2730",
      "l1Fee": "0x7d4b440a9",
      "l1GasPrice": "0x7081c222",
      "l1GasUsed": "0x640"
    },
    {
      "status": "0x1",
      "cumulativeGasUsed": "0x44b94",
      "logs": [],
      "logsBloom": "0x00000000000000000000000000000000000000000000000000000000000000000000000000000000000000000000000000000000000000000000000000000000000000000000000000000000000000000000000000000000000000000000000000000000000000000000000000000000000000000000000000000000000000000000000000000000000000000000000000000000000000000000000000000000000000000000000000000000000000000000000000000000000000000000000000000000000000000000000000000000000000000000000000000000000000000000000000000000000000000000000000000000000000000000000000000000",
      "type": "0x2",
      "transactionHash": "0x593ccc127f840aba5e0fd07f76bd059c41afadc79dbadc6cfc8495da4866d320",
      "transactionIndex": "0x6",
      "blockHash": "0x0000000000000000000000000000000000000000000000000000000000000000",
      "blockNumber": "0x287bcfb",
      "gasUsed": "0x674a",
      "effectiveGasPrice": "0xfb",
      "blobGasUsed": "0x9c40",
      "from": "0x05f8cc8753d90d67dbb8c02118440b8283f941c9",
      "to": "0xb1b9c30c08c37af935cda3be0e3f124a580cb1a6",
      "contractAddress": null,
      "daFootprintGasScalar": "0x190",
      "l1BaseFeeScalar": "0x1db0",
      "l1BlobBaseFee": "0x762a8e6",
      "l1BlobBaseFeeScalar": "0xd2730",
      "l1Fee": "0x7d4b440a9",
      "l1GasPrice": "0x7081c222",
      "l1GasUsed": "0x640"
    },
    {
      "status": "0x1",
      "cumulativeGasUsed": "0x4b1a0",
      "logs": [],
      "logsBloom": "0x00000000000000000000000000000000000000000000000000000000000000000000000000000000000000000000000000000000000000000000000000000000000000000000000000000000000000000000000000000000000000000000000000000000000000000000000000000000000000000000000000000000000000000000000000000000000000000000000000000000000000000000000000000000000000000000000000000000000000000000000000000000000000000000000000000000000000000000000000000000000000000000000000000000000000000000000000000000000000000000000000000000000000000000000000000000",
      "type": "0x2",
      "transactionHash": "0x6338988ed43a936e8c73a08502587c15f40b2e12e5bccde805b2e5babeb9d649",
      "transactionIndex": "0x7",
      "blockHash": "0xbda0d31949d8705dd0885b1f3fef6c308ec78e29257524f998b49663ee5decbf",
      "blockNumber": "0x287bcfb",
      "gasUsed": "0x660c",
      "effectiveGasPrice": "0xfb",
      "blobGasUsed": "0x9c40",
      "from": "0x05f8cc8753d90d67dbb8c02118440b8283f941c9",
      "to": "0xb1b9c30c08c37af935cda3be0e3f124a580cb1a6",
      "contractAddress": null,
      "daFootprintGasScalar": "0x190",
      "l1BaseFeeScalar": "0x1db0",
      "l1BlobBaseFee": "0x762a8e6",
      "l1BlobBaseFeeScalar": "0xd2730",
      "l1Fee": "0x7d4b440a9",
      "l1GasPrice": "0x7081c222",
      "l1GasUsed": "0x640"
    },
    {
      "status": "0x1",
      "cumulativeGasUsed": "0x5187e",
      "logs": [],
      "logsBloom": "0x00000000000000000000000000000000000000000000000000000000000000000000000000000000000000000000000000000000000000000000000000000000000000000000000000000000000000000000000000000000000000000000000000000000000000000000000000000000000000000000000000000000000000000000000000000000000000000000000000000000000000000000000000000000000000000000000000000000000000000000000000000000000000000000000000000000000000000000000000000000000000000000000000000000000000000000000000000000000000000000000000000000000000000000000000000000",
      "type": "0x2",
      "transactionHash": "0x4ac71a6c003f5591e2e46a3045856a69764390243cf5aa8184584c68e55173d7",
      "transactionIndex": "0x8",
      "blockHash": "0xbda0d31949d8705dd0885b1f3fef6c308ec78e29257524f998b49663ee5decbf",
      "blockNumber": "0x287bcfb",
      "gasUsed": "0x66de",
      "effectiveGasPrice": "0xfb",
      "blobGasUsed": "0x9c40",
      "from": "0x05f8cc8753d90d67dbb8c02118440b8283f941c9",
      "to": "0x6a790bf1991d3a53b81bb9316fb3b3e8217c5699",
      "contractAddress": null,
      "daFootprintGasScalar": "0x190",
      "l1BaseFeeScalar": "0x1db0",
      "l1BlobBaseFee": "0x762a8e6",
      "l1BlobBaseFeeScalar": "0xd2730",
      "l1Fee": "0x7d4b440a9",
      "l1GasPrice": "0x7081c222",
      "l1GasUsed": "0x640"
    },
    {
      "status": "0x1",
      "cumulativeGasUsed": "0x57fb2",
      "logs": [],
      "logsBloom": "0x00000000000000000000000000000000000000000000000000000000000000000000000000000000000000000000000000000000000000000000000000000000000000000000000000000000000000000000000000000000000000000000000000000000000000000000000000000000000000000000000000000000000000000000000000000000000000000000000000000000000000000000000000000000000000000000000000000000000000000000000000000000000000000000000000000000000000000000000000000000000000000000000000000000000000000000000000000000000000000000000000000000000000000000000000000000",
      "type": "0x2",
      "transactionHash": "0x4e4cca21e63a6b528868000295616028f780d160089b3a59dac1ef74568f68d0",
      "transactionIndex": "0x9",
      "blockHash": "0xbda0d31949d8705dd0885b1f3fef6c308ec78e29257524f998b49663ee5decbf",
      "blockNumber": "0x287bcfb",
      "gasUsed": "0x6734",
      "effectiveGasPrice": "0xfb",
      "blobGasUsed": "0x9c40",
      "from": "0x05f8cc8753d90d67dbb8c02118440b8283f941c9",
      "to": "0x6a790bf1991d3a53b81bb9316fb3b3e8217c5699",
      "contractAddress": null,
      "daFootprintGasScalar": "0x190",
      "l1BaseFeeScalar": "0x1db0",
      "l1BlobBaseFee": "0x762a8e6",
      "l1BlobBaseFeeScalar": "0xd2730",
      "l1Fee": "0x7d4b440a9",
      "l1GasPrice": "0x7081c222",
      "l1GasUsed": "0x640"
    },
    {
      "status": "0x1",
      "cumulativeGasUsed": "0x5e5be",
      "logs": [],
      "logsBloom": "0x00000000000000000000000000000000000000000000000000000000000000000000000000000000000000000000000000000000000000000000000000000000000000000000000000000000000000000000000000000000000000000000000000000000000000000000000000000000000000000000000000000000000000000000000000000000000000000000000000000000000000000000000000000000000000000000000000000000000000000000000000000000000000000000000000000000000000000000000000000000000000000000000000000000000000000000000000000000000000000000000000000000000000000000000000000000",
      "type": "0x2",
      "transactionHash": "0xf00cee113d630ebd884a5b973f04c0e84ab0615adeec091108fb94b64ed84f80",
      "transactionIndex": "0xa",
      "blockHash": "0xbda0d31949d8705dd0885b1f3fef6c308ec78e29257524f998b49663ee5decbf",
      "blockNumber": "0x287bcfb",
      "gasUsed": "0x660c",
      "effectiveGasPrice": "0xfb",
      "blobGasUsed": "0x9c40",
      "from": "0x05f8cc8753d90d67dbb8c02118440b8283f941c9",
      "to": "0x6a790bf1991d3a53b81bb9316fb3b3e8217c5699",
      "contractAddress": null,
      "daFootprintGasScalar": "0x190",
      "l1BaseFeeScalar": "0x1db0",
      "l1BlobBaseFee": "0x762a8e6",
      "l1BlobBaseFeeScalar": "0xd2730",
      "l1Fee": "0x7d4b440a9",
      "l1GasPrice": "0x7081c222",
      "l1GasUsed": "0x640"
    },
    {
      "status": "0x1",
      "cumulativeGasUsed": "0x64af4",
      "logs": [],
      "logsBloom": "0x00000000000000000000000000000000000000000000000000000000000000000000000000000000000000000000000000000000000000000000000000000000000000000000000000000000000000000000000000000000000000000000000000000000000000000000000000000000000000000000000000000000000000000000000000000000000000000000000000000000000000000000000000000000000000000000000000000000000000000000000000000000000000000000000000000000000000000000000000000000000000000000000000000000000000000000000000000000000000000000000000000000000000000000000000000000",
      "type": "0x2",
      "transactionHash": "0xce4db17a8ea2e353eda1c94e92d4fb5574720029b6d0aa8701cb00dd61ff2245",
      "transactionIndex": "0xb",
      "blockHash": "0xbda0d31949d8705dd0885b1f3fef6c308ec78e29257524f998b49663ee5decbf",
      "blockNumber": "0x287bcfb",
      "gasUsed": "0x6536",
      "effectiveGasPrice": "0xfb",
      "blobGasUsed": "0x9c40",
      "from": "0x05f8cc8753d90d67dbb8c02118440b8283f941c9",
      "to": "0x6a790bf1991d3a53b81bb9316fb3b3e8217c5699",
      "contractAddress": null,
      "daFootprintGasScalar": "0x190",
      "l1BaseFeeScalar": "0x1db0",
      "l1BlobBaseFee": "0x762a8e6",
      "l1BlobBaseFeeScalar": "0xd2730",
      "l1Fee": "0x7d4b440a9",
      "l1GasPrice": "0x7081c222",
      "l1GasUsed": "0x640"
    },
    {
      "status": "0x1",
      "cumulativeGasUsed": "0x6cad2",
      "logs": [],
      "logsBloom": "0x00000000000000000000000000000000000000000000000000000000000000000000000000000000000000000000000000000000000000000000000000000000000000000000000000000000000000000000000000000000000000000000000000000000000000000000000000000000000000000000000000000000000000000000000000000000000000000000000000000000000000000000000000000000000000000000000000000000000000000000000000000000000000000000000000000000000000000000000000000000000000000000000000000000000000000000000000000000000000000000000000000000000000000000000000000000",
      "type": "0x2",
      "transactionHash": "0x808d9351dd0f7dc6d8fd9303adc6d372f3e2a9620922ce9daf12c2cca4540021",
      "transactionIndex": "0xc",
      "blockHash": "0xbda0d31949d8705dd0885b1f3fef6c308ec78e29257524f998b49663ee5decbf",
      "blockNumber": "0x287bcfb",
      "gasUsed": "0x7fde",
      "effectiveGasPrice": "0xfb",
      "blobGasUsed": "0xd480",
      "from": "0x05f8cc8753d90d67dbb8c02118440b8283f941c9",
      "to": "0xa73776c0aae79382d8003b1fc7648b5ab32889d0",
      "contractAddress": null,
      "daFootprintGasScalar": "0x190",
      "l1BaseFeeScalar": "0x1db0",
      "l1BlobBaseFee": "0x762a8e6",
      "l1BlobBaseFeeScalar": "0xd2730",
      "l1Fee": "0xaaeecf453",
      "l1GasPrice": "0x7081c222",
      "l1GasUsed": "0x886"
    },
    {
      "status": "0x1",
      "cumulativeGasUsed": "0x75c87",
      "logs": [],
      "logsBloom": "0x00000000000000000000000000000000000000000000000000000000000000000000000000000000000000000000000000000000000000000000000000000000000000000000000000000000000000000000000000000000000000000000000000000000000000000000000000000000000000000000000000000000000000000000000000000000000000000000000000000000000000000000000000000000000000000000000000000000000000000000000000000000000000000000000000000000000000000000000000000000000000000000000000000000000000000000000000000000000000000000000000000000000000000000000000000000",
      "type": "0x2",
      "transactionHash": "0x7bc7c891599ba79890131d50d61c8d5844fe496e40443e822413862e5de53f59",
      "transactionIndex": "0xd",
      "blockHash": "0xbda0d31949d8705dd0885b1f3fef6c308ec78e29257524f998b49663ee5decbf",
      "blockNumber": "0x287bcfb",
      "gasUsed": "0x91b5",
      "effectiveGasPrice": "0xfb",
      "blobGasUsed": "0xc800",
      "from": "0x05f8cc8753d90d67dbb8c02118440b8283f941c9",
      "to": "0x55cc592be7e49c4020e67a895fee9474c7d71dbc",
      "contractAddress": null,
      "daFootprintGasScalar": "0x190",
      "l1BaseFeeScalar": "0x1db0",
      "l1BlobBaseFee": "0x762a8e6",
      "l1BlobBaseFeeScalar": "0xd2730",
      "l1Fee": "0xa18005f4b",
      "l1GasPrice": "0x7081c222",
      "l1GasUsed": "0x80e"
    }
  ],
  "libraries": [],
  "pending": [],
  "returns": {},
  "timestamp": 1776702883404,
  "chain": 11155420,
  "commit": "bec0627"
}