{
  "transactions": [
    {
      "hash": "0x99f7cb14a94634387b65a44c0313c347c69a4010fad4f65204070938c6697f63",
      "transactionType": "CALL",
      "contractName": null,
      "contractAddress": "0xb6bc61c1cfd486949fc47f13d517d80355ed58bf",
      "function": "registerRailPlugin(address)",
      "arguments": [
        "0xbBB3F1c913343CA3D1aB0Fc346fbF09dd1e2f681"
      ],
      "transaction": {
        "from": "0x05f8cc8753d90d67dbb8c02118440b8283f941c9",
        "to": "0xb6bc61c1cfd486949fc47f13d517d80355ed58bf",
        "gas": "0x2846a",
        "value": "0x0",
        "input": "0x172ceb34000000000000000000000000bbb3f1c913343ca3d1ab0fc346fbf09dd1e2f681",
        "nonce": "0x8f",
        "chainId": "0xaa37dc"
      },
      "additionalContracts": [],
      "isFixedGasLimit": false
    },
    {
      "hash": "0x30506563ef7133ce6769f7cd770feca4f45c9260592877a8dac81e133064a6db",
      "transactionType": "CALL",
      "contractName": null,
      "contractAddress": "0xb6bc61c1cfd486949fc47f13d517d80355ed58bf",
      "function": "registerRailPlugin(address)",
      "arguments": [
        "0xD4F0A5a29cCe8a1cdbadbf8D6c328640Ab984F1D"
      ],
      "transaction": {
        "from": "0x05f8cc8753d90d67dbb8c02118440b8283f941c9",
        "to": "0xb6bc61c1cfd486949fc47f13d517d80355ed58bf",
        "gas": "0x227cb",
        "value": "0x0",
        "input": "0x172ceb34000000000000000000000000d4f0a5a29cce8a1cdbadbf8d6c328640ab984f1d",
        "nonce": "0x90",
        "chainId": "0xaa37dc"
      },
      "additionalContracts": [],
      "isFixedGasLimit": false
    },
    {
      "hash": "0x66fb0c0bc42d03d89009bdb8c7c25469a45d234fba9e74884d28a4e53c09ae01",
      "transactionType": "CALL",
      "contractName": null,
      "contractAddress": "0xb6bc61c1cfd486949fc47f13d517d80355ed58bf",
      "function": "registerRailPlugin(address)",
      "arguments": [
        "0x21e1a9261a7E1050D34Db82BB67dEa80c5D4c0bC"
      ],
      "transaction": {
        "from": "0x05f8cc8753d90d67dbb8c02118440b8283f941c9",
        "to": "0xb6bc61c1cfd486949fc47f13d517d80355ed58bf",
        "gas": "0x226e2",
        "value": "0x0",
        "input": "0x172ceb3400000000000000000000000021e1a9261a7e1050d34db82bb67dea80c5d4c0bc",
        "nonce": "0x91",
        "chainId": "0xaa37dc"
      },
      "additionalContracts": [],
      "isFixedGasLimit": false
    },
    {
      "hash": "0x8006eaf854d2d2c182124840b8d5e019d96b2064f3a7c68f43e1816309fad91f",
      "transactionType": "CALL",
      "contractName": null,
      "contractAddress": "0xb6bc61c1cfd486949fc47f13d517d80355ed58bf",
      "function": "registerRailPlugin(address)",
      "arguments": [
        "0x7F76c13d61AB4F9F7902c255A52a1Dae6c434afB"
      ],
      "transaction": {
        "from": "0x05f8cc8753d90d67dbb8c02118440b8283f941c9",
        "to": "0xb6bc61c1cfd486949fc47f13d517d80355ed58bf",
        "gas": "0x22703",
        "value": "0x0",
        "input": "0x172ceb340000000000000000000000007f76c13d61ab4f9f7902c255a52a1dae6c434afb",
        "nonce": "0x92",
        "chainId": "0xaa37dc"
      },
      "additionalContracts": [],
      "isFixedGasLimit": false
    },
    {
      "hash": "0x3a062c138569c8cbdbdd3c2fbddeb2add217b1f3e583e898c247e936ac62f3af",
      "transactionType": "CALL",
      "contractName": null,
      "contractAddress": "0x1c2bda495534a45469d08f35d68d95d5132ec5ac",
      "function": "addApprovedCaller(address)",
      "arguments": [
        "0xC827913F0556a74BF9589d7ba7434cfE1Be2a62b"
      ],
      "transaction": {
        "from": "0x05f8cc8753d90d67dbb8c02118440b8283f941c9",
        "to": "0x1c2bda495534a45469d08f35d68d95d5132ec5ac",
        "gas": "0x10813",
        "value": "0x0",
        "input": "0xab5cb85a000000000000000000000000c827913f0556a74bf9589d7ba7434cfe1be2a62b",
        "nonce": "0x93",
        "chainId": "0xaa37dc"
      },
      "additionalContracts": [],
      "isFixedGasLimit": false
    },
    {
      "hash": "0x3364990ed6081e8899399cebf551f657d5ff77f34c06ef230fa5defabc5eccf1",
      "transactionType": "CALL",
      "contractName": null,
      "contractAddress": "0x1c2bda495534a45469d08f35d68d95d5132ec5ac",
      "function": "addApprovedCaller(address)",
      "arguments": [
        "0x7F5713bcF5198a1D1045DDd79d2952317FE3846E"
      ],
      "transaction": {
        "from": "0x05f8cc8753d90d67dbb8c02118440b8283f941c9",
        "to": "0x1c2bda495534a45469d08f35d68d95d5132ec5ac",
        "gas": "0x10813",
        "value": "0x0",
        "input": "0xab5cb85a0000000000000000000000007f5713bcf5198a1d1045ddd79d2952317fe3846e",
        "nonce": "0x94",
        "chainId": "0xaa37dc"
      },
      "additionalContracts": [],
      "isFixedGasLimit": false
    },
    {
      "hash": "0x9f0f7b0c4ca9c827d3bee306304b2162f893c63638d9e92cbd95e856b8cd0cf7",
      "transactionType": "CALL",
      "contractName": null,
      "contractAddress": "0xbbb3f1c913343ca3d1ab0fc346fbf09dd1e2f681",
      "function": "setChainDomain(uint32,uint32)",
      "arguments": [
        "84532",
        "6"
      ],
      "transaction": {
        "from": "0x05f8cc8753d90d67dbb8c02118440b8283f941c9",
        "to": "0xbbb3f1c913343ca3d1ab0fc346fbf09dd1e2f681",
        "gas": "0xf9db",
        "value": "0x0",
        "input": "0x7ef0d2870000000000000000000000000000000000000000000000000000000000014a340000000000000000000000000000000000000000000000000000000000000006",
        "nonce": "0x95",
        "chainId": "0xaa37dc"
      },
      "additionalContracts": [],
      "isFixedGasLimit": false
    },
    {
      "hash": "0xd353024d8a8a809131c7b244650124a898230c6c09a27b510f8ac1bf3455212c",
      "transactionType": "CALL",
      "contractName": null,
      "contractAddress": "0xbbb3f1c913343ca3d1ab0fc346fbf09dd1e2f681",
      "function": "setDestinationReceiver(uint32,bytes32)",
      "arguments": [
        "84532",
        "0x000000000000000000000000bffcf8b777f360c0e01af37051fdd503e58cf2a2"
      ],
      "transaction": {
        "from": "0x05f8cc8753d90d67dbb8c02118440b8283f941c9",
        "to": "0xbbb3f1c913343ca3d1ab0fc346fbf09dd1e2f681",
        "gas": "0x107d9",
        "value": "0x0",
        "input": "0x0267dd6c0000000000000000000000000000000000000000000000000000000000014a34000000000000000000000000bffcf8b777f360c0e01af37051fdd503e58cf2a2",
        "nonce": "0x96",
        "chainId": "0xaa37dc"
      },
      "additionalContracts": [],
      "isFixedGasLimit": false
    },
    {
      "hash": "0x30a0667fcfb24c9e2e647b6c7cbc418502e81a8863639af0383a7349a0577a39",
      "transactionType": "CALL",
      "contractName": null,
      "contractAddress": "0xbbb3f1c913343ca3d1ab0fc346fbf09dd1e2f681",
      "function": "setDestinationCaller(uint32,bytes32)",
      "arguments": [
        "84532",
        "0x00000000000000000000000005f8cc8753d90d67dbb8c02118440b8283f941c9"
      ],
      "transaction": {
        "from": "0x05f8cc8753d90d67dbb8c02118440b8283f941c9",
        "to": "0xbbb3f1c913343ca3d1ab0fc346fbf09dd1e2f681",
        "gas": "0x10767",
        "value": "0x0",
        "input": "0x00686ed20000000000000000000000000000000000000000000000000000000000014a3400000000000000000000000005f8cc8753d90d67dbb8c02118440b8283f941c9",
        "nonce": "0x97",
        "chainId": "0xaa37dc"
      },
      "additionalContracts": [],
      "isFixedGasLimit": false
    },
    {
      "hash": "0x8b4845bc66435f44e4c202823cba20f6836324f8c6e4342f61105941d4c019eb",
      "transactionType": "CALL",
      "contractName": null,
      "contractAddress": "0xd4f0a5a29cce8a1cdbadbf8d6c328640ab984f1d",
      "function": "setChainDomain(uint32,uint32)",
      "arguments": [
        "84532",
        "6"
      ],
      "transaction": {
        "from": "0x05f8cc8753d90d67dbb8c02118440b8283f941c9",
        "to": "0xd4f0a5a29cce8a1cdbadbf8d6c328640ab984f1d",
        "gas": "0xf9bc",
        "value": "0x0",
        "input": "0x7ef0d2870000000000000000000000000000000000000000000000000000000000014a340000000000000000000000000000000000000000000000000000000000000006",
        "nonce": "0x98",
        "chainId": "0xaa37dc"
      },
      "additionalContracts": [],
      "isFixedGasLimit": false
    },
    {
      "hash": "0x482891b3e9c6df4fc038502c3fe2994a0622d5cbb86ad7f6677bbfd5b1b3736c",
      "transactionType": "CALL",
      "contractName": null,
      "contractAddress": "0xd4f0a5a29cce8a1cdbadbf8d6c328640ab984f1d",
      "function": "setDestinationReceiver(uint32,bytes32)",
      "arguments": [
        "84532",
        "0x000000000000000000000000bffcf8b777f360c0e01af37051fdd503e58cf2a2"
      ],
      "transaction": {
        "from": "0x05f8cc8753d90d67dbb8c02118440b8283f941c9",
        "to": "0xd4f0a5a29cce8a1cdbadbf8d6c328640ab984f1d",
        "gas": "0x107b8",
        "value": "0x0",
        "input": "0x0267dd6c0000000000000000000000000000000000000000000000000000000000014a34000000000000000000000000bffcf8b777f360c0e01af37051fdd503e58cf2a2",
        "nonce": "0x99",
        "chainId": "0xaa37dc"
      },
      "additionalContracts": [],
      "isFixedGasLimit": false
    },
    {
      "hash": "0x4eb0d45b61809934582479e0d58a952f1b17485d02e35d4945ededc72e2ded24",
      "transactionType": "CALL",
      "contractName": null,
      "contractAddress": "0xd4f0a5a29cce8a1cdbadbf8d6c328640ab984f1d",
      "function": "setDestinationCaller(uint32,bytes32)",
      "arguments": [
        "84532",
        "0x00000000000000000000000005f8cc8753d90d67dbb8c02118440b8283f941c9"
      ],
      "transaction": {
        "from": "0x05f8cc8753d90d67dbb8c02118440b8283f941c9",
        "to": "0xd4f0a5a29cce8a1cdbadbf8d6c328640ab984f1d",
        "gas": "0x10767",
        "value": "0x0",
        "input": "0x00686ed20000000000000000000000000000000000000000000000000000000000014a3400000000000000000000000005f8cc8753d90d67dbb8c02118440b8283f941c9",
        "nonce": "0x9a",
        "chainId": "0xaa37dc"
      },
      "additionalContracts": [],
      "isFixedGasLimit": false
    },
    {
      "hash": "0x41d3381e4109bcf52d868e864e496105ccdfe4d41e9332e38f419b7385f7efa4",
      "transactionType": "CALL",
      "contractName": null,
      "contractAddress": "0xd4f0a5a29cce8a1cdbadbf8d6c328640ab984f1d",
      "function": "setMaxFeeBpsCap(uint256)",
      "arguments": [
        "100"
      ],
      "transaction": {
        "from": "0x05f8cc8753d90d67dbb8c02118440b8283f941c9",
        "to": "0xd4f0a5a29cce8a1cdbadbf8d6c328640ab984f1d",
        "gas": "0x8b92",
        "value": "0x0",
        "input": "0x357c4ea70000000000000000000000000000000000000000000000000000000000000064",
        "nonce": "0x9b",
        "chainId": "0xaa37dc"
      },
      "additionalContracts": [],
      "isFixedGasLimit": false
    },
    {
      "hash": "0x50fd1102ef8f2441e3f6da3ff026ffd734a817647c1048938a907a607c812242",
      "transactionType": "CALL",
      "contractName": null,
      "contractAddress": "0x21e1a9261a7e1050d34db82bb67dea80c5d4c0bc",
      "function": "setChainConfig(uint32,string,address)",
      "arguments": [
        "84532",
        "base-sepolia",
        "0x055F3838c4d58B2B10eC4D64f39c7286777fB0Ad"
      ],
      "transaction": {
        "from": "0x05f8cc8753d90d67dbb8c02118440b8283f941c9",
        "to": "0x21e1a9261a7e1050d34db82bb67dea80c5d4c0bc",
        "gas": "0x26bfb",
        "value": "0x0",
        "input": "0x87aadd5e0000000000000000000000000000000000000000000000000000000000014a340000000000000000000000000000000000000000000000000000000000000060000000000000000000000000055f3838c4d58b2b10ec4d64f39c7286777fb0ad000000000000000000000000000000000000000000000000000000000000000c626173652d7365706f6c69610000000000000000000000000000000000000000",
        "nonce": "0x9c",
        "chainId": "0xaa37dc"
      },
      "additionalContracts": [],
      "isFixedGasLimit": false
    },
    {
      "hash": "0xf471d27e7e3cd2847f4eabc881e5d19d65af2fd9bbe45578006ee90be45f863d",
      "transactionType": "CALL",
      "contractName": null,
      "contractAddress": "0x7f76c13d61ab4f9f7902c255a52a1dae6c434afb",
      "function": "setFamilyRouteConfig(uint32,uint8,uint32,address,bytes)",
      "arguments": [
        "84532",
        "2",
        "40245",
        "0x1E35837f3Fbafeebf5E1ccC28b40e4099cF5Db39",
        "0x00030100110100000000000000000000000000030d4001001303000000000000000000000000000000061a80"
      ],
      "transaction": {
        "from": "0x05f8cc8753d90d67dbb8c02118440b8283f941c9",
        "to": "0x7f76c13d61ab4f9f7902c255a52a1dae6c434afb",
        "gas": "0x50d5c",
        "value": "0x0",
        "input": "0x1eb54fa00000000000000000000000000000000000000000000000000000000000014a3400000000000000000000000000000000000000000000000000000000000000020000000000000000000000000000000000000000000000000000000000009d350000000000000000000000001e35837f3fbafeebf5e1ccc28b40e4099cf5db3900000000000000000000000000000000000000000000000000000000000000a0000000000000000000000000000000000000000000000000000000000000002c00030100110100000000000000000000000000030d4001001303000000000000000000000000000000061a800000000000000000000000000000000000000000",
        "nonce": "0x9d",
        "chainId": "0xaa37dc"
      },
      "additionalContracts": [],
      "isFixedGasLimit": false
    },
    {
      "hash": "0xfd354739cac55af77c7251362e357fc2954564e48dbfb39db19a0f3888612aec",
      "transactionType": "CALL",
      "contractName": null,
      "contractAddress": "0xc827913f0556a74bf9589d7ba7434cfe1be2a62b",
      "function": "setTrustedSourceAddress(string,address,bool)",
      "arguments": [
        "base-sepolia",
        "0x605df42C4Cfc3799569d3bcc0AD820Feea3227d0",
        "true"
      ],
      "transaction": {
        "from": "0x05f8cc8753d90d67dbb8c02118440b8283f941c9",
        "to": "0xc827913f0556a74bf9589d7ba7434cfe1be2a62b",
        "gas": "0x12476",
        "value": "0x0",
        "input": "0x6dc3df1c0000000000000000000000000000000000000000000000000000000000000060000000000000000000000000605df42c4cfc3799569d3bcc0ad820feea3227d00000000000000000000000000000000000000000000000000000000000000001000000000000000000000000000000000000000000000000000000000000000c626173652d7365706f6c69610000000000000000000000000000000000000000",
        "nonce": "0x9e",
        "chainId": "0xaa37dc"
      },
      "additionalContracts": [],
      "isFixedGasLimit": false
    },
    {
      "hash": "0x75cd81c166db0ff2e4ee43f37764f72180be31bacc7c6f96326307adf785c05c",
      "transactionType": "CALL",
      "contractName": null,
      "contractAddress": "0xc827913f0556a74bf9589d7ba7434cfe1be2a62b",
      "function": "setTrustedToken(bytes32,address,bool)",
      "arguments": [
        "0x4d2fdc120be87ecf5661b7a75144d5d4b507b525eeb8c9c85c346a255e3b9663",
        "0x2f2A9DbFd8c503a0aC56413B774e39030df85331",
        "true"
      ],
      "transaction": {
        "from": "0x05f8cc8753d90d67dbb8c02118440b8283f941c9",
        "to": "0xc827913f0556a74bf9589d7ba7434cfe1be2a62b",
        "gas": "0x115d5",
        "value": "0x0",
        "input": "0x001089604d2fdc120be87ecf5661b7a75144d5d4b507b525eeb8c9c85c346a255e3b96630000000000000000000000002f2a9dbfd8c503a0ac56413b774e39030df853310000000000000000000000000000000000000000000000000000000000000001",
        "nonce": "0x9f",
        "chainId": "0xaa37dc"
      },
      "additionalContracts": [],
      "isFixedGasLimit": false
    },
    {
      "hash": "0x4cc69acc361b33cc749c6cc7b55cbf8985dddaa3627e91306da6c3a7796a3786",
      "transactionType": "CALL",
      "contractName": null,
      "contractAddress": "0x7f5713bcf5198a1d1045ddd79d2952317fe3846e",
      "function": "setTrustedPeerAddress(uint32,address)",
      "arguments": [
        "40245",
        "0x5389cefC0a8Fd0148F1E512715843012F42aB6Ea"
      ],
      "transaction": {
        "from": "0x05f8cc8753d90d67dbb8c02118440b8283f941c9",
        "to": "0x7f5713bcf5198a1d1045ddd79d2952317fe3846e",
        "gas": "0x101ed",
        "value": "0x0",
        "input": "0x60c5965f0000000000000000000000000000000000000000000000000000000000009d350000000000000000000000005389cefc0a8fd0148f1e512715843012f42ab6ea",
        "nonce": "0xa0",
        "chainId": "0xaa37dc"
      },
      "additionalContracts": [],
      "isFixedGasLimit": false
    },
    {
      "hash": "0x61fedc63974ecea762664404084aa4ebfe4b07de3ec976f4dfe2cc9810ad8df8",
      "transactionType": "CALL",
      "contractName": null,
      "contractAddress": "0x7f5713bcf5198a1d1045ddd79d2952317fe3846e",
      "function": "setSettlementToken(bytes32,address)",
      "arguments": [
        "0x71768d817a953a2cebfd3229be4e0ad0979effc5cb820b2f5e92b1cfe658f7db",
        "0xC1d9A1f64291CF47e703eab6b27fA0660cAE7324"
      ],
      "transaction": {
        "from": "0x05f8cc8753d90d67dbb8c02118440b8283f941c9",
        "to": "0x7f5713bcf5198a1d1045ddd79d2952317fe3846e",
        "gas": "0x1044f",
        "value": "0x0",
        "input": "0x7f7c773271768d817a953a2cebfd3229be4e0ad0979effc5cb820b2f5e92b1cfe658f7db000000000000000000000000c1d9a1f64291cf47e703eab6b27fa0660cae7324",
        "nonce": "0xa1",
        "chainId": "0xaa37dc"
      },
      "additionalContracts": [],
      "isFixedGasLimit": false
    },
    {
      "hash": "0xfd9c8e34dde5345587af930ec9cb045ec15d1a7e868b6e5faeb24fece3554635",
      "transactionType": "CALL",
      "contractName": null,
      "contractAddress": "0x7f5713bcf5198a1d1045ddd79d2952317fe3846e",
      "function": "setExpectedComposeSender(uint32,bytes32,address)",
      "arguments": [
        "40245",
        "0x71768d817a953a2cebfd3229be4e0ad0979effc5cb820b2f5e92b1cfe658f7db",
        "0x1500116D88B6583E63E2Fa9D4199f2edDf72149b"
      ],
      "transaction": {
        "from": "0x05f8cc8753d90d67dbb8c02118440b8283f941c9",
        "to": "0x7f5713bcf5198a1d1045ddd79d2952317fe3846e",
        "gas": "0x107bb",
        "value": "0x0",
        "input": "0xbd0e403a0000000000000000000000000000000000000000000000000000000000009d3571768d817a953a2cebfd3229be4e0ad0979effc5cb820b2f5e92b1cfe658f7db0000000000000000000000001500116d88b6583e63e2fa9d4199f2eddf72149b",
        "nonce": "0xa2",
        "chainId": "0xaa37dc"
      },
      "additionalContracts": [],
      "isFixedGasLimit": false
    },
    {
      "hash": "0x7277e6680c95c4e33632c34f90bc0af0b6706497663d69028a2fb0cb010d3f93",
      "transactionType": "CALL",
      "contractName": null,
      "contractAddress": "0xc1d9a1f64291cf47e703eab6b27fa0660cae7324",
      "function": "setPeer(uint32,bytes32)",
      "arguments": [
        "40245",
        "0x0000000000000000000000001500116d88b6583e63e2fa9d4199f2eddf72149b"
      ],
      "transaction": {
        "from": "0x05f8cc8753d90d67dbb8c02118440b8283f941c9",
        "to": "0xc1d9a1f64291cf47e703eab6b27fa0660cae7324",
        "gas": "0x95ce",
        "value": "0x0",
        "input": "0x3400288b0000000000000000000000000000000000000000000000000000000000009d350000000000000000000000001500116d88b6583e63e2fa9d4199f2eddf72149b",
        "nonce": "0xa3",
        "chainId": "0xaa37dc"
      },
      "additionalContracts": [],
      "isFixedGasLimit": false
    }
  ],
  "receipts": [
    {
      "status": "0x1",
      "cumulativeGasUsed": "0x28716",
      "logs": [
        {
          "address": "0xb6bc61c1cfd486949fc47f13d517d80355ed58bf",
          "topics": [
            "0xa86330cede453edbe00d0dbe74ee3bdbac6d7b048009b0d72d54aa609df01a71",
            "0xb148ea5f936a28661e11743b1650193f1b14a2322b9541503bf6815a84a1a6e9"
          ],
          "data": "0x000000000000000000000000bbb3f1c913343ca3d1ab0fc346fbf09dd1e2f6810000000000000000000000000000000000000000000000000000000000000000",
          "blockHash": "0x314225c49be3681ceedaed8234a570b7e8cbdd644c20acce2db9db09cd7f9257",
          "blockNumber": "0x28d0223",
          "blockTimestamp": "0x69f0dff2",
          "transactionHash": "0x99f7cb14a94634387b65a44c0313c347c69a4010fad4f65204070938c6697f63",
          "transactionIndex": "0x1",
          "logIndex": "0x0",
          "removed": false
        }
      ],
      "logsBloom": "0x00000400000000002000000000000000000000000000000000002000000000000000000000000000000000000000000000000000000000000000000000000000000000000000000000000000000000000000000020000000000000000000000000000000000000000200000020000000000000000000000000000000000000000000000000000000000000000000000000000000000000000000000000000000000000000000000000000000000000000000000000000000000000000000000000000000000000000000000000200000000000400200000000000000000000000000000000000000000000000000000000000000000000000000000000000000",
      "type": "0x2",
      "transactionHash": "0x99f7cb14a94634387b65a44c0313c347c69a4010fad4f65204070938c6697f63",
      "transactionIndex": "0x1",
      "blockHash": "0x314225c49be3681ceedaed8234a570b7e8cbdd644c20acce2db9db09cd7f9257",
      "blockNumber": "0x28d0223",
      "gasUsed": "0x1d28c",
      "effectiveGasPrice": "0x10c9da",
      "blobGasUsed": "0x9c40",
      "from": "0x05f8cc8753d90d67dbb8c02118440b8283f941c9",
      "to": "0xb6bc61c1cfd486949fc47f13d517d80355ed58bf",
      "contractAddress": null,
      "daFootprintGasScalar": "0x190",
      "l1BaseFeeScalar": "0x1db0",
      "l1BlobBaseFee": "0x10a3d68",
      "l1BlobBaseFeeScalar": "0xd2730",
      "l1Fee": "0x17c2191cd",
      "l1GasPrice": "0x17e36f6e",
      "l1GasUsed": "0x640"
    },
    {
      "status": "0x1",
      "cumulativeGasUsed": "0x41694",
      "logs": [
        {
          "address": "0xb6bc61c1cfd486949fc47f13d517d80355ed58bf",
          "topics": [
            "0xa86330cede453edbe00d0dbe74ee3bdbac6d7b048009b0d72d54aa609df01a71",
            "0x9181644edfd36b07ccd623494a3681a4a6b9cd5d52611accda20264cd09259ac"
          ],
          "data": "0x000000000000000000000000d4f0a5a29cce8a1cdbadbf8d6c328640ab984f1d0000000000000000000000000000000000000000000000000000000000000000",
          "blockHash": "0x314225c49be3681ceedaed8234a570b7e8cbdd644c20acce2db9db09cd7f9257",
          "blockNumber": "0x28d0223",
          "blockTimestamp": "0x69f0dff2",
          "transactionHash": "0x482891b3e9c6df4fc038502c3fe2994a0622d5cbb86ad7f6677bbfd5b1b3736c",
          "transactionIndex": "0x2",
          "logIndex": "0x1",
          "removed": false
        }
      ],
      "logsBloom": "0x00000000000000002000000000000000000000004000000000002000000000008000000000000000000000000000000000000000000000000000000000000000000000000000000000000000000000000000000000000000000000000000000000000000000000000200000000000000000000000000000000000000000000000000000000000008000000000000000000000000000000000000000000000000000000000000000000000000000000000000000000000000000000000000000000000000000000000000000000200000000000400200000000000000000000000000000000000000000000000000000000000000000000000000000000000000",
      "type": "0x2",
      "transactionHash": "0x482891b3e9c6df4fc038502c3fe2994a0622d5cbb86ad7f6677bbfd5b1b3736c",
      "transactionIndex": "0x2",
      "blockHash": "0x314225c49be3681ceedaed8234a570b7e8cbdd644c20acce2db9db09cd7f9257",
      "blockNumber": "0x28d0223",
      "gasUsed": "0x18f7e",
      "effectiveGasPrice": "0x10c9da",
      "blobGasUsed": "0x9c40",
      "from": "0x05f8cc8753d90d67dbb8c02118440b8283f941c9",
      "to": "0xb6bc61c1cfd486949fc47f13d517d80355ed58bf",
      "contractAddress": null,
      "daFootprintGasScalar": "0x190",
      "l1BaseFeeScalar": "0x1db0",
      "l1BlobBaseFee": "0x10a3d68",
      "l1BlobBaseFeeScalar": "0xd2730",
      "l1Fee": "0x17c2191cd",
      "l1GasPrice": "0x17e36f6e",
      "l1GasUsed": "0x640"
    },
    {
      "status": "0x1",
      "cumulativeGasUsed": "0x5a569",
      "logs": [
        {
          "address": "0xb6bc61c1cfd486949fc47f13d517d80355ed58bf",
          "topics": [
            "0xa86330cede453edbe00d0dbe74ee3bdbac6d7b048009b0d72d54aa609df01a71",
            "0xdee0b34b74b60e53553685c32477090103c2b806eb925a8cd000efa92bef3e8b"
          ],
          "data": "0x00000000000000000000000021e1a9261a7e1050d34db82bb67dea80c5d4c0bc0000000000000000000000000000000000000000000000000000000000000000",
          "blockHash": "0x314225c49be3681ceedaed8234a570b7e8cbdd644c20acce2db9db09cd7f9257",
          "blockNumber": "0x28d0223",
          "blockTimestamp": "0x69f0dff2",
          "transactionHash": "0x9f0f7b0c4ca9c827d3bee306304b2162f893c63638d9e92cbd95e856b8cd0cf7",
          "transactionIndex": "0x3",
          "logIndex": "0x2",
          "removed": false
        }
      ],
      "logsBloom": "0x00000000000000002000000000000000000000000000000000002000000000000000000000000000000000000000000000000000000000000000000000000000000000000000000000000000000000000000000000000040000000000000000000000000000000000200000000000000000000000000000000000000000000000000000000000004000000000000000000000000000000000000000000000000000000000000000000000000000000000000000000000000000000000000000000000000000000000000000000200000000000400200000000000000000000000000000000000000000000000000100000000000000000000000000000000000",
      "type": "0x2",
      "transactionHash": "0x9f0f7b0c4ca9c827d3bee306304b2162f893c63638d9e92cbd95e856b8cd0cf7",
      "transactionIndex": "0x3",
      "blockHash": "0x314225c49be3681ceedaed8234a570b7e8cbdd644c20acce2db9db09cd7f9257",
      "blockNumber": "0x28d0223",
      "gasUsed": "0x18ed5",
      "effectiveGasPrice": "0x10c9da",
      "blobGasUsed": "0x9c40",
      "from": "0x05f8cc8753d90d67dbb8c02118440b8283f941c9",
      "to": "0xb6bc61c1cfd486949fc47f13d517d80355ed58bf",
      "contractAddress": null,
      "daFootprintGasScalar": "0x190",
      "l1BaseFeeScalar": "0x1db0",
      "l1BlobBaseFee": "0x10a3d68",
      "l1BlobBaseFeeScalar": "0xd2730",
      "l1Fee": "0x17c2191cd",
      "l1GasPrice": "0x17e36f6e",
      "l1GasUsed": "0x640"
    },
    {
      "status": "0x1",
      "cumulativeGasUsed": "0x73456",
      "logs": [
        {
          "address": "0xb6bc61c1cfd486949fc47f13d517d80355ed58bf",
          "topics": [
            "0xa86330cede453edbe00d0dbe74ee3bdbac6d7b048009b0d72d54aa609df01a71",
            "0xc472efb7b9a986e1446d8bf9dec51e88548a1d8eb4a0810e6424d97a878d34fc"
          ],
          "data": "0x0000000000000000000000007f76c13d61ab4f9f7902c255a52a1dae6c434afb0000000000000000000000000000000000000000000000000000000000000000",
          "blockHash": "0x314225c49be3681ceedaed8234a570b7e8cbdd644c20acce2db9db09cd7f9257",
          "blockNumber": "0x28d0223",
          "blockTimestamp": "0x69f0dff2",
          "transactionHash": "0x66fb0c0bc42d03d89009bdb8c7c25469a45d234fba9e74884d28a4e53c09ae01",
          "transactionIndex": "0x4",
          "logIndex": "0x3",
          "removed": false
        }
      ],
      "logsBloom": "0x00000000000000002000000000000000000000000000000000002000000000000000000000000000000000000000000000000000000000000000000000000000000000000000000000000000000000000000000000000000000000000000000000000800000000000200000000000000000040000000000000000000000000000000000000000000000000000000000000000000000000000000000000000000000002000000000000000000000000000000000000000000000000000000000000000000000000000000000000200000000000400200000000000000000000000000000000000000000000000000000000000000000000000000000000000000",
      "type": "0x2",
      "transactionHash": "0x66fb0c0bc42d03d89009bdb8c7c25469a45d234fba9e74884d28a4e53c09ae01",
      "transactionIndex": "0x4",
      "blockHash": "0x314225c49be3681ceedaed8234a570b7e8cbdd644c20acce2db9db09cd7f9257",
      "blockNumber": "0x28d0223",
      "gasUsed": "0x18eed",
      "effectiveGasPrice": "0x10c9da",
      "blobGasUsed": "0x9c40",
      "from": "0x05f8cc8753d90d67dbb8c02118440b8283f941c9",
      "to": "0xb6bc61c1cfd486949fc47f13d517d80355ed58bf",
      "contractAddress": null,
      "daFootprintGasScalar": "0x190",
      "l1BaseFeeScalar": "0x1db0",
      "l1BlobBaseFee": "0x10a3d68",
      "l1BlobBaseFeeScalar": "0xd2730",
      "l1Fee": "0x17c2191cd",
      "l1GasPrice": "0x17e36f6e",
      "l1GasUsed": "0x640"
    },
    {
      "status": "0x1",
      "cumulativeGasUsed": "0x7e8e7",
      "logs": [],
      "logsBloom": "0x00000000000000000000000000000000000000000000000000000000000000000000000000000000000000000000000000000000000000000000000000000000000000000000000000000000000000000000000000000000000000000000000000000000000000000000000000000000000000000000000000000000000000000000000000000000000000000000000000000000000000000000000000000000000000000000000000000000000000000000000000000000000000000000000000000000000000000000000000000000000000000000000000000000000000000000000000000000000000000000000000000000000000000000000000000000",
      "type": "0x2",
      "transactionHash": "0x3a062c138569c8cbdbdd3c2fbddeb2add217b1f3e583e898c247e936ac62f3af",
      "transactionIndex": "0x5",
      "blockHash": "0x314225c49be3681ceedaed8234a570b7e8cbdd644c20acce2db9db09cd7f9257",
      "blockNumber": "0x28d0223",
      "gasUsed": "0xb491",
      "effectiveGasPrice": "0x10c9da",
      "blobGasUsed": "0x9c40",
      "from": "0x05f8cc8753d90d67dbb8c02118440b8283f941c9",
      "to": "0x1c2bda495534a45469d08f35d68d95d5132ec5ac",
      "contractAddress": null,
      "daFootprintGasScalar": "0x190",
      "l1BaseFeeScalar": "0x1db0",
      "l1BlobBaseFee": "0x10a3d68",
      "l1BlobBaseFeeScalar": "0xd2730",
      "l1Fee": "0x17c2191cd",
      "l1GasPrice": "0x17e36f6e",
      "l1GasUsed": "0x640"
    },
    {
      "status": "0x1",
      "cumulativeGasUsed": "0x89d78",
      "logs": [],
      "logsBloom": "0x00000000000000000000000000000000000000000000000000000000000000000000000000000000000000000000000000000000000000000000000000000000000000000000000000000000000000000000000000000000000000000000000000000000000000000000000000000000000000000000000000000000000000000000000000000000000000000000000000000000000000000000000000000000000000000000000000000000000000000000000000000000000000000000000000000000000000000000000000000000000000000000000000000000000000000000000000000000000000000000000000000000000000000000000000000000",
      "type": "0x2",
      "transactionHash": "0x8006eaf854d2d2c182124840b8d5e019d96b2064f3a7c68f43e1816309fad91f",
      "transactionIndex": "0x6",
      "blockHash": "0x314225c49be3681ceedaed8234a570b7e8cbdd644c20acce2db9db09cd7f9257",
      "blockNumber": "0x28d0223",
      "gasUsed": "0xb491",
      "effectiveGasPrice": "0x10c9da",
      "blobGasUsed": "0x9c40",
      "from": "0x05f8cc8753d90d67dbb8c02118440b8283f941c9",
      "to": "0x1c2bda495534a45469d08f35d68d95d5132ec5ac",
      "contractAddress": null,
      "daFootprintGasScalar": "0x190",
      "l1BaseFeeScalar": "0x1db0",
      "l1BlobBaseFee": "0x10a3d68",
      "l1BlobBaseFeeScalar": "0xd2730",
      "l1Fee": "0x17c2191cd",
      "l1GasPrice": "0x17e36f6e",
      "l1GasUsed": "0x640"
    },
    {
      "status": "0x1",
      "cumulativeGasUsed": "0x9525d",
      "logs": [],
      "logsBloom": "0x00000000000000000000000000000000000000000000000000000000000000000000000000000000000000000000000000000000000000000000000000000000000000000000000000000000000000000000000000000000000000000000000000000000000000000000000000000000000000000000000000000000000000000000000000000000000000000000000000000000000000000000000000000000000000000000000000000000000000000000000000000000000000000000000000000000000000000000000000000000000000000000000000000000000000000000000000000000000000000000000000000000000000000000000000000000",
      "type": "0x2",
      "transactionHash": "0x3364990ed6081e8899399cebf551f657d5ff77f34c06ef230fa5defabc5eccf1",
      "transactionIndex": "0x7",
      "blockHash": "0x314225c49be3681ceedaed8234a570b7e8cbdd644c20acce2db9db09cd7f9257",
      "blockNumber": "0x28d0223",
      "gasUsed": "0xb4e5",
      "effectiveGasPrice": "0x10c9da",
      "blobGasUsed": "0x9c40",
      "from": "0x05f8cc8753d90d67dbb8c02118440b8283f941c9",
      "to": "0xbbb3f1c913343ca3d1ab0fc346fbf09dd1e2f681",
      "contractAddress": null,
      "daFootprintGasScalar": "0x190",
      "l1BaseFeeScalar": "0x1db0",
      "l1BlobBaseFee": "0x10a3d68",
      "l1BlobBaseFeeScalar": "0xd2730",
      "l1Fee": "0x17c2191cd",
      "l1GasPrice": "0x17e36f6e",
      "l1GasUsed": "0x640"
    },
    {
      "status": "0x1",
      "cumulativeGasUsed": "0xa06c6",
      "logs": [],
      "logsBloom": "0x00000000000000000000000000000000000000000000000000000000000000000000000000000000000000000000000000000000000000000000000000000000000000000000000000000000000000000000000000000000000000000000000000000000000000000000000000000000000000000000000000000000000000000000000000000000000000000000000000000000000000000000000000000000000000000000000000000000000000000000000000000000000000000000000000000000000000000000000000000000000000000000000000000000000000000000000000000000000000000000000000000000000000000000000000000000",
      "type": "0x2",
      "transactionHash": "0x30506563ef7133ce6769f7cd770feca4f45c9260592877a8dac81e133064a6db",
      "transactionIndex": "0x8",
      "blockHash": "0x314225c49be3681ceedaed8234a570b7e8cbdd644c20acce2db9db09cd7f9257",
      "blockNumber": "0x28d0223",
      "gasUsed": "0xb469",
      "effectiveGasPrice": "0x10c9da",
      "blobGasUsed": "0x9c40",
      "from": "0x05f8cc8753d90d67dbb8c02118440b8283f941c9",
      "to": "0xbbb3f1c913343ca3d1ab0fc346fbf09dd1e2f681",
      "contractAddress": null,
      "daFootprintGasScalar": "0x190",
      "l1BaseFeeScalar": "0x1db0",
      "l1BlobBaseFee": "0x10a3d68",
      "l1BlobBaseFeeScalar": "0xd2730",
      "l1Fee": "0x17c2191cd",
      "l1GasPrice": "0x17e36f6e",
      "l1GasUsed": "0x640"
    },
    {
      "status": "0x1",
      "cumulativeGasUsed": "0xabae1",
      "logs": [],
      "logsBloom": "0x00000000000000000000000000000000000000000000000000000000000000000000000000000000000000000000000000000000000000000000000000000000000000000000000000000000000000000000000000000000000000000000000000000000000000000000000000000000000000000000000000000000000000000000000000000000000000000000000000000000000000000000000000000000000000000000000000000000000000000000000000000000000000000000000000000000000000000000000000000000000000000000000000000000000000000000000000000000000000000000000000000000000000000000000000000000",
      "type": "0x2",
      "transactionHash": "0x8b4845bc66435f44e4c202823cba20f6836324f8c6e4342f61105941d4c019eb",
      "transactionIndex": "0x9",
      "blockHash": "0x314225c49be3681ceedaed8234a570b7e8cbdd644c20acce2db9db09cd7f9257",
      "blockNumber": "0x28d0223",
      "gasUsed": "0xb41b",
      "effectiveGasPrice": "0x10c9da",
      "blobGasUsed": "0x9c40",
      "from": "0x05f8cc8753d90d67dbb8c02118440b8283f941c9",
      "to": "0xbbb3f1c913343ca3d1ab0fc346fbf09dd1e2f681",
      "contractAddress": null,
      "daFootprintGasScalar": "0x190",
      "l1BaseFeeScalar": "0x1db0",
      "l1BlobBaseFee": "0x10a3d68",
      "l1BlobBaseFeeScalar": "0xd2730",
      "l1Fee": "0x17c2191cd",
      "l1GasPrice": "0x17e36f6e",
      "l1GasUsed": "0x640"
    },
    {
      "status": "0x1",
      "cumulativeGasUsed": "0xb6fb0",
      "logs": [],
      "logsBloom": "0x00000000000000000000000000000000000000000000000000000000000000000000000000000000000000000000000000000000000000000000000000000000000000000000000000000000000000000000000000000000000000000000000000000000000000000000000000000000000000000000000000000000000000000000000000000000000000000000000000000000000000000000000000000000000000000000000000000000000000000000000000000000000000000000000000000000000000000000000000000000000000000000000000000000000000000000000000000000000000000000000000000000000000000000000000000000",
      "type": "0x2",
      "transactionHash": "0x30a0667fcfb24c9e2e647b6c7cbc418502e81a8863639af0383a7349a0577a39",
      "transactionIndex": "0xa",
      "blockHash": "0x314225c49be3681ceedaed8234a570b7e8cbdd644c20acce2db9db09cd7f9257",
      "blockNumber": "0x28d0223",
      "gasUsed": "0xb4cf",
      "effectiveGasPrice": "0x10c9da",
      "blobGasUsed": "0x9c40",
      "from": "0x05f8cc8753d90d67dbb8c02118440b8283f941c9",
      "to": "0xd4f0a5a29cce8a1cdbadbf8d6c328640ab984f1d",
      "contractAddress": null,
      "daFootprintGasScalar": "0x190",
      "l1BaseFeeScalar": "0x1db0",
      "l1BlobBaseFee": "0x10a3d68",
      "l1BlobBaseFeeScalar": "0xd2730",
      "l1Fee": "0x17c2191cd",
      "l1GasPrice": "0x17e36f6e",
      "l1GasUsed": "0x640"
    },
    {
      "status": "0x1",
      "cumulativeGasUsed": "0xc2403",
      "logs": [],
      "logsBloom": "0x00000000000000000000000000000000000000000000000000000000000000000000000000000000000000000000000000000000000000000000000000000000000000000000000000000000000000000000000000000000000000000000000000000000000000000000000000000000000000000000000000000000000000000000000000000000000000000000000000000000000000000000000000000000000000000000000000000000000000000000000000000000000000000000000000000000000000000000000000000000000000000000000000000000000000000000000000000000000000000000000000000000000000000000000000000000",
      "type": "0x2",
      "transactionHash": "0x4eb0d45b61809934582479e0d58a952f1b17485d02e35d4945ededc72e2ded24",
      "transactionIndex": "0xb",
      "blockHash": "0x314225c49be3681ceedaed8234a570b7e8cbdd644c20acce2db9db09cd7f9257",
      "blockNumber": "0x28d0223",
      "gasUsed": "0xb453",
      "effectiveGasPrice": "0x10c9da",
      "blobGasUsed": "0x9c40",
      "from": "0x05f8cc8753d90d67dbb8c02118440b8283f941c9",
      "to": "0xd4f0a5a29cce8a1cdbadbf8d6c328640ab984f1d",
      "contractAddress": null,
      "daFootprintGasScalar": "0x190",
      "l1BaseFeeScalar": "0x1db0",
      "l1BlobBaseFee": "0x10a3d68",
      "l1BlobBaseFeeScalar": "0xd2730",
      "l1Fee": "0x17c2191cd",
      "l1GasPrice": "0x17e36f6e",
      "l1GasUsed": "0x640"
    },
    {
      "status": "0x1",
      "cumulativeGasUsed": "0xcd81e",
      "logs": [],
      "logsBloom": "0x00000000000000000000000000000000000000000000000000000000000000000000000000000000000000000000000000000000000000000000000000000000000000000000000000000000000000000000000000000000000000000000000000000000000000000000000000000000000000000000000000000000000000000000000000000000000000000000000000000000000000000000000000000000000000000000000000000000000000000000000000000000000000000000000000000000000000000000000000000000000000000000000000000000000000000000000000000000000000000000000000000000000000000000000000000000",
      "type": "0x2",
      "transactionHash": "0xd353024d8a8a809131c7b244650124a898230c6c09a27b510f8ac1bf3455212c",
      "transactionIndex": "0xc",
      "blockHash": "0x314225c49be3681ceedaed8234a570b7e8cbdd644c20acce2db9db09cd7f9257",
      "blockNumber": "0x28d0223",
      "gasUsed": "0xb41b",
      "effectiveGasPrice": "0x10c9da",
      "blobGasUsed": "0x9c40",
      "from": "0x05f8cc8753d90d67dbb8c02118440b8283f941c9",
      "to": "0xd4f0a5a29cce8a1cdbadbf8d6c328640ab984f1d",
      "contractAddress": null,
      "daFootprintGasScalar": "0x190",
      "l1BaseFeeScalar": "0x1db0",
      "l1BlobBaseFee": "0x10a3d68",
      "l1BlobBaseFeeScalar": "0xd2730",
      "l1Fee": "0x17c2191cd",
      "l1GasPrice": "0x17e36f6e",
      "l1GasUsed": "0x640"
    },
    {
      "status": "0x1",
      "cumulativeGasUsed": "0xd3d2b",
      "logs": [],
      "logsBloom": "0x00000000000000000000000000000000000000000000000000000000000000000000000000000000000000000000000000000000000000000000000000000000000000000000000000000000000000000000000000000000000000000000000000000000000000000000000000000000000000000000000000000000000000000000000000000000000000000000000000000000000000000000000000000000000000000000000000000000000000000000000000000000000000000000000000000000000000000000000000000000000000000000000000000000000000000000000000000000000000000000000000000000000000000000000000000000",
      "type": "0x2",
      "transactionHash": "0xfd354739cac55af77c7251362e357fc2954564e48dbfb39db19a0f3888612aec",
      "transactionIndex": "0xd",
      "blockHash": "0x314225c49be3681ceedaed8234a570b7e8cbdd644c20acce2db9db09cd7f9257",
      "blockNumber": "0x28d0223",
      "gasUsed": "0x650d",
      "effectiveGasPrice": "0x10c9da",
      "blobGasUsed": "0x9c40",
      "from": "0x05f8cc8753d90d67dbb8c02118440b8283f941c9",
      "to": "0xd4f0a5a29cce8a1cdbadbf8d6c328640ab984f1d",
      "contractAddress": null,
      "daFootprintGasScalar": "0x190",
      "l1BaseFeeScalar": "0x1db0",
      "l1BlobBaseFee": "0x10a3d68",
      "l1BlobBaseFeeScalar": "0xd2730",
      "l1Fee": "0x17c2191cd",
      "l1GasPrice": "0x17e36f6e",
      "l1GasUsed": "0x640"
    },
    {
      "status": "0x1",
      "cumulativeGasUsed": "0xefe07",
      "logs": [],
      "logsBloom": "0x00000000000000000000000000000000000000000000000000000000000000000000000000000000000000000000000000000000000000000000000000000000000000000000000000000000000000000000000000000000000000000000000000000000000000000000000000000000000000000000000000000000000000000000000000000000000000000000000000000000000000000000000000000000000000000000000000000000000000000000000000000000000000000000000000000000000000000000000000000000000000000000000000000000000000000000000000000000000000000000000000000000000000000000000000000000",
      "type": "0x2",
      "transactionHash": "0xf471d27e7e3cd2847f4eabc881e5d19d65af2fd9bbe45578006ee90be45f863d",
      "transactionIndex": "0xe",
      "blockHash": "0x314225c49be3681ceedaed8234a570b7e8cbdd644c20acce2db9db09cd7f9257",
      "blockNumber": "0x28d0223",
      "gasUsed": "0x1c0dc",
      "effectiveGasPrice": "0x10c9da",
      "blobGasUsed": "0xb090",
      "from": "0x05f8cc8753d90d67dbb8c02118440b8283f941c9",
      "to": "0x21e1a9261a7e1050d34db82bb67dea80c5d4c0bc",
      "contractAddress": null,
      "daFootprintGasScalar": "0x190",
      "l1BaseFeeScalar": "0x1db0",
      "l1BlobBaseFee": "0x10a3d68",
      "l1BlobBaseFeeScalar": "0xd2730",
      "l1Fee": "0x1ad8fa46a",
      "l1GasPrice": "0x17e36f6e",
      "l1GasUsed": "0x710"
    },
    {
      "status": "0x1",
      "cumulativeGasUsed": "0x127261",
      "logs": [],
      "logsBloom": "0x00000000000000000000000000000000000000000000000000000000000000000000000000000000000000000000000000000000000000000000000000000000000000000000000000000000000000000000000000000000000000000000000000000000000000000000000000000000000000000000000000000000000000000000000000000000000000000000000000000000000000000000000000000000000000000000000000000000000000000000000000000000000000000000000000000000000000000000000000000000000000000000000000000000000000000000000000000000000000000000000000000000000000000000000000000000",
      "type": "0x2",
      "transactionHash": "0x41d3381e4109bcf52d868e864e496105ccdfe4d41e9332e38f419b7385f7efa4",
      "transactionIndex": "0xf",
      "blockHash": "0x314225c49be3681ceedaed8234a570b7e8cbdd644c20acce2db9db09cd7f9257",
      "blockNumber": "0x28d0223",
      "gasUsed": "0x3745a",
      "effectiveGasPrice": "0x10c9da",
      "blobGasUsed": "0xd7a0",
      "from": "0x05f8cc8753d90d67dbb8c02118440b8283f941c9",
      "to": "0x7f76c13d61ab4f9f7902c255a52a1dae6c434afb",
      "contractAddress": null,
      "daFootprintGasScalar": "0x190",
      "l1BaseFeeScalar": "0x1db0",
      "l1BlobBaseFee": "0x10a3d68",
      "l1BlobBaseFeeScalar": "0xd2730",
      "l1Fee": "0x2102282b2",
      "l1GasPrice": "0x17e36f6e",
      "l1GasUsed": "0x8ae"
    },
    {
      "status": "0x1",
      "cumulativeGasUsed": "0x133a5b",
      "logs": [
        {
          "address": "0xc827913f0556a74bf9589d7ba7434cfe1be2a62b",
          "topics": [
            "0xd67543d9b94fa2fae98cd5cd9409f07a5b3532a8433e6122d97c34dfc9735b52"
          ],
          "data": "0x000000000000000000000000000000000000000000000000000000000000006000000000000000000000000000000000000000000000000000000000000000a00000000000000000000000000000000000000000000000000000000000000001000000000000000000000000000000000000000000000000000000000000000c626173652d7365706f6c696100000000000000000000000000000000000000000000000000000000000000000000000000000000000000000000000000000014605df42c4cfc3799569d3bcc0ad820feea3227d0000000000000000000000000",
          "blockHash": "0x314225c49be3681ceedaed8234a570b7e8cbdd644c20acce2db9db09cd7f9257",
          "blockNumber": "0x28d0223",
          "blockTimestamp": "0x69f0dff2",
          "transactionHash": "0x7277e6680c95c4e33632c34f90bc0af0b6706497663d69028a2fb0cb010d3f93",
          "transactionIndex": "0x10",
          "logIndex": "0x4",
          "removed": false
        }
      ],
      "logsBloom": "0x00000000000000000000000000000000000000000000000000000000000000000000000000000000000000000000000000000000000000000000000000000000000000000000000000000000000000000000000000000000000000000000000000000008000000000000000000000000000004000000000000000000000000000000000000000000000000000000000000000000000000040000000000000000000000000000100000000000000000000000000000000000000000000000000000000000000000000000000000000001000000000000000000000000000000000000002000000000000000000000000000000000000000000000000000000000",
      "type": "0x2",
      "transactionHash": "0x7277e6680c95c4e33632c34f90bc0af0b6706497663d69028a2fb0cb010d3f93",
      "transactionIndex": "0x10",
      "blockHash": "0x314225c49be3681ceedaed8234a570b7e8cbdd644c20acce2db9db09cd7f9257",
      "blockNumber": "0x28d0223",
      "gasUsed": "0xc7fa",
      "effectiveGasPrice": "0x10c9da",
      "blobGasUsed": "0xb090",
      "from": "0x05f8cc8753d90d67dbb8c02118440b8283f941c9",
      "to": "0xc827913f0556a74bf9589d7ba7434cfe1be2a62b",
      "contractAddress": null,
      "daFootprintGasScalar": "0x190",
      "l1BaseFeeScalar": "0x1db0",
      "l1BlobBaseFee": "0x10a3d68",
      "l1BlobBaseFeeScalar": "0xd2730",
      "l1Fee": "0x1ad8fa46a",
      "l1GasPrice": "0x17e36f6e",
      "l1GasUsed": "0x710"
    },
    {
      "status": "0x1",
      "cumulativeGasUsed": "0x13f854",
      "logs": [
        {
          "address": "0xc827913f0556a74bf9589d7ba7434cfe1be2a62b",
          "topics": [
            "0xda7086ba3a561c749f4ec23ff7de600b64878a9dca1be22c201e6bd9e630bc91",
            "0x4d2fdc120be87ecf5661b7a75144d5d4b507b525eeb8c9c85c346a255e3b9663",
            "0x0000000000000000000000002f2a9dbfd8c503a0ac56413b774e39030df85331"
          ],
          "data": "0x0000000000000000000000000000000000000000000000000000000000000001",
          "blockHash": "0x314225c49be3681ceedaed8234a570b7e8cbdd644c20acce2db9db09cd7f9257",
          "blockNumber": "0x28d0223",
          "blockTimestamp": "0x69f0dff2",
          "transactionHash": "0xfd9c8e34dde5345587af930ec9cb045ec15d1a7e868b6e5faeb24fece3554635",
          "transactionIndex": "0x11",
          "logIndex": "0x5",
          "removed": false
        }
      ],
      "logsBloom": "0x00000000000000000000000000000000000000000000000000000000000000000000000000000000000000000000000000000000000010000000000010000000020000000000000000000000000000000000000001000000040000000000000000000808000000000000000000000000000000000000000000000000000000000800000000000000000000000000000000000000000000000000000000000000000000000000100000000000000000000000000000000000000000020000000000000000000000000000000000000001000000000000000000000000000000000040000000000000000000000000000000000000000000000000000000000000",
      "type": "0x2",
      "transactionHash": "0xfd9c8e34dde5345587af930ec9cb045ec15d1a7e868b6e5faeb24fece3554635",
      "transactionIndex": "0x11",
      "blockHash": "0x314225c49be3681ceedaed8234a570b7e8cbdd644c20acce2db9db09cd7f9257",
      "blockNumber": "0x28d0223",
      "gasUsed": "0xbdf9",
      "effectiveGasPrice": "0x10c9da",
      "blobGasUsed": "0xb090",
      "from": "0x05f8cc8753d90d67dbb8c02118440b8283f941c9",
      "to": "0xc827913f0556a74bf9589d7ba7434cfe1be2a62b",
      "contractAddress": null,
      "daFootprintGasScalar": "0x190",
      "l1BaseFeeScalar": "0x1db0",
      "l1BlobBaseFee": "0x10a3d68",
      "l1BlobBaseFeeScalar": "0xd2730",
      "l1Fee": "0x1b0bdab95",
      "l1GasPrice": "0x17e36f6e",
      "l1GasUsed": "0x71d"
    },
    {
      "status": "0x1",
      "cumulativeGasUsed": "0x14b311",
      "logs": [
        {
          "address": "0x7f5713bcf5198a1d1045ddd79d2952317fe3846e",
          "topics": [
            "0x096f300665a57908ac1627e5a821ea670d2a90da7c601a19bf265f8553453f28",
            "0x0000000000000000000000000000000000000000000000000000000000009d35",
            "0x0000000000000000000000005389cefc0a8fd0148f1e512715843012f42ab6ea"
          ],
          "data": "0x",
          "blockHash": "0x314225c49be3681ceedaed8234a570b7e8cbdd644c20acce2db9db09cd7f9257",
          "blockNumber": "0x28d0223",
          "blockTimestamp": "0x69f0dff2",
          "transactionHash": "0x50fd1102ef8f2441e3f6da3ff026ffd734a817647c1048938a907a607c812242",
          "transactionIndex": "0x12",
          "logIndex": "0x6",
          "removed": false
        }
      ],
      "logsBloom": "0x00000000000000000000000000000000000000000000000000000000400000000000000000000000000000000000000000000000000000000000000000000000000000400000000020000000000000000000000000000001080000000000000000000000000000000000000000000000000000010000000000000000000000000000000000000000000000000000400000000000000004000000000000000000000000000000000000000000000000000000002000000000000000000000000000000000000000000000000000020000000000000000000000000000000000000000000000000000000000000000000000000010000000100000000000000000",
      "type": "0x2",
      "transactionHash": "0x50fd1102ef8f2441e3f6da3ff026ffd734a817647c1048938a907a607c812242",
      "transactionIndex": "0x12",
      "blockHash": "0x314225c49be3681ceedaed8234a570b7e8cbdd644c20acce2db9db09cd7f9257",
      "blockNumber": "0x28d0223",
      "gasUsed": "0xbabd",
      "effectiveGasPrice": "0x10c9da",
      "blobGasUsed": "0x9c40",
      "from": "0x05f8cc8753d90d67dbb8c02118440b8283f941c9",
      "to": "0x7f5713bcf5198a1d1045ddd79d2952317fe3846e",
      "contractAddress": null,
      "daFootprintGasScalar": "0x190",
      "l1BaseFeeScalar": "0x1db0",
      "l1BlobBaseFee": "0x10a3d68",
      "l1BlobBaseFeeScalar": "0xd2730",
      "l1Fee": "0x17c2191cd",
      "l1GasPrice": "0x17e36f6e",
      "l1GasUsed": "0x640"
    },
    {
      "status": "0x1",
      "cumulativeGasUsed": "0x156f87",
      "logs": [
        {
          "address": "0x7f5713bcf5198a1d1045ddd79d2952317fe3846e",
          "topics": [
            "0x4136032aa12649590b7253badbfc503b5d2e3b7d9a35afb3e4d9f6103c09a6b5",
            "0x71768d817a953a2cebfd3229be4e0ad0979effc5cb820b2f5e92b1cfe658f7db",
            "0x000000000000000000000000c1d9a1f64291cf47e703eab6b27fa0660cae7324"
          ],
          "data": "0x",
          "blockHash": "0x314225c49be3681ceedaed8234a570b7e8cbdd644c20acce2db9db09cd7f9257",
          "blockNumber": "0x28d0223",
          "blockTimestamp": "0x69f0dff2",
          "transactionHash": "0x61fedc63974ecea762664404084aa4ebfe4b07de3ec976f4dfe2cc9810ad8df8",
          "transactionIndex": "0x13",
          "logIndex": "0x7",
          "removed": false
        }
      ],
      "logsBloom": "0x00000000000000100000400000000000000000000000000000000000000000000000000000000000000000000000000000000000000000000000000000000000000000000000000000000000000200000000000000000000000000000000000000000000000000000000008000000000000000010000000000000000000000000000000000000000000000000000400000000000000000000000000000000000000010000000000000000000000000000000000000000000000000000000000000000001000000000000000000020008000000000000000000000000000000000000000000000000000000000000000000000000000100000000000200000000",
      "type": "0x2",
      "transactionHash": "0x61fedc63974ecea762664404084aa4ebfe4b07de3ec976f4dfe2cc9810ad8df8",
      "transactionIndex": "0x13",
      "blockHash": "0x314225c49be3681ceedaed8234a570b7e8cbdd644c20acce2db9db09cd7f9257",
      "blockNumber": "0x28d0223",
      "gasUsed": "0xbc76",
      "effectiveGasPrice": "0x10c9da",
      "blobGasUsed": "0xa730",
      "from": "0x05f8cc8753d90d67dbb8c02118440b8283f941c9",
      "to": "0x7f5713bcf5198a1d1045ddd79d2952317fe3846e",
      "contractAddress": null,
      "daFootprintGasScalar": "0x190",
      "l1BaseFeeScalar": "0x1db0",
      "l1BlobBaseFee": "0x10a3d68",
      "l1BlobBaseFeeScalar": "0xd2730",
      "l1Fee": "0x1974d7239",
      "l1GasPrice": "0x17e36f6e",
      "l1GasUsed": "0x6b2"
    },
    {
      "status": "0x1",
      "cumulativeGasUsed": "0x162e77",
      "logs": [
        {
          "address": "0x7f5713bcf5198a1d1045ddd79d2952317fe3846e",
          "topics": [
            "0xb7c8dd3f64d8ddf8d6f60970c4b891b50132c8511426927525184359ef6d5da7",
            "0x0000000000000000000000000000000000000000000000000000000000009d35",
            "0x71768d817a953a2cebfd3229be4e0ad0979effc5cb820b2f5e92b1cfe658f7db",
            "0x0000000000000000000000001500116d88b6583e63e2fa9d4199f2eddf72149b"
          ],
          "data": "0x",
          "blockHash": "0x314225c49be3681ceedaed8234a570b7e8cbdd644c20acce2db9db09cd7f9257",
          "blockNumber": "0x28d0223",
          "blockTimestamp": "0x69f0dff2",
          "transactionHash": "0x75cd81c166db0ff2e4ee43f37764f72180be31bacc7c6f96326307adf785c05c",
          "transactionIndex": "0x14",
          "logIndex": "0x8",
          "removed": false
        }
      ],
      "logsBloom": "0x00000000000000000020400001000000000000000000000000000000400000000000000000000000000000000000200000000000000000000000000000000000000000000001000000000000000000000000000000000000080000000000000000000000000000000000008000000000000000010000000000000000000000000000001000000000000000000000400000000000000000000000000000000000000001000000000000000000000000000000000000000000000000000000000000000000000000000000000000020008000000000000000000000000000000000000000000000000000000000000000000000000000000100000000000000000",
      "type": "0x2",
      "transactionHash": "0x75cd81c166db0ff2e4ee43f37764f72180be31bacc7c6f96326307adf785c05c",
      "transactionIndex": "0x14",
      "blockHash": "0x314225c49be3681ceedaed8234a570b7e8cbdd644c20acce2db9db09cd7f9257",
      "blockNumber": "0x28d0223",
      "gasUsed": "0xbef0",
      "effectiveGasPrice": "0x10c9da",
      "blobGasUsed": "0xaf00",
      "from": "0x05f8cc8753d90d67dbb8c02118440b8283f941c9",
      "to": "0x7f5713bcf5198a1d1045ddd79d2952317fe3846e",
      "contractAddress": null,
      "daFootprintGasScalar": "0x190",
      "l1BaseFeeScalar": "0x1db0",
      "l1BlobBaseFee": "0x10a3d68",
      "l1BlobBaseFeeScalar": "0xd2730",
      "l1Fee": "0x1aa619d3e",
      "l1GasPrice": "0x17e36f6e",
      "l1GasUsed": "0x702"
    },
    {
      "status": "0x1",
      "cumulativeGasUsed": "0x169aec",
      "logs": [
        {
          "address": "0xc1d9a1f64291cf47e703eab6b27fa0660cae7324",
          "topics": [
            "0x238399d427b947898edb290f5ff0f9109849b1c3ba196a42e35f00c50a54b98b"
          ],
          "data": "0x0000000000000000000000000000000000000000000000000000000000009d350000000000000000000000001500116d88b6583e63e2fa9d4199f2eddf72149b",
          "blockHash": "0x314225c49be3681ceedaed8234a570b7e8cbdd644c20acce2db9db09cd7f9257",
          "blockNumber": "0x28d0223",
          "blockTimestamp": "0x69f0dff2",
          "transactionHash": "0x4cc69acc361b33cc749c6cc7b55cbf8985dddaa3627e91306da6c3a7796a3786",
          "transactionIndex": "0x15",
          "logIndex": "0x9",
          "removed": false
        }
      ],
      "logsBloom": "0x00000000000000000000000000000000000000000000000000000000000000000000000000000000000000000000000000000000000000000800000000000000000000000008000000000000020000000000000000000000000000000000000000000000000000000000000000000000000000000000000000000000000000000000000000000000000000000000000000000000000000000000000000000000000000000000000000000000000000000000000000000000000002000000000000000000000000000000000000000400000000000000000000040000000000000000000000000000000000000000000000000000000000000000000000000000",
      "type": "0x2",
      "transactionHash": "0x4cc69acc361b33cc749c6cc7b55cbf8985dddaa3627e91306da6c3a7796a3786",
      "transactionIndex": "0x15",
      "blockHash": "0x314225c49be3681ceedaed8234a570b7e8cbdd644c20acce2db9db09cd7f9257",
      "blockNumber": "0x28d0223",
      "gasUsed": "0x6c75",
      "effectiveGasPrice": "0x10c9da",
      "blobGasUsed": "0x9c40",
      "from": "0x05f8cc8753d90d67dbb8c02118440b8283f941c9",
      "to": "0xc1d9a1f64291cf47e703eab6b27fa0660cae7324",
      "contractAddress": null,
      "daFootprintGasScalar": "0x190",
      "l1BaseFeeScalar": "0x1db0",
      "l1BlobBaseFee": "0x10a3d68",
      "l1BlobBaseFeeScalar": "0xd2730",
      "l1Fee": "0x17c2191cd",
      "l1GasPrice": "0x17e36f6e",
      "l1GasUsed": "0x640"
    }
  ],
  "libraries": [],
  "pending": [],
  "returns": {},
  "timestamp": 1777393651892,
  "chain": 11155420,
  "commit": "56ad3ef"
}