{
  "transactions": [
    {
      "hash": "0xd54a63cbf781435ee6400d09104601a068e8589ed98aa0a8bd676b295fef7654",
      "transactionType": "CALL",
      "contractName": null,
      "contractAddress": "0xbc4cbd47e7bf5eec5ede5f3a805c8dcc20d843a0",
      "function": "addApprovedCaller(address)",
      "arguments": [
        "0xd8016e376e15b20Fc321a37fD69DC42cfDf951Bb"
      ],
      "transaction": {
        "from": "0x05f8cc8753d90d67dbb8c02118440b8283f941c9",
        "to": "0xbc4cbd47e7bf5eec5ede5f3a805c8dcc20d843a0",
        "gas": "0x8de9",
        "value": "0x0",
        "input": "0xab5cb85a000000000000000000000000d8016e376e15b20fc321a37fd69dc42cfdf951bb",
        "nonce": "0x57",
        "chainId": "0xaa37dc"
      },
      "additionalContracts": [],
      "isFixedGasLimit": false
    },
    {
      "hash": "0xa054b25202c3e3444ac83802d9bd1b35df70dc8c5f16d709171aaa45900776e2",
      "transactionType": "CALL",
      "contractName": null,
      "contractAddress": "0xa73776c0aae79382d8003b1fc7648b5ab32889d0",
      "function": "setRouteConfig(uint32,string,address,bytes32)",
      "arguments": [
        "84532",
        "base-sepolia",
        "0x5fd1F6DB09C8d64f2230415d8F0f9E87f5462fa3",
        "0x4d2fdc120be87ecf5661b7a75144d5d4b507b525eeb8c9c85c346a255e3b9663"
      ],
      "transaction": {
        "from": "0x05f8cc8753d90d67dbb8c02118440b8283f941c9",
        "to": "0xa73776c0aae79382d8003b1fc7648b5ab32889d0",
        "gas": "0xb09c",
        "value": "0x0",
        "input": "0x7513a82a0000000000000000000000000000000000000000000000000000000000014a3400000000000000000000000000000000000000000000000000000000000000800000000000000000000000005fd1f6db09c8d64f2230415d8f0f9e87f5462fa34d2fdc120be87ecf5661b7a75144d5d4b507b525eeb8c9c85c346a255e3b9663000000000000000000000000000000000000000000000000000000000000000c626173652d7365706f6c69610000000000000000000000000000000000000000",
        "nonce": "0x58",
        "chainId": "0xaa37dc"
      },
      "additionalContracts": [],
      "isFixedGasLimit": false
    },
    {
      "hash": "0x5983275d9efcf8c3d31352df40de3e7f2e283eaeda2ef77a55d2987310f04a6d",
      "transactionType": "CALL",
      "contractName": null,
      "contractAddress": "0xd8016e376e15b20fc321a37fd69dc42cfdf951bb",
      "function": "setTrustedSourceAddress(string,address,bool)",
      "arguments": [
        "base-sepolia",
        "0xd00e7ce0ac312138dE62610eD950E814e12d3F89",
        "true"
      ],
      "transaction": {
        "from": "0x05f8cc8753d90d67dbb8c02118440b8283f941c9",
        "to": "0xd8016e376e15b20fc321a37fd69dc42cfdf951bb",
        "gas": "0xb3ac",
        "value": "0x0",
        "input": "0x6dc3df1c0000000000000000000000000000000000000000000000000000000000000060000000000000000000000000d00e7ce0ac312138de62610ed950e814e12d3f890000000000000000000000000000000000000000000000000000000000000001000000000000000000000000000000000000000000000000000000000000000c626173652d7365706f6c69610000000000000000000000000000000000000000",
        "nonce": "0x59",
        "chainId": "0xaa37dc"
      },
      "additionalContracts": [],
      "isFixedGasLimit": false
    },
    {
      "hash": "0x7b0b5155ea55541e3c8730d26ea7deead94ef04dbbb1974e9e51201b3a16ce3f",
      "transactionType": "CALL",
      "contractName": null,
      "contractAddress": "0xd8016e376e15b20fc321a37fd69dc42cfdf951bb",
      "function": "setTrustedToken(bytes32,address,bool)",
      "arguments": [
        "0x4d2fdc120be87ecf5661b7a75144d5d4b507b525eeb8c9c85c346a255e3b9663",
        "0x2f2A9DbFd8c503a0aC56413B774e39030df85331",
        "true"
      ],
      "transaction": {
        "from": "0x05f8cc8753d90d67dbb8c02118440b8283f941c9",
        "to": "0xd8016e376e15b20fc321a37fd69dc42cfdf951bb",
        "gas": "0x9c14",
        "value": "0x0",
        "input": "0x001089604d2fdc120be87ecf5661b7a75144d5d4b507b525eeb8c9c85c346a255e3b96630000000000000000000000002f2a9dbfd8c503a0ac56413b774e39030df853310000000000000000000000000000000000000000000000000000000000000001",
        "nonce": "0x5a",
        "chainId": "0xaa37dc"
      },
      "additionalContracts": [],
      "isFixedGasLimit": false
    }
  ],
  "receipts": [
    {
      "status": "0x1",
      "cumulativeGasUsed": "0x11b55",
      "logs": [],
      "logsBloom": "0x00000000000000000000000000000000000000000000000000000000000000000000000000000000000000000000000000000000000000000000000000000000000000000000000000000000000000000000000000000000000000000000000000000000000000000000000000000000000000000000000000000000000000000000000000000000000000000000000000000000000000000000000000000000000000000000000000000000000000000000000000000000000000000000000000000000000000000000000000000000000000000000000000000000000000000000000000000000000000000000000000000000000000000000000000000000",
      "type": "0x2",
      "transactionHash": "0xa054b25202c3e3444ac83802d9bd1b35df70dc8c5f16d709171aaa45900776e2",
      "transactionIndex": "0x1",
      "blockHash": "0xc1560d6007f892a5c1ec34e8475e06a999a7bb1a6a41208894dbf8de12c03c4e",
      "blockNumber": "0x2885e22",
      "gasUsed": "0x66bf",
      "effectiveGasPrice": "0x10c9f3",
      "blobGasUsed": "0x9c40",
      "from": "0x05f8cc8753d90d67dbb8c02118440b8283f941c9",
      "to": "0xbc4cbd47e7bf5eec5ede5f3a805c8dcc20d843a0",
      "contractAddress": null,
      "daFootprintGasScalar": "0x190",
      "l1BaseFeeScalar": "0x1db0",
      "l1BlobBaseFee": "0x5ca8b79",
      "l1BlobBaseFeeScalar": "0xd2730",
      "l1Fee": "0x61b45e5f4",
      "l1GasPrice": "0x57818637",
      "l1GasUsed": "0x640"
    },
    {
      "status": "0x1",
      "cumulativeGasUsed": "0x19b33",
      "logs": [],
      "logsBloom": "0x00000000000000000000000000000000000000000000000000000000000000000000000000000000000000000000000000000000000000000000000000000000000000000000000000000000000000000000000000000000000000000000000000000000000000000000000000000000000000000000000000000000000000000000000000000000000000000000000000000000000000000000000000000000000000000000000000000000000000000000000000000000000000000000000000000000000000000000000000000000000000000000000000000000000000000000000000000000000000000000000000000000000000000000000000000000",
      "type": "0x2",
      "transactionHash": "0xd54a63cbf781435ee6400d09104601a068e8589ed98aa0a8bd676b295fef7654",
      "transactionIndex": "0x2",
      "blockHash": "0xc1560d6007f892a5c1ec34e8475e06a999a7bb1a6a41208894dbf8de12c03c4e",
      "blockNumber": "0x2885e22",
      "gasUsed": "0x7fde",
      "effectiveGasPrice": "0x10c9f3",
      "blobGasUsed": "0xd930",
      "from": "0x05f8cc8753d90d67dbb8c02118440b8283f941c9",
      "to": "0xa73776c0aae79382d8003b1fc7648b5ab32889d0",
      "contractAddress": null,
      "daFootprintGasScalar": "0x190",
      "l1BaseFeeScalar": "0x1db0",
      "l1BlobBaseFee": "0x5ca8b79",
      "l1BlobBaseFeeScalar": "0xd2730",
      "l1Fee": "0x889023486",
      "l1GasPrice": "0x57818637",
      "l1GasUsed": "0x8bc"
    },
    {
      "status": "0x1",
      "cumulativeGasUsed": "0x2160e",
      "logs": [
        {
          "address": "0xd8016e376e15b20fc321a37fd69dc42cfdf951bb",
          "topics": [
            "0xd67543d9b94fa2fae98cd5cd9409f07a5b3532a8433e6122d97c34dfc9735b52"
          ],
          "data": "0x000000000000000000000000000000000000000000000000000000000000006000000000000000000000000000000000000000000000000000000000000000a00000000000000000000000000000000000000000000000000000000000000001000000000000000000000000000000000000000000000000000000000000000c626173652d7365706f6c696100000000000000000000000000000000000000000000000000000000000000000000000000000000000000000000000000000014d00e7ce0ac312138de62610ed950e814e12d3f89000000000000000000000000",
          "blockHash": "0xc1560d6007f892a5c1ec34e8475e06a999a7bb1a6a41208894dbf8de12c03c4e",
          "blockNumber": "0x2885e22",
          "blockTimestamp": "0x69e797f0",
          "transactionHash": "0x5983275d9efcf8c3d31352df40de3e7f2e283eaeda2ef77a55d2987310f04a6d",
          "transactionIndex": "0x3",
          "logIndex": "0x0",
          "removed": false
        }
      ],
      "logsBloom": "0x00000000000000000000000000000000000000000000000000000000000000000000000000000000000000000000000000000000000000000000000000000000000000000000000000000000000000000000000000000000000000000000000000000000000000000000000000000000000004000000000000000000000000000000000000000000000000000000000000000000000000040000800000000000000000000000000000000000000000000000000000000000000000000000000000000000000100000000000000000000000000000000000000000000000000000000002000000000002000000000000000000000000000000000000000000000",
      "type": "0x2",
      "transactionHash": "0x5983275d9efcf8c3d31352df40de3e7f2e283eaeda2ef77a55d2987310f04a6d",
      "transactionIndex": "0x3",
      "blockHash": "0xc1560d6007f892a5c1ec34e8475e06a999a7bb1a6a41208894dbf8de12c03c4e",
      "blockNumber": "0x2885e22",
      "gasUsed": "0x7adb",
      "effectiveGasPrice": "0x10c9f3",
      "blobGasUsed": "0xad70",
      "from": "0x05f8cc8753d90d67dbb8c02118440b8283f941c9",
      "to": "0xd8016e376e15b20fc321a37fd69dc42cfdf951bb",
      "contractAddress": null,
      "daFootprintGasScalar": "0x190",
      "l1BaseFeeScalar": "0x1db0",
      "l1BlobBaseFee": "0x5ca8b79",
      "l1BlobBaseFeeScalar": "0xd2730",
      "l1Fee": "0x6cc65ebc1",
      "l1GasPrice": "0x57818637",
      "l1GasUsed": "0x6f5"
    },
    {
      "status": "0x1",
      "cumulativeGasUsed": "0x2870e",
      "logs": [
        {
          "address": "0xd8016e376e15b20fc321a37fd69dc42cfdf951bb",
          "topics": [
            "0xda7086ba3a561c749f4ec23ff7de600b64878a9dca1be22c201e6bd9e630bc91",
            "0x4d2fdc120be87ecf5661b7a75144d5d4b507b525eeb8c9c85c346a255e3b9663",
            "0x0000000000000000000000002f2a9dbfd8c503a0ac56413b774e39030df85331"
          ],
          "data": "0x0000000000000000000000000000000000000000000000000000000000000001",
          "blockHash": "0x0000000000000000000000000000000000000000000000000000000000000000",
          "blockNumber": "0x2885e22",
          "blockTimestamp": "0x69e797f0",
          "transactionHash": "0x7b0b5155ea55541e3c8730d26ea7deead94ef04dbbb1974e9e51201b3a16ce3f",
          "transactionIndex": "0x4",
          "logIndex": "0x1",
          "removed": false
        }
      ],
      "logsBloom": "0x00000000000000000000000000000000000000000000000000000000000000000000000000000000000000000000000000000000000010000000000010000000020000000000000000000000000000000000000001000000040000000000000000000800000000000000000000000000000000000000000000000000000000000800000000000000000000000000000000000000000000000000800000000000000000000000000000000000000000000000000000000000000000020000000000000000000100000000000000000000000000000000000000000000000000000040000000000000002000000000000000000000000000000000000000000000",
      "type": "0x2",
      "transactionHash": "0x7b0b5155ea55541e3c8730d26ea7deead94ef04dbbb1974e9e51201b3a16ce3f",
      "transactionIndex": "0x4",
      "blockHash": "0x0000000000000000000000000000000000000000000000000000000000000000",
      "blockNumber": "0x2885e22",
      "gasUsed": "0x7100",
      "effectiveGasPrice": "0x10c9f3",
      "blobGasUsed": "0xaf00",
      "from": "0x05f8cc8753d90d67dbb8c02118440b8283f941c9",
      "to": "0xd8016e376e15b20fc321a37fd69dc42cfdf951bb",
      "contractAddress": null,
      "daFootprintGasScalar": "0x190",
      "l1BaseFeeScalar": "0x1db0",
      "l1BlobBaseFee": "0x5ca8b79",
      "l1BlobBaseFeeScalar": "0xd2730",
      "l1Fee": "0x6cc65ebc1",
      "l1GasPrice": "0x57818637",
      "l1GasUsed": "0x702"
    }
  ],
  "libraries": [],
  "pending": [],
  "returns": {},
  "timestamp": 1776785393798,
  "chain": 11155420,
  "commit": "bec0627"
}