{
  "transactions": [
    {
      "hash": "0xe26185ddfd5f75f4367dfff0148ffde269f26b1816da36335a17b20943051eb2",
      "transactionType": "CALL",
      "contractName": null,
      "contractAddress": "0xbc4cbd47e7bf5eec5ede5f3a805c8dcc20d843a0",
      "function": "addApprovedCaller(address)",
      "arguments": [
        "0xd8016e376e15b20Fc321a37fD69DC42cfDf951Bb"
      ],
      "transaction": {
        "from": "0x05f8cc8753d90d67dbb8c02118440b8283f941c9",
        "to": "0xbc4cbd47e7bf5eec5ede5f3a805c8dcc20d843a0",
        "gas": "0x8de9",
        "value": "0x0",
        "input": "0xab5cb85a000000000000000000000000d8016e376e15b20fc321a37fd69dc42cfdf951bb",
        "nonce": "0x43",
        "chainId": "0xaa37dc"
      },
      "additionalContracts": [],
      "isFixedGasLimit": false
    },
    {
      "hash": "0xbd3a0e32918a132fb8c0a042f6758fb0a8df209ceacb8729ccbbf119558b6ac1",
      "transactionType": "CALL",
      "contractName": null,
      "contractAddress": "0xbc4cbd47e7bf5eec5ede5f3a805c8dcc20d843a0",
      "function": "addApprovedCaller(address)",
      "arguments": [
        "0x96e67D7295A0Bca3E57c7DE9a1A9bF28fd56FFDc"
      ],
      "transaction": {
        "from": "0x05f8cc8753d90d67dbb8c02118440b8283f941c9",
        "to": "0xbc4cbd47e7bf5eec5ede5f3a805c8dcc20d843a0",
        "gas": "0x8de9",
        "value": "0x0",
        "input": "0xab5cb85a00000000000000000000000096e67d7295a0bca3e57c7de9a1a9bf28fd56ffdc",
        "nonce": "0x44",
        "chainId": "0xaa37dc"
      },
      "additionalContracts": [],
      "isFixedGasLimit": false
    },
    {
      "hash": "0x74b99616abfec320f28de6fe9184d41947a445bbc0cc33eac2cef43ab4f4fc8f",
      "transactionType": "CALL",
      "contractName": null,
      "contractAddress": "0xb1b9c30c08c37af935cda3be0e3f124a580cb1a6",
      "function": "setChainDomain(uint32,uint32)",
      "arguments": [
        "84532",
        "6"
      ],
      "transaction": {
        "from": "0x05f8cc8753d90d67dbb8c02118440b8283f941c9",
        "to": "0xb1b9c30c08c37af935cda3be0e3f124a580cb1a6",
        "gas": "0x9630",
        "value": "0x0",
        "input": "0x7ef0d2870000000000000000000000000000000000000000000000000000000000014a340000000000000000000000000000000000000000000000000000000000000006",
        "nonce": "0x45",
        "chainId": "0xaa37dc"
      },
      "additionalContracts": [],
      "isFixedGasLimit": false
    },
    {
      "hash": "0x15d69614003ec711877b15e7536dc5123ce252b187232eec1b6988503ab99840",
      "transactionType": "CALL",
      "contractName": null,
      "contractAddress": "0xb1b9c30c08c37af935cda3be0e3f124a580cb1a6",
      "function": "setDestinationReceiver(uint32,bytes32)",
      "arguments": [
        "84532",
        "0x0000000000000000000000008fb0438d0799c52920515b31310f53452c33e066"
      ],
      "transaction": {
        "from": "0x05f8cc8753d90d67dbb8c02118440b8283f941c9",
        "to": "0xb1b9c30c08c37af935cda3be0e3f124a580cb1a6",
        "gas": "0x970f",
        "value": "0x0",
        "input": "0x0267dd6c0000000000000000000000000000000000000000000000000000000000014a340000000000000000000000008fb0438d0799c52920515b31310f53452c33e066",
        "nonce": "0x46",
        "chainId": "0xaa37dc"
      },
      "additionalContracts": [],
      "isFixedGasLimit": false
    },
    {
      "hash": "0x76a02771346b60e75d2370b45b16a79a5998924231d9cb49fbc40306fcac63bc",
      "transactionType": "CALL",
      "contractName": null,
      "contractAddress": "0xb1b9c30c08c37af935cda3be0e3f124a580cb1a6",
      "function": "setDestinationCaller(uint32,bytes32)",
      "arguments": [
        "84532",
        "0x00000000000000000000000005f8cc8753d90d67dbb8c02118440b8283f941c9"
      ],
      "transaction": {
        "from": "0x05f8cc8753d90d67dbb8c02118440b8283f941c9",
        "to": "0xb1b9c30c08c37af935cda3be0e3f124a580cb1a6",
        "gas": "0xf99d",
        "value": "0x0",
        "input": "0x00686ed20000000000000000000000000000000000000000000000000000000000014a3400000000000000000000000005f8cc8753d90d67dbb8c02118440b8283f941c9",
        "nonce": "0x47",
        "chainId": "0xaa37dc"
      },
      "additionalContracts": [],
      "isFixedGasLimit": false
    },
    {
      "hash": "0xa318316abf90354df8d047ce6b54ec265a368872c2258282a57968e15cd2ad71",
      "transactionType": "CALL",
      "contractName": null,
      "contractAddress": "0x6a790bf1991d3a53b81bb9316fb3b3e8217c5699",
      "function": "setChainDomain(uint32,uint32)",
      "arguments": [
        "84532",
        "6"
      ],
      "transaction": {
        "from": "0x05f8cc8753d90d67dbb8c02118440b8283f941c9",
        "to": "0x6a790bf1991d3a53b81bb9316fb3b3e8217c5699",
        "gas": "0x8e14",
        "value": "0x0",
        "input": "0x7ef0d2870000000000000000000000000000000000000000000000000000000000014a340000000000000000000000000000000000000000000000000000000000000006",
        "nonce": "0x48",
        "chainId": "0xaa37dc"
      },
      "additionalContracts": [],
      "isFixedGasLimit": false
    },
    {
      "hash": "0xcaaf598ad31166fd112e7bebdfe0f214847a823f1c5d417b87935671855daa41",
      "transactionType": "CALL",
      "contractName": null,
      "contractAddress": "0x6a790bf1991d3a53b81bb9316fb3b3e8217c5699",
      "function": "setDestinationReceiver(uint32,bytes32)",
      "arguments": [
        "84532",
        "0x0000000000000000000000008fb0438d0799c52920515b31310f53452c33e066"
      ],
      "transaction": {
        "from": "0x05f8cc8753d90d67dbb8c02118440b8283f941c9",
        "to": "0x6a790bf1991d3a53b81bb9316fb3b3e8217c5699",
        "gas": "0x8e8c",
        "value": "0x0",
        "input": "0x0267dd6c0000000000000000000000000000000000000000000000000000000000014a340000000000000000000000008fb0438d0799c52920515b31310f53452c33e066",
        "nonce": "0x49",
        "chainId": "0xaa37dc"
      },
      "additionalContracts": [],
      "isFixedGasLimit": false
    },
    {
      "hash": "0x764d30193057d86c6776c986669a5094b5d5a9a3663a035769250ee0e80a8d17",
      "transactionType": "CALL",
      "contractName": null,
      "contractAddress": "0x6a790bf1991d3a53b81bb9316fb3b3e8217c5699",
      "function": "setDestinationCaller(uint32,bytes32)",
      "arguments": [
        "84532",
        "0x00000000000000000000000005f8cc8753d90d67dbb8c02118440b8283f941c9"
      ],
      "transaction": {
        "from": "0x05f8cc8753d90d67dbb8c02118440b8283f941c9",
        "to": "0x6a790bf1991d3a53b81bb9316fb3b3e8217c5699",
        "gas": "0xf99d",
        "value": "0x0",
        "input": "0x00686ed20000000000000000000000000000000000000000000000000000000000014a3400000000000000000000000005f8cc8753d90d67dbb8c02118440b8283f941c9",
        "nonce": "0x4a",
        "chainId": "0xaa37dc"
      },
      "additionalContracts": [],
      "isFixedGasLimit": false
    },
    {
      "hash": "0x4dc6ee26c4b50fbdb1e5e85bbe1421a52c786f36c5fd1d5fa9bdd0aa7f51a461",
      "transactionType": "CALL",
      "contractName": null,
      "contractAddress": "0x6a790bf1991d3a53b81bb9316fb3b3e8217c5699",
      "function": "setMaxFeeBpsCap(uint256)",
      "arguments": [
        "100"
      ],
      "transaction": {
        "from": "0x05f8cc8753d90d67dbb8c02118440b8283f941c9",
        "to": "0x6a790bf1991d3a53b81bb9316fb3b3e8217c5699",
        "gas": "0x8bcb",
        "value": "0x0",
        "input": "0x357c4ea70000000000000000000000000000000000000000000000000000000000000064",
        "nonce": "0x4b",
        "chainId": "0xaa37dc"
      },
      "additionalContracts": [],
      "isFixedGasLimit": false
    },
    {
      "hash": "0x308d5da1c2d51bae5fa0f08c4a4eaee56506312f16d24edd752e7cb4f3219256",
      "transactionType": "CALL",
      "contractName": null,
      "contractAddress": "0xa73776c0aae79382d8003b1fc7648b5ab32889d0",
      "function": "setRouteConfig(uint32,string,address,bytes32)",
      "arguments": [
        "84532",
        "base-sepolia",
        "0x5fd1F6DB09C8d64f2230415d8F0f9E87f5462fa3",
        "0x4d2fdc120be87ecf5661b7a75144d5d4b507b525eeb8c9c85c346a255e3b9663"
      ],
      "transaction": {
        "from": "0x05f8cc8753d90d67dbb8c02118440b8283f941c9",
        "to": "0xa73776c0aae79382d8003b1fc7648b5ab32889d0",
        "gas": "0xbfb8",
        "value": "0x0",
        "input": "0x7513a82a0000000000000000000000000000000000000000000000000000000000014a3400000000000000000000000000000000000000000000000000000000000000800000000000000000000000005fd1f6db09c8d64f2230415d8f0f9e87f5462fa34d2fdc120be87ecf5661b7a75144d5d4b507b525eeb8c9c85c346a255e3b9663000000000000000000000000000000000000000000000000000000000000000c626173652d7365706f6c69610000000000000000000000000000000000000000",
        "nonce": "0x4c",
        "chainId": "0xaa37dc"
      },
      "additionalContracts": [],
      "isFixedGasLimit": false
    },
    {
      "hash": "0x77ac31f548aa4d7375c8c05b3ee819081314980ead421c9154f2db03f185633e",
      "transactionType": "CALL",
      "contractName": null,
      "contractAddress": "0x55cc592be7e49c4020e67a895fee9474c7d71dbc",
      "function": "setRouteConfig(uint32,uint32,address,bytes)",
      "arguments": [
        "84532",
        "40245",
        "0x4e5d1Ff12514cC396aA37757878A02433887EDe0",
        "0x00030100110100000000000000000000000000030d4001001303000000000000000000000000000000061a80"
      ],
      "transaction": {
        "from": "0x05f8cc8753d90d67dbb8c02118440b8283f941c9",
        "to": "0x55cc592be7e49c4020e67a895fee9474c7d71dbc",
        "gas": "0xc941",
        "value": "0x0",
        "input": "0xd5bfb7fa0000000000000000000000000000000000000000000000000000000000014a340000000000000000000000000000000000000000000000000000000000009d350000000000000000000000004e5d1ff12514cc396aa37757878a02433887ede00000000000000000000000000000000000000000000000000000000000000080000000000000000000000000000000000000000000000000000000000000002c00030100110100000000000000000000000000030d4001001303000000000000000000000000000000061a800000000000000000000000000000000000000000",
        "nonce": "0x4d",
        "chainId": "0xaa37dc"
      },
      "additionalContracts": [],
      "isFixedGasLimit": false
    },
    {
      "hash": "0xacabe419b4f33ff9cfece5c79cf2277e6f7d155c3842eeed3f752577c81c64d3",
      "transactionType": "CALL",
      "contractName": null,
      "contractAddress": "0xd8016e376e15b20fc321a37fd69dc42cfdf951bb",
      "function": "setTrustedSourceAddress(string,address,bool)",
      "arguments": [
        "base-sepolia",
        "0xd00e7ce0ac312138dE62610eD950E814e12d3F89",
        "true"
      ],
      "transaction": {
        "from": "0x05f8cc8753d90d67dbb8c02118440b8283f941c9",
        "to": "0xd8016e376e15b20fc321a37fd69dc42cfdf951bb",
        "gas": "0x11510",
        "value": "0x0",
        "input": "0x6dc3df1c0000000000000000000000000000000000000000000000000000000000000060000000000000000000000000d00e7ce0ac312138de62610ed950e814e12d3f890000000000000000000000000000000000000000000000000000000000000001000000000000000000000000000000000000000000000000000000000000000c626173652d7365706f6c69610000000000000000000000000000000000000000",
        "nonce": "0x4e",
        "chainId": "0xaa37dc"
      },
      "additionalContracts": [],
      "isFixedGasLimit": false
    },
    {
      "hash": "0x6c640619c49366e9ca715ce43bbcf9766bfff58679272a89ab4006859ffae9e3",
      "transactionType": "CALL",
      "contractName": null,
      "contractAddress": "0xd8016e376e15b20fc321a37fd69dc42cfdf951bb",
      "function": "setTrustedToken(bytes32,address,bool)",
      "arguments": [
        "0x4d2fdc120be87ecf5661b7a75144d5d4b507b525eeb8c9c85c346a255e3b9663",
        "0x2f2A9DbFd8c503a0aC56413B774e39030df85331",
        "true"
      ],
      "transaction": {
        "from": "0x05f8cc8753d90d67dbb8c02118440b8283f941c9",
        "to": "0xd8016e376e15b20fc321a37fd69dc42cfdf951bb",
        "gas": "0x10772",
        "value": "0x0",
        "input": "0x001089604d2fdc120be87ecf5661b7a75144d5d4b507b525eeb8c9c85c346a255e3b96630000000000000000000000002f2a9dbfd8c503a0ac56413b774e39030df853310000000000000000000000000000000000000000000000000000000000000001",
        "nonce": "0x4f",
        "chainId": "0xaa37dc"
      },
      "additionalContracts": [],
      "isFixedGasLimit": false
    },
    {
      "hash": "0x147a9adfc023a3d03aebba0e72412b55eb52cbae92d06c1b23724a1c220c3a6c",
      "transactionType": "CALL",
      "contractName": null,
      "contractAddress": "0x96e67d7295a0bca3e57c7de9a1a9bf28fd56ffdc",
      "function": "setTrustedPeerAddress(uint32,address)",
      "arguments": [
        "40245",
        "0x05C5a9DfF519Bbb26E206d02e90aA9ca5105a327"
      ],
      "transaction": {
        "from": "0x05f8cc8753d90d67dbb8c02118440b8283f941c9",
        "to": "0x96e67d7295a0bca3e57c7de9a1a9bf28fd56ffdc",
        "gas": "0x111ae",
        "value": "0x0",
        "input": "0x60c5965f0000000000000000000000000000000000000000000000000000000000009d3500000000000000000000000005c5a9dff519bbb26e206d02e90aa9ca5105a327",
        "nonce": "0x50",
        "chainId": "0xaa37dc"
      },
      "additionalContracts": [],
      "isFixedGasLimit": false
    }
  ],
  "receipts": [
    {
      "status": "0x1",
      "cumulativeGasUsed": "0x11b55",
      "logs": [],
      "logsBloom": "0x00000000000000000000000000000000000000000000000000000000000000000000000000000000000000000000000000000000000000000000000000000000000000000000000000000000000000000000000000000000000000000000000000000000000000000000000000000000000000000000000000000000000000000000000000000000000000000000000000000000000000000000000000000000000000000000000000000000000000000000000000000000000000000000000000000000000000000000000000000000000000000000000000000000000000000000000000000000000000000000000000000000000000000000000000000000",
      "type": "0x2",
      "transactionHash": "0xe26185ddfd5f75f4367dfff0148ffde269f26b1816da36335a17b20943051eb2",
      "transactionIndex": "0x1",
      "blockHash": "0xc9507ac98f7d4b1cc6544bc021d34c7b060b255c6520fd5b3cf41cc39ba81793",
      "blockNumber": "0x287bfb7",
      "gasUsed": "0x66bf",
      "effectiveGasPrice": "0xf433a",
      "blobGasUsed": "0x9c40",
      "from": "0x05f8cc8753d90d67dbb8c02118440b8283f941c9",
      "to": "0xbc4cbd47e7bf5eec5ede5f3a805c8dcc20d843a0",
      "contractAddress": null,
      "daFootprintGasScalar": "0x190",
      "l1BaseFeeScalar": "0x1db0",
      "l1BlobBaseFee": "0xbbde671",
      "l1BlobBaseFeeScalar": "0xd2730",
      "l1Fee": "0xd5ff44107",
      "l1GasPrice": "0xc656f8d8",
      "l1GasUsed": "0x640"
    },
    {
      "status": "0x1",
      "cumulativeGasUsed": "0x18214",
      "logs": [],
      "logsBloom": "0x00000000000000000000000000000000000000000000000000000000000000000000000000000000000000000000000000000000000000000000000000000000000000000000000000000000000000000000000000000000000000000000000000000000000000000000000000000000000000000000000000000000000000000000000000000000000000000000000000000000000000000000000000000000000000000000000000000000000000000000000000000000000000000000000000000000000000000000000000000000000000000000000000000000000000000000000000000000000000000000000000000000000000000000000000000000",
      "type": "0x2",
      "transactionHash": "0x15d69614003ec711877b15e7536dc5123ce252b187232eec1b6988503ab99840",
      "transactionIndex": "0x2",
      "blockHash": "0xc9507ac98f7d4b1cc6544bc021d34c7b060b255c6520fd5b3cf41cc39ba81793",
      "blockNumber": "0x287bfb7",
      "gasUsed": "0x66bf",
      "effectiveGasPrice": "0xf433a",
      "blobGasUsed": "0x9c40",
      "from": "0x05f8cc8753d90d67dbb8c02118440b8283f941c9",
      "to": "0xbc4cbd47e7bf5eec5ede5f3a805c8dcc20d843a0",
      "contractAddress": null,
      "daFootprintGasScalar": "0x190",
      "l1BaseFeeScalar": "0x1db0",
      "l1BlobBaseFee": "0xbbde671",
      "l1BlobBaseFeeScalar": "0xd2730",
      "l1Fee": "0xd5ff44107",
      "l1GasPrice": "0xc656f8d8",
      "l1GasUsed": "0x640"
    },
    {
      "status": "0x1",
      "cumulativeGasUsed": "0x1e8c6",
      "logs": [],
      "logsBloom": "0x00000000000000000000000000000000000000000000000000000000000000000000000000000000000000000000000000000000000000000000000000000000000000000000000000000000000000000000000000000000000000000000000000000000000000000000000000000000000000000000000000000000000000000000000000000000000000000000000000000000000000000000000000000000000000000000000000000000000000000000000000000000000000000000000000000000000000000000000000000000000000000000000000000000000000000000000000000000000000000000000000000000000000000000000000000000",
      "type": "0x2",
      "transactionHash": "0xbd3a0e32918a132fb8c0a042f6758fb0a8df209ceacb8729ccbbf119558b6ac1",
      "transactionIndex": "0x3",
      "blockHash": "0xc9507ac98f7d4b1cc6544bc021d34c7b060b255c6520fd5b3cf41cc39ba81793",
      "blockNumber": "0x287bfb7",
      "gasUsed": "0x66b2",
      "effectiveGasPrice": "0xf433a",
      "blobGasUsed": "0x9c40",
      "from": "0x05f8cc8753d90d67dbb8c02118440b8283f941c9",
      "to": "0xb1b9c30c08c37af935cda3be0e3f124a580cb1a6",
      "contractAddress": null,
      "daFootprintGasScalar": "0x190",
      "l1BaseFeeScalar": "0x1db0",
      "l1BlobBaseFee": "0xbbde671",
      "l1BlobBaseFeeScalar": "0xd2730",
      "l1Fee": "0xd5ff44107",
      "l1GasPrice": "0xc656f8d8",
      "l1GasUsed": "0x640"
    },
    {
      "status": "0x1",
      "cumulativeGasUsed": "0x25010",
      "logs": [],
      "logsBloom": "0x00000000000000000000000000000000000000000000000000000000000000000000000000000000000000000000000000000000000000000000000000000000000000000000000000000000000000000000000000000000000000000000000000000000000000000000000000000000000000000000000000000000000000000000000000000000000000000000000000000000000000000000000000000000000000000000000000000000000000000000000000000000000000000000000000000000000000000000000000000000000000000000000000000000000000000000000000000000000000000000000000000000000000000000000000000000",
      "type": "0x2",
      "transactionHash": "0x76a02771346b60e75d2370b45b16a79a5998924231d9cb49fbc40306fcac63bc",
      "transactionIndex": "0x4",
      "blockHash": "0xc9507ac98f7d4b1cc6544bc021d34c7b060b255c6520fd5b3cf41cc39ba81793",
      "blockNumber": "0x287bfb7",
      "gasUsed": "0x674a",
      "effectiveGasPrice": "0xf433a",
      "blobGasUsed": "0x9c40",
      "from": "0x05f8cc8753d90d67dbb8c02118440b8283f941c9",
      "to": "0xb1b9c30c08c37af935cda3be0e3f124a580cb1a6",
      "contractAddress": null,
      "daFootprintGasScalar": "0x190",
      "l1BaseFeeScalar": "0x1db0",
      "l1BlobBaseFee": "0xbbde671",
      "l1BlobBaseFeeScalar": "0xd2730",
      "l1Fee": "0xd5ff44107",
      "l1GasPrice": "0xc656f8d8",
      "l1GasUsed": "0x640"
    },
    {
      "status": "0x1",
      "cumulativeGasUsed": "0x304c8",
      "logs": [],
      "logsBloom": "0x00000000000000000000000000000000000000000000000000000000000000000000000000000000000000000000000000000000000000000000000000000000000000000000000000000000000000000000000000000000000000000000000000000000000000000000000000000000000000000000000000000000000000000000000000000000000000000000000000000000000000000000000000000000000000000000000000000000000000000000000000000000000000000000000000000000000000000000000000000000000000000000000000000000000000000000000000000000000000000000000000000000000000000000000000000000",
      "type": "0x2",
      "transactionHash": "0x4dc6ee26c4b50fbdb1e5e85bbe1421a52c786f36c5fd1d5fa9bdd0aa7f51a461",
      "transactionIndex": "0x5",
      "blockHash": "0xc9507ac98f7d4b1cc6544bc021d34c7b060b255c6520fd5b3cf41cc39ba81793",
      "blockNumber": "0x287bfb7",
      "gasUsed": "0xb4b8",
      "effectiveGasPrice": "0xf433a",
      "blobGasUsed": "0x9c40",
      "from": "0x05f8cc8753d90d67dbb8c02118440b8283f941c9",
      "to": "0xb1b9c30c08c37af935cda3be0e3f124a580cb1a6",
      "contractAddress": null,
      "daFootprintGasScalar": "0x190",
      "l1BaseFeeScalar": "0x1db0",
      "l1BlobBaseFee": "0xbbde671",
      "l1BlobBaseFeeScalar": "0xd2730",
      "l1Fee": "0xd5ff44107",
      "l1GasPrice": "0xc656f8d8",
      "l1GasUsed": "0x640"
    },
    {
      "status": "0x1",
      "cumulativeGasUsed": "0x36ba6",
      "logs": [],
      "logsBloom": "0x00000000000000000000000000000000000000000000000000000000000000000000000000000000000000000000000000000000000000000000000000000000000000000000000000000000000000000000000000000000000000000000000000000000000000000000000000000000000000000000000000000000000000000000000000000000000000000000000000000000000000000000000000000000000000000000000000000000000000000000000000000000000000000000000000000000000000000000000000000000000000000000000000000000000000000000000000000000000000000000000000000000000000000000000000000000",
      "type": "0x2",
      "transactionHash": "0x74b99616abfec320f28de6fe9184d41947a445bbc0cc33eac2cef43ab4f4fc8f",
      "transactionIndex": "0x6",
      "blockHash": "0xc9507ac98f7d4b1cc6544bc021d34c7b060b255c6520fd5b3cf41cc39ba81793",
      "blockNumber": "0x287bfb7",
      "gasUsed": "0x66de",
      "effectiveGasPrice": "0xf433a",
      "blobGasUsed": "0x9c40",
      "from": "0x05f8cc8753d90d67dbb8c02118440b8283f941c9",
      "to": "0x6a790bf1991d3a53b81bb9316fb3b3e8217c5699",
      "contractAddress": null,
      "daFootprintGasScalar": "0x190",
      "l1BaseFeeScalar": "0x1db0",
      "l1BlobBaseFee": "0xbbde671",
      "l1BlobBaseFeeScalar": "0xd2730",
      "l1Fee": "0xd5ff44107",
      "l1GasPrice": "0xc656f8d8",
      "l1GasUsed": "0x640"
    },
    {
      "status": "0x1",
      "cumulativeGasUsed": "0x3d2da",
      "logs": [],
      "logsBloom": "0x00000000000000000000000000000000000000000000000000000000000000000000000000000000000000000000000000000000000000000000000000000000000000000000000000000000000000000000000000000000000000000000000000000000000000000000000000000000000000000000000000000000000000000000000000000000000000000000000000000000000000000000000000000000000000000000000000000000000000000000000000000000000000000000000000000000000000000000000000000000000000000000000000000000000000000000000000000000000000000000000000000000000000000000000000000000",
      "type": "0x2",
      "transactionHash": "0x764d30193057d86c6776c986669a5094b5d5a9a3663a035769250ee0e80a8d17",
      "transactionIndex": "0x7",
      "blockHash": "0xc9507ac98f7d4b1cc6544bc021d34c7b060b255c6520fd5b3cf41cc39ba81793",
      "blockNumber": "0x287bfb7",
      "gasUsed": "0x6734",
      "effectiveGasPrice": "0xf433a",
      "blobGasUsed": "0x9c40",
      "from": "0x05f8cc8753d90d67dbb8c02118440b8283f941c9",
      "to": "0x6a790bf1991d3a53b81bb9316fb3b3e8217c5699",
      "contractAddress": null,
      "daFootprintGasScalar": "0x190",
      "l1BaseFeeScalar": "0x1db0",
      "l1BlobBaseFee": "0xbbde671",
      "l1BlobBaseFeeScalar": "0xd2730",
      "l1Fee": "0xd5ff44107",
      "l1GasPrice": "0xc656f8d8",
      "l1GasUsed": "0x640"
    },
    {
      "status": "0x1",
      "cumulativeGasUsed": "0x48792",
      "logs": [],
      "logsBloom": "0x00000000000000000000000000000000000000000000000000000000000000000000000000000000000000000000000000000000000000000000000000000000000000000000000000000000000000000000000000000000000000000000000000000000000000000000000000000000000000000000000000000000000000000000000000000000000000000000000000000000000000000000000000000000000000000000000000000000000000000000000000000000000000000000000000000000000000000000000000000000000000000000000000000000000000000000000000000000000000000000000000000000000000000000000000000000",
      "type": "0x2",
      "transactionHash": "0xa318316abf90354df8d047ce6b54ec265a368872c2258282a57968e15cd2ad71",
      "transactionIndex": "0x8",
      "blockHash": "0x0000000000000000000000000000000000000000000000000000000000000000",
      "blockNumber": "0x287bfb7",
      "gasUsed": "0xb4b8",
      "effectiveGasPrice": "0xf433a",
      "blobGasUsed": "0x9c40",
      "from": "0x05f8cc8753d90d67dbb8c02118440b8283f941c9",
      "to": "0x6a790bf1991d3a53b81bb9316fb3b3e8217c5699",
      "contractAddress": null,
      "daFootprintGasScalar": "0x190",
      "l1BaseFeeScalar": "0x1db0",
      "l1BlobBaseFee": "0xbbde671",
      "l1BlobBaseFeeScalar": "0xd2730",
      "l1Fee": "0xd5ff44107",
      "l1GasPrice": "0xc656f8d8",
      "l1GasUsed": "0x640"
    },
    {
      "status": "0x1",
      "cumulativeGasUsed": "0x4ecc8",
      "logs": [],
      "logsBloom": "0x00000000000000000000000000000000000000000000000000000000000000000000000000000000000000000000000000000000000000000000000000000000000000000000000000000000000000000000000000000000000000000000000000000000000000000000000000000000000000000000000000000000000000000000000000000000000000000000000000000000000000000000000000000000000000000000000000000000000000000000000000000000000000000000000000000000000000000000000000000000000000000000000000000000000000000000000000000000000000000000000000000000000000000000000000000000",
      "type": "0x2",
      "transactionHash": "0x77ac31f548aa4d7375c8c05b3ee819081314980ead421c9154f2db03f185633e",
      "transactionIndex": "0x9",
      "blockHash": "0xc9507ac98f7d4b1cc6544bc021d34c7b060b255c6520fd5b3cf41cc39ba81793",
      "blockNumber": "0x287bfb7",
      "gasUsed": "0x6536",
      "effectiveGasPrice": "0xf433a",
      "blobGasUsed": "0x9c40",
      "from": "0x05f8cc8753d90d67dbb8c02118440b8283f941c9",
      "to": "0x6a790bf1991d3a53b81bb9316fb3b3e8217c5699",
      "contractAddress": null,
      "daFootprintGasScalar": "0x190",
      "l1BaseFeeScalar": "0x1db0",
      "l1BlobBaseFee": "0xbbde671",
      "l1BlobBaseFeeScalar": "0xd2730",
      "l1Fee": "0xd5ff44107",
      "l1GasPrice": "0xc656f8d8",
      "l1GasUsed": "0x640"
    },
    {
      "status": "0x1",
      "cumulativeGasUsed": "0x57796",
      "logs": [],
      "logsBloom": "0x00000000000000000000000000000000000000000000000000000000000000000000000000000000000000000000000000000000000000000000000000000000000000000000000000000000000000000000000000000000000000000000000000000000000000000000000000000000000000000000000000000000000000000000000000000000000000000000000000000000000000000000000000000000000000000000000000000000000000000000000000000000000000000000000000000000000000000000000000000000000000000000000000000000000000000000000000000000000000000000000000000000000000000000000000000000",
      "type": "0x2",
      "transactionHash": "0xcaaf598ad31166fd112e7bebdfe0f214847a823f1c5d417b87935671855daa41",
      "transactionIndex": "0xa",
      "blockHash": "0xc9507ac98f7d4b1cc6544bc021d34c7b060b255c6520fd5b3cf41cc39ba81793",
      "blockNumber": "0x287bfb7",
      "gasUsed": "0x8ace",
      "effectiveGasPrice": "0xf433a",
      "blobGasUsed": "0xd930",
      "from": "0x05f8cc8753d90d67dbb8c02118440b8283f941c9",
      "to": "0xa73776c0aae79382d8003b1fc7648b5ab32889d0",
      "contractAddress": null,
      "daFootprintGasScalar": "0x190",
      "l1BaseFeeScalar": "0x1db0",
      "l1BlobBaseFee": "0xbbde671",
      "l1BlobBaseFeeScalar": "0xd2730",
      "l1Fee": "0x12b1b56724",
      "l1GasPrice": "0xc656f8d8",
      "l1GasUsed": "0x8bc"
    },
    {
      "status": "0x1",
      "cumulativeGasUsed": "0x6094b",
      "logs": [],
      "logsBloom": "0x00000000000000000000000000000000000000000000000000000000000000000000000000000000000000000000000000000000000000000000000000000000000000000000000000000000000000000000000000000000000000000000000000000000000000000000000000000000000000000000000000000000000000000000000000000000000000000000000000000000000000000000000000000000000000000000000000000000000000000000000000000000000000000000000000000000000000000000000000000000000000000000000000000000000000000000000000000000000000000000000000000000000000000000000000000000",
      "type": "0x2",
      "transactionHash": "0x308d5da1c2d51bae5fa0f08c4a4eaee56506312f16d24edd752e7cb4f3219256",
      "transactionIndex": "0xb",
      "blockHash": "0xc9507ac98f7d4b1cc6544bc021d34c7b060b255c6520fd5b3cf41cc39ba81793",
      "blockNumber": "0x287bfb7",
      "gasUsed": "0x91b5",
      "effectiveGasPrice": "0xf433a",
      "blobGasUsed": "0xce40",
      "from": "0x05f8cc8753d90d67dbb8c02118440b8283f941c9",
      "to": "0x55cc592be7e49c4020e67a895fee9474c7d71dbc",
      "contractAddress": null,
      "daFootprintGasScalar": "0x190",
      "l1BaseFeeScalar": "0x1db0",
      "l1BlobBaseFee": "0xbbde671",
      "l1BlobBaseFeeScalar": "0xd2730",
      "l1Fee": "0x11afefac12",
      "l1GasPrice": "0xc656f8d8",
      "l1GasUsed": "0x843"
    },
    {
      "status": "0x1",
      "cumulativeGasUsed": "0x6d1e2",
      "logs": [
        {
          "address": "0xd8016e376e15b20fc321a37fd69dc42cfdf951bb",
          "topics": [
            "0xd67543d9b94fa2fae98cd5cd9409f07a5b3532a8433e6122d97c34dfc9735b52"
          ],
          "data": "0x000000000000000000000000000000000000000000000000000000000000006000000000000000000000000000000000000000000000000000000000000000a00000000000000000000000000000000000000000000000000000000000000001000000000000000000000000000000000000000000000000000000000000000c626173652d7365706f6c696100000000000000000000000000000000000000000000000000000000000000000000000000000000000000000000000000000014d00e7ce0ac312138de62610ed950e814e12d3f89000000000000000000000000",
          "blockHash": "0xc9507ac98f7d4b1cc6544bc021d34c7b060b255c6520fd5b3cf41cc39ba81793",
          "blockNumber": "0x287bfb7",
          "blockTimestamp": "0x69e65b1a",
          "transactionHash": "0xacabe419b4f33ff9cfece5c79cf2277e6f7d155c3842eeed3f752577c81c64d3",
          "transactionIndex": "0xc",
          "logIndex": "0x0",
          "removed": false
        }
      ],
      "logsBloom": "0x00000000000000000000000000000000000000000000000000000000000000000000000000000000000000000000000000000000000000000000000000000000000000000000000000000000000000000000000000000000000000000000000000000000000000000000000000000000000004000000000000000000000000000000000000000000000000000000000000000000000000040000800000000000000000000000000000000000000000000000000000000000000000000000000000000000000100000000000000000000000000000000000000000000000000000000002000000000002000000000000000000000000000000000000000000000",
      "type": "0x2",
      "transactionHash": "0xacabe419b4f33ff9cfece5c79cf2277e6f7d155c3842eeed3f752577c81c64d3",
      "transactionIndex": "0xc",
      "blockHash": "0xc9507ac98f7d4b1cc6544bc021d34c7b060b255c6520fd5b3cf41cc39ba81793",
      "blockNumber": "0x287bfb7",
      "gasUsed": "0xc897",
      "effectiveGasPrice": "0xf433a",
      "blobGasUsed": "0xaf00",
      "from": "0x05f8cc8753d90d67dbb8c02118440b8283f941c9",
      "to": "0xd8016e376e15b20fc321a37fd69dc42cfdf951bb",
      "contractAddress": null,
      "daFootprintGasScalar": "0x190",
      "l1BaseFeeScalar": "0x1db0",
      "l1BlobBaseFee": "0xbbde671",
      "l1BlobBaseFeeScalar": "0xd2730",
      "l1Fee": "0xf008b0e8c",
      "l1GasPrice": "0xc656f8d8",
      "l1GasUsed": "0x702"
    },
    {
      "status": "0x1",
      "cumulativeGasUsed": "0x7909e",
      "logs": [
        {
          "address": "0xd8016e376e15b20fc321a37fd69dc42cfdf951bb",
          "topics": [
            "0xda7086ba3a561c749f4ec23ff7de600b64878a9dca1be22c201e6bd9e630bc91",
            "0x4d2fdc120be87ecf5661b7a75144d5d4b507b525eeb8c9c85c346a255e3b9663",
            "0x0000000000000000000000002f2a9dbfd8c503a0ac56413b774e39030df85331"
          ],
          "data": "0x0000000000000000000000000000000000000000000000000000000000000001",
          "blockHash": "0xc9507ac98f7d4b1cc6544bc021d34c7b060b255c6520fd5b3cf41cc39ba81793",
          "blockNumber": "0x287bfb7",
          "blockTimestamp": "0x69e65b1a",
          "transactionHash": "0x6c640619c49366e9ca715ce43bbcf9766bfff58679272a89ab4006859ffae9e3",
          "transactionIndex": "0xd",
          "logIndex": "0x1",
          "removed": false
        }
      ],
      "logsBloom": "0x00000000000000000000000000000000000000000000000000000000000000000000000000000000000000000000000000000000000010000000000010000000020000000000000000000000000000000000000001000000040000000000000000000800000000000000000000000000000000000000000000000000000000000800000000000000000000000000000000000000000000000000800000000000000000000000000000000000000000000000000000000000000000020000000000000000000100000000000000000000000000000000000000000000000000000040000000000000002000000000000000000000000000000000000000000000",
      "type": "0x2",
      "transactionHash": "0x6c640619c49366e9ca715ce43bbcf9766bfff58679272a89ab4006859ffae9e3",
      "transactionIndex": "0xd",
      "blockHash": "0xc9507ac98f7d4b1cc6544bc021d34c7b060b255c6520fd5b3cf41cc39ba81793",
      "blockNumber": "0x287bfb7",
      "gasUsed": "0xbebc",
      "effectiveGasPrice": "0xf433a",
      "blobGasUsed": "0xb090",
      "from": "0x05f8cc8753d90d67dbb8c02118440b8283f941c9",
      "to": "0xd8016e376e15b20fc321a37fd69dc42cfdf951bb",
      "contractAddress": null,
      "daFootprintGasScalar": "0x190",
      "l1BaseFeeScalar": "0x1db0",
      "l1BlobBaseFee": "0xbbde671",
      "l1BlobBaseFeeScalar": "0xd2730",
      "l1Fee": "0xf1d2f3fc7",
      "l1GasPrice": "0xc656f8d8",
      "l1GasUsed": "0x710"
    },
    {
      "status": "0x1",
      "cumulativeGasUsed": "0x84bc0",
      "logs": [
        {
          "address": "0x96e67d7295a0bca3e57c7de9a1a9bf28fd56ffdc",
          "topics": [
            "0x096f300665a57908ac1627e5a821ea670d2a90da7c601a19bf265f8553453f28",
            "0x0000000000000000000000000000000000000000000000000000000000009d35",
            "0x00000000000000000000000005c5a9dff519bbb26e206d02e90aa9ca5105a327"
          ],
          "data": "0x",
          "blockHash": "0xc9507ac98f7d4b1cc6544bc021d34c7b060b255c6520fd5b3cf41cc39ba81793",
          "blockNumber": "0x287bfb7",
          "blockTimestamp": "0x69e65b1a",
          "transactionHash": "0x147a9adfc023a3d03aebba0e72412b55eb52cbae92d06c1b23724a1c220c3a6c",
          "transactionIndex": "0xe",
          "logIndex": "0x2",
          "removed": false
        }
      ],
      "logsBloom": "0x00000000000000000000000000000000000000000000000000000000400000000000000000000000000000000000000000000000000000000080000000000000000000400000000000000000000000000000000000000001080000000100080000000000000000000000000000000001000000000000000000000000000000000000000000000000000000000000000000000000000004000000000000000000000000000000000000000000000000000000000000000000008000000000000000000000000000000000000000000000000000000010000000000000000000000000000000000000000000000000000000000000000000100000000000000000",
      "type": "0x2",
      "transactionHash": "0x147a9adfc023a3d03aebba0e72412b55eb52cbae92d06c1b23724a1c220c3a6c",
      "transactionIndex": "0xe",
      "blockHash": "0xc9507ac98f7d4b1cc6544bc021d34c7b060b255c6520fd5b3cf41cc39ba81793",
      "blockNumber": "0x287bfb7",
      "gasUsed": "0xbb22",
      "effectiveGasPrice": "0xf433a",
      "blobGasUsed": "0x9c40",
      "from": "0x05f8cc8753d90d67dbb8c02118440b8283f941c9",
      "to": "0x96e67d7295a0bca3e57c7de9a1a9bf28fd56ffdc",
      "contractAddress": null,
      "daFootprintGasScalar": "0x190",
      "l1BaseFeeScalar": "0x1db0",
      "l1BlobBaseFee": "0xbbde671",
      "l1BlobBaseFeeScalar": "0xd2730",
      "l1Fee": "0xd5ff44107",
      "l1GasPrice": "0xc656f8d8",
      "l1GasUsed": "0x640"
    }
  ],
  "libraries": [],
  "pending": [],
  "returns": {},
  "timestamp": 1776704284328,
  "chain": 11155420,
  "commit": "bec0627"
}