{
  "transactions": [
    {
      "hash": "0xa1711b0677b5220d6b0dab19252fe76710824e864a7d0cdbbf64cd3ec29719a8",
      "transactionType": "CALL",
      "contractName": null,
      "contractAddress": "0x5e8297763d7448718917b16b88347766b0920af9",
      "function": "registerRailPlugin(address)",
      "arguments": [
        "0xb1B9C30C08c37AF935cda3Be0E3f124A580cB1a6"
      ],
      "transaction": {
        "from": "0x05f8cc8753d90d67dbb8c02118440b8283f941c9",
        "to": "0x5e8297763d7448718917b16b88347766b0920af9",
        "gas": "0x28be3",
        "value": "0x0",
        "input": "0x172ceb34000000000000000000000000b1b9c30c08c37af935cda3be0e3f124a580cb1a6",
        "nonce": "0x27",
        "chainId": "0xaa37dc"
      },
      "additionalContracts": [],
      "isFixedGasLimit": false
    },
    {
      "hash": "0x634b00aad5a2aa347df5de879d8285dc89bded537bc6d5e0c49ff115a80b5f2d",
      "transactionType": "CALL",
      "contractName": null,
      "contractAddress": "0x5e8297763d7448718917b16b88347766b0920af9",
      "function": "registerRailPlugin(address)",
      "arguments": [
        "0xA73776c0aAE79382d8003B1fC7648B5ab32889D0"
      ],
      "transaction": {
        "from": "0x05f8cc8753d90d67dbb8c02118440b8283f941c9",
        "to": "0x5e8297763d7448718917b16b88347766b0920af9",
        "gas": "0x22ec8",
        "value": "0x0",
        "input": "0x172ceb34000000000000000000000000a73776c0aae79382d8003b1fc7648b5ab32889d0",
        "nonce": "0x28",
        "chainId": "0xaa37dc"
      },
      "additionalContracts": [],
      "isFixedGasLimit": false
    },
    {
      "hash": "0x8faee66c446b89da834133df1afd9efe99062149d06ed4b12f6698fc9aa1ab91",
      "transactionType": "CALL",
      "contractName": null,
      "contractAddress": "0x5e8297763d7448718917b16b88347766b0920af9",
      "function": "registerRailPlugin(address)",
      "arguments": [
        "0x55cC592be7E49c4020e67a895FEe9474C7D71dbc"
      ],
      "transaction": {
        "from": "0x05f8cc8753d90d67dbb8c02118440b8283f941c9",
        "to": "0x5e8297763d7448718917b16b88347766b0920af9",
        "gas": "0x24fb9",
        "value": "0x0",
        "input": "0x172ceb3400000000000000000000000055cc592be7e49c4020e67a895fee9474c7d71dbc",
        "nonce": "0x29",
        "chainId": "0xaa37dc"
      },
      "additionalContracts": [],
      "isFixedGasLimit": false
    },
    {
      "hash": "0xe5e2451030d3d89ea0ab0d27521ea3069d72b9ae058ed0c02676e11158f89d5b",
      "transactionType": "CALL",
      "contractName": null,
      "contractAddress": "0xbc4cbd47e7bf5eec5ede5f3a805c8dcc20d843a0",
      "function": "addApprovedCaller(address)",
      "arguments": [
        "0xd8016e376e15b20Fc321a37fD69DC42cfDf951Bb"
      ],
      "transaction": {
        "from": "0x05f8cc8753d90d67dbb8c02118440b8283f941c9",
        "to": "0xbc4cbd47e7bf5eec5ede5f3a805c8dcc20d843a0",
        "gas": "0x107f3",
        "value": "0x0",
        "input": "0xab5cb85a000000000000000000000000d8016e376e15b20fc321a37fd69dc42cfdf951bb",
        "nonce": "0x2a",
        "chainId": "0xaa37dc"
      },
      "additionalContracts": [],
      "isFixedGasLimit": false
    },
    {
      "hash": "0x2de0ca25fabc4346bdfd107cc9a7d710db2a492c8c1b6e6c9b7f32379c6d55f7",
      "transactionType": "CALL",
      "contractName": null,
      "contractAddress": "0xbc4cbd47e7bf5eec5ede5f3a805c8dcc20d843a0",
      "function": "addApprovedCaller(address)",
      "arguments": [
        "0x05F8cC8753D90d67DBB8c02118440b8283F941c9"
      ],
      "transaction": {
        "from": "0x05f8cc8753d90d67dbb8c02118440b8283f941c9",
        "to": "0xbc4cbd47e7bf5eec5ede5f3a805c8dcc20d843a0",
        "gas": "0x107f3",
        "value": "0x0",
        "input": "0xab5cb85a00000000000000000000000005f8cc8753d90d67dbb8c02118440b8283f941c9",
        "nonce": "0x2b",
        "chainId": "0xaa37dc"
      },
      "additionalContracts": [],
      "isFixedGasLimit": false
    },
    {
      "hash": "0xacff552ce71d97ea3596d585121bfaaf5abedfdf0bdb5b945ea5c855a98a3b12",
      "transactionType": "CALL",
      "contractName": null,
      "contractAddress": "0xbc4cbd47e7bf5eec5ede5f3a805c8dcc20d843a0",
      "function": "addApprovedCaller(address)",
      "arguments": [
        "0x96e67D7295A0Bca3E57c7DE9a1A9bF28fd56FFDc"
      ],
      "transaction": {
        "from": "0x05f8cc8753d90d67dbb8c02118440b8283f941c9",
        "to": "0xbc4cbd47e7bf5eec5ede5f3a805c8dcc20d843a0",
        "gas": "0x107f3",
        "value": "0x0",
        "input": "0xab5cb85a00000000000000000000000096e67d7295a0bca3e57c7de9a1a9bf28fd56ffdc",
        "nonce": "0x2c",
        "chainId": "0xaa37dc"
      },
      "additionalContracts": [],
      "isFixedGasLimit": false
    },
    {
      "hash": "0xbb067b209d3c6aad61634b26185f951c2d8be40fa6a7d39be2611c36e481c120",
      "transactionType": "CALL",
      "contractName": null,
      "contractAddress": "0xb1b9c30c08c37af935cda3be0e3f124a580cb1a6",
      "function": "setChainDomain(uint32,uint32)",
      "arguments": [
        "84532",
        "6"
      ],
      "transaction": {
        "from": "0x05f8cc8753d90d67dbb8c02118440b8283f941c9",
        "to": "0xb1b9c30c08c37af935cda3be0e3f124a580cb1a6",
        "gas": "0xf936",
        "value": "0x0",
        "input": "0x7ef0d2870000000000000000000000000000000000000000000000000000000000014a340000000000000000000000000000000000000000000000000000000000000006",
        "nonce": "0x2d",
        "chainId": "0xaa37dc"
      },
      "additionalContracts": [],
      "isFixedGasLimit": false
    },
    {
      "hash": "0x55d91ec784aa983eda9766c51391c821effcf22d5e3f5aaed958d868e2509f12",
      "transactionType": "CALL",
      "contractName": null,
      "contractAddress": "0xb1b9c30c08c37af935cda3be0e3f124a580cb1a6",
      "function": "setDestinationReceiver(uint32,bytes32)",
      "arguments": [
        "84532",
        "0x0000000000000000000000008fb0438d0799c52920515b31310f53452c33e066"
      ],
      "transaction": {
        "from": "0x05f8cc8753d90d67dbb8c02118440b8283f941c9",
        "to": "0xb1b9c30c08c37af935cda3be0e3f124a580cb1a6",
        "gas": "0xfa09",
        "value": "0x0",
        "input": "0x0267dd6c0000000000000000000000000000000000000000000000000000000000014a340000000000000000000000008fb0438d0799c52920515b31310f53452c33e066",
        "nonce": "0x2e",
        "chainId": "0xaa37dc"
      },
      "additionalContracts": [],
      "isFixedGasLimit": false
    },
    {
      "hash": "0x231d4cf6b0b969a625c2a055948b8062903782843669eb43f7e9d2c9094fb6f5",
      "transactionType": "CALL",
      "contractName": null,
      "contractAddress": "0xb1b9c30c08c37af935cda3be0e3f124a580cb1a6",
      "function": "setDestinationCaller(uint32,bytes32)",
      "arguments": [
        "84532",
        "0x0000000000000000000000000000000000000000000000000000000000000000"
      ],
      "transaction": {
        "from": "0x05f8cc8753d90d67dbb8c02118440b8283f941c9",
        "to": "0xb1b9c30c08c37af935cda3be0e3f124a580cb1a6",
        "gas": "0x8cf2",
        "value": "0x0",
        "input": "0x00686ed20000000000000000000000000000000000000000000000000000000000014a340000000000000000000000000000000000000000000000000000000000000000",
        "nonce": "0x2f",
        "chainId": "0xaa37dc"
      },
      "additionalContracts": [],
      "isFixedGasLimit": false
    },
    {
      "hash": "0xdb206a38a189eb94955ad91c5b90c861aea858fa97243b11a44952f606930bec",
      "transactionType": "CALL",
      "contractName": null,
      "contractAddress": "0x6a790bf1991d3a53b81bb9316fb3b3e8217c5699",
      "function": "setChainDomain(uint32,uint32)",
      "arguments": [
        "84532",
        "6"
      ],
      "transaction": {
        "from": "0x05f8cc8753d90d67dbb8c02118440b8283f941c9",
        "to": "0x6a790bf1991d3a53b81bb9316fb3b3e8217c5699",
        "gas": "0x10820",
        "value": "0x0",
        "input": "0x7ef0d2870000000000000000000000000000000000000000000000000000000000014a340000000000000000000000000000000000000000000000000000000000000006",
        "nonce": "0x30",
        "chainId": "0xaa37dc"
      },
      "additionalContracts": [],
      "isFixedGasLimit": false
    },
    {
      "hash": "0x0a17d5cb689d1468dd3ad8ae9e2bf33f3f16b2a63f2030c0c3b6ab738391710d",
      "transactionType": "CALL",
      "contractName": null,
      "contractAddress": "0x6a790bf1991d3a53b81bb9316fb3b3e8217c5699",
      "function": "setDestinationReceiver(uint32,bytes32)",
      "arguments": [
        "84532",
        "0x0000000000000000000000008fb0438d0799c52920515b31310f53452c33e066"
      ],
      "transaction": {
        "from": "0x05f8cc8753d90d67dbb8c02118440b8283f941c9",
        "to": "0x6a790bf1991d3a53b81bb9316fb3b3e8217c5699",
        "gas": "0xf9eb",
        "value": "0x0",
        "input": "0x0267dd6c0000000000000000000000000000000000000000000000000000000000014a340000000000000000000000008fb0438d0799c52920515b31310f53452c33e066",
        "nonce": "0x31",
        "chainId": "0xaa37dc"
      },
      "additionalContracts": [],
      "isFixedGasLimit": false
    },
    {
      "hash": "0x76d3d39492015317d540be967b902274a3d19f482f691e91d120d7c65b717efd",
      "transactionType": "CALL",
      "contractName": null,
      "contractAddress": "0x6a790bf1991d3a53b81bb9316fb3b3e8217c5699",
      "function": "setDestinationCaller(uint32,bytes32)",
      "arguments": [
        "84532",
        "0x0000000000000000000000000000000000000000000000000000000000000000"
      ],
      "transaction": {
        "from": "0x05f8cc8753d90d67dbb8c02118440b8283f941c9",
        "to": "0x6a790bf1991d3a53b81bb9316fb3b3e8217c5699",
        "gas": "0x8cf2",
        "value": "0x0",
        "input": "0x00686ed20000000000000000000000000000000000000000000000000000000000014a340000000000000000000000000000000000000000000000000000000000000000",
        "nonce": "0x32",
        "chainId": "0xaa37dc"
      },
      "additionalContracts": [],
      "isFixedGasLimit": false
    },
    {
      "hash": "0xd136a4cf57e3a56385ac6bb601c7332e52b6c6e10f382a34e7d12d6c115ae6e7",
      "transactionType": "CALL",
      "contractName": null,
      "contractAddress": "0x6a790bf1991d3a53b81bb9316fb3b3e8217c5699",
      "function": "setMaxFeeBpsCap(uint256)",
      "arguments": [
        "100"
      ],
      "transaction": {
        "from": "0x05f8cc8753d90d67dbb8c02118440b8283f941c9",
        "to": "0x6a790bf1991d3a53b81bb9316fb3b3e8217c5699",
        "gas": "0x8bcb",
        "value": "0x0",
        "input": "0x357c4ea70000000000000000000000000000000000000000000000000000000000000064",
        "nonce": "0x33",
        "chainId": "0xaa37dc"
      },
      "additionalContracts": [],
      "isFixedGasLimit": false
    },
    {
      "hash": "0x2d43277dbbdfeaaa19041a9ac184897af91d59c1af9b039c65275909e48dde25",
      "transactionType": "CALL",
      "contractName": null,
      "contractAddress": "0xa73776c0aae79382d8003b1fc7648b5ab32889d0",
      "function": "setRouteConfig(uint32,string,address,bytes32)",
      "arguments": [
        "84532",
        "base-sepolia",
        "0xd8016e376e15b20Fc321a37fD69DC42cfDf951Bb",
        "0x4d2fdc120be87ecf5661b7a75144d5d4b507b525eeb8c9c85c346a255e3b9663"
      ],
      "transaction": {
        "from": "0x05f8cc8753d90d67dbb8c02118440b8283f941c9",
        "to": "0xa73776c0aae79382d8003b1fc7648b5ab32889d0",
        "gas": "0x21010",
        "value": "0x0",
        "input": "0x7513a82a0000000000000000000000000000000000000000000000000000000000014a340000000000000000000000000000000000000000000000000000000000000080000000000000000000000000d8016e376e15b20fc321a37fd69dc42cfdf951bb4d2fdc120be87ecf5661b7a75144d5d4b507b525eeb8c9c85c346a255e3b9663000000000000000000000000000000000000000000000000000000000000000c626173652d7365706f6c69610000000000000000000000000000000000000000",
        "nonce": "0x34",
        "chainId": "0xaa37dc"
      },
      "additionalContracts": [],
      "isFixedGasLimit": false
    },
    {
      "hash": "0x4126fb079022e0e880c1a861cb3a45549417c0cf14068a2df9d6f214a1c4111c",
      "transactionType": "CALL",
      "contractName": null,
      "contractAddress": "0x55cc592be7e49c4020e67a895fee9474c7d71dbc",
      "function": "setRouteConfig(uint32,uint32,address,bytes)",
      "arguments": [
        "84532",
        "40245",
        "0x4e5d1Ff12514cC396aA37757878A02433887EDe0",
        "0x00030100110100000000000000000000000000030d4001001303000000000000000000000000000000061a80"
      ],
      "transaction": {
        "from": "0x05f8cc8753d90d67dbb8c02118440b8283f941c9",
        "to": "0x55cc592be7e49c4020e67a895fee9474c7d71dbc",
        "gas": "0x2e154",
        "value": "0x0",
        "input": "0xd5bfb7fa0000000000000000000000000000000000000000000000000000000000014a340000000000000000000000000000000000000000000000000000000000009d350000000000000000000000004e5d1ff12514cc396aa37757878a02433887ede00000000000000000000000000000000000000000000000000000000000000080000000000000000000000000000000000000000000000000000000000000002c00030100110100000000000000000000000000030d4001001303000000000000000000000000000000061a800000000000000000000000000000000000000000",
        "nonce": "0x35",
        "chainId": "0xaa37dc"
      },
      "additionalContracts": [],
      "isFixedGasLimit": false
    }
  ],
  "receipts": [
    {
      "status": "0x1",
      "cumulativeGasUsed": "0x2b83f",
      "logs": [
        {
          "address": "0x5e8297763d7448718917b16b88347766b0920af9",
          "topics": [
            "0xa86330cede453edbe00d0dbe74ee3bdbac6d7b048009b0d72d54aa609df01a71",
            "0xb148ea5f936a28661e11743b1650193f1b14a2322b9541503bf6815a84a1a6e9"
          ],
          "data": "0x000000000000000000000000b1b9c30c08c37af935cda3be0e3f124a580cb1a60000000000000000000000000000000000000000000000000000000000000000",
          "blockHash": "0x56b4dc449d92c50171b7799ad4c725eab57ec6c7abe5268b15029c959c8ffb56",
          "blockNumber": "0x287ba75",
          "blockTimestamp": "0x69e65096",
          "transactionHash": "0x634b00aad5a2aa347df5de879d8285dc89bded537bc6d5e0c49ff115a80b5f2d",
          "transactionIndex": "0x1",
          "logIndex": "0x0",
          "removed": false
        }
      ],
      "logsBloom": "0x00000400000000002000000000000000000000000000000000000020000000000000000000000000000000000000000000000000000000000000000000000000000000000000000000000000000000000000000020000000000000000000000000000000000000000000000020000000000000000000000000000000000000000000000000000000000000000000000000000000000000400000000000000000000000000000000000000000000000000000000000000000000000000000000000000000000000000000000000200000000000400000000000000000000000000000040000000000000000000000000000000000000000000000000000000000",
      "type": "0x2",
      "transactionHash": "0x634b00aad5a2aa347df5de879d8285dc89bded537bc6d5e0c49ff115a80b5f2d",
      "transactionIndex": "0x1",
      "blockHash": "0x56b4dc449d92c50171b7799ad4c725eab57ec6c7abe5268b15029c959c8ffb56",
      "blockNumber": "0x287ba75",
      "gasUsed": "0x1d7f5",
      "effectiveGasPrice": "0xf433a",
      "blobGasUsed": "0x9c40",
      "from": "0x05f8cc8753d90d67dbb8c02118440b8283f941c9",
      "to": "0x5e8297763d7448718917b16b88347766b0920af9",
      "contractAddress": null,
      "daFootprintGasScalar": "0x190",
      "l1BaseFeeScalar": "0x1db0",
      "l1BlobBaseFee": "0x8ded505",
      "l1BlobBaseFeeScalar": "0xd2730",
      "l1Fee": "0xa4a4116da",
      "l1GasPrice": "0x99c0794c",
      "l1GasUsed": "0x640"
    },
    {
      "status": "0x1",
      "cumulativeGasUsed": "0x44ccc",
      "logs": [
        {
          "address": "0x5e8297763d7448718917b16b88347766b0920af9",
          "topics": [
            "0xa86330cede453edbe00d0dbe74ee3bdbac6d7b048009b0d72d54aa609df01a71",
            "0xdee0b34b74b60e53553685c32477090103c2b806eb925a8cd000efa92bef3e8b"
          ],
          "data": "0x000000000000000000000000a73776c0aae79382d8003b1fc7648b5ab32889d00000000000000000000000000000000000000000000000000000000000000000",
          "blockHash": "0x0000000000000000000000000000000000000000000000000000000000000000",
          "blockNumber": "0x287ba75",
          "blockTimestamp": "0x69e65096",
          "transactionHash": "0xa1711b0677b5220d6b0dab19252fe76710824e864a7d0cdbbf64cd3ec29719a8",
          "transactionIndex": "0x2",
          "logIndex": "0x1",
          "removed": false
        }
      ],
      "logsBloom": "0x00000000000000002000000000000000000000000000000000000020000000000000000000000000000000000000000000000000000000000000000000000000000000000000000000000000000000000000000000000040000000000000000000000000000000000000000000000000000000000000000000000000000000000000000000000004000000000000000000000000000000400000000000000000000000000000000000000000000000000000000000000000000000000000000000000000000000000000000000200000000000400000000000000000000000000000040000000000000000000000100000000000000000000000000000000000",
      "type": "0x2",
      "transactionHash": "0xa1711b0677b5220d6b0dab19252fe76710824e864a7d0cdbbf64cd3ec29719a8",
      "transactionIndex": "0x2",
      "blockHash": "0x0000000000000000000000000000000000000000000000000000000000000000",
      "blockNumber": "0x287ba75",
      "gasUsed": "0x1948d",
      "effectiveGasPrice": "0xf433a",
      "blobGasUsed": "0x9c40",
      "from": "0x05f8cc8753d90d67dbb8c02118440b8283f941c9",
      "to": "0x5e8297763d7448718917b16b88347766b0920af9",
      "contractAddress": null,
      "daFootprintGasScalar": "0x190",
      "l1BaseFeeScalar": "0x1db0",
      "l1BlobBaseFee": "0x8ded505",
      "l1BlobBaseFeeScalar": "0xd2730",
      "l1Fee": "0xa4a4116da",
      "l1GasPrice": "0x99c0794c",
      "l1GasUsed": "0x640"
    },
    {
      "status": "0x1",
      "cumulativeGasUsed": "0x5e165",
      "logs": [
        {
          "address": "0x5e8297763d7448718917b16b88347766b0920af9",
          "topics": [
            "0xa86330cede453edbe00d0dbe74ee3bdbac6d7b048009b0d72d54aa609df01a71",
            "0xc472efb7b9a986e1446d8bf9dec51e88548a1d8eb4a0810e6424d97a878d34fc"
          ],
          "data": "0x00000000000000000000000055cc592be7e49c4020e67a895fee9474c7d71dbc0000000000000000000000000000000000000000000000000000000000000000",
          "blockHash": "0x56b4dc449d92c50171b7799ad4c725eab57ec6c7abe5268b15029c959c8ffb56",
          "blockNumber": "0x287ba75",
          "blockTimestamp": "0x69e65096",
          "transactionHash": "0xe5e2451030d3d89ea0ab0d27521ea3069d72b9ae058ed0c02676e11158f89d5b",
          "transactionIndex": "0x3",
          "logIndex": "0x2",
          "removed": false
        }
      ],
      "logsBloom": "0x00000000000000002000000000000000000000000000000000000020000000000000000000000000000000000000000000000000000000000000000000000000000000000000000000000000000000000000000000000000000000000000000000000800000000000000000000000000000040000000000000000000000000000000000000000000000000000000000000000000000000400000000000000000000002000000000000000000000000000000000000000000000000000000000000000000000000000000000000200000000000400000000000000000000000000000040000000000000000000000000000000000000000000000000000000000",
      "type": "0x2",
      "transactionHash": "0xe5e2451030d3d89ea0ab0d27521ea3069d72b9ae058ed0c02676e11158f89d5b",
      "transactionIndex": "0x3",
      "blockHash": "0x56b4dc449d92c50171b7799ad4c725eab57ec6c7abe5268b15029c959c8ffb56",
      "blockNumber": "0x287ba75",
      "gasUsed": "0x19499",
      "effectiveGasPrice": "0xf433a",
      "blobGasUsed": "0x9c40",
      "from": "0x05f8cc8753d90d67dbb8c02118440b8283f941c9",
      "to": "0x5e8297763d7448718917b16b88347766b0920af9",
      "contractAddress": null,
      "daFootprintGasScalar": "0x190",
      "l1BaseFeeScalar": "0x1db0",
      "l1BlobBaseFee": "0x8ded505",
      "l1BlobBaseFeeScalar": "0xd2730",
      "l1Fee": "0xa4a4116da",
      "l1GasPrice": "0x99c0794c",
      "l1GasUsed": "0x640"
    },
    {
      "status": "0x1",
      "cumulativeGasUsed": "0x695e0",
      "logs": [],
      "logsBloom": "0x00000000000000000000000000000000000000000000000000000000000000000000000000000000000000000000000000000000000000000000000000000000000000000000000000000000000000000000000000000000000000000000000000000000000000000000000000000000000000000000000000000000000000000000000000000000000000000000000000000000000000000000000000000000000000000000000000000000000000000000000000000000000000000000000000000000000000000000000000000000000000000000000000000000000000000000000000000000000000000000000000000000000000000000000000000000",
      "type": "0x2",
      "transactionHash": "0x8faee66c446b89da834133df1afd9efe99062149d06ed4b12f6698fc9aa1ab91",
      "transactionIndex": "0x4",
      "blockHash": "0x56b4dc449d92c50171b7799ad4c725eab57ec6c7abe5268b15029c959c8ffb56",
      "blockNumber": "0x287ba75",
      "gasUsed": "0xb47b",
      "effectiveGasPrice": "0xf433a",
      "blobGasUsed": "0x9c40",
      "from": "0x05f8cc8753d90d67dbb8c02118440b8283f941c9",
      "to": "0xbc4cbd47e7bf5eec5ede5f3a805c8dcc20d843a0",
      "contractAddress": null,
      "daFootprintGasScalar": "0x190",
      "l1BaseFeeScalar": "0x1db0",
      "l1BlobBaseFee": "0x8ded505",
      "l1BlobBaseFeeScalar": "0xd2730",
      "l1Fee": "0xa4a4116da",
      "l1GasPrice": "0x99c0794c",
      "l1GasUsed": "0x640"
    },
    {
      "status": "0x1",
      "cumulativeGasUsed": "0x74a5b",
      "logs": [],
      "logsBloom": "0x00000000000000000000000000000000000000000000000000000000000000000000000000000000000000000000000000000000000000000000000000000000000000000000000000000000000000000000000000000000000000000000000000000000000000000000000000000000000000000000000000000000000000000000000000000000000000000000000000000000000000000000000000000000000000000000000000000000000000000000000000000000000000000000000000000000000000000000000000000000000000000000000000000000000000000000000000000000000000000000000000000000000000000000000000000000",
      "type": "0x2",
      "transactionHash": "0x2de0ca25fabc4346bdfd107cc9a7d710db2a492c8c1b6e6c9b7f32379c6d55f7",
      "transactionIndex": "0x5",
      "blockHash": "0x56b4dc449d92c50171b7799ad4c725eab57ec6c7abe5268b15029c959c8ffb56",
      "blockNumber": "0x287ba75",
      "gasUsed": "0xb47b",
      "effectiveGasPrice": "0xf433a",
      "blobGasUsed": "0x9c40",
      "from": "0x05f8cc8753d90d67dbb8c02118440b8283f941c9",
      "to": "0xbc4cbd47e7bf5eec5ede5f3a805c8dcc20d843a0",
      "contractAddress": null,
      "daFootprintGasScalar": "0x190",
      "l1BaseFeeScalar": "0x1db0",
      "l1BlobBaseFee": "0x8ded505",
      "l1BlobBaseFeeScalar": "0xd2730",
      "l1Fee": "0xa4a4116da",
      "l1GasPrice": "0x99c0794c",
      "l1GasUsed": "0x640"
    },
    {
      "status": "0x1",
      "cumulativeGasUsed": "0x7fed6",
      "logs": [],
      "logsBloom": "0x00000000000000000000000000000000000000000000000000000000000000000000000000000000000000000000000000000000000000000000000000000000000000000000000000000000000000000000000000000000000000000000000000000000000000000000000000000000000000000000000000000000000000000000000000000000000000000000000000000000000000000000000000000000000000000000000000000000000000000000000000000000000000000000000000000000000000000000000000000000000000000000000000000000000000000000000000000000000000000000000000000000000000000000000000000000",
      "type": "0x2",
      "transactionHash": "0xbb067b209d3c6aad61634b26185f951c2d8be40fa6a7d39be2611c36e481c120",
      "transactionIndex": "0x6",
      "blockHash": "0x56b4dc449d92c50171b7799ad4c725eab57ec6c7abe5268b15029c959c8ffb56",
      "blockNumber": "0x287ba75",
      "gasUsed": "0xb47b",
      "effectiveGasPrice": "0xf433a",
      "blobGasUsed": "0x9c40",
      "from": "0x05f8cc8753d90d67dbb8c02118440b8283f941c9",
      "to": "0xbc4cbd47e7bf5eec5ede5f3a805c8dcc20d843a0",
      "contractAddress": null,
      "daFootprintGasScalar": "0x190",
      "l1BaseFeeScalar": "0x1db0",
      "l1BlobBaseFee": "0x8ded505",
      "l1BlobBaseFeeScalar": "0xd2730",
      "l1Fee": "0xa4a4116da",
      "l1GasPrice": "0x99c0794c",
      "l1GasUsed": "0x640"
    },
    {
      "status": "0x1",
      "cumulativeGasUsed": "0x8b344",
      "logs": [],
      "logsBloom": "0x00000000000000000000000000000000000000000000000000000000000000000000000000000000000000000000000000000000000000000000000000000000000000000000000000000000000000000000000000000000000000000000000000000000000000000000000000000000000000000000000000000000000000000000000000000000000000000000000000000000000000000000000000000000000000000000000000000000000000000000000000000000000000000000000000000000000000000000000000000000000000000000000000000000000000000000000000000000000000000000000000000000000000000000000000000000",
      "type": "0x2",
      "transactionHash": "0x55d91ec784aa983eda9766c51391c821effcf22d5e3f5aaed958d868e2509f12",
      "transactionIndex": "0x7",
      "blockHash": "0x56b4dc449d92c50171b7799ad4c725eab57ec6c7abe5268b15029c959c8ffb56",
      "blockNumber": "0x287ba75",
      "gasUsed": "0xb46e",
      "effectiveGasPrice": "0xf433a",
      "blobGasUsed": "0x9c40",
      "from": "0x05f8cc8753d90d67dbb8c02118440b8283f941c9",
      "to": "0xb1b9c30c08c37af935cda3be0e3f124a580cb1a6",
      "contractAddress": null,
      "daFootprintGasScalar": "0x190",
      "l1BaseFeeScalar": "0x1db0",
      "l1BlobBaseFee": "0x8ded505",
      "l1BlobBaseFeeScalar": "0xd2730",
      "l1Fee": "0xa4a4116da",
      "l1GasPrice": "0x99c0794c",
      "l1GasUsed": "0x640"
    },
    {
      "status": "0x1",
      "cumulativeGasUsed": "0x9684a",
      "logs": [],
      "logsBloom": "0x00000000000000000000000000000000000000000000000000000000000000000000000000000000000000000000000000000000000000000000000000000000000000000000000000000000000000000000000000000000000000000000000000000000000000000000000000000000000000000000000000000000000000000000000000000000000000000000000000000000000000000000000000000000000000000000000000000000000000000000000000000000000000000000000000000000000000000000000000000000000000000000000000000000000000000000000000000000000000000000000000000000000000000000000000000000",
      "type": "0x2",
      "transactionHash": "0xacff552ce71d97ea3596d585121bfaaf5abedfdf0bdb5b945ea5c855a98a3b12",
      "transactionIndex": "0x8",
      "blockHash": "0x0000000000000000000000000000000000000000000000000000000000000000",
      "blockNumber": "0x287ba75",
      "gasUsed": "0xb506",
      "effectiveGasPrice": "0xf433a",
      "blobGasUsed": "0x9c40",
      "from": "0x05f8cc8753d90d67dbb8c02118440b8283f941c9",
      "to": "0xb1b9c30c08c37af935cda3be0e3f124a580cb1a6",
      "contractAddress": null,
      "daFootprintGasScalar": "0x190",
      "l1BaseFeeScalar": "0x1db0",
      "l1BlobBaseFee": "0x8ded505",
      "l1BlobBaseFeeScalar": "0xd2730",
      "l1Fee": "0xa4a4116da",
      "l1GasPrice": "0x99c0794c",
      "l1GasUsed": "0x640"
    },
    {
      "status": "0x1",
      "cumulativeGasUsed": "0x9ce56",
      "logs": [],
      "logsBloom": "0x00000000000000000000000000000000000000000000000000000000000000000000000000000000000000000000000000000000000000000000000000000000000000000000000000000000000000000000000000000000000000000000000000000000000000000000000000000000000000000000000000000000000000000000000000000000000000000000000000000000000000000000000000000000000000000000000000000000000000000000000000000000000000000000000000000000000000000000000000000000000000000000000000000000000000000000000000000000000000000000000000000000000000000000000000000000",
      "type": "0x2",
      "transactionHash": "0xdb206a38a189eb94955ad91c5b90c861aea858fa97243b11a44952f606930bec",
      "transactionIndex": "0x9",
      "blockHash": "0x56b4dc449d92c50171b7799ad4c725eab57ec6c7abe5268b15029c959c8ffb56",
      "blockNumber": "0x287ba75",
      "gasUsed": "0x660c",
      "effectiveGasPrice": "0xf433a",
      "blobGasUsed": "0x9c40",
      "from": "0x05f8cc8753d90d67dbb8c02118440b8283f941c9",
      "to": "0xb1b9c30c08c37af935cda3be0e3f124a580cb1a6",
      "contractAddress": null,
      "daFootprintGasScalar": "0x190",
      "l1BaseFeeScalar": "0x1db0",
      "l1BlobBaseFee": "0x8ded505",
      "l1BlobBaseFeeScalar": "0xd2730",
      "l1Fee": "0xa4a4116da",
      "l1GasPrice": "0x99c0794c",
      "l1GasUsed": "0x640"
    },
    {
      "status": "0x1",
      "cumulativeGasUsed": "0xa82f0",
      "logs": [],
      "logsBloom": "0x00000000000000000000000000000000000000000000000000000000000000000000000000000000000000000000000000000000000000000000000000000000000000000000000000000000000000000000000000000000000000000000000000000000000000000000000000000000000000000000000000000000000000000000000000000000000000000000000000000000000000000000000000000000000000000000000000000000000000000000000000000000000000000000000000000000000000000000000000000000000000000000000000000000000000000000000000000000000000000000000000000000000000000000000000000000",
      "type": "0x2",
      "transactionHash": "0x231d4cf6b0b969a625c2a055948b8062903782843669eb43f7e9d2c9094fb6f5",
      "transactionIndex": "0xa",
      "blockHash": "0x56b4dc449d92c50171b7799ad4c725eab57ec6c7abe5268b15029c959c8ffb56",
      "blockNumber": "0x287ba75",
      "gasUsed": "0xb49a",
      "effectiveGasPrice": "0xf433a",
      "blobGasUsed": "0x9c40",
      "from": "0x05f8cc8753d90d67dbb8c02118440b8283f941c9",
      "to": "0x6a790bf1991d3a53b81bb9316fb3b3e8217c5699",
      "contractAddress": null,
      "daFootprintGasScalar": "0x190",
      "l1BaseFeeScalar": "0x1db0",
      "l1BlobBaseFee": "0x8ded505",
      "l1BlobBaseFeeScalar": "0xd2730",
      "l1Fee": "0xa4a4116da",
      "l1GasPrice": "0x99c0794c",
      "l1GasUsed": "0x640"
    },
    {
      "status": "0x1",
      "cumulativeGasUsed": "0xb37e0",
      "logs": [],
      "logsBloom": "0x00000000000000000000000000000000000000000000000000000000000000000000000000000000000000000000000000000000000000000000000000000000000000000000000000000000000000000000000000000000000000000000000000000000000000000000000000000000000000000000000000000000000000000000000000000000000000000000000000000000000000000000000000000000000000000000000000000000000000000000000000000000000000000000000000000000000000000000000000000000000000000000000000000000000000000000000000000000000000000000000000000000000000000000000000000000",
      "type": "0x2",
      "transactionHash": "0x0a17d5cb689d1468dd3ad8ae9e2bf33f3f16b2a63f2030c0c3b6ab738391710d",
      "transactionIndex": "0xb",
      "blockHash": "0x56b4dc449d92c50171b7799ad4c725eab57ec6c7abe5268b15029c959c8ffb56",
      "blockNumber": "0x287ba75",
      "gasUsed": "0xb4f0",
      "effectiveGasPrice": "0xf433a",
      "blobGasUsed": "0x9c40",
      "from": "0x05f8cc8753d90d67dbb8c02118440b8283f941c9",
      "to": "0x6a790bf1991d3a53b81bb9316fb3b3e8217c5699",
      "contractAddress": null,
      "daFootprintGasScalar": "0x190",
      "l1BaseFeeScalar": "0x1db0",
      "l1BlobBaseFee": "0x8ded505",
      "l1BlobBaseFeeScalar": "0xd2730",
      "l1Fee": "0xa4a4116da",
      "l1GasPrice": "0x99c0794c",
      "l1GasUsed": "0x640"
    },
    {
      "status": "0x1",
      "cumulativeGasUsed": "0xb9dec",
      "logs": [],
      "logsBloom": "0x00000000000000000000000000000000000000000000000000000000000000000000000000000000000000000000000000000000000000000000000000000000000000000000000000000000000000000000000000000000000000000000000000000000000000000000000000000000000000000000000000000000000000000000000000000000000000000000000000000000000000000000000000000000000000000000000000000000000000000000000000000000000000000000000000000000000000000000000000000000000000000000000000000000000000000000000000000000000000000000000000000000000000000000000000000000",
      "type": "0x2",
      "transactionHash": "0x4126fb079022e0e880c1a861cb3a45549417c0cf14068a2df9d6f214a1c4111c",
      "transactionIndex": "0xc",
      "blockHash": "0x56b4dc449d92c50171b7799ad4c725eab57ec6c7abe5268b15029c959c8ffb56",
      "blockNumber": "0x287ba75",
      "gasUsed": "0x660c",
      "effectiveGasPrice": "0xf433a",
      "blobGasUsed": "0x9c40",
      "from": "0x05f8cc8753d90d67dbb8c02118440b8283f941c9",
      "to": "0x6a790bf1991d3a53b81bb9316fb3b3e8217c5699",
      "contractAddress": null,
      "daFootprintGasScalar": "0x190",
      "l1BaseFeeScalar": "0x1db0",
      "l1BlobBaseFee": "0x8ded505",
      "l1BlobBaseFeeScalar": "0xd2730",
      "l1Fee": "0xa4a4116da",
      "l1GasPrice": "0x99c0794c",
      "l1GasUsed": "0x640"
    },
    {
      "status": "0x1",
      "cumulativeGasUsed": "0xc0322",
      "logs": [],
      "logsBloom": "0x00000000000000000000000000000000000000000000000000000000000000000000000000000000000000000000000000000000000000000000000000000000000000000000000000000000000000000000000000000000000000000000000000000000000000000000000000000000000000000000000000000000000000000000000000000000000000000000000000000000000000000000000000000000000000000000000000000000000000000000000000000000000000000000000000000000000000000000000000000000000000000000000000000000000000000000000000000000000000000000000000000000000000000000000000000000",
      "type": "0x2",
      "transactionHash": "0xd136a4cf57e3a56385ac6bb601c7332e52b6c6e10f382a34e7d12d6c115ae6e7",
      "transactionIndex": "0xd",
      "blockHash": "0x56b4dc449d92c50171b7799ad4c725eab57ec6c7abe5268b15029c959c8ffb56",
      "blockNumber": "0x287ba75",
      "gasUsed": "0x6536",
      "effectiveGasPrice": "0xf433a",
      "blobGasUsed": "0x9c40",
      "from": "0x05f8cc8753d90d67dbb8c02118440b8283f941c9",
      "to": "0x6a790bf1991d3a53b81bb9316fb3b3e8217c5699",
      "contractAddress": null,
      "daFootprintGasScalar": "0x190",
      "l1BaseFeeScalar": "0x1db0",
      "l1BlobBaseFee": "0x8ded505",
      "l1BlobBaseFeeScalar": "0xd2730",
      "l1Fee": "0xa4a4116da",
      "l1GasPrice": "0x99c0794c",
      "l1GasUsed": "0x640"
    },
    {
      "status": "0x1",
      "cumulativeGasUsed": "0xd6c34",
      "logs": [],
      "logsBloom": "0x00000000000000000000000000000000000000000000000000000000000000000000000000000000000000000000000000000000000000000000000000000000000000000000000000000000000000000000000000000000000000000000000000000000000000000000000000000000000000000000000000000000000000000000000000000000000000000000000000000000000000000000000000000000000000000000000000000000000000000000000000000000000000000000000000000000000000000000000000000000000000000000000000000000000000000000000000000000000000000000000000000000000000000000000000000000",
      "type": "0x2",
      "transactionHash": "0x76d3d39492015317d540be967b902274a3d19f482f691e91d120d7c65b717efd",
      "transactionIndex": "0xe",
      "blockHash": "0x56b4dc449d92c50171b7799ad4c725eab57ec6c7abe5268b15029c959c8ffb56",
      "blockNumber": "0x287ba75",
      "gasUsed": "0x16912",
      "effectiveGasPrice": "0xf433a",
      "blobGasUsed": "0xdac0",
      "from": "0x05f8cc8753d90d67dbb8c02118440b8283f941c9",
      "to": "0xa73776c0aae79382d8003b1fc7648b5ab32889d0",
      "contractAddress": null,
      "daFootprintGasScalar": "0x190",
      "l1BaseFeeScalar": "0x1db0",
      "l1BlobBaseFee": "0x8ded505",
      "l1BlobBaseFeeScalar": "0xd2730",
      "l1Fee": "0xe77f836f4",
      "l1GasPrice": "0x99c0794c",
      "l1GasUsed": "0x8c9"
    },
    {
      "status": "0x1",
      "cumulativeGasUsed": "0xf8204",
      "logs": [],
      "logsBloom": "0x00000000000000000000000000000000000000000000000000000000000000000000000000000000000000000000000000000000000000000000000000000000000000000000000000000000000000000000000000000000000000000000000000000000000000000000000000000000000000000000000000000000000000000000000000000000000000000000000000000000000000000000000000000000000000000000000000000000000000000000000000000000000000000000000000000000000000000000000000000000000000000000000000000000000000000000000000000000000000000000000000000000000000000000000000000000",
      "type": "0x2",
      "transactionHash": "0x2d43277dbbdfeaaa19041a9ac184897af91d59c1af9b039c65275909e48dde25",
      "transactionIndex": "0xf",
      "blockHash": "0x56b4dc449d92c50171b7799ad4c725eab57ec6c7abe5268b15029c959c8ffb56",
      "blockNumber": "0x287ba75",
      "gasUsed": "0x215d0",
      "effectiveGasPrice": "0xf433a",
      "blobGasUsed": "0xcfd0",
      "from": "0x05f8cc8753d90d67dbb8c02118440b8283f941c9",
      "to": "0x55cc592be7e49c4020e67a895fee9474c7d71dbc",
      "contractAddress": null,
      "daFootprintGasScalar": "0x190",
      "l1BaseFeeScalar": "0x1db0",
      "l1BlobBaseFee": "0x8ded505",
      "l1BlobBaseFeeScalar": "0xd2730",
      "l1Fee": "0xdb1a65679",
      "l1GasPrice": "0x99c0794c",
      "l1GasUsed": "0x851"
    }
  ],
  "libraries": [],
  "pending": [],
  "returns": {},
  "timestamp": 1776701591935,
  "chain": 11155420,
  "commit": "bec0627"
}