{
  "transactions": [
    {
      "hash": "0xa583af0002938287270875ceaa4c66e868bd8f9eb0eb0896332e5b03d22fc709",
      "transactionType": "CALL",
      "contractName": null,
      "contractAddress": "0x65642ac8fd57eff8dd4651cb76be48814c8bf386",
      "function": "addApprovedCaller(address)",
      "arguments": [
        "0x845Cd50644A9592de43BCAC0212656480744AAcA"
      ],
      "transaction": {
        "from": "0x05f8cc8753d90d67dbb8c02118440b8283f941c9",
        "to": "0x65642ac8fd57eff8dd4651cb76be48814c8bf386",
        "gas": "0x8e09",
        "value": "0x0",
        "input": "0xab5cb85a000000000000000000000000845cd50644a9592de43bcac0212656480744aaca",
        "nonce": "0xd7",
        "chainId": "0xa"
      },
      "additionalContracts": [],
      "isFixedGasLimit": false
    },
    {
      "hash": "0xc9d3662f487066b821601a8dde4c25f88e554bbec51f5a0667fe49c174d7a65d",
      "transactionType": "CALL",
      "contractName": null,
      "contractAddress": "0x1b7eb489eb0ae102720442fe15b0e08653a13404",
      "function": "setChainDomain(uint32,uint32)",
      "arguments": [
        "8453",
        "6"
      ],
      "transaction": {
        "from": "0x05f8cc8753d90d67dbb8c02118440b8283f941c9",
        "to": "0x1b7eb489eb0ae102720442fe15b0e08653a13404",
        "gas": "0x1087d",
        "value": "0x0",
        "input": "0x7ef0d28700000000000000000000000000000000000000000000000000000000000021050000000000000000000000000000000000000000000000000000000000000006",
        "nonce": "0xd8",
        "chainId": "0xa"
      },
      "additionalContracts": [],
      "isFixedGasLimit": false
    },
    {
      "hash": "0xd3fb7c9804285bd038a0e92186bb0749921bdc9e60becd3d1fc60a773214d531",
      "transactionType": "CALL",
      "contractName": null,
      "contractAddress": "0x1b7eb489eb0ae102720442fe15b0e08653a13404",
      "function": "setDestinationReceiver(uint32,bytes32)",
      "arguments": [
        "8453",
        "0x0000000000000000000000003aef79e7455843a33e4c46d5cf283a809bf50970"
      ],
      "transaction": {
        "from": "0x05f8cc8753d90d67dbb8c02118440b8283f941c9",
        "to": "0x1b7eb489eb0ae102720442fe15b0e08653a13404",
        "gas": "0xf91f",
        "value": "0x0",
        "input": "0x0267dd6c00000000000000000000000000000000000000000000000000000000000021050000000000000000000000003aef79e7455843a33e4c46d5cf283a809bf50970",
        "nonce": "0xd9",
        "chainId": "0xa"
      },
      "additionalContracts": [],
      "isFixedGasLimit": false
    },
    {
      "hash": "0x10e17c111cc42f7fb5e8cde63feaf08407eaa20d35c06ed35308c33f597b3906",
      "transactionType": "CALL",
      "contractName": null,
      "contractAddress": "0x1b7eb489eb0ae102720442fe15b0e08653a13404",
      "function": "setDestinationCaller(uint32,bytes32)",
      "arguments": [
        "8453",
        "0x00000000000000000000000005f8cc8753d90d67dbb8c02118440b8283f941c9"
      ],
      "transaction": {
        "from": "0x05f8cc8753d90d67dbb8c02118440b8283f941c9",
        "to": "0x1b7eb489eb0ae102720442fe15b0e08653a13404",
        "gas": "0xf8b3",
        "value": "0x0",
        "input": "0x00686ed2000000000000000000000000000000000000000000000000000000000000210500000000000000000000000005f8cc8753d90d67dbb8c02118440b8283f941c9",
        "nonce": "0xda",
        "chainId": "0xa"
      },
      "additionalContracts": [],
      "isFixedGasLimit": false
    },
    {
      "hash": "0x7544c34fdad3e49516a5b701390b4004cdf118dc3059d7b5ff92788a10fa2117",
      "transactionType": "CALL",
      "contractName": null,
      "contractAddress": "0x050c6c2555c2d54aba01420fbc02ff0f1d10e8df",
      "function": "setChainDomain(uint32,uint32)",
      "arguments": [
        "8453",
        "6"
      ],
      "transaction": {
        "from": "0x05f8cc8753d90d67dbb8c02118440b8283f941c9",
        "to": "0x050c6c2555c2d54aba01420fbc02ff0f1d10e8df",
        "gas": "0x1085c",
        "value": "0x0",
        "input": "0x7ef0d28700000000000000000000000000000000000000000000000000000000000021050000000000000000000000000000000000000000000000000000000000000006",
        "nonce": "0xdb",
        "chainId": "0xa"
      },
      "additionalContracts": [],
      "isFixedGasLimit": false
    },
    {
      "hash": "0xf7c26314ac5237c223bf0e2c44b323c6ca730b8c0ca74478c2dd8fe999599d0c",
      "transactionType": "CALL",
      "contractName": null,
      "contractAddress": "0x050c6c2555c2d54aba01420fbc02ff0f1d10e8df",
      "function": "setDestinationReceiver(uint32,bytes32)",
      "arguments": [
        "8453",
        "0x0000000000000000000000003aef79e7455843a33e4c46d5cf283a809bf50970"
      ],
      "transaction": {
        "from": "0x05f8cc8753d90d67dbb8c02118440b8283f941c9",
        "to": "0x050c6c2555c2d54aba01420fbc02ff0f1d10e8df",
        "gas": "0xf901",
        "value": "0x0",
        "input": "0x0267dd6c00000000000000000000000000000000000000000000000000000000000021050000000000000000000000003aef79e7455843a33e4c46d5cf283a809bf50970",
        "nonce": "0xdc",
        "chainId": "0xa"
      },
      "additionalContracts": [],
      "isFixedGasLimit": false
    },
    {
      "hash": "0xe35b958586cc826b2d09f27dde91bd5df90b9e8c4790485065f9495f001c7f01",
      "transactionType": "CALL",
      "contractName": null,
      "contractAddress": "0x050c6c2555c2d54aba01420fbc02ff0f1d10e8df",
      "function": "setDestinationCaller(uint32,bytes32)",
      "arguments": [
        "8453",
        "0x00000000000000000000000005f8cc8753d90d67dbb8c02118440b8283f941c9"
      ],
      "transaction": {
        "from": "0x05f8cc8753d90d67dbb8c02118440b8283f941c9",
        "to": "0x050c6c2555c2d54aba01420fbc02ff0f1d10e8df",
        "gas": "0xf8b3",
        "value": "0x0",
        "input": "0x00686ed2000000000000000000000000000000000000000000000000000000000000210500000000000000000000000005f8cc8753d90d67dbb8c02118440b8283f941c9",
        "nonce": "0xdd",
        "chainId": "0xa"
      },
      "additionalContracts": [],
      "isFixedGasLimit": false
    },
    {
      "hash": "0xb1732312d61f4320008c246033ff6dbb7546aae662ed54903ee1d7f48ccddda8",
      "transactionType": "CALL",
      "contractName": null,
      "contractAddress": "0x050c6c2555c2d54aba01420fbc02ff0f1d10e8df",
      "function": "setMaxFeeBpsCap(uint256)",
      "arguments": [
        "100"
      ],
      "transaction": {
        "from": "0x05f8cc8753d90d67dbb8c02118440b8283f941c9",
        "to": "0x050c6c2555c2d54aba01420fbc02ff0f1d10e8df",
        "gas": "0x8b92",
        "value": "0x0",
        "input": "0x357c4ea70000000000000000000000000000000000000000000000000000000000000064",
        "nonce": "0xde",
        "chainId": "0xa"
      },
      "additionalContracts": [],
      "isFixedGasLimit": false
    },
    {
      "hash": "0xc1f2ee47a10ec42b649df7082ea1bf9b812ad99b5f3af767b0716735c90e8777",
      "transactionType": "CALL",
      "contractName": null,
      "contractAddress": "0xdb403792c55bfe26beaef235986d4f106e40ee6f",
      "function": "setFamilyRouteConfig(uint32,uint8,uint32,address,bytes,address,address)",
      "arguments": [
        "8453",
        "2",
        "30184",
        "0x6F7Cd979BcbD03c2fD593c5BeeC3b2628514392b",
        "0x00030100110100000000000000000000000000030d4001001303000000000000000000000000000000061a80",
        "0x0b2C639c533813f4Aa9D7837CAf62653d097Ff85",
        "0xcE8CcA271Ebc0533920C83d39F417ED6A0abB7D0"
      ],
      "transaction": {
        "from": "0x05f8cc8753d90d67dbb8c02118440b8283f941c9",
        "to": "0xdb403792c55bfe26beaef235986d4f106e40ee6f",
        "gas": "0x546ed",
        "value": "0x0",
        "input": "0x8e41222a0000000000000000000000000000000000000000000000000000000000002105000000000000000000000000000000000000000000000000000000000000000200000000000000000000000000000000000000000000000000000000000075e80000000000000000000000006f7cd979bcbd03c2fd593c5beec3b2628514392b00000000000000000000000000000000000000000000000000000000000000e00000000000000000000000000b2c639c533813f4aa9d7837caf62653d097ff85000000000000000000000000ce8cca271ebc0533920c83d39f417ed6a0abb7d0000000000000000000000000000000000000000000000000000000000000002c00030100110100000000000000000000000000030d4001001303000000000000000000000000000000061a800000000000000000000000000000000000000000",
        "nonce": "0xdf",
        "chainId": "0xa"
      },
      "additionalContracts": [],
      "isFixedGasLimit": false
    },
    {
      "hash": "0x0a523f40973a7079a50801636f155128ef1a4b125910950c47316dfe7c7a2818",
      "transactionType": "CALL",
      "contractName": null,
      "contractAddress": "0x845cd50644a9592de43bcac0212656480744aaca",
      "function": "setTrustedPeerAddress(uint32,address)",
      "arguments": [
        "30184",
        "0x347a213c8F511c7DA06c3f0484B74309BA34f882"
      ],
      "transaction": {
        "from": "0x05f8cc8753d90d67dbb8c02118440b8283f941c9",
        "to": "0x845cd50644a9592de43bcac0212656480744aaca",
        "gas": "0x101ed",
        "value": "0x0",
        "input": "0x60c5965f00000000000000000000000000000000000000000000000000000000000075e8000000000000000000000000347a213c8f511c7da06c3f0484b74309ba34f882",
        "nonce": "0xe0",
        "chainId": "0xa"
      },
      "additionalContracts": [],
      "isFixedGasLimit": false
    },
    {
      "hash": "0xb3831db17097e3f36526aa1e70e6916c9089ece8eaf8693a4ad0f2dad1022268",
      "transactionType": "CALL",
      "contractName": null,
      "contractAddress": "0x845cd50644a9592de43bcac0212656480744aaca",
      "function": "setSettlementToken(bytes32,address)",
      "arguments": [
        "0xc9e6c698b6a822819702171c2ca95ee8e0bd8b87d4d4954b42a3ef3815a80042",
        "0x0b2C639c533813f4Aa9D7837CAf62653d097Ff85"
      ],
      "transaction": {
        "from": "0x05f8cc8753d90d67dbb8c02118440b8283f941c9",
        "to": "0x845cd50644a9592de43bcac0212656480744aaca",
        "gas": "0x98df",
        "value": "0x0",
        "input": "0x7f7c7732c9e6c698b6a822819702171c2ca95ee8e0bd8b87d4d4954b42a3ef3815a800420000000000000000000000000b2c639c533813f4aa9d7837caf62653d097ff85",
        "nonce": "0xe1",
        "chainId": "0xa"
      },
      "additionalContracts": [],
      "isFixedGasLimit": false
    },
    {
      "hash": "0xd68416e9fdff49bee812acf6e391392ea8d21fcdf11d920224a3f716cb8f92d7",
      "transactionType": "CALL",
      "contractName": null,
      "contractAddress": "0x845cd50644a9592de43bcac0212656480744aaca",
      "function": "setExpectedComposeSender(uint32,bytes32,address)",
      "arguments": [
        "30184",
        "0xc9e6c698b6a822819702171c2ca95ee8e0bd8b87d4d4954b42a3ef3815a80042",
        "0x27a16dc786820B16E5c9028b75B99F6f604b5d26"
      ],
      "transaction": {
        "from": "0x05f8cc8753d90d67dbb8c02118440b8283f941c9",
        "to": "0x845cd50644a9592de43bcac0212656480744aaca",
        "gas": "0x107bb",
        "value": "0x0",
        "input": "0xbd0e403a00000000000000000000000000000000000000000000000000000000000075e8c9e6c698b6a822819702171c2ca95ee8e0bd8b87d4d4954b42a3ef3815a8004200000000000000000000000027a16dc786820b16e5c9028b75b99f6f604b5d26",
        "nonce": "0xe2",
        "chainId": "0xa"
      },
      "additionalContracts": [],
      "isFixedGasLimit": false
    }
  ],
  "receipts": [
    {
      "status": "0x1",
      "cumulativeGasUsed": "0x5a1b74",
      "logs": [],
      "logsBloom": "0x00000000000000000000000000000000000000000000000000000000000000000000000000000000000000000000000000000000000000000000000000000000000000000000000000000000000000000000000000000000000000000000000000000000000000000000000000000000000000000000000000000000000000000000000000000000000000000000000000000000000000000000000000000000000000000000000000000000000000000000000000000000000000000000000000000000000000000000000000000000000000000000000000000000000000000000000000000000000000000000000000000000000000000000000000000000",
      "type": "0x2",
      "transactionHash": "0xa583af0002938287270875ceaa4c66e868bd8f9eb0eb0896332e5b03d22fc709",
      "transactionIndex": "0x11",
      "blockHash": "0xb8f9aada12df2fbac60704c19923facaeee60f589ed25bdfaff31146bccdd709",
      "blockNumber": "0x90d8cdc",
      "gasUsed": "0x66d5",
      "effectiveGasPrice": "0x14b",
      "blobGasUsed": "0x9c40",
      "from": "0x05f8cc8753d90d67dbb8c02118440b8283f941c9",
      "to": "0x65642ac8fd57eff8dd4651cb76be48814c8bf386",
      "contractAddress": null,
      "daFootprintGasScalar": "0x190",
      "l1BaseFeeScalar": "0x146b",
      "l1BlobBaseFee": "0x526e70",
      "l1BlobBaseFeeScalar": "0xf79c5",
      "l1Fee": "0x4bd4bd34",
      "l1GasPrice": "0x5298e6a",
      "l1GasUsed": "0x640"
    },
    {
      "status": "0x1",
      "cumulativeGasUsed": "0x18f542",
      "logs": [],
      "logsBloom": "0x00000000000000000000000000000000000000000000000000000000000000000000000000000000000000000000000000000000000000000000000000000000000000000000000000000000000000000000000000000000000000000000000000000000000000000000000000000000000000000000000000000000000000000000000000000000000000000000000000000000000000000000000000000000000000000000000000000000000000000000000000000000000000000000000000000000000000000000000000000000000000000000000000000000000000000000000000000000000000000000000000000000000000000000000000000000",
      "type": "0x2",
      "transactionHash": "0xc9d3662f487066b821601a8dde4c25f88e554bbec51f5a0667fe49c174d7a65d",
      "transactionIndex": "0x4",
      "blockHash": "0xff87b6ba80fbbcb4b23192cc3cd43905a94e228d7981b265763c264eec282dc8",
      "blockNumber": "0x90d8cde",
      "gasUsed": "0xb4d9",
      "effectiveGasPrice": "0x14b",
      "blobGasUsed": "0x9c40",
      "from": "0x05f8cc8753d90d67dbb8c02118440b8283f941c9",
      "to": "0x1b7eb489eb0ae102720442fe15b0e08653a13404",
      "contractAddress": null,
      "daFootprintGasScalar": "0x190",
      "l1BaseFeeScalar": "0x146b",
      "l1BlobBaseFee": "0x526e70",
      "l1BlobBaseFeeScalar": "0xf79c5",
      "l1Fee": "0x503a2908",
      "l1GasPrice": "0x5b01fe3",
      "l1GasUsed": "0x640"
    },
    {
      "status": "0x1",
      "cumulativeGasUsed": "0x192266",
      "logs": [],
      "logsBloom": "0x00000000000000000000000000000000000000000000000000000000000000000000000000000000000000000000000000000000000000000000000000000000000000000000000000000000000000000000000000000000000000000000000000000000000000000000000000000000000000000000000000000000000000000000000000000000000000000000000000000000000000000000000000000000000000000000000000000000000000000000000000000000000000000000000000000000000000000000000000000000000000000000000000000000000000000000000000000000000000000000000000000000000000000000000000000000",
      "type": "0x2",
      "transactionHash": "0xd3fb7c9804285bd038a0e92186bb0749921bdc9e60becd3d1fc60a773214d531",
      "transactionIndex": "0x4",
      "blockHash": "0x0000000000000000000000000000000000000000000000000000000000000000",
      "blockNumber": "0x90d8ce0",
      "gasUsed": "0xb45d",
      "effectiveGasPrice": "0x14b",
      "blobGasUsed": "0x9c40",
      "from": "0x05f8cc8753d90d67dbb8c02118440b8283f941c9",
      "to": "0x1b7eb489eb0ae102720442fe15b0e08653a13404",
      "contractAddress": null,
      "daFootprintGasScalar": "0x190",
      "l1BaseFeeScalar": "0x146b",
      "l1BlobBaseFee": "0x526e70",
      "l1BlobBaseFeeScalar": "0xf79c5",
      "l1Fee": "0x503a2908",
      "l1GasPrice": "0x5b01fe3",
      "l1GasUsed": "0x640"
    },
    {
      "status": "0x1",
      "cumulativeGasUsed": "0x5dee2e",
      "logs": [],
      "logsBloom": "0x00000000000000000000000000000000000000000000000000000000000000000000000000000000000000000000000000000000000000000000000000000000000000000000000000000000000000000000000000000000000000000000000000000000000000000000000000000000000000000000000000000000000000000000000000000000000000000000000000000000000000000000000000000000000000000000000000000000000000000000000000000000000000000000000000000000000000000000000000000000000000000000000000000000000000000000000000000000000000000000000000000000000000000000000000000000",
      "type": "0x2",
      "transactionHash": "0x10e17c111cc42f7fb5e8cde63feaf08407eaa20d35c06ed35308c33f597b3906",
      "transactionIndex": "0x11",
      "blockHash": "0xf5f355075168e0fd5a15bfe4ce5e1c8c551d103fc7db63e77d5a1c11a41eba35",
      "blockNumber": "0x90d8ce1",
      "gasUsed": "0xb40f",
      "effectiveGasPrice": "0x14b",
      "blobGasUsed": "0x9c40",
      "from": "0x05f8cc8753d90d67dbb8c02118440b8283f941c9",
      "to": "0x1b7eb489eb0ae102720442fe15b0e08653a13404",
      "contractAddress": null,
      "daFootprintGasScalar": "0x190",
      "l1BaseFeeScalar": "0x146b",
      "l1BlobBaseFee": "0x526e70",
      "l1BlobBaseFeeScalar": "0xf79c5",
      "l1Fee": "0x503a2908",
      "l1GasPrice": "0x5b01fe3",
      "l1GasUsed": "0x640"
    },
    {
      "status": "0x1",
      "cumulativeGasUsed": "0x1920e0",
      "logs": [],
      "logsBloom": "0x00000000000000000000000000000000000000000000000000000000000000000000000000000000000000000000000000000000000000000000000000000000000000000000000000000000000000000000000000000000000000000000000000000000000000000000000000000000000000000000000000000000000000000000000000000000000000000000000000000000000000000000000000000000000000000000000000000000000000000000000000000000000000000000000000000000000000000000000000000000000000000000000000000000000000000000000000000000000000000000000000000000000000000000000000000000",
      "type": "0x2",
      "transactionHash": "0x7544c34fdad3e49516a5b701390b4004cdf118dc3059d7b5ff92788a10fa2117",
      "transactionIndex": "0x4",
      "blockHash": "0x0000000000000000000000000000000000000000000000000000000000000000",
      "blockNumber": "0x90d8ce3",
      "gasUsed": "0xb4c3",
      "effectiveGasPrice": "0x14b",
      "blobGasUsed": "0x9c40",
      "from": "0x05f8cc8753d90d67dbb8c02118440b8283f941c9",
      "to": "0x050c6c2555c2d54aba01420fbc02ff0f1d10e8df",
      "contractAddress": null,
      "daFootprintGasScalar": "0x190",
      "l1BaseFeeScalar": "0x146b",
      "l1BlobBaseFee": "0x549e10",
      "l1BlobBaseFeeScalar": "0xf79c5",
      "l1Fee": "0x52a0c55f",
      "l1GasPrice": "0x5df1aad",
      "l1GasUsed": "0x640"
    },
    {
      "status": "0x1",
      "cumulativeGasUsed": "0x37fc07",
      "logs": [],
      "logsBloom": "0x00000000000000000000000000000000000000000000000000000000000000000000000000000000000000000000000000000000000000000000000000000000000000000000000000000000000000000000000000000000000000000000000000000000000000000000000000000000000000000000000000000000000000000000000000000000000000000000000000000000000000000000000000000000000000000000000000000000000000000000000000000000000000000000000000000000000000000000000000000000000000000000000000000000000000000000000000000000000000000000000000000000000000000000000000000000",
      "type": "0x2",
      "transactionHash": "0xf7c26314ac5237c223bf0e2c44b323c6ca730b8c0ca74478c2dd8fe999599d0c",
      "transactionIndex": "0xc",
      "blockHash": "0xb86bb6c2a725364fa9690eef75ebb396faa9f508e7db84a1b3ff432b54677110",
      "blockNumber": "0x90d8ce4",
      "gasUsed": "0xb447",
      "effectiveGasPrice": "0x14b",
      "blobGasUsed": "0x9c40",
      "from": "0x05f8cc8753d90d67dbb8c02118440b8283f941c9",
      "to": "0x050c6c2555c2d54aba01420fbc02ff0f1d10e8df",
      "contractAddress": null,
      "daFootprintGasScalar": "0x190",
      "l1BaseFeeScalar": "0x146b",
      "l1BlobBaseFee": "0x549e10",
      "l1BlobBaseFeeScalar": "0xf79c5",
      "l1Fee": "0x52a0c55f",
      "l1GasPrice": "0x5df1aad",
      "l1GasUsed": "0x640"
    },
    {
      "status": "0x1",
      "cumulativeGasUsed": "0x4e5d07",
      "logs": [],
      "logsBloom": "0x00000000000000000000000000000000000000000000000000000000000000000000000000000000000000000000000000000000000000000000000000000000000000000000000000000000000000000000000000000000000000000000000000000000000000000000000000000000000000000000000000000000000000000000000000000000000000000000000000000000000000000000000000000000000000000000000000000000000000000000000000000000000000000000000000000000000000000000000000000000000000000000000000000000000000000000000000000000000000000000000000000000000000000000000000000000",
      "type": "0x2",
      "transactionHash": "0xe35b958586cc826b2d09f27dde91bd5df90b9e8c4790485065f9495f001c7f01",
      "transactionIndex": "0xd",
      "blockHash": "0x84b20b20a47b2768d0562ff12ce877833e9660ed12ac91039a8a10c490c28a3e",
      "blockNumber": "0x90d8ce5",
      "gasUsed": "0xb40f",
      "effectiveGasPrice": "0x14b",
      "blobGasUsed": "0x9c40",
      "from": "0x05f8cc8753d90d67dbb8c02118440b8283f941c9",
      "to": "0x050c6c2555c2d54aba01420fbc02ff0f1d10e8df",
      "contractAddress": null,
      "daFootprintGasScalar": "0x190",
      "l1BaseFeeScalar": "0x146b",
      "l1BlobBaseFee": "0x549e10",
      "l1BlobBaseFeeScalar": "0xf79c5",
      "l1Fee": "0x52a0c55f",
      "l1GasPrice": "0x5df1aad",
      "l1GasUsed": "0x640"
    },
    {
      "status": "0x1",
      "cumulativeGasUsed": "0x4d807e",
      "logs": [],
      "logsBloom": "0x00000000000000000000000000000000000000000000000000000000000000000000000000000000000000000000000000000000000000000000000000000000000000000000000000000000000000000000000000000000000000000000000000000000000000000000000000000000000000000000000000000000000000000000000000000000000000000000000000000000000000000000000000000000000000000000000000000000000000000000000000000000000000000000000000000000000000000000000000000000000000000000000000000000000000000000000000000000000000000000000000000000000000000000000000000000",
      "type": "0x2",
      "transactionHash": "0xb1732312d61f4320008c246033ff6dbb7546aae662ed54903ee1d7f48ccddda8",
      "transactionIndex": "0x10",
      "blockHash": "0x3568bbe189f60d9df9d020c6a7d402d27cb6723001aafc8847ec6fa5f5a41436",
      "blockNumber": "0x90d8ce6",
      "gasUsed": "0x650d",
      "effectiveGasPrice": "0x14b",
      "blobGasUsed": "0x9c40",
      "from": "0x05f8cc8753d90d67dbb8c02118440b8283f941c9",
      "to": "0x050c6c2555c2d54aba01420fbc02ff0f1d10e8df",
      "contractAddress": null,
      "daFootprintGasScalar": "0x190",
      "l1BaseFeeScalar": "0x146b",
      "l1BlobBaseFee": "0x549e10",
      "l1BlobBaseFeeScalar": "0xf79c5",
      "l1Fee": "0x52a0c55f",
      "l1GasPrice": "0x5df1aad",
      "l1GasUsed": "0x640"
    },
    {
      "status": "0x1",
      "cumulativeGasUsed": "0x7c0e3b",
      "logs": [],
      "logsBloom": "0x00000000000000000000000000000000000000000000000000000000000000000000000000000000000000000000000000000000000000000000000000000000000000000000000000000000000000000000000000000000000000000000000000000000000000000000000000000000000000000000000000000000000000000000000000000000000000000000000000000000000000000000000000000000000000000000000000000000000000000000000000000000000000000000000000000000000000000000000000000000000000000000000000000000000000000000000000000000000000000000000000000000000000000000000000000000",
      "type": "0x2",
      "transactionHash": "0xc1f2ee47a10ec42b649df7082ea1bf9b812ad99b5f3af767b0716735c90e8777",
      "transactionIndex": "0x14",
      "blockHash": "0x7df89c20cc90172e147a3da24bf101974fbe385aa2d1ee399fffeb092633b43b",
      "blockNumber": "0x90d8ce7",
      "gasUsed": "0x3d20d",
      "effectiveGasPrice": "0x14b",
      "blobGasUsed": "0x10e50",
      "from": "0x05f8cc8753d90d67dbb8c02118440b8283f941c9",
      "to": "0xdb403792c55bfe26beaef235986d4f106e40ee6f",
      "contractAddress": null,
      "daFootprintGasScalar": "0x190",
      "l1BaseFeeScalar": "0x146b",
      "l1BlobBaseFee": "0x549e10",
      "l1BlobBaseFeeScalar": "0xf79c5",
      "l1Fee": "0x8f233dc6",
      "l1GasPrice": "0x5df1aad",
      "l1GasUsed": "0xad3"
    },
    {
      "status": "0x1",
      "cumulativeGasUsed": "0x3a4c5d",
      "logs": [
        {
          "address": "0x845cd50644a9592de43bcac0212656480744aaca",
          "topics": [
            "0x096f300665a57908ac1627e5a821ea670d2a90da7c601a19bf265f8553453f28",
            "0x00000000000000000000000000000000000000000000000000000000000075e8",
            "0x000000000000000000000000347a213c8f511c7da06c3f0484b74309ba34f882"
          ],
          "data": "0x",
          "blockHash": "0x629294208bea75b39be6ad6f0e7314593f98bd60c28695dbbf16a7827e40d90e",
          "blockNumber": "0x90d8ce9",
          "blockTimestamp": "0x6a0ef38b",
          "transactionHash": "0x0a523f40973a7079a50801636f155128ef1a4b125910950c47316dfe7c7a2818",
          "transactionIndex": "0xd",
          "logIndex": "0x44",
          "removed": false
        }
      ],
      "logsBloom": "0x00000000000040000000000000000000000000000000000000000000000000000000000000000000004000000000000000000000000000000000000010000000200000400000000000008000000000000000000000000001000000000000000000000000000000000000000000000000000000000000000000000000000000000000000000004000000000000000000000000000000004000000000000000000000000000000000000000000000000000000000000000000000000000000000000000080000000000000000000000000000040000000000000000000000000000000000000000000000000000000000000000000000000000000000000000080",
      "type": "0x2",
      "transactionHash": "0x0a523f40973a7079a50801636f155128ef1a4b125910950c47316dfe7c7a2818",
      "transactionIndex": "0xd",
      "blockHash": "0x629294208bea75b39be6ad6f0e7314593f98bd60c28695dbbf16a7827e40d90e",
      "blockNumber": "0x90d8ce9",
      "gasUsed": "0xbabd",
      "effectiveGasPrice": "0x14b",
      "blobGasUsed": "0x9c40",
      "from": "0x05f8cc8753d90d67dbb8c02118440b8283f941c9",
      "to": "0x845cd50644a9592de43bcac0212656480744aaca",
      "contractAddress": null,
      "daFootprintGasScalar": "0x190",
      "l1BaseFeeScalar": "0x146b",
      "l1BlobBaseFee": "0x54ef36",
      "l1BlobBaseFeeScalar": "0xf79c5",
      "l1Fee": "0x5151751a",
      "l1GasPrice": "0x5b32a89",
      "l1GasUsed": "0x640"
    },
    {
      "status": "0x1",
      "cumulativeGasUsed": "0xd1e45f",
      "logs": [
        {
          "address": "0x845cd50644a9592de43bcac0212656480744aaca",
          "topics": [
            "0x4136032aa12649590b7253badbfc503b5d2e3b7d9a35afb3e4d9f6103c09a6b5",
            "0xc9e6c698b6a822819702171c2ca95ee8e0bd8b87d4d4954b42a3ef3815a80042",
            "0x0000000000000000000000000b2c639c533813f4aa9d7837caf62653d097ff85"
          ],
          "data": "0x",
          "blockHash": "0xd34cd9b5227ef14ed0b5ea09f36545f91b4890eaccba2b7edb947f0076d5d08a",
          "blockNumber": "0x90d8ceb",
          "blockTimestamp": "0x6a0ef38f",
          "transactionHash": "0xb3831db17097e3f36526aa1e70e6916c9089ece8eaf8693a4ad0f2dad1022268",
          "transactionIndex": "0x24",
          "logIndex": "0x14e",
          "removed": false
        }
      ],
      "logsBloom": "0x00000000000000000000000000000000000000000000000000000000004000000000100000000000004000000000000000000000000000000000000000000000000000000000000000008000000200000000000000000000000000000000000000000000000000000000000000000000000000000000000000000000000000000000000000000000000000000000000000004000000000000000000000000000000010000000000000000000000000000000000000000000000000000000000000000000000000000000000000000000000200800000000000000000000000080000000000000000000000000000000000000000000100000000000000000080",
      "type": "0x2",
      "transactionHash": "0xb3831db17097e3f36526aa1e70e6916c9089ece8eaf8693a4ad0f2dad1022268",
      "transactionIndex": "0x24",
      "blockHash": "0xd34cd9b5227ef14ed0b5ea09f36545f91b4890eaccba2b7edb947f0076d5d08a",
      "blockNumber": "0x90d8ceb",
      "gasUsed": "0x6eae",
      "effectiveGasPrice": "0x14b",
      "blobGasUsed": "0x9c40",
      "from": "0x05f8cc8753d90d67dbb8c02118440b8283f941c9",
      "to": "0x845cd50644a9592de43bcac0212656480744aaca",
      "contractAddress": null,
      "daFootprintGasScalar": "0x190",
      "l1BaseFeeScalar": "0x146b",
      "l1BlobBaseFee": "0x54ef36",
      "l1BlobBaseFeeScalar": "0xf79c5",
      "l1Fee": "0x51b05d3d",
      "l1GasPrice": "0x5b32a89",
      "l1GasUsed": "0x647"
    },
    {
      "status": "0x1",
      "cumulativeGasUsed": "0x4a607e",
      "logs": [
        {
          "address": "0x845cd50644a9592de43bcac0212656480744aaca",
          "topics": [
            "0xb7c8dd3f64d8ddf8d6f60970c4b891b50132c8511426927525184359ef6d5da7",
            "0x00000000000000000000000000000000000000000000000000000000000075e8",
            "0xc9e6c698b6a822819702171c2ca95ee8e0bd8b87d4d4954b42a3ef3815a80042",
            "0x00000000000000000000000027a16dc786820b16e5c9028b75b99f6f604b5d26"
          ],
          "data": "0x",
          "blockHash": "0xea336aaad22c584b6b9239932e2791ee537dec22a908d2dfb114b1b28f40842d",
          "blockNumber": "0x90d8ced",
          "blockTimestamp": "0x6a0ef393",
          "transactionHash": "0xd68416e9fdff49bee812acf6e391392ea8d21fcdf11d920224a3f716cb8f92d7",
          "transactionIndex": "0xf",
          "logIndex": "0x5b",
          "removed": false
        }
      ],
      "logsBloom": "0x08000000000040000020000000000000000000000000000000000000000000000000000000000000004000000000200000000000000000000000000010000000000000000001000000008000000000000000000000000000000000000000000000000000000000000000000000000000000000000000000000000000000000000000000000004000000000080000000000000000000000000000000000000000000000000000000000000000000000000000000000000000000000000000000000000000000000000000000000000000000200800000000000800000000000080000000000000000000000000000000000000000000000000000000000000080",
      "type": "0x2",
      "transactionHash": "0xd68416e9fdff49bee812acf6e391392ea8d21fcdf11d920224a3f716cb8f92d7",
      "transactionIndex": "0xf",
      "blockHash": "0xea336aaad22c584b6b9239932e2791ee537dec22a908d2dfb114b1b28f40842d",
      "blockNumber": "0x90d8ced",
      "gasUsed": "0xbef0",
      "effectiveGasPrice": "0x14b",
      "blobGasUsed": "0xa5a0",
      "from": "0x05f8cc8753d90d67dbb8c02118440b8283f941c9",
      "to": "0x845cd50644a9592de43bcac0212656480744aaca",
      "contractAddress": null,
      "daFootprintGasScalar": "0x190",
      "l1BaseFeeScalar": "0x146b",
      "l1BlobBaseFee": "0x54ef36",
      "l1BlobBaseFeeScalar": "0xf79c5",
      "l1Fee": "0x56735497",
      "l1GasPrice": "0x5b32a89",
      "l1GasUsed": "0x6a4"
    }
  ],
  "libraries": [],
  "pending": [],
  "returns": {},
  "timestamp": 1779364755963,
  "chain": 10,
  "commit": "c28491f"
}