{
  "transactions": [
    {
      "hash": "0x81f62b15f270b762034973934f3bf343cd6d882d5ec5a5ee9528dff25f5cfbc1",
      "transactionType": "CALL",
      "contractName": null,
      "contractAddress": "0x1725e2c27e428eb4a18ed121b459f4055ef2cc5b",
      "function": "registerRailPlugin(address)",
      "arguments": [
        "0x396adF660CF97105308c3650575d73B5fe8f586e"
      ],
      "transaction": {
        "from": "0x05f8cc8753d90d67dbb8c02118440b8283f941c9",
        "to": "0x1725e2c27e428eb4a18ed121b459f4055ef2cc5b",
        "gas": "0x26753",
        "value": "0x0",
        "input": "0x172ceb34000000000000000000000000396adf660cf97105308c3650575d73b5fe8f586e",
        "nonce": "0x103",
        "chainId": "0xa4b1"
      },
      "additionalContracts": [],
      "isFixedGasLimit": false
    },
    {
      "hash": "0x972d3771360bf764d8cb7219bbd39d271e35254f2c62f30e9d21efd5e03d3814",
      "transactionType": "CALL",
      "contractName": null,
      "contractAddress": "0x1725e2c27e428eb4a18ed121b459f4055ef2cc5b",
      "function": "registerRailPlugin(address)",
      "arguments": [
        "0x970b735a5CdAAa97cD686a1dA0b9f5d8332011c0"
      ],
      "transaction": {
        "from": "0x05f8cc8753d90d67dbb8c02118440b8283f941c9",
        "to": "0x1725e2c27e428eb4a18ed121b459f4055ef2cc5b",
        "gas": "0x266fc",
        "value": "0x0",
        "input": "0x172ceb34000000000000000000000000970b735a5cdaaa97cd686a1da0b9f5d8332011c0",
        "nonce": "0x104",
        "chainId": "0xa4b1"
      },
      "additionalContracts": [],
      "isFixedGasLimit": false
    },
    {
      "hash": "0xdadb0c1e01692bf8eb3a48fc0a0092776bcb1f8f82ee61cbc8cf8dc3b481e943",
      "transactionType": "CALL",
      "contractName": null,
      "contractAddress": "0x1725e2c27e428eb4a18ed121b459f4055ef2cc5b",
      "function": "registerRailPlugin(address)",
      "arguments": [
        "0x8fb6314678a9287f9B47B96e54122444e43dDE1F"
      ],
      "transaction": {
        "from": "0x05f8cc8753d90d67dbb8c02118440b8283f941c9",
        "to": "0x1725e2c27e428eb4a18ed121b459f4055ef2cc5b",
        "gas": "0x26640",
        "value": "0x0",
        "input": "0x172ceb340000000000000000000000008fb6314678a9287f9b47b96e54122444e43dde1f",
        "nonce": "0x105",
        "chainId": "0xa4b1"
      },
      "additionalContracts": [],
      "isFixedGasLimit": false
    },
    {
      "hash": "0xf81a4995c1f13b37cc550925456636b0da63741eacd373ff4a30d5d3a47a1bd2",
      "transactionType": "CALL",
      "contractName": null,
      "contractAddress": "0x1725e2c27e428eb4a18ed121b459f4055ef2cc5b",
      "function": "registerSwapPlugin(address)",
      "arguments": [
        "0xe3B60A80CDaDA5fD1E05B64beB7DFe8423A3c331"
      ],
      "transaction": {
        "from": "0x05f8cc8753d90d67dbb8c02118440b8283f941c9",
        "to": "0x1725e2c27e428eb4a18ed121b459f4055ef2cc5b",
        "gas": "0x26675",
        "value": "0x0",
        "input": "0x5eeb82c5000000000000000000000000e3b60a80cdada5fd1e05b64beb7dfe8423a3c331",
        "nonce": "0x106",
        "chainId": "0xa4b1"
      },
      "additionalContracts": [],
      "isFixedGasLimit": false
    },
    {
      "hash": "0x0f35e1df977fa00f1e25a91b8dfa1fff73e80ef07067e9be3cbb4fb47e841dcd",
      "transactionType": "CALL",
      "contractName": null,
      "contractAddress": "0xa10914363664e46154328e6e787961641ea6e3de",
      "function": "addApprovedCaller(address)",
      "arguments": [
        "0xcdBc01b0DDdaC2729263a7ff4318a1b17b2eEdB3"
      ],
      "transaction": {
        "from": "0x05f8cc8753d90d67dbb8c02118440b8283f941c9",
        "to": "0xa10914363664e46154328e6e787961641ea6e3de",
        "gas": "0xf01e",
        "value": "0x0",
        "input": "0xab5cb85a000000000000000000000000cdbc01b0dddac2729263a7ff4318a1b17b2eedb3",
        "nonce": "0x107",
        "chainId": "0xa4b1"
      },
      "additionalContracts": [],
      "isFixedGasLimit": false
    },
    {
      "hash": "0x3f3a8de58fc9ecb47021ef1be61a6bc28f67f5fffd0340f078330dfc6a8935f7",
      "transactionType": "CALL",
      "contractName": null,
      "contractAddress": "0x396adf660cf97105308c3650575d73b5fe8f586e",
      "function": "setChainDomain(uint32,uint32)",
      "arguments": [
        "10",
        "2"
      ],
      "transaction": {
        "from": "0x05f8cc8753d90d67dbb8c02118440b8283f941c9",
        "to": "0x396adf660cf97105308c3650575d73b5fe8f586e",
        "gas": "0xf115",
        "value": "0x0",
        "input": "0x7ef0d287000000000000000000000000000000000000000000000000000000000000000a0000000000000000000000000000000000000000000000000000000000000002",
        "nonce": "0x108",
        "chainId": "0xa4b1"
      },
      "additionalContracts": [],
      "isFixedGasLimit": false
    },
    {
      "hash": "0x0aae5079a2a3a1caa147cffed3b01a138f7475e826102ed6c6ba8b9a4f951bcf",
      "transactionType": "CALL",
      "contractName": null,
      "contractAddress": "0x396adf660cf97105308c3650575d73b5fe8f586e",
      "function": "setDestinationReceiver(uint32,bytes32)",
      "arguments": [
        "10",
        "0x00000000000000000000000065642ac8fd57eff8dd4651cb76be48814c8bf386"
      ],
      "transaction": {
        "from": "0x05f8cc8753d90d67dbb8c02118440b8283f941c9",
        "to": "0x396adf660cf97105308c3650575d73b5fe8f586e",
        "gas": "0xf074",
        "value": "0x0",
        "input": "0x0267dd6c000000000000000000000000000000000000000000000000000000000000000a00000000000000000000000065642ac8fd57eff8dd4651cb76be48814c8bf386",
        "nonce": "0x109",
        "chainId": "0xa4b1"
      },
      "additionalContracts": [],
      "isFixedGasLimit": false
    },
    {
      "hash": "0xa468dc7369d22e36b1ef2bc34468dae642a15bf8be24039ccb04f0261dce407c",
      "transactionType": "CALL",
      "contractName": null,
      "contractAddress": "0x396adf660cf97105308c3650575d73b5fe8f586e",
      "function": "setDestinationCaller(uint32,bytes32)",
      "arguments": [
        "10",
        "0x00000000000000000000000005f8cc8753d90d67dbb8c02118440b8283f941c9"
      ],
      "transaction": {
        "from": "0x05f8cc8753d90d67dbb8c02118440b8283f941c9",
        "to": "0x396adf660cf97105308c3650575d73b5fe8f586e",
        "gas": "0xf00e",
        "value": "0x0",
        "input": "0x00686ed2000000000000000000000000000000000000000000000000000000000000000a00000000000000000000000005f8cc8753d90d67dbb8c02118440b8283f941c9",
        "nonce": "0x10a",
        "chainId": "0xa4b1"
      },
      "additionalContracts": [],
      "isFixedGasLimit": false
    },
    {
      "hash": "0xe21361184b249c127bbe08debdffc6a9dac4f4e94983e1b71a8a66a0252c11fe",
      "transactionType": "CALL",
      "contractName": null,
      "contractAddress": "0x970b735a5cdaaa97cd686a1da0b9f5d8332011c0",
      "function": "setChainDomain(uint32,uint32)",
      "arguments": [
        "10",
        "2"
      ],
      "transaction": {
        "from": "0x05f8cc8753d90d67dbb8c02118440b8283f941c9",
        "to": "0x970b735a5cdaaa97cd686a1da0b9f5d8332011c0",
        "gas": "0xf0f8",
        "value": "0x0",
        "input": "0x7ef0d287000000000000000000000000000000000000000000000000000000000000000a0000000000000000000000000000000000000000000000000000000000000002",
        "nonce": "0x10b",
        "chainId": "0xa4b1"
      },
      "additionalContracts": [],
      "isFixedGasLimit": false
    },
    {
      "hash": "0x6b09cd3ca754824b65ff785ca1c1b4858f6909c4fe04ffe7b63394bcde51d999",
      "transactionType": "CALL",
      "contractName": null,
      "contractAddress": "0x970b735a5cdaaa97cd686a1da0b9f5d8332011c0",
      "function": "setDestinationReceiver(uint32,bytes32)",
      "arguments": [
        "10",
        "0x00000000000000000000000065642ac8fd57eff8dd4651cb76be48814c8bf386"
      ],
      "transaction": {
        "from": "0x05f8cc8753d90d67dbb8c02118440b8283f941c9",
        "to": "0x970b735a5cdaaa97cd686a1da0b9f5d8332011c0",
        "gas": "0xf057",
        "value": "0x0",
        "input": "0x0267dd6c000000000000000000000000000000000000000000000000000000000000000a00000000000000000000000065642ac8fd57eff8dd4651cb76be48814c8bf386",
        "nonce": "0x10c",
        "chainId": "0xa4b1"
      },
      "additionalContracts": [],
      "isFixedGasLimit": false
    },
    {
      "hash": "0xcb0dfb393e595f09c71d3ee0be1a8c54cbe2bef17d8e9829ecdfe16af1e9b60b",
      "transactionType": "CALL",
      "contractName": null,
      "contractAddress": "0x970b735a5cdaaa97cd686a1da0b9f5d8332011c0",
      "function": "setDestinationCaller(uint32,bytes32)",
      "arguments": [
        "10",
        "0x00000000000000000000000005f8cc8753d90d67dbb8c02118440b8283f941c9"
      ],
      "transaction": {
        "from": "0x05f8cc8753d90d67dbb8c02118440b8283f941c9",
        "to": "0x970b735a5cdaaa97cd686a1da0b9f5d8332011c0",
        "gas": "0xf00e",
        "value": "0x0",
        "input": "0x00686ed2000000000000000000000000000000000000000000000000000000000000000a00000000000000000000000005f8cc8753d90d67dbb8c02118440b8283f941c9",
        "nonce": "0x10d",
        "chainId": "0xa4b1"
      },
      "additionalContracts": [],
      "isFixedGasLimit": false
    },
    {
      "hash": "0x24a64fea4d0a5c0ba6948ea4e7bd5e4350c9b5034e0fb48995362bc0640401fd",
      "transactionType": "CALL",
      "contractName": null,
      "contractAddress": "0x970b735a5cdaaa97cd686a1da0b9f5d8332011c0",
      "function": "setMaxFeeBpsCap(uint256)",
      "arguments": [
        "100"
      ],
      "transaction": {
        "from": "0x05f8cc8753d90d67dbb8c02118440b8283f941c9",
        "to": "0x970b735a5cdaaa97cd686a1da0b9f5d8332011c0",
        "gas": "0x888a",
        "value": "0x0",
        "input": "0x357c4ea70000000000000000000000000000000000000000000000000000000000000064",
        "nonce": "0x10e",
        "chainId": "0xa4b1"
      },
      "additionalContracts": [],
      "isFixedGasLimit": false
    },
    {
      "hash": "0x5c0564c27a7df3b0f45d6e21431e8e1f1d932f29263655ef9ad08d5148ffdfaa",
      "transactionType": "CALL",
      "contractName": null,
      "contractAddress": "0x8fb6314678a9287f9b47b96e54122444e43dde1f",
      "function": "setFamilyRouteConfig(uint32,uint8,uint32,address,bytes,address,address)",
      "arguments": [
        "10",
        "2",
        "30111",
        "0x845Cd50644A9592de43BCAC0212656480744AAcA",
        "0x00030100110100000000000000000000000000030d4001001303000000000000000000000000000000061a80",
        "0xaf88d065e77c8cC2239327C5EDb3A432268e5831",
        "0xe8CDF27AcD73a434D661C84887215F7598e7d0d3"
      ],
      "transaction": {
        "from": "0x05f8cc8753d90d67dbb8c02118440b8283f941c9",
        "to": "0x8fb6314678a9287f9b47b96e54122444e43dde1f",
        "gas": "0x50ee0",
        "value": "0x0",
        "input": "0x8e41222a000000000000000000000000000000000000000000000000000000000000000a0000000000000000000000000000000000000000000000000000000000000002000000000000000000000000000000000000000000000000000000000000759f000000000000000000000000845cd50644a9592de43bcac0212656480744aaca00000000000000000000000000000000000000000000000000000000000000e0000000000000000000000000af88d065e77c8cc2239327c5edb3a432268e5831000000000000000000000000e8cdf27acd73a434d661c84887215f7598e7d0d3000000000000000000000000000000000000000000000000000000000000002c00030100110100000000000000000000000000030d4001001303000000000000000000000000000000061a800000000000000000000000000000000000000000",
        "nonce": "0x10f",
        "chainId": "0xa4b1"
      },
      "additionalContracts": [],
      "isFixedGasLimit": false
    },
    {
      "hash": "0x7a7b9c35f341254592b428f9139bcf63278f39a4cc7b11cf5543f29ca4dfc678",
      "transactionType": "CALL",
      "contractName": null,
      "contractAddress": "0xcdbc01b0dddac2729263a7ff4318a1b17b2eedb3",
      "function": "setTrustedPeerAddress(uint32,address)",
      "arguments": [
        "30111",
        "0xDb403792c55bFE26beaeF235986D4F106E40Ee6F"
      ],
      "transaction": {
        "from": "0x05f8cc8753d90d67dbb8c02118440b8283f941c9",
        "to": "0xcdbc01b0dddac2729263a7ff4318a1b17b2eedb3",
        "gas": "0xf8d1",
        "value": "0x0",
        "input": "0x60c5965f000000000000000000000000000000000000000000000000000000000000759f000000000000000000000000db403792c55bfe26beaef235986d4f106e40ee6f",
        "nonce": "0x110",
        "chainId": "0xa4b1"
      },
      "additionalContracts": [],
      "isFixedGasLimit": false
    },
    {
      "hash": "0xc56ec11edaec1ce0015d93d3477cc01507db491620095c1ee32803af0204f64a",
      "transactionType": "CALL",
      "contractName": null,
      "contractAddress": "0xcdbc01b0dddac2729263a7ff4318a1b17b2eedb3",
      "function": "setSettlementToken(bytes32,address)",
      "arguments": [
        "0x4ff7bfa087fef0b3d1091aacb95268321ee02ffb87496abbf2f3994ca399da94",
        "0xaf88d065e77c8cC2239327C5EDb3A432268e5831"
      ],
      "transaction": {
        "from": "0x05f8cc8753d90d67dbb8c02118440b8283f941c9",
        "to": "0xcdbc01b0dddac2729263a7ff4318a1b17b2eedb3",
        "gas": "0xfb10",
        "value": "0x0",
        "input": "0x7f7c77324ff7bfa087fef0b3d1091aacb95268321ee02ffb87496abbf2f3994ca399da94000000000000000000000000af88d065e77c8cc2239327c5edb3a432268e5831",
        "nonce": "0x111",
        "chainId": "0xa4b1"
      },
      "additionalContracts": [],
      "isFixedGasLimit": false
    },
    {
      "hash": "0x0462a8b97725c4b46d58fe89b09b34d2f371c4d0d810326197f1dead65b21fa8",
      "transactionType": "CALL",
      "contractName": null,
      "contractAddress": "0xcdbc01b0dddac2729263a7ff4318a1b17b2eedb3",
      "function": "setExpectedComposeSender(uint32,bytes32,address)",
      "arguments": [
        "30111",
        "0x4ff7bfa087fef0b3d1091aacb95268321ee02ffb87496abbf2f3994ca399da94",
        "0xcE8CcA271Ebc0533920C83d39F417ED6A0abB7D0"
      ],
      "transaction": {
        "from": "0x05f8cc8753d90d67dbb8c02118440b8283f941c9",
        "to": "0xcdbc01b0dddac2729263a7ff4318a1b17b2eedb3",
        "gas": "0xfefe",
        "value": "0x0",
        "input": "0xbd0e403a000000000000000000000000000000000000000000000000000000000000759f4ff7bfa087fef0b3d1091aacb95268321ee02ffb87496abbf2f3994ca399da94000000000000000000000000ce8cca271ebc0533920c83d39f417ed6a0abb7d0",
        "nonce": "0x112",
        "chainId": "0xa4b1"
      },
      "additionalContracts": [],
      "isFixedGasLimit": false
    }
  ],
  "receipts": [
    {
      "status": "0x1",
      "cumulativeGasUsed": "0x567d5",
      "logs": [
        {
          "address": "0x1725e2c27e428eb4a18ed121b459f4055ef2cc5b",
          "topics": [
            "0xa86330cede453edbe00d0dbe74ee3bdbac6d7b048009b0d72d54aa609df01a71",
            "0xb148ea5f936a28661e11743b1650193f1b14a2322b9541503bf6815a84a1a6e9"
          ],
          "data": "0x000000000000000000000000396adf660cf97105308c3650575d73b5fe8f586e0000000000000000000000000000000000000000000000000000000000000000",
          "blockHash": "0x7925b2a9892879e68a49cca7898f63b8b94d2f773742177911b8ab35baab1de7",
          "blockNumber": "0x1b994cba",
          "blockTimestamp": "0x6a06dd2d",
          "transactionHash": "0x81f62b15f270b762034973934f3bf343cd6d882d5ec5a5ee9528dff25f5cfbc1",
          "transactionIndex": "0x4",
          "logIndex": "0x4",
          "removed": false
        }
      ],
      "logsBloom": "0x00000400000000002000000000000000000000000000000000000000000000000000000000000000000000200000000000000000000000000000000000000000000000000000000000000000000000000000000020000000000000000000010000000000000000000000000020000000000000000000000000000000000000000000000000000000000000000000000000000000000000000000000000000000000000000000000000000000000000000000000000000000000000000000000000000000000000000000000000200000000000400000000000000000000000000000000000000000000000000000000000800000000000000000000000000000",
      "type": "0x2",
      "transactionHash": "0x81f62b15f270b762034973934f3bf343cd6d882d5ec5a5ee9528dff25f5cfbc1",
      "transactionIndex": "0x4",
      "blockHash": "0x7925b2a9892879e68a49cca7898f63b8b94d2f773742177911b8ab35baab1de7",
      "blockNumber": "0x1b994cba",
      "gasUsed": "0x1d49e",
      "effectiveGasPrice": "0x131c940",
      "from": "0x05f8cc8753d90d67dbb8c02118440b8283f941c9",
      "to": "0x1725e2c27e428eb4a18ed121b459f4055ef2cc5b",
      "contractAddress": null,
      "gasUsedForL1": "0x212",
      "l1BlockNumber": "0x17efcaa",
      "timeboosted": false
    },
    {
      "status": "0x1",
      "cumulativeGasUsed": "0x68136",
      "logs": [
        {
          "address": "0x1725e2c27e428eb4a18ed121b459f4055ef2cc5b",
          "topics": [
            "0xa86330cede453edbe00d0dbe74ee3bdbac6d7b048009b0d72d54aa609df01a71",
            "0x9181644edfd36b07ccd623494a3681a4a6b9cd5d52611accda20264cd09259ac"
          ],
          "data": "0x000000000000000000000000970b735a5cdaaa97cd686a1da0b9f5d8332011c00000000000000000000000000000000000000000000000000000000000000000",
          "blockHash": "0xd6560af44f7d78186b7ce84e7262110b2d044986f82aebe3d41ab671b278133d",
          "blockNumber": "0x1b994cc7",
          "blockTimestamp": "0x6a06dd30",
          "transactionHash": "0x972d3771360bf764d8cb7219bbd39d271e35254f2c62f30e9d21efd5e03d3814",
          "transactionIndex": "0x4",
          "logIndex": "0x6",
          "removed": false
        }
      ],
      "logsBloom": "0x00000000000000002000000000000000000000004000000000000000000000008000000000000000000000200000000000000000000000000000000000000000000000000000000000000000000000000000000000000000000000000000010000000000000000000000000000000000000000000000000000000000000000000000000000000008000000000000000000000000000000000000000000000000000000000000000000000000000000000000000000000000000000000000000000000000000000000000000000200000000000400000000000000000000000000000000000000000000000000000000000800000000000000000000000000000",
      "type": "0x2",
      "transactionHash": "0x972d3771360bf764d8cb7219bbd39d271e35254f2c62f30e9d21efd5e03d3814",
      "transactionIndex": "0x4",
      "blockHash": "0xd6560af44f7d78186b7ce84e7262110b2d044986f82aebe3d41ab671b278133d",
      "blockNumber": "0x1b994cc7",
      "gasUsed": "0x19190",
      "effectiveGasPrice": "0x131f820",
      "from": "0x05f8cc8753d90d67dbb8c02118440b8283f941c9",
      "to": "0x1725e2c27e428eb4a18ed121b459f4055ef2cc5b",
      "contractAddress": null,
      "gasUsedForL1": "0x212",
      "l1BlockNumber": "0x17efcab",
      "timeboosted": false
    },
    {
      "status": "0x1",
      "cumulativeGasUsed": "0x19100",
      "logs": [
        {
          "address": "0x1725e2c27e428eb4a18ed121b459f4055ef2cc5b",
          "topics": [
            "0xa86330cede453edbe00d0dbe74ee3bdbac6d7b048009b0d72d54aa609df01a71",
            "0xc472efb7b9a986e1446d8bf9dec51e88548a1d8eb4a0810e6424d97a878d34fc"
          ],
          "data": "0x0000000000000000000000008fb6314678a9287f9b47b96e54122444e43dde1f0000000000000000000000000000000000000000000000000000000000000000",
          "blockHash": "0x61b326dd04dd7dcae21215ad693a55bd831baeb196cb69d2ea430a4cf6406b99",
          "blockNumber": "0x1b994cd5",
          "blockTimestamp": "0x6a06dd34",
          "transactionHash": "0xdadb0c1e01692bf8eb3a48fc0a0092776bcb1f8f82ee61cbc8cf8dc3b481e943",
          "transactionIndex": "0x1",
          "logIndex": "0x0",
          "removed": false
        }
      ],
      "logsBloom": "0x00000000000000002000000000000000000000000000000000000000000000000000000000000000000000200000000000000000000000000000000000000000000000000000000000000000000000000000000000000000000000000000010000000800000000000000000000000000000040000000000000000000000000000000000000000000000000000000000000000000000000000000000000000000000002000000000000000000000000000000000000000000000000000000000000000000000000000000000000200000000000400000000000000000000000000000000000000000000000000000000000800000000000000000000000000000",
      "type": "0x2",
      "transactionHash": "0xdadb0c1e01692bf8eb3a48fc0a0092776bcb1f8f82ee61cbc8cf8dc3b481e943",
      "transactionIndex": "0x1",
      "blockHash": "0x61b326dd04dd7dcae21215ad693a55bd831baeb196cb69d2ea430a4cf6406b99",
      "blockNumber": "0x1b994cd5",
      "gasUsed": "0x19100",
      "effectiveGasPrice": "0x1312d00",
      "from": "0x05f8cc8753d90d67dbb8c02118440b8283f941c9",
      "to": "0x1725e2c27e428eb4a18ed121b459f4055ef2cc5b",
      "contractAddress": null,
      "gasUsedForL1": "0x213",
      "l1BlockNumber": "0x17efcab",
      "timeboosted": false
    },
    {
      "status": "0x1",
      "cumulativeGasUsed": "0x1d3f4",
      "logs": [
        {
          "address": "0x1725e2c27e428eb4a18ed121b459f4055ef2cc5b",
          "topics": [
            "0xa86330cede453edbe00d0dbe74ee3bdbac6d7b048009b0d72d54aa609df01a71",
            "0x62d69a2b9d5c124337a6d3df09e273f71aa045b7b8758c9c6695143a40ad10b6"
          ],
          "data": "0x000000000000000000000000e3b60a80cdada5fd1e05b64beb7dfe8423a3c3310000000000000000000000000000000000000000000000000000000000000001",
          "blockHash": "0xabe36f15715e0e071538d229ef4192fbc2fde693fcce6f20cb115ebe120203c7",
          "blockNumber": "0x1b994ce3",
          "blockTimestamp": "0x6a06dd37",
          "transactionHash": "0xf81a4995c1f13b37cc550925456636b0da63741eacd373ff4a30d5d3a47a1bd2",
          "transactionIndex": "0x1",
          "logIndex": "0x0",
          "removed": false
        }
      ],
      "logsBloom": "0x00000000000000002000000000000000000000000000000000000000000000000000000000000000000000200000000000000000000000000000000000000000000400000000000000000000000000000000000000000000000000000000010000000000000000000000000000000000000000000000000000000000000000000000000000000000000000000000000000000000000000000000000000000000000000000000000000000000000000000000000000000000000000000000000000000000000000000000000000200000000000400000000000000000000000000000001020000000000000000000000000800000000000000000000000000000",
      "type": "0x2",
      "transactionHash": "0xf81a4995c1f13b37cc550925456636b0da63741eacd373ff4a30d5d3a47a1bd2",
      "transactionIndex": "0x1",
      "blockHash": "0xabe36f15715e0e071538d229ef4192fbc2fde693fcce6f20cb115ebe120203c7",
      "blockNumber": "0x1b994ce3",
      "gasUsed": "0x1d3f4",
      "effectiveGasPrice": "0x1317b20",
      "from": "0x05f8cc8753d90d67dbb8c02118440b8283f941c9",
      "to": "0x1725e2c27e428eb4a18ed121b459f4055ef2cc5b",
      "contractAddress": null,
      "gasUsedForL1": "0x212",
      "l1BlockNumber": "0x17efcab",
      "timeboosted": false
    },
    {
      "status": "0x1",
      "cumulativeGasUsed": "0x161f5b",
      "logs": [],
      "logsBloom": "0x00000000000000000000000000000000000000000000000000000000000000000000000000000000000000000000000000000000000000000000000000000000000000000000000000000000000000000000000000000000000000000000000000000000000000000000000000000000000000000000000000000000000000000000000000000000000000000000000000000000000000000000000000000000000000000000000000000000000000000000000000000000000000000000000000000000000000000000000000000000000000000000000000000000000000000000000000000000000000000000000000000000000000000000000000000000",
      "type": "0x2",
      "transactionHash": "0x0f35e1df977fa00f1e25a91b8dfa1fff73e80ef07067e9be3cbb4fb47e841dcd",
      "transactionIndex": "0xb",
      "blockHash": "0x251fbd0caa3717c20c8d90854d8d89be3f3b3b424230754840ff32e9fb622996",
      "blockNumber": "0x1b994cf1",
      "gasUsed": "0xb6a0",
      "effectiveGasPrice": "0x1312d00",
      "from": "0x05f8cc8753d90d67dbb8c02118440b8283f941c9",
      "to": "0xa10914363664e46154328e6e787961641ea6e3de",
      "contractAddress": null,
      "gasUsedForL1": "0x20f",
      "l1BlockNumber": "0x17efcab",
      "timeboosted": false
    },
    {
      "status": "0x1",
      "cumulativeGasUsed": "0xb750",
      "logs": [],
      "logsBloom": "0x00000000000000000000000000000000000000000000000000000000000000000000000000000000000000000000000000000000000000000000000000000000000000000000000000000000000000000000000000000000000000000000000000000000000000000000000000000000000000000000000000000000000000000000000000000000000000000000000000000000000000000000000000000000000000000000000000000000000000000000000000000000000000000000000000000000000000000000000000000000000000000000000000000000000000000000000000000000000000000000000000000000000000000000000000000000",
      "type": "0x2",
      "transactionHash": "0x3f3a8de58fc9ecb47021ef1be61a6bc28f67f5fffd0340f078330dfc6a8935f7",
      "transactionIndex": "0x1",
      "blockHash": "0xc80bf77ef732bf416e63f6be7781e2941a48a0a1af98367b97319eba5222d5c1",
      "blockNumber": "0x1b994cff",
      "gasUsed": "0xb750",
      "effectiveGasPrice": "0x131a230",
      "from": "0x05f8cc8753d90d67dbb8c02118440b8283f941c9",
      "to": "0x396adf660cf97105308c3650575d73b5fe8f586e",
      "contractAddress": null,
      "gasUsedForL1": "0x283",
      "l1BlockNumber": "0x17efcab",
      "timeboosted": false
    },
    {
      "status": "0x1",
      "cumulativeGasUsed": "0x233585",
      "logs": [],
      "logsBloom": "0x00000000000000000000000000000000000000000000000000000000000000000000000000000000000000000000000000000000000000000000000000000000000000000000000000000000000000000000000000000000000000000000000000000000000000000000000000000000000000000000000000000000000000000000000000000000000000000000000000000000000000000000000000000000000000000000000000000000000000000000000000000000000000000000000000000000000000000000000000000000000000000000000000000000000000000000000000000000000000000000000000000000000000000000000000000000",
      "type": "0x2",
      "transactionHash": "0x0aae5079a2a3a1caa147cffed3b01a138f7475e826102ed6c6ba8b9a4f951bcf",
      "transactionIndex": "0x5",
      "blockHash": "0x1cdbd94a31e2f0fbce731264adc0fec6d58182e3d186c10a38b433d1c906b8f2",
      "blockNumber": "0x1b994d0c",
      "gasUsed": "0xb6d4",
      "effectiveGasPrice": "0x131c170",
      "from": "0x05f8cc8753d90d67dbb8c02118440b8283f941c9",
      "to": "0x396adf660cf97105308c3650575d73b5fe8f586e",
      "contractAddress": null,
      "gasUsedForL1": "0x283",
      "l1BlockNumber": "0x17efcad",
      "timeboosted": false
    },
    {
      "status": "0x1",
      "cumulativeGasUsed": "0x1562f",
      "logs": [],
      "logsBloom": "0x00000000000000000000000000000000000000000000000000000000000000000000000000000000000000000000000000000000000000000000000000000000000000000000000000000000000000000000000000000000000000000000000000000000000000000000000000000000000000000000000000000000000000000000000000000000000000000000000000000000000000000000000000000000000000000000000000000000000000000000000000000000000000000000000000000000000000000000000000000000000000000000000000000000000000000000000000000000000000000000000000000000000000000000000000000000",
      "type": "0x2",
      "transactionHash": "0xa468dc7369d22e36b1ef2bc34468dae642a15bf8be24039ccb04f0261dce407c",
      "transactionIndex": "0x2",
      "blockHash": "0x028a635795b07d87f5289af88ac556b91ac47eeacd97346630b6cd210b74a1fa",
      "blockNumber": "0x1b994d19",
      "gasUsed": "0xb687",
      "effectiveGasPrice": "0x1312d00",
      "from": "0x05f8cc8753d90d67dbb8c02118440b8283f941c9",
      "to": "0x396adf660cf97105308c3650575d73b5fe8f586e",
      "contractAddress": null,
      "gasUsedForL1": "0x284",
      "l1BlockNumber": "0x17efcad",
      "timeboosted": false
    },
    {
      "status": "0x1",
      "cumulativeGasUsed": "0x3fc167",
      "logs": [],
      "logsBloom": "0x00000000000000000000000000000000000000000000000000000000000000000000000000000000000000000000000000000000000000000000000000000000000000000000000000000000000000000000000000000000000000000000000000000000000000000000000000000000000000000000000000000000000000000000000000000000000000000000000000000000000000000000000000000000000000000000000000000000000000000000000000000000000000000000000000000000000000000000000000000000000000000000000000000000000000000000000000000000000000000000000000000000000000000000000000000000",
      "type": "0x2",
      "transactionHash": "0xe21361184b249c127bbe08debdffc6a9dac4f4e94983e1b71a8a66a0252c11fe",
      "transactionIndex": "0x5",
      "blockHash": "0x4e7313511452d3edeb66f1d738cb5c1613a75cf21f2727df9c7d1931ef81c689",
      "blockNumber": "0x1b994d26",
      "gasUsed": "0xb73b",
      "effectiveGasPrice": "0x1312d00",
      "from": "0x05f8cc8753d90d67dbb8c02118440b8283f941c9",
      "to": "0x970b735a5cdaaa97cd686a1da0b9f5d8332011c0",
      "contractAddress": null,
      "gasUsedForL1": "0x284",
      "l1BlockNumber": "0x17efcad",
      "timeboosted": false
    },
    {
      "status": "0x1",
      "cumulativeGasUsed": "0x11f9ec",
      "logs": [],
      "logsBloom": "0x00000000000000000000000000000000000000000000000000000000000000000000000000000000000000000000000000000000000000000000000000000000000000000000000000000000000000000000000000000000000000000000000000000000000000000000000000000000000000000000000000000000000000000000000000000000000000000000000000000000000000000000000000000000000000000000000000000000000000000000000000000000000000000000000000000000000000000000000000000000000000000000000000000000000000000000000000000000000000000000000000000000000000000000000000000000",
      "type": "0x2",
      "transactionHash": "0x6b09cd3ca754824b65ff785ca1c1b4858f6909c4fe04ffe7b63394bcde51d999",
      "transactionIndex": "0x5",
      "blockHash": "0xb00c1af1c2d9d4b2acaa67c48c62146233e7c1517755632326ca47dec3f30573",
      "blockNumber": "0x1b994d33",
      "gasUsed": "0xb6ba",
      "effectiveGasPrice": "0x1338e60",
      "from": "0x05f8cc8753d90d67dbb8c02118440b8283f941c9",
      "to": "0x970b735a5cdaaa97cd686a1da0b9f5d8332011c0",
      "contractAddress": null,
      "gasUsedForL1": "0x27f",
      "l1BlockNumber": "0x17efcad",
      "timeboosted": false
    },
    {
      "status": "0x1",
      "cumulativeGasUsed": "0x4ea6a",
      "logs": [],
      "logsBloom": "0x00000000000000000000000000000000000000000000000000000000000000000000000000000000000000000000000000000000000000000000000000000000000000000000000000000000000000000000000000000000000000000000000000000000000000000000000000000000000000000000000000000000000000000000000000000000000000000000000000000000000000000000000000000000000000000000000000000000000000000000000000000000000000000000000000000000000000000000000000000000000000000000000000000000000000000000000000000000000000000000000000000000000000000000000000000000",
      "type": "0x2",
      "transactionHash": "0xcb0dfb393e595f09c71d3ee0be1a8c54cbe2bef17d8e9829ecdfe16af1e9b60b",
      "transactionIndex": "0x3",
      "blockHash": "0x15a0ca49f6d1375d84df411235fbf6c622bc214c9a11339319b585804d5c7060",
      "blockNumber": "0x1b994d42",
      "gasUsed": "0xb686",
      "effectiveGasPrice": "0x131aa00",
      "from": "0x05f8cc8753d90d67dbb8c02118440b8283f941c9",
      "to": "0x970b735a5cdaaa97cd686a1da0b9f5d8332011c0",
      "contractAddress": null,
      "gasUsedForL1": "0x283",
      "l1BlockNumber": "0x17efcae",
      "timeboosted": false
    },
    {
      "status": "0x1",
      "cumulativeGasUsed": "0x7d52b",
      "logs": [],
      "logsBloom": "0x00000000000000000000000000000000000000000000000000000000000000000000000000000000000000000000000000000000000000000000000000000000000000000000000000000000000000000000000000000000000000000000000000000000000000000000000000000000000000000000000000000000000000000000000000000000000000000000000000000000000000000000000000000000000000000000000000000000000000000000000000000000000000000000000000000000000000000000000000000000000000000000000000000000000000000000000000000000000000000000000000000000000000000000000000000000",
      "type": "0x2",
      "transactionHash": "0x24a64fea4d0a5c0ba6948ea4e7bd5e4350c9b5034e0fb48995362bc0640401fd",
      "transactionIndex": "0x2",
      "blockHash": "0x1fea6c733d0e4b631cbcc12fc7a6c0f4aaff5bee59a803ef2062483279cd6899",
      "blockNumber": "0x1b994d4f",
      "gasUsed": "0x671c",
      "effectiveGasPrice": "0x13163b0",
      "from": "0x05f8cc8753d90d67dbb8c02118440b8283f941c9",
      "to": "0x970b735a5cdaaa97cd686a1da0b9f5d8332011c0",
      "contractAddress": null,
      "gasUsedForL1": "0x20f",
      "l1BlockNumber": "0x17efcae",
      "timeboosted": false
    },
    {
      "status": "0x1",
      "cumulativeGasUsed": "0x4cc21",
      "logs": [],
      "logsBloom": "0x00000000000000000000000000000000000000000000000000000000000000000000000000000000000000000000000000000000000000000000000000000000000000000000000000000000000000000000000000000000000000000000000000000000000000000000000000000000000000000000000000000000000000000000000000000000000000000000000000000000000000000000000000000000000000000000000000000000000000000000000000000000000000000000000000000000000000000000000000000000000000000000000000000000000000000000000000000000000000000000000000000000000000000000000000000000",
      "type": "0x2",
      "transactionHash": "0x5c0564c27a7df3b0f45d6e21431e8e1f1d932f29263655ef9ad08d5148ffdfaa",
      "transactionIndex": "0x2",
      "blockHash": "0x7fd501b706486e3f1345d7d7ba9aff9561efc2ba8d7a0a75e5f8112db7ccc0e5",
      "blockNumber": "0x1b994d5d",
      "gasUsed": "0x3d6bc",
      "effectiveGasPrice": "0x1312d00",
      "from": "0x05f8cc8753d90d67dbb8c02118440b8283f941c9",
      "to": "0x8fb6314678a9287f9b47b96e54122444e43dde1f",
      "contractAddress": null,
      "gasUsedForL1": "0x4bb",
      "l1BlockNumber": "0x17efcae",
      "timeboosted": false
    },
    {
      "status": "0x1",
      "cumulativeGasUsed": "0x1ae87",
      "logs": [
        {
          "address": "0xcdbc01b0dddac2729263a7ff4318a1b17b2eedb3",
          "topics": [
            "0x096f300665a57908ac1627e5a821ea670d2a90da7c601a19bf265f8553453f28",
            "0x000000000000000000000000000000000000000000000000000000000000759f",
            "0x000000000000000000000000db403792c55bfe26beaef235986d4f106e40ee6f"
          ],
          "data": "0x",
          "blockHash": "0x1ed58eafa376345d1464eb9d9e0f1fc85faa75d3f9d666ef0431ad26bd570d8f",
          "blockNumber": "0x1b994d6a",
          "blockTimestamp": "0x6a06dd59",
          "transactionHash": "0x7a7b9c35f341254592b428f9139bcf63278f39a4cc7b11cf5543f29ca4dfc678",
          "transactionIndex": "0x2",
          "logIndex": "0x1",
          "removed": false
        }
      ],
      "logsBloom": "0x00000000000000000000080000000000002000000000000000000000002000000000000000000000000000000000000000000000000000100000000000000000000200410000000000000000000000000000000000000001000000000000000000000000000000000000000000000000000000000000000000000000000000000000000000000000000010000000000000000000000004000000000000000000000000000000000080000000000000000000000000000000000000000010000000000000000000000000000000000000000000000000000000000000000000000000000000000000000000000000000000000000000000000000000000000000",
      "type": "0x2",
      "transactionHash": "0x7a7b9c35f341254592b428f9139bcf63278f39a4cc7b11cf5543f29ca4dfc678",
      "transactionIndex": "0x2",
      "blockHash": "0x1ed58eafa376345d1464eb9d9e0f1fc85faa75d3f9d666ef0431ad26bd570d8f",
      "blockNumber": "0x1b994d6a",
      "gasUsed": "0xbd41",
      "effectiveGasPrice": "0x1315410",
      "from": "0x05f8cc8753d90d67dbb8c02118440b8283f941c9",
      "to": "0xcdbc01b0dddac2729263a7ff4318a1b17b2eedb3",
      "contractAddress": null,
      "gasUsedForL1": "0x284",
      "l1BlockNumber": "0x17efcae",
      "timeboosted": false
    },
    {
      "status": "0x1",
      "cumulativeGasUsed": "0x36189",
      "logs": [
        {
          "address": "0xcdbc01b0dddac2729263a7ff4318a1b17b2eedb3",
          "topics": [
            "0x4136032aa12649590b7253badbfc503b5d2e3b7d9a35afb3e4d9f6103c09a6b5",
            "0x4ff7bfa087fef0b3d1091aacb95268321ee02ffb87496abbf2f3994ca399da94",
            "0x000000000000000000000000af88d065e77c8cc2239327c5edb3a432268e5831"
          ],
          "data": "0x",
          "blockHash": "0xbe8eea5aa9ddc64c32d8a1b5e484924c076a2fdfea0288a6b1e3f0b0a34e7b5c",
          "blockNumber": "0x1b994d77",
          "blockTimestamp": "0x6a06dd5c",
          "transactionHash": "0xc56ec11edaec1ce0015d93d3477cc01507db491620095c1ee32803af0204f64a",
          "transactionIndex": "0x3",
          "logIndex": "0x5",
          "removed": false
        }
      ],
      "logsBloom": "0x00000000000000000000000000000000000000000000000000000000000000000000000000000000100000000000000000000000000000000000000000000000000200010000000000000000000200000000000000000000000000000000000000000000400000000000000000000000000000000000000000000000000000000000000000000000000000000000000000000000000000000000000000000000000010000000000000000000000000000000000000000000000002000410000000000000000000000000000000000000000000000000000000000000000000000000000000000000000000000004000000000000002100000000000000000000",
      "type": "0x2",
      "transactionHash": "0xc56ec11edaec1ce0015d93d3477cc01507db491620095c1ee32803af0204f64a",
      "transactionIndex": "0x3",
      "blockHash": "0xbe8eea5aa9ddc64c32d8a1b5e484924c076a2fdfea0288a6b1e3f0b0a34e7b5c",
      "blockNumber": "0x1b994d77",
      "gasUsed": "0xbef9",
      "effectiveGasPrice": "0x131c940",
      "from": "0x05f8cc8753d90d67dbb8c02118440b8283f941c9",
      "to": "0xcdbc01b0dddac2729263a7ff4318a1b17b2eedb3",
      "contractAddress": null,
      "gasUsedForL1": "0x283",
      "l1BlockNumber": "0x17efcae",
      "timeboosted": false
    },
    {
      "status": "0x1",
      "cumulativeGasUsed": "0x57e09",
      "logs": [
        {
          "address": "0xcdbc01b0dddac2729263a7ff4318a1b17b2eedb3",
          "topics": [
            "0xb7c8dd3f64d8ddf8d6f60970c4b891b50132c8511426927525184359ef6d5da7",
            "0x000000000000000000000000000000000000000000000000000000000000759f",
            "0x4ff7bfa087fef0b3d1091aacb95268321ee02ffb87496abbf2f3994ca399da94",
            "0x000000000000000000000000ce8cca271ebc0533920c83d39f417ed6a0abb7d0"
          ],
          "data": "0x",
          "blockHash": "0xc2b249db7e28cbc405885a919e820c65d98740cb706d05fdad623cfc88b55446",
          "blockNumber": "0x1b994d84",
          "blockTimestamp": "0x6a06dd60",
          "transactionHash": "0x0462a8b97725c4b46d58fe89b09b34d2f371c4d0d810326197f1dead65b21fa8",
          "transactionIndex": "0x3",
          "logIndex": "0x2",
          "removed": false
        }
      ],
      "logsBloom": "0x00000000000000000020080000000000002000000000000000000000002000000000000000000000000000000000200000000000400000000000000000000000000200010001000000000000000000000000000000000000000000000000000000000000400000000000000000000000000000000000000000000000000000000000000000000000000000000000000000000000080000000000000000000000000000000000000000000000000000000000000000000000000002000010000000000000000000000000000000000000000000000000000000000000000000000008000000000000000000000004000000000000000000000000000000000000",
      "type": "0x2",
      "transactionHash": "0x0462a8b97725c4b46d58fe89b09b34d2f371c4d0d810326197f1dead65b21fa8",
      "transactionIndex": "0x3",
      "blockHash": "0xc2b249db7e28cbc405885a919e820c65d98740cb706d05fdad623cfc88b55446",
      "blockNumber": "0x1b994d84",
      "gasUsed": "0xc1f0",
      "effectiveGasPrice": "0x131b9a0",
      "from": "0x05f8cc8753d90d67dbb8c02118440b8283f941c9",
      "to": "0xcdbc01b0dddac2729263a7ff4318a1b17b2eedb3",
      "contractAddress": null,
      "gasUsedForL1": "0x2f4",
      "l1BlockNumber": "0x17efcaf",
      "timeboosted": false
    }
  ],
  "libraries": [],
  "pending": [],
  "returns": {},
  "timestamp": 1778834786551,
  "chain": 42161,
  "commit": "0921145"
}