{
  "transactions": [
    {
      "hash": "0x6add16ba63015e7db30cbae27b4444a883462631548bf4bd76b29c75eca6da24",
      "transactionType": "CALL",
      "contractName": null,
      "contractAddress": "0xa10914363664e46154328e6e787961641ea6e3de",
      "function": "addApprovedCaller(address)",
      "arguments": [
        "0xcdBc01b0DDdaC2729263a7ff4318a1b17b2eEdB3"
      ],
      "transaction": {
        "from": "0x05f8cc8753d90d67dbb8c02118440b8283f941c9",
        "to": "0xa10914363664e46154328e6e787961641ea6e3de",
        "gas": "0x93d8",
        "value": "0x0",
        "input": "0xab5cb85a000000000000000000000000cdbc01b0dddac2729263a7ff4318a1b17b2eedb3",
        "nonce": "0x12a",
        "chainId": "0xa4b1"
      },
      "additionalContracts": [],
      "isFixedGasLimit": false
    },
    {
      "hash": "0x0f66f158607de0b29997a9b72af3da9bb3220c3b4f1f2aec9a8cb8efa5776730",
      "transactionType": "CALL",
      "contractName": null,
      "contractAddress": "0x396adf660cf97105308c3650575d73b5fe8f586e",
      "function": "setChainDomain(uint32,uint32)",
      "arguments": [
        "8453",
        "6"
      ],
      "transaction": {
        "from": "0x05f8cc8753d90d67dbb8c02118440b8283f941c9",
        "to": "0x396adf660cf97105308c3650575d73b5fe8f586e",
        "gas": "0xef51",
        "value": "0x0",
        "input": "0x7ef0d28700000000000000000000000000000000000000000000000000000000000021050000000000000000000000000000000000000000000000000000000000000006",
        "nonce": "0x12b",
        "chainId": "0xa4b1"
      },
      "additionalContracts": [],
      "isFixedGasLimit": false
    },
    {
      "hash": "0xc4ecf484b920949cd0bd331e10754165c8acda96a6772d3845a4f91a2729df53",
      "transactionType": "CALL",
      "contractName": null,
      "contractAddress": "0x396adf660cf97105308c3650575d73b5fe8f586e",
      "function": "setDestinationReceiver(uint32,bytes32)",
      "arguments": [
        "8453",
        "0x0000000000000000000000003aef79e7455843a33e4c46d5cf283a809bf50970"
      ],
      "transaction": {
        "from": "0x05f8cc8753d90d67dbb8c02118440b8283f941c9",
        "to": "0x396adf660cf97105308c3650575d73b5fe8f586e",
        "gas": "0xeeaf",
        "value": "0x0",
        "input": "0x0267dd6c00000000000000000000000000000000000000000000000000000000000021050000000000000000000000003aef79e7455843a33e4c46d5cf283a809bf50970",
        "nonce": "0x12c",
        "chainId": "0xa4b1"
      },
      "additionalContracts": [],
      "isFixedGasLimit": false
    },
    {
      "hash": "0x4547a8023e34014f42b195a81d82da656df926c2797b9c543c392c89a84d756c",
      "transactionType": "CALL",
      "contractName": null,
      "contractAddress": "0x396adf660cf97105308c3650575d73b5fe8f586e",
      "function": "setDestinationCaller(uint32,bytes32)",
      "arguments": [
        "8453",
        "0x00000000000000000000000005f8cc8753d90d67dbb8c02118440b8283f941c9"
      ],
      "transaction": {
        "from": "0x05f8cc8753d90d67dbb8c02118440b8283f941c9",
        "to": "0x396adf660cf97105308c3650575d73b5fe8f586e",
        "gas": "0xee4a",
        "value": "0x0",
        "input": "0x00686ed2000000000000000000000000000000000000000000000000000000000000210500000000000000000000000005f8cc8753d90d67dbb8c02118440b8283f941c9",
        "nonce": "0x12d",
        "chainId": "0xa4b1"
      },
      "additionalContracts": [],
      "isFixedGasLimit": false
    },
    {
      "hash": "0x71ee9773aa231eccb0812b38e19d8549f869e49e2808198325b2e3db6239f694",
      "transactionType": "CALL",
      "contractName": null,
      "contractAddress": "0x970b735a5cdaaa97cd686a1da0b9f5d8332011c0",
      "function": "setChainDomain(uint32,uint32)",
      "arguments": [
        "8453",
        "6"
      ],
      "transaction": {
        "from": "0x05f8cc8753d90d67dbb8c02118440b8283f941c9",
        "to": "0x970b735a5cdaaa97cd686a1da0b9f5d8332011c0",
        "gas": "0xef34",
        "value": "0x0",
        "input": "0x7ef0d28700000000000000000000000000000000000000000000000000000000000021050000000000000000000000000000000000000000000000000000000000000006",
        "nonce": "0x12e",
        "chainId": "0xa4b1"
      },
      "additionalContracts": [],
      "isFixedGasLimit": false
    },
    {
      "hash": "0xe010b952d3ce3237089e2161503f2738183dfabd03069218e4541ba17c2300f2",
      "transactionType": "CALL",
      "contractName": null,
      "contractAddress": "0x970b735a5cdaaa97cd686a1da0b9f5d8332011c0",
      "function": "setDestinationReceiver(uint32,bytes32)",
      "arguments": [
        "8453",
        "0x0000000000000000000000003aef79e7455843a33e4c46d5cf283a809bf50970"
      ],
      "transaction": {
        "from": "0x05f8cc8753d90d67dbb8c02118440b8283f941c9",
        "to": "0x970b735a5cdaaa97cd686a1da0b9f5d8332011c0",
        "gas": "0xee93",
        "value": "0x0",
        "input": "0x0267dd6c00000000000000000000000000000000000000000000000000000000000021050000000000000000000000003aef79e7455843a33e4c46d5cf283a809bf50970",
        "nonce": "0x12f",
        "chainId": "0xa4b1"
      },
      "additionalContracts": [],
      "isFixedGasLimit": false
    },
    {
      "hash": "0xa8fbc56f34bf6b58dd1aace219456dd4bbb49fee33bf914ca6752713d15c7fa3",
      "transactionType": "CALL",
      "contractName": null,
      "contractAddress": "0x970b735a5cdaaa97cd686a1da0b9f5d8332011c0",
      "function": "setDestinationCaller(uint32,bytes32)",
      "arguments": [
        "8453",
        "0x00000000000000000000000005f8cc8753d90d67dbb8c02118440b8283f941c9"
      ],
      "transaction": {
        "from": "0x05f8cc8753d90d67dbb8c02118440b8283f941c9",
        "to": "0x970b735a5cdaaa97cd686a1da0b9f5d8332011c0",
        "gas": "0xee4a",
        "value": "0x0",
        "input": "0x00686ed2000000000000000000000000000000000000000000000000000000000000210500000000000000000000000005f8cc8753d90d67dbb8c02118440b8283f941c9",
        "nonce": "0x130",
        "chainId": "0xa4b1"
      },
      "additionalContracts": [],
      "isFixedGasLimit": false
    },
    {
      "hash": "0xc4e270fe0658bc713e84bda8205ce26e153f107981dce28a68de0d3d1addf8cc",
      "transactionType": "CALL",
      "contractName": null,
      "contractAddress": "0x970b735a5cdaaa97cd686a1da0b9f5d8332011c0",
      "function": "setMaxFeeBpsCap(uint256)",
      "arguments": [
        "100"
      ],
      "transaction": {
        "from": "0x05f8cc8753d90d67dbb8c02118440b8283f941c9",
        "to": "0x970b735a5cdaaa97cd686a1da0b9f5d8332011c0",
        "gas": "0x8703",
        "value": "0x0",
        "input": "0x357c4ea70000000000000000000000000000000000000000000000000000000000000064",
        "nonce": "0x131",
        "chainId": "0xa4b1"
      },
      "additionalContracts": [],
      "isFixedGasLimit": false
    },
    {
      "hash": "0x9f843478a5ea90aac157cef96905ce243e4f8fc0651d8a61a802338364788339",
      "transactionType": "CALL",
      "contractName": null,
      "contractAddress": "0x8fb6314678a9287f9b47b96e54122444e43dde1f",
      "function": "setFamilyRouteConfig(uint32,uint8,uint32,address,bytes,address,address)",
      "arguments": [
        "8453",
        "2",
        "30184",
        "0x6F7Cd979BcbD03c2fD593c5BeeC3b2628514392b",
        "0x00030100110100000000000000000000000000030d4001001303000000000000000000000000000000061a80",
        "0xaf88d065e77c8cC2239327C5EDb3A432268e5831",
        "0xe8CDF27AcD73a434D661C84887215F7598e7d0d3"
      ],
      "transaction": {
        "from": "0x05f8cc8753d90d67dbb8c02118440b8283f941c9",
        "to": "0x8fb6314678a9287f9b47b96e54122444e43dde1f",
        "gas": "0x50b9f",
        "value": "0x0",
        "input": "0x8e41222a0000000000000000000000000000000000000000000000000000000000002105000000000000000000000000000000000000000000000000000000000000000200000000000000000000000000000000000000000000000000000000000075e80000000000000000000000006f7cd979bcbd03c2fd593c5beec3b2628514392b00000000000000000000000000000000000000000000000000000000000000e0000000000000000000000000af88d065e77c8cc2239327c5edb3a432268e5831000000000000000000000000e8cdf27acd73a434d661c84887215f7598e7d0d3000000000000000000000000000000000000000000000000000000000000002c00030100110100000000000000000000000000030d4001001303000000000000000000000000000000061a800000000000000000000000000000000000000000",
        "nonce": "0x132",
        "chainId": "0xa4b1"
      },
      "additionalContracts": [],
      "isFixedGasLimit": false
    },
    {
      "hash": "0xcbafaf1262832f8752dcbd0edf07a3a91bcd302324d98b2d4bf12add6521e5f9",
      "transactionType": "CALL",
      "contractName": null,
      "contractAddress": "0xcdbc01b0dddac2729263a7ff4318a1b17b2eedb3",
      "function": "setTrustedPeerAddress(uint32,address)",
      "arguments": [
        "30184",
        "0x347a213c8F511c7DA06c3f0484B74309BA34f882"
      ],
      "transaction": {
        "from": "0x05f8cc8753d90d67dbb8c02118440b8283f941c9",
        "to": "0xcdbc01b0dddac2729263a7ff4318a1b17b2eedb3",
        "gas": "0xf6fd",
        "value": "0x0",
        "input": "0x60c5965f00000000000000000000000000000000000000000000000000000000000075e8000000000000000000000000347a213c8f511c7da06c3f0484b74309ba34f882",
        "nonce": "0x133",
        "chainId": "0xa4b1"
      },
      "additionalContracts": [],
      "isFixedGasLimit": false
    },
    {
      "hash": "0x557e9bf3ff048c287c0ed8742d3c883942fecb6bac989fe693b406a2a00eedeb",
      "transactionType": "CALL",
      "contractName": null,
      "contractAddress": "0xcdbc01b0dddac2729263a7ff4318a1b17b2eedb3",
      "function": "setSettlementToken(bytes32,address)",
      "arguments": [
        "0x4ff7bfa087fef0b3d1091aacb95268321ee02ffb87496abbf2f3994ca399da94",
        "0xaf88d065e77c8cC2239327C5EDb3A432268e5831"
      ],
      "transaction": {
        "from": "0x05f8cc8753d90d67dbb8c02118440b8283f941c9",
        "to": "0xcdbc01b0dddac2729263a7ff4318a1b17b2eedb3",
        "gas": "0x95c1",
        "value": "0x0",
        "input": "0x7f7c77324ff7bfa087fef0b3d1091aacb95268321ee02ffb87496abbf2f3994ca399da94000000000000000000000000af88d065e77c8cc2239327c5edb3a432268e5831",
        "nonce": "0x134",
        "chainId": "0xa4b1"
      },
      "additionalContracts": [],
      "isFixedGasLimit": false
    },
    {
      "hash": "0x76728d2465e5d2caa5321664b7cece71d78282b5043149dcc954faafa436c66f",
      "transactionType": "CALL",
      "contractName": null,
      "contractAddress": "0xcdbc01b0dddac2729263a7ff4318a1b17b2eedb3",
      "function": "setExpectedComposeSender(uint32,bytes32,address)",
      "arguments": [
        "30184",
        "0x4ff7bfa087fef0b3d1091aacb95268321ee02ffb87496abbf2f3994ca399da94",
        "0x27a16dc786820B16E5c9028b75B99F6f604b5d26"
      ],
      "transaction": {
        "from": "0x05f8cc8753d90d67dbb8c02118440b8283f941c9",
        "to": "0xcdbc01b0dddac2729263a7ff4318a1b17b2eedb3",
        "gas": "0xfce1",
        "value": "0x0",
        "input": "0xbd0e403a00000000000000000000000000000000000000000000000000000000000075e84ff7bfa087fef0b3d1091aacb95268321ee02ffb87496abbf2f3994ca399da9400000000000000000000000027a16dc786820b16e5c9028b75b99f6f604b5d26",
        "nonce": "0x135",
        "chainId": "0xa4b1"
      },
      "additionalContracts": [],
      "isFixedGasLimit": false
    }
  ],
  "receipts": [
    {
      "status": "0x1",
      "cumulativeGasUsed": "0x67f9",
      "logs": [],
      "logsBloom": "0x00000000000000000000000000000000000000000000000000000000000000000000000000000000000000000000000000000000000000000000000000000000000000000000000000000000000000000000000000000000000000000000000000000000000000000000000000000000000000000000000000000000000000000000000000000000000000000000000000000000000000000000000000000000000000000000000000000000000000000000000000000000000000000000000000000000000000000000000000000000000000000000000000000000000000000000000000000000000000000000000000000000000000000000000000000000",
      "type": "0x2",
      "transactionHash": "0x6add16ba63015e7db30cbae27b4444a883462631548bf4bd76b29c75eca6da24",
      "transactionIndex": "0x1",
      "blockHash": "0x1cc64e34092afecbc862029e453a639388514d386cc7fb5b99cb82275d77ea32",
      "blockNumber": "0x1bb96fa5",
      "gasUsed": "0x67f9",
      "effectiveGasPrice": "0x1312d00",
      "from": "0x05f8cc8753d90d67dbb8c02118440b8283f941c9",
      "to": "0xa10914363664e46154328e6e787961641ea6e3de",
      "contractAddress": null,
      "gasUsedForL1": "0x124",
      "l1BlockNumber": "0x17fa858",
      "timeboosted": false
    },
    {
      "status": "0x1",
      "cumulativeGasUsed": "0x1092f",
      "logs": [],
      "logsBloom": "0x00000000000000000000000000000000000000000000000000000000000000000000000000000000000000000000000000000000000000000000000000000000000000000000000000000000000000000000000000000000000000000000000000000000000000000000000000000000000000000000000000000000000000000000000000000000000000000000000000000000000000000000000000000000000000000000000000000000000000000000000000000000000000000000000000000000000000000000000000000000000000000000000000000000000000000000000000000000000000000000000000000000000000000000000000000000",
      "type": "0x2",
      "transactionHash": "0x0f66f158607de0b29997a9b72af3da9bb3220c3b4f1f2aec9a8cb8efa5776730",
      "transactionIndex": "0x2",
      "blockHash": "0x3ae10ac4362dda4187833011315edff0133a17b81c94cb432e4e6c07bb183b07",
      "blockNumber": "0x1bb96fad",
      "gasUsed": "0xb63e",
      "effectiveGasPrice": "0x1312d00",
      "from": "0x05f8cc8753d90d67dbb8c02118440b8283f941c9",
      "to": "0x396adf660cf97105308c3650575d73b5fe8f586e",
      "contractAddress": null,
      "gasUsedForL1": "0x165",
      "l1BlockNumber": "0x17fa858",
      "timeboosted": false
    },
    {
      "status": "0x1",
      "cumulativeGasUsed": "0xb5c1",
      "logs": [],
      "logsBloom": "0x00000000000000000000000000000000000000000000000000000000000000000000000000000000000000000000000000000000000000000000000000000000000000000000000000000000000000000000000000000000000000000000000000000000000000000000000000000000000000000000000000000000000000000000000000000000000000000000000000000000000000000000000000000000000000000000000000000000000000000000000000000000000000000000000000000000000000000000000000000000000000000000000000000000000000000000000000000000000000000000000000000000000000000000000000000000",
      "type": "0x2",
      "transactionHash": "0xc4ecf484b920949cd0bd331e10754165c8acda96a6772d3845a4f91a2729df53",
      "transactionIndex": "0x1",
      "blockHash": "0x9910a200565cbb46959475bea65fa0630de80f251ebad57cfee32bd21f963fdd",
      "blockNumber": "0x1bb96fbc",
      "gasUsed": "0xb5c1",
      "effectiveGasPrice": "0x13207c0",
      "from": "0x05f8cc8753d90d67dbb8c02118440b8283f941c9",
      "to": "0x396adf660cf97105308c3650575d73b5fe8f586e",
      "contractAddress": null,
      "gasUsedForL1": "0x164",
      "l1BlockNumber": "0x17fa858",
      "timeboosted": false
    },
    {
      "status": "0x1",
      "cumulativeGasUsed": "0xb574",
      "logs": [],
      "logsBloom": "0x00000000000000000000000000000000000000000000000000000000000000000000000000000000000000000000000000000000000000000000000000000000000000000000000000000000000000000000000000000000000000000000000000000000000000000000000000000000000000000000000000000000000000000000000000000000000000000000000000000000000000000000000000000000000000000000000000000000000000000000000000000000000000000000000000000000000000000000000000000000000000000000000000000000000000000000000000000000000000000000000000000000000000000000000000000000",
      "type": "0x2",
      "transactionHash": "0x4547a8023e34014f42b195a81d82da656df926c2797b9c543c392c89a84d756c",
      "transactionIndex": "0x1",
      "blockHash": "0x5870b2e29096b1d6c3764c243e1aab0326c0dec47a63201b7a4b2b7c1e800b20",
      "blockNumber": "0x1bb96fca",
      "gasUsed": "0xb574",
      "effectiveGasPrice": "0x13134d0",
      "from": "0x05f8cc8753d90d67dbb8c02118440b8283f941c9",
      "to": "0x396adf660cf97105308c3650575d73b5fe8f586e",
      "contractAddress": null,
      "gasUsedForL1": "0x165",
      "l1BlockNumber": "0x17fa858",
      "timeboosted": false
    },
    {
      "status": "0x1",
      "cumulativeGasUsed": "0xb628",
      "logs": [],
      "logsBloom": "0x00000000000000000000000000000000000000000000000000000000000000000000000000000000000000000000000000000000000000000000000000000000000000000000000000000000000000000000000000000000000000000000000000000000000000000000000000000000000000000000000000000000000000000000000000000000000000000000000000000000000000000000000000000000000000000000000000000000000000000000000000000000000000000000000000000000000000000000000000000000000000000000000000000000000000000000000000000000000000000000000000000000000000000000000000000000",
      "type": "0x2",
      "transactionHash": "0x71ee9773aa231eccb0812b38e19d8549f869e49e2808198325b2e3db6239f694",
      "transactionIndex": "0x1",
      "blockHash": "0xcf818988825b01a03a27ec7d8ff4de0c049365926a0048f0eee64b5a2e27e436",
      "blockNumber": "0x1bb96fd8",
      "gasUsed": "0xb628",
      "effectiveGasPrice": "0x1312d00",
      "from": "0x05f8cc8753d90d67dbb8c02118440b8283f941c9",
      "to": "0x970b735a5cdaaa97cd686a1da0b9f5d8332011c0",
      "contractAddress": null,
      "gasUsedForL1": "0x165",
      "l1BlockNumber": "0x17fa858",
      "timeboosted": false
    },
    {
      "status": "0x1",
      "cumulativeGasUsed": "0x2efd8",
      "logs": [],
      "logsBloom": "0x00000000000000000000000000000000000000000000000000000000000000000000000000000000000000000000000000000000000000000000000000000000000000000000000000000000000000000000000000000000000000000000000000000000000000000000000000000000000000000000000000000000000000000000000000000000000000000000000000000000000000000000000000000000000000000000000000000000000000000000000000000000000000000000000000000000000000000000000000000000000000000000000000000000000000000000000000000000000000000000000000000000000000000000000000000000",
      "type": "0x2",
      "transactionHash": "0xe010b952d3ce3237089e2161503f2738183dfabd03069218e4541ba17c2300f2",
      "transactionIndex": "0x4",
      "blockHash": "0x408996605a3974d0f25d81e505fd95e62da56a6f54080aa32503674159d5e90e",
      "blockNumber": "0x1bb96fe7",
      "gasUsed": "0xb5ab",
      "effectiveGasPrice": "0x1320f90",
      "from": "0x05f8cc8753d90d67dbb8c02118440b8283f941c9",
      "to": "0x970b735a5cdaaa97cd686a1da0b9f5d8332011c0",
      "contractAddress": null,
      "gasUsedForL1": "0x164",
      "l1BlockNumber": "0x17fa859",
      "timeboosted": false
    },
    {
      "status": "0x1",
      "cumulativeGasUsed": "0x40088",
      "logs": [],
      "logsBloom": "0x00000000000000000000000000000000000000000000000000000000000000000000000000000000000000000000000000000000000000000000000000000000000000000000000000000000000000000000000000000000000000000000000000000000000000000000000000000000000000000000000000000000000000000000000000000000000000000000000000000000000000000000000000000000000000000000000000000000000000000000000000000000000000000000000000000000000000000000000000000000000000000000000000000000000000000000000000000000000000000000000000000000000000000000000000000000",
      "type": "0x2",
      "transactionHash": "0xa8fbc56f34bf6b58dd1aace219456dd4bbb49fee33bf914ca6752713d15c7fa3",
      "transactionIndex": "0x3",
      "blockHash": "0xb31f3a2bff11c081a458f59f359a6c3d02da49d84d2b278f98aec44f0b673c68",
      "blockNumber": "0x1bb96ff5",
      "gasUsed": "0xb574",
      "effectiveGasPrice": "0x13163b0",
      "from": "0x05f8cc8753d90d67dbb8c02118440b8283f941c9",
      "to": "0x970b735a5cdaaa97cd686a1da0b9f5d8332011c0",
      "contractAddress": null,
      "gasUsedForL1": "0x165",
      "l1BlockNumber": "0x17fa859",
      "timeboosted": false
    },
    {
      "status": "0x1",
      "cumulativeGasUsed": "0x6630",
      "logs": [],
      "logsBloom": "0x00000000000000000000000000000000000000000000000000000000000000000000000000000000000000000000000000000000000000000000000000000000000000000000000000000000000000000000000000000000000000000000000000000000000000000000000000000000000000000000000000000000000000000000000000000000000000000000000000000000000000000000000000000000000000000000000000000000000000000000000000000000000000000000000000000000000000000000000000000000000000000000000000000000000000000000000000000000000000000000000000000000000000000000000000000000",
      "type": "0x2",
      "transactionHash": "0xc4e270fe0658bc713e84bda8205ce26e153f107981dce28a68de0d3d1addf8cc",
      "transactionIndex": "0x1",
      "blockHash": "0x712d63cc378276a4fe4ec8b5ecf35654ba99553897dc2dec1e988fadb6ab4399",
      "blockNumber": "0x1bb96ffe",
      "gasUsed": "0x6630",
      "effectiveGasPrice": "0x1322700",
      "from": "0x05f8cc8753d90d67dbb8c02118440b8283f941c9",
      "to": "0x970b735a5cdaaa97cd686a1da0b9f5d8332011c0",
      "contractAddress": null,
      "gasUsedForL1": "0x123",
      "l1BlockNumber": "0x17fa859",
      "timeboosted": false
    },
    {
      "status": "0x1",
      "cumulativeGasUsed": "0x3d4a7",
      "logs": [],
      "logsBloom": "0x00000000000000000000000000000000000000000000000000000000000000000000000000000000000000000000000000000000000000000000000000000000000000000000000000000000000000000000000000000000000000000000000000000000000000000000000000000000000000000000000000000000000000000000000000000000000000000000000000000000000000000000000000000000000000000000000000000000000000000000000000000000000000000000000000000000000000000000000000000000000000000000000000000000000000000000000000000000000000000000000000000000000000000000000000000000",
      "type": "0x2",
      "transactionHash": "0x9f843478a5ea90aac157cef96905ce243e4f8fc0651d8a61a802338364788339",
      "transactionIndex": "0x1",
      "blockHash": "0xcde53d052a3fb39465c5f87a395b3fc9279f5a5f45b48e6cb6ff6abce5492fc9",
      "blockNumber": "0x1bb97004",
      "gasUsed": "0x3d4a7",
      "effectiveGasPrice": "0x1312d00",
      "from": "0x05f8cc8753d90d67dbb8c02118440b8283f941c9",
      "to": "0x8fb6314678a9287f9b47b96e54122444e43dde1f",
      "contractAddress": null,
      "gasUsedForL1": "0x29a",
      "l1BlockNumber": "0x17fa859",
      "timeboosted": false
    },
    {
      "status": "0x1",
      "cumulativeGasUsed": "0x1d615",
      "logs": [
        {
          "address": "0xcdbc01b0dddac2729263a7ff4318a1b17b2eedb3",
          "topics": [
            "0x096f300665a57908ac1627e5a821ea670d2a90da7c601a19bf265f8553453f28",
            "0x00000000000000000000000000000000000000000000000000000000000075e8",
            "0x000000000000000000000000347a213c8f511c7da06c3f0484b74309ba34f882"
          ],
          "data": "0x",
          "blockHash": "0x452368ea02316ba9f42fa1b299338f1382907ea6339a16d1d6f51aabc13b5758",
          "blockNumber": "0x1bb9700c",
          "blockTimestamp": "0x6a0eef63",
          "transactionHash": "0xcbafaf1262832f8752dcbd0edf07a3a91bcd302324d98b2d4bf12add6521e5f9",
          "transactionIndex": "0x2",
          "logIndex": "0x0",
          "removed": false
        }
      ],
      "logsBloom": "0x00000000000040000000000000000000000000000000000000000000000000000000000000000000000000000000000000000000000000000000000010000000200200410000000000000000000000000000000000000001000000000000000000000000000000000000000000000000000000000000000000000000000000000000000000004000000000000000000000000000000004000000000000000000000000000000000000000000000000000000000000000000000000000010000000000080000000000000000000000000000040000000000000000000000000000000000000000000000000000000000000000000000000000000000000000000",
      "type": "0x2",
      "transactionHash": "0xcbafaf1262832f8752dcbd0edf07a3a91bcd302324d98b2d4bf12add6521e5f9",
      "transactionIndex": "0x2",
      "blockHash": "0x452368ea02316ba9f42fa1b299338f1382907ea6339a16d1d6f51aabc13b5758",
      "blockNumber": "0x1bb9700c",
      "gasUsed": "0xbc22",
      "effectiveGasPrice": "0x1312d00",
      "from": "0x05f8cc8753d90d67dbb8c02118440b8283f941c9",
      "to": "0xcdbc01b0dddac2729263a7ff4318a1b17b2eedb3",
      "contractAddress": null,
      "gasUsedForL1": "0x165",
      "l1BlockNumber": "0x17fa859",
      "timeboosted": false
    },
    {
      "status": "0x1",
      "cumulativeGasUsed": "0x4b717",
      "logs": [
        {
          "address": "0xcdbc01b0dddac2729263a7ff4318a1b17b2eedb3",
          "topics": [
            "0x4136032aa12649590b7253badbfc503b5d2e3b7d9a35afb3e4d9f6103c09a6b5",
            "0x4ff7bfa087fef0b3d1091aacb95268321ee02ffb87496abbf2f3994ca399da94",
            "0x000000000000000000000000af88d065e77c8cc2239327c5edb3a432268e5831"
          ],
          "data": "0x",
          "blockHash": "0x74772fdce6021f2dca04ebc17037c973b15fe6cda791d4be695be24484e50742",
          "blockNumber": "0x1bb97015",
          "blockTimestamp": "0x6a0eef65",
          "transactionHash": "0x557e9bf3ff048c287c0ed8742d3c883942fecb6bac989fe693b406a2a00eedeb",
          "transactionIndex": "0x2",
          "logIndex": "0x5",
          "removed": false
        }
      ],
      "logsBloom": "0x00000000000000000000000000000000000000000000000000000000000000000000000000000000100000000000000000000000000000000000000000000000000200010000000000000000000200000000000000000000000000000000000000000000400000000000000000000000000000000000000000000000000000000000000000000000000000000000000000000000000000000000000000000000000010000000000000000000000000000000000000000000000002000410000000000000000000000000000000000000000000000000000000000000000000000000000000000000000000000004000000000000002100000000000000000000",
      "type": "0x2",
      "transactionHash": "0x557e9bf3ff048c287c0ed8742d3c883942fecb6bac989fe693b406a2a00eedeb",
      "transactionIndex": "0x2",
      "blockHash": "0x74772fdce6021f2dca04ebc17037c973b15fe6cda791d4be695be24484e50742",
      "blockNumber": "0x1bb97015",
      "gasUsed": "0x701f",
      "effectiveGasPrice": "0x1314470",
      "from": "0x05f8cc8753d90d67dbb8c02118440b8283f941c9",
      "to": "0xcdbc01b0dddac2729263a7ff4318a1b17b2eedb3",
      "contractAddress": null,
      "gasUsedForL1": "0x165",
      "l1BlockNumber": "0x17fa859",
      "timeboosted": false
    },
    {
      "status": "0x1",
      "cumulativeGasUsed": "0xc0cc",
      "logs": [
        {
          "address": "0xcdbc01b0dddac2729263a7ff4318a1b17b2eedb3",
          "topics": [
            "0xb7c8dd3f64d8ddf8d6f60970c4b891b50132c8511426927525184359ef6d5da7",
            "0x00000000000000000000000000000000000000000000000000000000000075e8",
            "0x4ff7bfa087fef0b3d1091aacb95268321ee02ffb87496abbf2f3994ca399da94",
            "0x00000000000000000000000027a16dc786820b16e5c9028b75b99f6f604b5d26"
          ],
          "data": "0x",
          "blockHash": "0xa2c9bcacc930fbbfeaf29de08cf82c4763904625c2f7d56769f5f06163ad1dac",
          "blockNumber": "0x1bb9701f",
          "blockTimestamp": "0x6a0eef67",
          "transactionHash": "0x76728d2465e5d2caa5321664b7cece71d78282b5043149dcc954faafa436c66f",
          "transactionIndex": "0x1",
          "logIndex": "0x0",
          "removed": false
        }
      ],
      "logsBloom": "0x08000000000040000020000000000000000000000000000000000000000000000000000000000000000000000000200000000000000000000000000010000000000200010001000000000000000000000000000000000000000000000000000000000000400000000000000000000000000000000000000000000000000000000000000000004000000000080000000000000000000000000000000000000000000000000000000000000000000000000000000000000000000002000010000000000000000000000000000000000000000000000000000000800000000000000000000000000000000000000004000000000000000000000000000000000000",
      "type": "0x2",
      "transactionHash": "0x76728d2465e5d2caa5321664b7cece71d78282b5043149dcc954faafa436c66f",
      "transactionIndex": "0x1",
      "blockHash": "0xa2c9bcacc930fbbfeaf29de08cf82c4763904625c2f7d56769f5f06163ad1dac",
      "blockNumber": "0x1bb9701f",
      "gasUsed": "0xc0cc",
      "effectiveGasPrice": "0x1312d00",
      "from": "0x05f8cc8753d90d67dbb8c02118440b8283f941c9",
      "to": "0xcdbc01b0dddac2729263a7ff4318a1b17b2eedb3",
      "contractAddress": null,
      "gasUsedForL1": "0x1d0",
      "l1BlockNumber": "0x17fa85b",
      "timeboosted": false
    }
  ],
  "libraries": [],
  "pending": [],
  "returns": {},
  "timestamp": 1779363688049,
  "chain": 42161,
  "commit": "c28491f"
}