{
  "transactions": [
    {
      "hash": null,
      "transactionType": "CALL",
      "contractName": null,
      "contractAddress": "0xbc4cbd47e7bf5eec5ede5f3a805c8dcc20d843a0",
      "function": "addApprovedCaller(address)",
      "arguments": [
        "0xd8016e376e15b20Fc321a37fD69DC42cfDf951Bb"
      ],
      "transaction": {
        "from": "0x05f8cc8753d90d67dbb8c02118440b8283f941c9",
        "to": "0xbc4cbd47e7bf5eec5ede5f3a805c8dcc20d843a0",
        "gas": "0x8de9",
        "value": "0x0",
        "input": "0xab5cb85a000000000000000000000000d8016e376e15b20fc321a37fd69dc42cfdf951bb",
        "nonce": "0x54",
        "chainId": "0xaa37dc"
      },
      "additionalContracts": [],
      "isFixedGasLimit": false
    },
    {
      "hash": null,
      "transactionType": "CALL",
      "contractName": null,
      "contractAddress": "0xbc4cbd47e7bf5eec5ede5f3a805c8dcc20d843a0",
      "function": "addApprovedCaller(address)",
      "arguments": [
        "0x96e67D7295A0Bca3E57c7DE9a1A9bF28fd56FFDc"
      ],
      "transaction": {
        "from": "0x05f8cc8753d90d67dbb8c02118440b8283f941c9",
        "to": "0xbc4cbd47e7bf5eec5ede5f3a805c8dcc20d843a0",
        "gas": "0x8de9",
        "value": "0x0",
        "input": "0xab5cb85a00000000000000000000000096e67d7295a0bca3e57c7de9a1a9bf28fd56ffdc",
        "nonce": "0x55",
        "chainId": "0xaa37dc"
      },
      "additionalContracts": [],
      "isFixedGasLimit": false
    },
    {
      "hash": null,
      "transactionType": "CALL",
      "contractName": null,
      "contractAddress": "0xb1b9c30c08c37af935cda3be0e3f124a580cb1a6",
      "function": "setChainDomain(uint32,uint32)",
      "arguments": [
        "84532",
        "6"
      ],
      "transaction": {
        "from": "0x05f8cc8753d90d67dbb8c02118440b8283f941c9",
        "to": "0xb1b9c30c08c37af935cda3be0e3f124a580cb1a6",
        "gas": "0x9630",
        "value": "0x0",
        "input": "0x7ef0d2870000000000000000000000000000000000000000000000000000000000014a340000000000000000000000000000000000000000000000000000000000000006",
        "nonce": "0x56",
        "chainId": "0xaa37dc"
      },
      "additionalContracts": [],
      "isFixedGasLimit": false
    },
    {
      "hash": null,
      "transactionType": "CALL",
      "contractName": null,
      "contractAddress": "0xb1b9c30c08c37af935cda3be0e3f124a580cb1a6",
      "function": "setDestinationReceiver(uint32,bytes32)",
      "arguments": [
        "84532",
        "0x0000000000000000000000008fb0438d0799c52920515b31310f53452c33e066"
      ],
      "transaction": {
        "from": "0x05f8cc8753d90d67dbb8c02118440b8283f941c9",
        "to": "0xb1b9c30c08c37af935cda3be0e3f124a580cb1a6",
        "gas": "0x970f",
        "value": "0x0",
        "input": "0x0267dd6c0000000000000000000000000000000000000000000000000000000000014a340000000000000000000000008fb0438d0799c52920515b31310f53452c33e066",
        "nonce": "0x57",
        "chainId": "0xaa37dc"
      },
      "additionalContracts": [],
      "isFixedGasLimit": false
    },
    {
      "hash": null,
      "transactionType": "CALL",
      "contractName": null,
      "contractAddress": "0xb1b9c30c08c37af935cda3be0e3f124a580cb1a6",
      "function": "setDestinationCaller(uint32,bytes32)",
      "arguments": [
        "84532",
        "0x00000000000000000000000005f8cc8753d90d67dbb8c02118440b8283f941c9"
      ],
      "transaction": {
        "from": "0x05f8cc8753d90d67dbb8c02118440b8283f941c9",
        "to": "0xb1b9c30c08c37af935cda3be0e3f124a580cb1a6",
        "gas": "0x8e3e",
        "value": "0x0",
        "input": "0x00686ed20000000000000000000000000000000000000000000000000000000000014a3400000000000000000000000005f8cc8753d90d67dbb8c02118440b8283f941c9",
        "nonce": "0x58",
        "chainId": "0xaa37dc"
      },
      "additionalContracts": [],
      "isFixedGasLimit": false
    },
    {
      "hash": null,
      "transactionType": "CALL",
      "contractName": null,
      "contractAddress": "0x6a790bf1991d3a53b81bb9316fb3b3e8217c5699",
      "function": "setChainDomain(uint32,uint32)",
      "arguments": [
        "84532",
        "6"
      ],
      "transaction": {
        "from": "0x05f8cc8753d90d67dbb8c02118440b8283f941c9",
        "to": "0x6a790bf1991d3a53b81bb9316fb3b3e8217c5699",
        "gas": "0x8e14",
        "value": "0x0",
        "input": "0x7ef0d2870000000000000000000000000000000000000000000000000000000000014a340000000000000000000000000000000000000000000000000000000000000006",
        "nonce": "0x59",
        "chainId": "0xaa37dc"
      },
      "additionalContracts": [],
      "isFixedGasLimit": false
    },
    {
      "hash": null,
      "transactionType": "CALL",
      "contractName": null,
      "contractAddress": "0x6a790bf1991d3a53b81bb9316fb3b3e8217c5699",
      "function": "setDestinationReceiver(uint32,bytes32)",
      "arguments": [
        "84532",
        "0x0000000000000000000000008fb0438d0799c52920515b31310f53452c33e066"
      ],
      "transaction": {
        "from": "0x05f8cc8753d90d67dbb8c02118440b8283f941c9",
        "to": "0x6a790bf1991d3a53b81bb9316fb3b3e8217c5699",
        "gas": "0x8e8c",
        "value": "0x0",
        "input": "0x0267dd6c0000000000000000000000000000000000000000000000000000000000014a340000000000000000000000008fb0438d0799c52920515b31310f53452c33e066",
        "nonce": "0x5a",
        "chainId": "0xaa37dc"
      },
      "additionalContracts": [],
      "isFixedGasLimit": false
    },
    {
      "hash": null,
      "transactionType": "CALL",
      "contractName": null,
      "contractAddress": "0x6a790bf1991d3a53b81bb9316fb3b3e8217c5699",
      "function": "setDestinationCaller(uint32,bytes32)",
      "arguments": [
        "84532",
        "0x00000000000000000000000005f8cc8753d90d67dbb8c02118440b8283f941c9"
      ],
      "transaction": {
        "from": "0x05f8cc8753d90d67dbb8c02118440b8283f941c9",
        "to": "0x6a790bf1991d3a53b81bb9316fb3b3e8217c5699",
        "gas": "0x8e3e",
        "value": "0x0",
        "input": "0x00686ed20000000000000000000000000000000000000000000000000000000000014a3400000000000000000000000005f8cc8753d90d67dbb8c02118440b8283f941c9",
        "nonce": "0x5b",
        "chainId": "0xaa37dc"
      },
      "additionalContracts": [],
      "isFixedGasLimit": false
    },
    {
      "hash": null,
      "transactionType": "CALL",
      "contractName": null,
      "contractAddress": "0x6a790bf1991d3a53b81bb9316fb3b3e8217c5699",
      "function": "setMaxFeeBpsCap(uint256)",
      "arguments": [
        "100"
      ],
      "transaction": {
        "from": "0x05f8cc8753d90d67dbb8c02118440b8283f941c9",
        "to": "0x6a790bf1991d3a53b81bb9316fb3b3e8217c5699",
        "gas": "0x8bcb",
        "value": "0x0",
        "input": "0x357c4ea70000000000000000000000000000000000000000000000000000000000000064",
        "nonce": "0x5c",
        "chainId": "0xaa37dc"
      },
      "additionalContracts": [],
      "isFixedGasLimit": false
    },
    {
      "hash": null,
      "transactionType": "CALL",
      "contractName": null,
      "contractAddress": "0xa73776c0aae79382d8003b1fc7648b5ab32889d0",
      "function": "setRouteConfig(uint32,string,address,bytes32)",
      "arguments": [
        "84532",
        "base-sepolia",
        "0x5fd1F6DB09C8d64f2230415d8F0f9E87f5462fa3",
        "0x4d2fdc120be87ecf5661b7a75144d5d4b507b525eeb8c9c85c346a255e3b9663"
      ],
      "transaction": {
        "from": "0x05f8cc8753d90d67dbb8c02118440b8283f941c9",
        "to": "0xa73776c0aae79382d8003b1fc7648b5ab32889d0",
        "gas": "0xb09c",
        "value": "0x0",
        "input": "0x7513a82a0000000000000000000000000000000000000000000000000000000000014a3400000000000000000000000000000000000000000000000000000000000000800000000000000000000000005fd1f6db09c8d64f2230415d8f0f9e87f5462fa34d2fdc120be87ecf5661b7a75144d5d4b507b525eeb8c9c85c346a255e3b9663000000000000000000000000000000000000000000000000000000000000000c626173652d7365706f6c69610000000000000000000000000000000000000000",
        "nonce": "0x5d",
        "chainId": "0xaa37dc"
      },
      "additionalContracts": [],
      "isFixedGasLimit": false
    },
    {
      "hash": null,
      "transactionType": "CALL",
      "contractName": null,
      "contractAddress": "0x55cc592be7e49c4020e67a895fee9474c7d71dbc",
      "function": "setRouteConfig(uint32,uint32,address,bytes)",
      "arguments": [
        "84532",
        "40245",
        "0x4e5d1Ff12514cC396aA37757878A02433887EDe0",
        "0x00030100110100000000000000000000000000030d4001001303000000000000000000000000000000061a80"
      ],
      "transaction": {
        "from": "0x05f8cc8753d90d67dbb8c02118440b8283f941c9",
        "to": "0x55cc592be7e49c4020e67a895fee9474c7d71dbc",
        "gas": "0xc941",
        "value": "0x0",
        "input": "0xd5bfb7fa0000000000000000000000000000000000000000000000000000000000014a340000000000000000000000000000000000000000000000000000000000009d350000000000000000000000004e5d1ff12514cc396aa37757878a02433887ede00000000000000000000000000000000000000000000000000000000000000080000000000000000000000000000000000000000000000000000000000000002c00030100110100000000000000000000000000030d4001001303000000000000000000000000000000061a800000000000000000000000000000000000000000",
        "nonce": "0x5e",
        "chainId": "0xaa37dc"
      },
      "additionalContracts": [],
      "isFixedGasLimit": false
    },
    {
      "hash": null,
      "transactionType": "CALL",
      "contractName": null,
      "contractAddress": "0xd8016e376e15b20fc321a37fd69dc42cfdf951bb",
      "function": "setTrustedSourceAddress(string,address,bool)",
      "arguments": [
        "base-sepolia",
        "0xd00e7ce0ac312138dE62610eD950E814e12d3F89",
        "true"
      ],
      "transaction": {
        "from": "0x05f8cc8753d90d67dbb8c02118440b8283f941c9",
        "to": "0xd8016e376e15b20fc321a37fd69dc42cfdf951bb",
        "gas": "0xb3ac",
        "value": "0x0",
        "input": "0x6dc3df1c0000000000000000000000000000000000000000000000000000000000000060000000000000000000000000d00e7ce0ac312138de62610ed950e814e12d3f890000000000000000000000000000000000000000000000000000000000000001000000000000000000000000000000000000000000000000000000000000000c626173652d7365706f6c69610000000000000000000000000000000000000000",
        "nonce": "0x5f",
        "chainId": "0xaa37dc"
      },
      "additionalContracts": [],
      "isFixedGasLimit": false
    },
    {
      "hash": null,
      "transactionType": "CALL",
      "contractName": null,
      "contractAddress": "0xd8016e376e15b20fc321a37fd69dc42cfdf951bb",
      "function": "setTrustedToken(bytes32,address,bool)",
      "arguments": [
        "0x4d2fdc120be87ecf5661b7a75144d5d4b507b525eeb8c9c85c346a255e3b9663",
        "0x2f2A9DbFd8c503a0aC56413B774e39030df85331",
        "true"
      ],
      "transaction": {
        "from": "0x05f8cc8753d90d67dbb8c02118440b8283f941c9",
        "to": "0xd8016e376e15b20fc321a37fd69dc42cfdf951bb",
        "gas": "0x9c14",
        "value": "0x0",
        "input": "0x001089604d2fdc120be87ecf5661b7a75144d5d4b507b525eeb8c9c85c346a255e3b96630000000000000000000000002f2a9dbfd8c503a0ac56413b774e39030df853310000000000000000000000000000000000000000000000000000000000000001",
        "nonce": "0x60",
        "chainId": "0xaa37dc"
      },
      "additionalContracts": [],
      "isFixedGasLimit": false
    },
    {
      "hash": null,
      "transactionType": "CALL",
      "contractName": null,
      "contractAddress": "0x96e67d7295a0bca3e57c7de9a1a9bf28fd56ffdc",
      "function": "setTrustedPeerAddress(uint32,address)",
      "arguments": [
        "40245",
        "0x05C5a9DfF519Bbb26E206d02e90aA9ca5105a327"
      ],
      "transaction": {
        "from": "0x05f8cc8753d90d67dbb8c02118440b8283f941c9",
        "to": "0x96e67d7295a0bca3e57c7de9a1a9bf28fd56ffdc",
        "gas": "0x971a",
        "value": "0x0",
        "input": "0x60c5965f0000000000000000000000000000000000000000000000000000000000009d3500000000000000000000000005c5a9dff519bbb26e206d02e90aa9ca5105a327",
        "nonce": "0x61",
        "chainId": "0xaa37dc"
      },
      "additionalContracts": [],
      "isFixedGasLimit": false
    },
    {
      "hash": null,
      "transactionType": "CALL",
      "contractName": null,
      "contractAddress": "0xc1d9a1f64291cf47e703eab6b27fa0660cae7324",
      "function": "setPeer(uint32,bytes32)",
      "arguments": [
        "40245",
        "0x0000000000000000000000001500116d88b6583e63e2fa9d4199f2eddf72149b"
      ],
      "transaction": {
        "from": "0x05f8cc8753d90d67dbb8c02118440b8283f941c9",
        "to": "0xc1d9a1f64291cf47e703eab6b27fa0660cae7324",
        "gas": "0x1104d",
        "value": "0x0",
        "input": "0x3400288b0000000000000000000000000000000000000000000000000000000000009d350000000000000000000000001500116d88b6583e63e2fa9d4199f2eddf72149b",
        "nonce": "0x62",
        "chainId": "0xaa37dc"
      },
      "additionalContracts": [],
      "isFixedGasLimit": false
    }
  ],
  "receipts": [],
  "libraries": [],
  "pending": [],
  "returns": {},
  "timestamp": 1776771899381,
  "chain": 11155420,
  "commit": "bec0627"
}