{
  "transactions": [
    {
      "hash": null,
      "transactionType": "CALL",
      "contractName": null,
      "contractAddress": "0x8b946b19af78d52865fae2418b93cbc1a0321caa",
      "function": "registerRailPlugin(address)",
      "arguments": [
        "0x4af4869eCaf9E9b204349756971e876f4Bd29204"
      ],
      "transaction": {
        "from": "0x05f8cc8753d90d67dbb8c02118440b8283f941c9",
        "to": "0x8b946b19af78d52865fae2418b93cbc1a0321caa",
        "gas": "0x2846a",
        "value": "0x0",
        "input": "0x172ceb340000000000000000000000004af4869ecaf9e9b204349756971e876f4bd29204",
        "nonce": "0x1f3",
        "chainId": "0x14a34"
      },
      "additionalContracts": [],
      "isFixedGasLimit": false
    },
    {
      "hash": null,
      "transactionType": "CALL",
      "contractName": null,
      "contractAddress": "0x8b946b19af78d52865fae2418b93cbc1a0321caa",
      "function": "registerRailPlugin(address)",
      "arguments": [
        "0x50D2CEdEEeb310C13Aa513A54a3e097E4c9D6F8D"
      ],
      "transaction": {
        "from": "0x05f8cc8753d90d67dbb8c02118440b8283f941c9",
        "to": "0x8b946b19af78d52865fae2418b93cbc1a0321caa",
        "gas": "0x227cb",
        "value": "0x0",
        "input": "0x172ceb3400000000000000000000000050d2cedeeeb310c13aa513a54a3e097e4c9d6f8d",
        "nonce": "0x1f4",
        "chainId": "0x14a34"
      },
      "additionalContracts": [],
      "isFixedGasLimit": false
    },
    {
      "hash": null,
      "transactionType": "CALL",
      "contractName": null,
      "contractAddress": "0x8b946b19af78d52865fae2418b93cbc1a0321caa",
      "function": "registerRailPlugin(address)",
      "arguments": [
        "0x605df42C4Cfc3799569d3bcc0AD820Feea3227d0"
      ],
      "transaction": {
        "from": "0x05f8cc8753d90d67dbb8c02118440b8283f941c9",
        "to": "0x8b946b19af78d52865fae2418b93cbc1a0321caa",
        "gas": "0x226e2",
        "value": "0x0",
        "input": "0x172ceb34000000000000000000000000605df42c4cfc3799569d3bcc0ad820feea3227d0",
        "nonce": "0x1f5",
        "chainId": "0x14a34"
      },
      "additionalContracts": [],
      "isFixedGasLimit": false
    },
    {
      "hash": null,
      "transactionType": "CALL",
      "contractName": null,
      "contractAddress": "0x8b946b19af78d52865fae2418b93cbc1a0321caa",
      "function": "registerRailPlugin(address)",
      "arguments": [
        "0x5389cefC0a8Fd0148F1E512715843012F42aB6Ea"
      ],
      "transaction": {
        "from": "0x05f8cc8753d90d67dbb8c02118440b8283f941c9",
        "to": "0x8b946b19af78d52865fae2418b93cbc1a0321caa",
        "gas": "0x22703",
        "value": "0x0",
        "input": "0x172ceb340000000000000000000000005389cefc0a8fd0148f1e512715843012f42ab6ea",
        "nonce": "0x1f6",
        "chainId": "0x14a34"
      },
      "additionalContracts": [],
      "isFixedGasLimit": false
    },
    {
      "hash": null,
      "transactionType": "CALL",
      "contractName": null,
      "contractAddress": "0xbffcf8b777f360c0e01af37051fdd503e58cf2a2",
      "function": "addApprovedCaller(address)",
      "arguments": [
        "0x055F3838c4d58B2B10eC4D64f39c7286777fB0Ad"
      ],
      "transaction": {
        "from": "0x05f8cc8753d90d67dbb8c02118440b8283f941c9",
        "to": "0xbffcf8b777f360c0e01af37051fdd503e58cf2a2",
        "gas": "0x10813",
        "value": "0x0",
        "input": "0xab5cb85a000000000000000000000000055f3838c4d58b2b10ec4d64f39c7286777fb0ad",
        "nonce": "0x1f7",
        "chainId": "0x14a34"
      },
      "additionalContracts": [],
      "isFixedGasLimit": false
    },
    {
      "hash": null,
      "transactionType": "CALL",
      "contractName": null,
      "contractAddress": "0xbffcf8b777f360c0e01af37051fdd503e58cf2a2",
      "function": "addApprovedCaller(address)",
      "arguments": [
        "0x1E35837f3Fbafeebf5E1ccC28b40e4099cF5Db39"
      ],
      "transaction": {
        "from": "0x05f8cc8753d90d67dbb8c02118440b8283f941c9",
        "to": "0xbffcf8b777f360c0e01af37051fdd503e58cf2a2",
        "gas": "0x10813",
        "value": "0x0",
        "input": "0xab5cb85a0000000000000000000000001e35837f3fbafeebf5e1ccc28b40e4099cf5db39",
        "nonce": "0x1f8",
        "chainId": "0x14a34"
      },
      "additionalContracts": [],
      "isFixedGasLimit": false
    },
    {
      "hash": null,
      "transactionType": "CALL",
      "contractName": null,
      "contractAddress": "0x4af4869ecaf9e9b204349756971e876f4bd29204",
      "function": "setChainDomain(uint32,uint32)",
      "arguments": [
        "11155420",
        "2"
      ],
      "transaction": {
        "from": "0x05f8cc8753d90d67dbb8c02118440b8283f941c9",
        "to": "0x4af4869ecaf9e9b204349756971e876f4bd29204",
        "gas": "0xf9db",
        "value": "0x0",
        "input": "0x7ef0d2870000000000000000000000000000000000000000000000000000000000aa37dc0000000000000000000000000000000000000000000000000000000000000002",
        "nonce": "0x1f9",
        "chainId": "0x14a34"
      },
      "additionalContracts": [],
      "isFixedGasLimit": false
    },
    {
      "hash": null,
      "transactionType": "CALL",
      "contractName": null,
      "contractAddress": "0x4af4869ecaf9e9b204349756971e876f4bd29204",
      "function": "setDestinationReceiver(uint32,bytes32)",
      "arguments": [
        "11155420",
        "0x0000000000000000000000001c2bda495534a45469d08f35d68d95d5132ec5ac"
      ],
      "transaction": {
        "from": "0x05f8cc8753d90d67dbb8c02118440b8283f941c9",
        "to": "0x4af4869ecaf9e9b204349756971e876f4bd29204",
        "gas": "0x107d9",
        "value": "0x0",
        "input": "0x0267dd6c0000000000000000000000000000000000000000000000000000000000aa37dc0000000000000000000000001c2bda495534a45469d08f35d68d95d5132ec5ac",
        "nonce": "0x1fa",
        "chainId": "0x14a34"
      },
      "additionalContracts": [],
      "isFixedGasLimit": false
    },
    {
      "hash": null,
      "transactionType": "CALL",
      "contractName": null,
      "contractAddress": "0x4af4869ecaf9e9b204349756971e876f4bd29204",
      "function": "setDestinationCaller(uint32,bytes32)",
      "arguments": [
        "11155420",
        "0x00000000000000000000000005f8cc8753d90d67dbb8c02118440b8283f941c9"
      ],
      "transaction": {
        "from": "0x05f8cc8753d90d67dbb8c02118440b8283f941c9",
        "to": "0x4af4869ecaf9e9b204349756971e876f4bd29204",
        "gas": "0x10767",
        "value": "0x0",
        "input": "0x00686ed20000000000000000000000000000000000000000000000000000000000aa37dc00000000000000000000000005f8cc8753d90d67dbb8c02118440b8283f941c9",
        "nonce": "0x1fb",
        "chainId": "0x14a34"
      },
      "additionalContracts": [],
      "isFixedGasLimit": false
    },
    {
      "hash": null,
      "transactionType": "CALL",
      "contractName": null,
      "contractAddress": "0x50d2cedeeeb310c13aa513a54a3e097e4c9d6f8d",
      "function": "setChainDomain(uint32,uint32)",
      "arguments": [
        "11155420",
        "2"
      ],
      "transaction": {
        "from": "0x05f8cc8753d90d67dbb8c02118440b8283f941c9",
        "to": "0x50d2cedeeeb310c13aa513a54a3e097e4c9d6f8d",
        "gas": "0xf9bc",
        "value": "0x0",
        "input": "0x7ef0d2870000000000000000000000000000000000000000000000000000000000aa37dc0000000000000000000000000000000000000000000000000000000000000002",
        "nonce": "0x1fc",
        "chainId": "0x14a34"
      },
      "additionalContracts": [],
      "isFixedGasLimit": false
    },
    {
      "hash": null,
      "transactionType": "CALL",
      "contractName": null,
      "contractAddress": "0x50d2cedeeeb310c13aa513a54a3e097e4c9d6f8d",
      "function": "setDestinationReceiver(uint32,bytes32)",
      "arguments": [
        "11155420",
        "0x0000000000000000000000001c2bda495534a45469d08f35d68d95d5132ec5ac"
      ],
      "transaction": {
        "from": "0x05f8cc8753d90d67dbb8c02118440b8283f941c9",
        "to": "0x50d2cedeeeb310c13aa513a54a3e097e4c9d6f8d",
        "gas": "0x107b8",
        "value": "0x0",
        "input": "0x0267dd6c0000000000000000000000000000000000000000000000000000000000aa37dc0000000000000000000000001c2bda495534a45469d08f35d68d95d5132ec5ac",
        "nonce": "0x1fd",
        "chainId": "0x14a34"
      },
      "additionalContracts": [],
      "isFixedGasLimit": false
    },
    {
      "hash": null,
      "transactionType": "CALL",
      "contractName": null,
      "contractAddress": "0x50d2cedeeeb310c13aa513a54a3e097e4c9d6f8d",
      "function": "setDestinationCaller(uint32,bytes32)",
      "arguments": [
        "11155420",
        "0x00000000000000000000000005f8cc8753d90d67dbb8c02118440b8283f941c9"
      ],
      "transaction": {
        "from": "0x05f8cc8753d90d67dbb8c02118440b8283f941c9",
        "to": "0x50d2cedeeeb310c13aa513a54a3e097e4c9d6f8d",
        "gas": "0x10767",
        "value": "0x0",
        "input": "0x00686ed20000000000000000000000000000000000000000000000000000000000aa37dc00000000000000000000000005f8cc8753d90d67dbb8c02118440b8283f941c9",
        "nonce": "0x1fe",
        "chainId": "0x14a34"
      },
      "additionalContracts": [],
      "isFixedGasLimit": false
    },
    {
      "hash": null,
      "transactionType": "CALL",
      "contractName": null,
      "contractAddress": "0x50d2cedeeeb310c13aa513a54a3e097e4c9d6f8d",
      "function": "setMaxFeeBpsCap(uint256)",
      "arguments": [
        "100"
      ],
      "transaction": {
        "from": "0x05f8cc8753d90d67dbb8c02118440b8283f941c9",
        "to": "0x50d2cedeeeb310c13aa513a54a3e097e4c9d6f8d",
        "gas": "0x8b92",
        "value": "0x0",
        "input": "0x357c4ea70000000000000000000000000000000000000000000000000000000000000064",
        "nonce": "0x1ff",
        "chainId": "0x14a34"
      },
      "additionalContracts": [],
      "isFixedGasLimit": false
    },
    {
      "hash": null,
      "transactionType": "CALL",
      "contractName": null,
      "contractAddress": "0x605df42c4cfc3799569d3bcc0ad820feea3227d0",
      "function": "setChainConfig(uint32,string,address)",
      "arguments": [
        "11155420",
        "optimism-sepolia",
        "0xC827913F0556a74BF9589d7ba7434cfE1Be2a62b"
      ],
      "transaction": {
        "from": "0x05f8cc8753d90d67dbb8c02118440b8283f941c9",
        "to": "0x605df42c4cfc3799569d3bcc0ad820feea3227d0",
        "gas": "0x26c3e",
        "value": "0x0",
        "input": "0x87aadd5e0000000000000000000000000000000000000000000000000000000000aa37dc0000000000000000000000000000000000000000000000000000000000000060000000000000000000000000c827913f0556a74bf9589d7ba7434cfe1be2a62b00000000000000000000000000000000000000000000000000000000000000106f7074696d69736d2d7365706f6c696100000000000000000000000000000000",
        "nonce": "0x200",
        "chainId": "0x14a34"
      },
      "additionalContracts": [],
      "isFixedGasLimit": false
    },
    {
      "hash": null,
      "transactionType": "CALL",
      "contractName": null,
      "contractAddress": "0x5389cefc0a8fd0148f1e512715843012f42ab6ea",
      "function": "setFamilyRouteConfig(uint32,uint8,uint32,address,bytes)",
      "arguments": [
        "11155420",
        "2",
        "40232",
        "0x7F5713bcF5198a1D1045DDd79d2952317FE3846E",
        "0x00030100110100000000000000000000000000030d4001001303000000000000000000000000000000061a80"
      ],
      "transaction": {
        "from": "0x05f8cc8753d90d67dbb8c02118440b8283f941c9",
        "to": "0x5389cefc0a8fd0148f1e512715843012f42ab6ea",
        "gas": "0x50d5c",
        "value": "0x0",
        "input": "0x1eb54fa00000000000000000000000000000000000000000000000000000000000aa37dc00000000000000000000000000000000000000000000000000000000000000020000000000000000000000000000000000000000000000000000000000009d280000000000000000000000007f5713bcf5198a1d1045ddd79d2952317fe3846e00000000000000000000000000000000000000000000000000000000000000a0000000000000000000000000000000000000000000000000000000000000002c00030100110100000000000000000000000000030d4001001303000000000000000000000000000000061a800000000000000000000000000000000000000000",
        "nonce": "0x201",
        "chainId": "0x14a34"
      },
      "additionalContracts": [],
      "isFixedGasLimit": false
    },
    {
      "hash": null,
      "transactionType": "CALL",
      "contractName": null,
      "contractAddress": "0x055f3838c4d58b2b10ec4d64f39c7286777fb0ad",
      "function": "setTrustedSourceAddress(string,address,bool)",
      "arguments": [
        "optimism-sepolia",
        "0x21e1a9261a7E1050D34Db82BB67dEa80c5D4c0bC",
        "true"
      ],
      "transaction": {
        "from": "0x05f8cc8753d90d67dbb8c02118440b8283f941c9",
        "to": "0x055f3838c4d58b2b10ec4d64f39c7286777fb0ad",
        "gas": "0x124bd",
        "value": "0x0",
        "input": "0x6dc3df1c000000000000000000000000000000000000000000000000000000000000006000000000000000000000000021e1a9261a7e1050d34db82bb67dea80c5d4c0bc000000000000000000000000000000000000000000000000000000000000000100000000000000000000000000000000000000000000000000000000000000106f7074696d69736d2d7365706f6c696100000000000000000000000000000000",
        "nonce": "0x202",
        "chainId": "0x14a34"
      },
      "additionalContracts": [],
      "isFixedGasLimit": false
    },
    {
      "hash": null,
      "transactionType": "CALL",
      "contractName": null,
      "contractAddress": "0x055f3838c4d58b2b10ec4d64f39c7286777fb0ad",
      "function": "setTrustedToken(bytes32,address,bool)",
      "arguments": [
        "0x4d2fdc120be87ecf5661b7a75144d5d4b507b525eeb8c9c85c346a255e3b9663",
        "0x2f2A9DbFd8c503a0aC56413B774e39030df85331",
        "true"
      ],
      "transaction": {
        "from": "0x05f8cc8753d90d67dbb8c02118440b8283f941c9",
        "to": "0x055f3838c4d58b2b10ec4d64f39c7286777fb0ad",
        "gas": "0x115d5",
        "value": "0x0",
        "input": "0x001089604d2fdc120be87ecf5661b7a75144d5d4b507b525eeb8c9c85c346a255e3b96630000000000000000000000002f2a9dbfd8c503a0ac56413b774e39030df853310000000000000000000000000000000000000000000000000000000000000001",
        "nonce": "0x203",
        "chainId": "0x14a34"
      },
      "additionalContracts": [],
      "isFixedGasLimit": false
    },
    {
      "hash": null,
      "transactionType": "CALL",
      "contractName": null,
      "contractAddress": "0x1e35837f3fbafeebf5e1ccc28b40e4099cf5db39",
      "function": "setTrustedPeerAddress(uint32,address)",
      "arguments": [
        "40232",
        "0x7F76c13d61AB4F9F7902c255A52a1Dae6c434afB"
      ],
      "transaction": {
        "from": "0x05f8cc8753d90d67dbb8c02118440b8283f941c9",
        "to": "0x1e35837f3fbafeebf5e1ccc28b40e4099cf5db39",
        "gas": "0x101ed",
        "value": "0x0",
        "input": "0x60c5965f0000000000000000000000000000000000000000000000000000000000009d280000000000000000000000007f76c13d61ab4f9f7902c255a52a1dae6c434afb",
        "nonce": "0x204",
        "chainId": "0x14a34"
      },
      "additionalContracts": [],
      "isFixedGasLimit": false
    },
    {
      "hash": null,
      "transactionType": "CALL",
      "contractName": null,
      "contractAddress": "0x1e35837f3fbafeebf5e1ccc28b40e4099cf5db39",
      "function": "setSettlementToken(bytes32,address)",
      "arguments": [
        "0xd8364a952b144064fb3e5685a24c59ac2c26938583da19c951e02bcc2a42f1e7",
        "0x1500116D88B6583E63E2Fa9D4199f2edDf72149b"
      ],
      "transaction": {
        "from": "0x05f8cc8753d90d67dbb8c02118440b8283f941c9",
        "to": "0x1e35837f3fbafeebf5e1ccc28b40e4099cf5db39",
        "gas": "0x1138d",
        "value": "0x0",
        "input": "0x7f7c7732d8364a952b144064fb3e5685a24c59ac2c26938583da19c951e02bcc2a42f1e70000000000000000000000001500116d88b6583e63e2fa9d4199f2eddf72149b",
        "nonce": "0x205",
        "chainId": "0x14a34"
      },
      "additionalContracts": [],
      "isFixedGasLimit": false
    },
    {
      "hash": null,
      "transactionType": "CALL",
      "contractName": null,
      "contractAddress": "0x1e35837f3fbafeebf5e1ccc28b40e4099cf5db39",
      "function": "setExpectedComposeSender(uint32,bytes32,address)",
      "arguments": [
        "40232",
        "0xd8364a952b144064fb3e5685a24c59ac2c26938583da19c951e02bcc2a42f1e7",
        "0xC1d9A1f64291CF47e703eab6b27fA0660cAE7324"
      ],
      "transaction": {
        "from": "0x05f8cc8753d90d67dbb8c02118440b8283f941c9",
        "to": "0x1e35837f3fbafeebf5e1ccc28b40e4099cf5db39",
        "gas": "0x107cb",
        "value": "0x0",
        "input": "0xbd0e403a0000000000000000000000000000000000000000000000000000000000009d28d8364a952b144064fb3e5685a24c59ac2c26938583da19c951e02bcc2a42f1e7000000000000000000000000c1d9a1f64291cf47e703eab6b27fa0660cae7324",
        "nonce": "0x206",
        "chainId": "0x14a34"
      },
      "additionalContracts": [],
      "isFixedGasLimit": false
    },
    {
      "hash": null,
      "transactionType": "CALL",
      "contractName": null,
      "contractAddress": "0x1500116d88b6583e63e2fa9d4199f2eddf72149b",
      "function": "setPeer(uint32,bytes32)",
      "arguments": [
        "40232",
        "0x000000000000000000000000c1d9a1f64291cf47e703eab6b27fa0660cae7324"
      ],
      "transaction": {
        "from": "0x05f8cc8753d90d67dbb8c02118440b8283f941c9",
        "to": "0x1500116d88b6583e63e2fa9d4199f2eddf72149b",
        "gas": "0x9eaf",
        "value": "0x0",
        "input": "0x3400288b0000000000000000000000000000000000000000000000000000000000009d28000000000000000000000000c1d9a1f64291cf47e703eab6b27fa0660cae7324",
        "nonce": "0x207",
        "chainId": "0x14a34"
      },
      "additionalContracts": [],
      "isFixedGasLimit": false
    }
  ],
  "receipts": [],
  "libraries": [],
  "pending": [],
  "returns": {},
  "timestamp": 1777393467231,
  "chain": 84532,
  "commit": "56ad3ef"
}